:100000000DEF04F026EF00F004EF0AF0D1EC04F05D
:10001000FF0000F000F012000CEF0AF018EF00F003
:10003000F26AFC6A9BEC04F004009EEC09F0D8EC38
:1000400003F0F3EC03F05EEC08F0F6D701501F0B61
:10005000E80601E01200055001E01200060E021849
:1000600014E01AD0020E3D6E4A0E3FD8306A090ED7
:100070000AD0020E3D6E450402E1870E36D84504D3
:100080000AE1306A1D0E2F6E06D00450210AEAE004
:10009000030AEFE0010A42820138E832030BE80666
:1000A00014E01200020E3D6E440E206E24D0020EAB
:1000B0003D6E04C044F0020C020E3D6E430EF5D7B7
:1000C000020E3D6E03C043F0020C0250010AD8B488
:1000D0001200030AE7E0010AEFE00A0AD8B41200AE
:1000E000030AE5E0010AECE01200206E2050D8A4DB
:1000F000100E216E1200216A4292010E2F6E010C29
:100100004F6A140E506E516A296A2A6A4FC0F6FF70
:1001100050C0F7FF51C0F8FF42D80800F5CFDFFF0D
:100120004F2A000E50225122294A2A2A040E2A5C04
:10013000EDE30D0EE8CFB2F4600EE8CFB3F4000E9D
:10014000496E050E486E0AEC03F04F68170E506EAC
:10015000516A030E2A6E296851C0F8FF50C0F7FF9C
:100160004FC0F6FF1CD8DF50F56E0C0029C04EF0D2
:100170003F0E4E1607E1FEEC09F0040EA66EB50E1A
:1001800067EC04F04F06000E505A515A0A002950ED
:100190002A1001E112002906D8A02A06DDD7AC0EEC
:1001A0002924D96E040E2A20DA6E120003040BE112
:1001B00001501F0B08E1010E3D6E030E021802E113
:1001C000428001D042900350D8A4120001501F0B6E
:1001D000020AD8A4120005500F0BD8B4120028D878
:1001E000476A040E486E4726000E4822F350472601
:1001F000F450482223D847241D6EF45048201E6E28
:10020000030E021805E10FD8040EDF6E0CD81CD0C7
:1002100005AE04D008D8400EDF6E400C04D8080E9E
:10022000DF6E01D811D01DC0D9FF1EC0DAFF120049
:10023000010E3D6E05500F0B080D1200010E05AEAC
:10024000000E040DF3501200000EDB8E000C3D502A
:1002500010E193EC03F0196E3A0405E1010E32EC63
:1002600003F03A6A1200000E32EC03F0010E3A6E0F
:10027000010C01AE1BD0010E3E6E2F50075C3050BA
:10028000085804E207C02FF008C030F076EC01F007
:10029000480E196E010E32EC03F0000E32EC03F042
:1002A000240E04010A6F040E0B6F1CD0020E3E6E6A
:1002B000040E196E0750081002E1480E196E3A0438
:1002C00005E1010E32EC03F03A6A05D0000E32EC83
:1002D00003F0010E3A6E07500810D8A41200040172
:1002E000096B00D0480E086F088F480C080E326E5C
:1002F00030500DE1080E2F5C0AE22FC032F0405062
:1003000002E1010E03D0400402E1020E406E32C051
:1003100009F432502F5E000E305A240E1D6E040E6A
:100320001E6E42A21AD00BD01BD813EC01F00F0E98
:10033000F76403D00800F55001D019D81ED8325008
:10034000F3E112000DD813EC01F00F0EF76403D0A7
:100350000800F55001D00BD810D83250F3E112004C
:1003600020C0F6FF21C0F7FF000EF86E1200F6CF96
:10037000E1FFF7CFE2FFE7501200DF6E1D4A1E2AB1
:10038000204A212A320612000138E832030B18E015
:100390001200010E3D6E040E416E040C010E3D6E06
:1003A000450E206E7BEF00F02CD8496E49C020F03E
:1003B0007BEF00F026D8D96EDA6A03C0DFFF1200A7
:1003C000025002E179EF02F0010A02E1D6EF00F0FB
:1003D000020A02E1D6EF00F0060ADBE0030A02E1BE
:1003E00006EF02F0010AD8B412000F0AD7E0010AA2
:1003F00002E155EF03F0030AD7E0010ADBE0070A48
:100400001200010E3D6E0550460F1200800E0118BD
:1004100030E01200010E3D6EA40E75EC00F0120EDD
:1004200009D003502DE1010E3D6E380E75EC00F041
:10043000306A290E2F6E24D0010E3D6E0350010F3D
:10044000476E47C0F6FF100EF76E000EF86E0900FB
:10045000F5CF20F0100E216EB0EC01F00F0EF76416
:1004600003D00800F55002D0B7EC01F02F6E306ACF
:1004700007D00450010ACEE0030AD3E0010ADCE011
:1004800042821200366A27D03850486E000E48BEAD
:10049000FF0E496E4A6E4B6E4850155C0D6E49500A
:1004A00016580E6E4A5017580F6E4B501858106E53
:1004B0000FC0F8FF0EC0F7FF0DC0F6FF11D80D00FA
:1004C000362A0ED80C00362A240EA66EB50E67EC1E
:1004D00004F0FE0E38263850800A7F0FD5E2120055
:1004E000AC0E3624D96EDA6A040EDA22DF50F56ECD
:1004F0001200246B256B22D0010E3D6E42B0248386
:1005000024D0010E3D6E21D018EC01F0476A040E94
:10051000486E4726000E4822F3504726F4504822E2
:100520001EEC01F047241D6EF45048201E6E13ECA3
:1005300001F0DFA40AD0010E246F07D001501F0B79
:10054000DBE0010ADEE0030ADFE03D04D8A412008C
:10055000240E206E040E216E4292020E2F6E020CAB
:10056000400E486401D0486E4A6A0DD047504A2474
:10057000D96EDA6A6C0E4A24E16EE26A040EE22257
:10058000DFCFE7FF4A2A48504A5CF0E348C011F445
:10059000400E0401101710BD03D0496A492A01D04A
:1005A000496A493A49464946040110514918BF0B66
:1005B0004918106F1087108F12003F6A0CBF12008D
:1005C00048500D5D02E20DC448F03F6A0BD02C0E7E
:1005D0003F24D96EDA6A040EDA2247503F24F9EC40
:1005E00009F03F2A48503F5CF2E3400E0D6F0C17B4
:1005F0000CBD03D0496A492A01D0496A493A4946A3
:10060000494604010C514918BF0B49180C6F0C875F
:100610000C8F1200495006E1050E485C03E2496A5E
:10062000050E486E48504A6E49504B6E4C6A4D6AF2
:100630000A0ED8904A364B364C364D36E82EF9D74E
:100640004AC009F04BC00AF04CC00BF04DC00CF092
:100650000BC0F8FF0AC0F7FFF66A140EA66EB50EBF
:1006600067EF04F0476E080E1A6E1C0E1B6E040E28
:100670001C6E475006E1140E1B6E040E1C6E256A9C
:1006800002D0040E256E266E0BD819C0DEFF1AC0EC
:10069000DEFF1BC0DEFF1CC0DEFF02D8DF8E1200B3
:1006A00025C0D9FF26C0DAFF1200010E3D6E0F01F2
:1006B00016D8346A3450460FD96EDA6ADF6A342AA3
:1006C0003450F8E003C045F04550C9EC04F0035045
:1006D00003E1050E416E050C060E416E060C4D6BD6
:1006E0004E6B4F6B506B516B526B536B1200040E81
:1006F000411808E103C05EFF0F015E51050ED8B43A
:10070000030E416E3E04D8A4120076EC01F0020EF6
:10071000401802E108D8040C0401480E08BD080E78
:10072000086F088F1200040E0401086F088F040C74
:10073000030E416E0F015D6B626A7B0E5C6F5E6B38
:100740006FEC03F0160E4C6F658C03D06296FEECD6
:1007500009F062B6FBD7659C6598040E196E000E11
:1007600032EC03F0010E3A6E426A456A000EC9EFA0
:1007700004F081B818EC00F0060EF66E14D80D0ED9
:10078000F5180DE10900600EF51809E1F66A0BD8BD
:10079000F52803E10900F52802E000EF0AF018EC63
:1007A00000F000EF00F0140EF76EF86A0900140C68
:1007B0002306D8A0240623502410D8A412004E0EDD
:1007C000246E236A060E416002D08B80060C8BB02B
:1007D00003D0476A472A01D0476A8B504718FE0B5F
:1007E00047188B6E1200C0BC1200030ED36E6592C8
:1007F0006596F26A0ED808D0C0AC04D02D06D8A0F9
:100800002E0601D006D804002D502E10F5E1FF0071
:100810001200040E2E6E2D6A040C04EEACF014EEE1
:1008200000F0EE6AE550E150FCE1E250FAE100EE42
:1008300060F0820EEE6AE806FDE100EE01F0460E81
:10084000EE6AE806FDE10001B9EF03F00401086B70
:10085000406A00AF02D0006B3A6A04AF03D0046B69
:10086000010E3A6E3E6A3D6A2F6A306A6598C4ECA2
:1008700001F002EC00F027EF01F005D80AD8376A42
:100880000CD8386A12007E0E3B6E116AFC0E126E96
:10089000FC0C010E136E146A000C156816681768BC
:1008A000186812003F6A1E0E0F014D6F400E0401C2
:1008B0000D6F2C0E0E6F040E0F6F080E0C6F0C8F49
:1008C0006C0E126F040E136F400E106F400C476ECB
:1008D000F29EF3EC03F0B50E471804E0030ED36E5E
:1008E0000300FED7550EA76EAA0EA76EA682A6B26B
:1008F000FED7A69412005CCF35F0040E0F015C6F9A
:1009000062986582A198A088AAEC04F0A09835505E
:100910000F015C131200390402E1D1EC04F0656AA6
:10092000150E0F015F6F5C6B658698EC03F0010E8E
:10093000416E396A1200600ED36E9B8CDCEC04F0C1
:10094000BFEC04F0C16AC26A3DEC04F08B90949055
:10095000E7EF04F08B90D3CF31F00300A1B802D0C1
:10096000D0A6FBD731C0D3FF1200D9EC04F06592BA
:100970000F015C9501D0629462A41200FCD705D0EF
:10098000FEEC09F04706D8A0480647504810F8E1A9
:100990001200476E4704D8A4120052EC04F03DEF59
:1009A00004F06592656A48684768BFEC04F0416AE4
:1009B000120002D8BFEF04F0030E486E476A030C22
:1009C000390401E1120065A68BEC04F0120065B653
:0E09D000D1EC04F0396AE0EF04F012001200DE
:1010000000B6046134034D006900630072006F0094
:1010100063006800690070002000540065006300F0
:1010200068006E006F006C006F00670079002000A0
:1010300049006E0063002E000902290001010080B2
:10104000320904000002030000000921110100011F
:10105000221D000705810340000107050103400030
:101060000126034800490044002000550053004277
:1010700000200042006F006F0074006C006F006180
:10108000006400650072000600FF0901A10119015A
:101090002940150026FF0075089540810019012997
:1010A000409100C01201000200000008D8043C007A
:0B10B00001010102000104030904001B
:1010BC00060E4118D8B465B21200375001E017D1B2
:1010CC0004010CBF1200600E476E400E486EDDEC42
:1010DC0002F0010E376E276A286A2750A10FD96ECD
:1010EC00DA6A000EDF6E274A282A285005E1400EE6
:1010FC00275CD8B01200F1D71200020EA16F3A0E85
:10110C00A26F010EA36FA46FA56B140EA66FA76B35
:10111C00A86B000E1124A96FEC0E1220AA6FFF0E03
:10112C001320AB6FFF0E1420AC6F030EAD6FF80ED7
:10113C00AE6FAF69010EB06FB16B080EB26FB36BCF
:10114C00B46BB56BB669A50EDA6F040110BFA50CB4
:10115C00A10E476E400E486EB0EC02F0376A1200DA
:10116C00615106E17F0E3B6EF80E116E126802D0D3
:10117C0043EC04F049EC04F0F1D7286A050E276E15
:10118C000CD0FEEC09F027C048F028C049F00AEC5E
:10119C0003F09EEC09F0274A282A3B50526E536A02
:1011AC00522A000E53225250275C53502858D6E234
:1011BC00E8D715280EE116280CE117280AE11828A3
:1011CC0008E161C015F062C016F063C017F064C08E
:1011DC0018F015506119C2E116506219BFE1175091
:1011EC006319BCE118506419B9E1276A286A1AD04E
:1011FC006551A0082724D96EDA6AAC0E3824E16E4A
:10120C00E26A040EE222DFCFE7FF382A152A000E2D
:10121C001622172218223A0E381802E142EC02F07C
:10122C00274A282A00017CD899E2E2D742EC02F046
:10123C004DEC04F093D7070EA16F61C0A2F062C011
:10124C00A3F063C0A4F064C0A5F065C0A6F063C0B1
:10125C00F8FF62C0F7FF61C0F6FF276A286A0BD05F
:10126C00090000016551E1082724D96EDA6AF5CF2F
:10127C00DFFF274A282A54D8F3E3040110BF1200D9
:10128C0067D780EC00F06AD70C0EA16F010EA36F2C
:10129C00020EA26F160EF66ED3EC03F0F5CFA4F08F
:1012AC000A00F5CFA5F0060EA66F140EA76FA86B5B
:1012BC00A96B600EAB6F0D0EAA6FAC6B040EAD6F0D
:1012CC00000EAE6BAF6BB069B169B269B369B4694A
:1012DC00B569B669B769B86BB96BBA6BBB6BBC6BEC
:1012EC00BD6BBE6BBF6BC9D706EC00F037D70001E6
:1012FC006051020A01E101D7010A01E131D7070A65
:10130C0001E13BD7010A01E154D7030A8FE0010A3E
:10131C0092E00F0AE9E0010AB4E0050AB5E01ED735
:10132C006551526E536A5250275C53502858120024
:10133C00E0EC04F0415001E1120062B4B5EC04F0B1
:10134C0065B2120062B098EC03F062B87BEC04F06A
:10135C00030E416001D0030C3C6A62A6120064507B
:10136C0064CF4AF07C0E4A162AE164B203D02B6A91
:10137C00040E02D0040E2B6E2C6E62962BC0D9FF7D
:10138C002CC0DAFFDF30E8320F0B0D0A20E1336A94
:10139C0023D8DECF4AF0DDCF4BF04AC0D9FF4BC08B
:1013AC00DAFF3350010F1FD817D8DE2A000EDD22CA
:1013BC00332A070E3364ECD726EC04F008D0040E65
:1013CC00641804E1629677EC03F001D062963C2A33
:1013DC00030E3C64C2D7030C20EE02F02B50D9262E
:1013EC002C50DA221200E16EE26ADFCFE7FF120026
:0413FC0004001200D7
:1014000055EF0AF012000D605182FACF17F0FBCFB2
:1014100018F0E9CF19F0EACF1AF0E1CF1BF0E2CFD4
:101420001CF0D9CF1DF0DACF1EF0F3CF1FF0F4CFB0
:1014300020F0F6CF21F0F7CF22F0F8CF23F0F5CF50
:1014400024F051C025F052C026F053C027F054C0FC
:1014500028F0F292F2B4F2AA02D054ECC4F028C000
:1014600054F027C053F026C052F025C051F024C0DC
:10147000F5FF23C0F8FF22C0F7FF21C0F6FF20C010
:10148000F4FF1FC0F3FF1EC0DAFF1DC0D9FF1CC050
:10149000E2FF1BC0E1FF1AC0EAFF19C0E9FF18C054
:0E14A000FBFF17C0FAFF51921100E9EFB7F001
:10FB540000001180002C0100B102003500360000C5
:10FB6400B202003500360000B30200350036000250
:10FB7400003500360000B4000000C0A2000200847A
:10FB84000000C1C50000C20D00000000C38D002AA2
:10FB94000000C48D00EE0000C50A000036C8000055
:10FBA400E012001C001000180033002C002500286F
:10FBB40000280027002F003C000000030003001071
:10FBC400008000780000E112001C00100018002DD5
:10FBD40000280023002800280026002F003B0000F6
:10FBE40000030003001000003A0500002A00000290
:10FBF4000000008100002B000003000000A20000B0
:10FC040029002C020004000800100020004000809D
:10FC140000000100010200010001000202000003D3
:10FC240003030001000A006400E803102700010335
:10FC3400070F1F3F7FFF00020103010410000000B3
:10FC4400000000005F00000007000700147F147F1D
:10FC540014242A7F2A122313086462364955225039
:10FC64000005030000001C2241000041221C000882
:10FC74002A1C2A0808083E0808005030000008081A
:10FC8400080808006060000020100804023E514982
:10FC9400453E00427F400042615149462141454B67
:10FCA400311814127F1027454545393C4A494930DB
:10FCB40001710905033649494936064949291E0097
:10FCC4003636000000563600000008142241141491
:10FCD400141414412214080002015109063249790E
:10FCE400413E7E1111117E7F494949363E414141D1
:10FCF400227F4141221C7F494949417F0909010171
:10FD04003E414151327F0808087F00417F41002075
:10FD140040413F017F081422417F404040407F0220
:10FD240004027F7F0408107F3E4141413E7F090960
:10FD340009063E4151215E7F091929464649494930
:10FD44003101017F01013F4040403F1F2040201FFF
:10FD54007F2018207F63140814630304780403616C
:10FD64005149454300007F414102040810204141AC
:10FD74007F000004020102044040404040000102B0
:10FD8400040020545454787F48444438384444444C
:10FD940020384444487F3854545418087E090102DA
:10FDA400081454543C7F0804047800447D40002027
:10FDB40040443D00007F10284400417F40007C0403
:10FDC4001804787C0804047838444444387C1414B7
:10FDD4001408081414187C7C080404084854545467
:10FDE40020043F4440203C4040207C1C2040201CF8
:10FDF4003C4030403C44281028440C5050503C4473
:10FE040064544C44000836410000007F0000004167
:10FE140036080008082A1C08081C2A080800008064
:10FE24003F1872313FF0FD753E4758633D58951DAC
:10FE34003C82C4AE3AA8782139EF938037A092A7C8
:10FE4400354656153400000000C4FF7F3F80EFFFA5
:10FE5400BE90E1A93EEC8276BE82AD2B3E0E3CC341
:10FE6400BD87D1133D4178D3BB00FCFF0F0000FFD9
:10FE7400FFF0FF00FFFF00436F756C64206E6F742A
:10FE840020726574726965766520646174612C20E2
:10FE9400537461636B20697320656D7074792E0AE5
:10FEA40000436F756C64206E6F7420696E736572A5
:10FEB4007420646174612C20537461636B206973D2
:10FEC4002066756C6C2E0A000A54686520436C6FBA
:10FED400736573206F626A65637420286D6D293AB7
:10FEE400202564000A53746570732054726176652A
:10FEF4006C6C65643A202564200A0A000A53746510
:10FF040070732054726176656C6C65643A20256464
:10FF140000537465707065642033363020646567FF
:10FF2400726565730053656E736F72204D6F7669E9
:10FF34006E67212020200A000A476F696E672062DD
:10FF440061636B20746F3A202564000A20466F7544
:10FF54006E6420466C61673A202564007265763AC7
:10FF64002564205461723A2025640A00526F626F3E
:10FF74007420526561647921200A0A0057414C4C6F
:10FF840020464F554E440A00583D25642C20593DC7
:10FF940025640A006E6F206F7074696F6E730A00B7
:10FFA4000A4E4F5448494E47212121000A414443F7
:10FFB4003A202564200A0A00476F696E6720486F5B
:10FFC4006D65000A5374657073202564000A20204F
:10FFD40020202020200A000A466C61672025640046
:10FFE400484F4D45212121400076633A2025640A7B
:0CFFF4000026262626260A0025630000B1
:020000040001F9
:10000000000E0001696F000E686F000E6D6F000E2C
:100010006C6F000E6F6F000E6E6F000E6B6F000E38
:100020006A6F6BBF06D06B5114E1140E6A5DD8B0D5
:1000300010D0D8906A35D96E6B35DA6E000ED9269D
:10004000020EDA22040EDE6E000EDD6E6A4B6B2BA2
:10005000E8D7000E6D6F000E6C6F6DBF06D06D514E
:1000600070E1040E6C5DD8B06CD0000E6F6F000EA6
:100070006E6F6FBF06D06F515DE1050E6E5DD8B03B
:1000800059D06CC060F06DC061F0000E636F320E2D
:10009000626F40ECC4F0000E0001666F030E676FE4
:1000A00060516627615167236EC060F06FC061F0D8
:1000B000000E636F0A0E626F40ECC4F000016051E5
:1000C0006625D96E61516721DA6E68C0DEFF69C0AE
:1000D000DDFF6CC060F06DC061F0000E636F320E2A
:1000E000626F40ECC4F0000E0001666F030E676F94
:1000F00060516627615167236EC060F06FC061F088
:10010000000E636F0A0E626F40ECC4F00001605194
:10011000662761516723020E6625D96E000E67219E
:10012000DA6E000EDE6E000EDD6E684B692B6E4BD4
:100130006F2B9FD76C4B6D2B6DBF97D76D5101E126
:1001400090D7000E6D6F000E6C6F000E6F6F000E7B
:100150006E6F000E01013D6F030E3C6F000E3B6F92
:10016000010E3A6F6CC060F06DC061F0000E0001CE
:10017000636F320E626F40ECC4F0000E0001666FD8
:10018000030E676F60516627615167236EC060F090
:100190006FC061F0000E636F0A0E626F40ECC4F036
:1001A00000016051662761516723040E6625D96EF0
:1001B000000E6721DA6E010EDF6E6CC060F06DC05C
:1001C00061F0000E636F320E626F40ECC4F0000EFF
:1001D0000001666F030E676F6051662761516723E8
:1001E0006EC060F06FC061F0000E636F0A0E626F48
:1001F00040ECC4F000016051662761516723050E91
:100200006625D96E000E6721DA6E000EDF6E6CC0B7
:1002100060F06DC061F0000E636F320E626F40ECF3
:10022000C4F0000E0001666F030E676F6051662711
:10023000615167236EC060F06FC061F0000E636FA4
:100240000A0E626F40ECC4F00001605166276151F4
:100250006723060E6625D96E000E6721DA6E000E42
:10026000DF6E6CC060F06DC061F0000E636F320E27
:10027000626F40ECC4F0000E0001666F030E676F02
:1002800060516627615167236EC060F06FC061F0F6
:10029000000E636F0A0E626F40ECC4F00001605103
:1002A000662761516723070E6625D96E000E672108
:1002B000DA6E010EDF6E6CC060F06DC061F0000E92
:1002C000636F320E626F40ECC4F0000E0001666F87
:1002D000030E676F60516627615167236EC060F03F
:1002E0006FC061F0000E636F0A0E626F40ECC4F0E5
:1002F00000016051662761516723080E6625D96E9B
:10030000000E6721DA6E020EDE6E000EDD6E6E4BA1
:100310006F2B6CC060F06DC061F0000E636F320E29
:10032000626F40ECC4F0000E0001666F030E676F51
:1003300060516627615167236EC060F06FC061F045
:10034000000E636F0A0E626F40ECC4F00001605152
:10035000662761516723040E6625D96E000E67215A
:10036000DA6E010EDF6E6CC060F06DC061F0000EE1
:10037000636F320E626F40ECC4F0000E0001666FD6
:10038000030E676F60516627615167236EC060F08E
:100390006FC061F0000E636F0A0E626F40ECC4F034
:1003A00000016051662761516723050E6625D96EED
:1003B000000E6721DA6E000EDF6E6CC060F06DC05B
:1003C00061F0000E636F320E626F40ECC4F0000EFD
:1003D0000001666F030E676F6051662761516723E6
:1003E0006EC060F06FC061F0000E636F0A0E626F46
:1003F00040ECC4F000016051662761516723060E8E
:100400006625D96E000E6721DA6E010EDF6E6CC0B4
:1004100060F06DC061F0000E636F320E626F40ECF1
:10042000C4F0000E0001666F030E676F605166270F
:10043000615167236EC060F06FC061F0000E636FA2
:100440000A0E626F40ECC4F00001605166276151F2
:100450006723070E6625D96E000E6721DA6E000E3F
:10046000DF6E6CC060F06DC061F0000E636F320E25
:10047000626F40ECC4F0000E0001666F030E676F00
:1004800060516627615167236EC060F06FC061F0F4
:10049000000E636F0A0E626F40ECC4F00001605101
:1004A000662761516723080E6625D96E000E672105
:1004B000DA6E020EDE6E000EDD6E6E4B6F2B6CC0C0
:1004C00060F06DC061F0000E636F320E626F40EC41
:1004D000C4F0000E0001666F030E676F605166275F
:1004E000615167236EC060F06FC061F0000E636FF2
:1004F0000A0E626F40ECC4F0000160516627615142
:100500006723040E6625D96E000E6721DA6E010E90
:10051000DF6E6CC060F06DC061F0000E636F320E74
:10052000626F40ECC4F0000E0001666F030E676F4F
:1005300060516627615167236EC060F06FC061F043
:10054000000E636F0A0E626F40ECC4F00001605150
:10055000662761516723050E6625D96E000E672157
:10056000DA6E000EDF6E6CC060F06DC061F0000EE0
:10057000636F320E626F40ECC4F0000E0001666FD4
:10058000030E676F60516627615167236EC060F08C
:100590006FC061F0000E636F0A0E626F40ECC4F032
:1005A00000016051662761516723060E6625D96EEA
:1005B000000E6721DA6E000EDF6E6CC060F06DC059
:1005C00061F0000E636F320E626F40ECC4F0000EFB
:1005D0000001666F030E676F6051662761516723E4
:1005E0006EC060F06FC061F0000E636F0A0E626F44
:1005F00040ECC4F000016051662761516723070E8B
:100600006625D96E000E6721DA6E000EDF6E6CC0B3
:1006100060F06DC061F0000E636F320E626F40ECEF
:10062000C4F0000E0001666F030E676F605166270D
:10063000615167236EC060F06FC061F0000E636FA0
:100640000A0E626F40ECC4F00001605166276151F0
:100650006723080E6625D96E000E6721DA6E030E39
:10066000DE6E000EDD6E6E4B6F2B6CC060F06DC0E9
:1006700061F0000E636F320E626F40ECC4F0000E4A
:100680000001666F030E676F605166276151672333
:100690006EC060F06FC061F0000E636F0A0E626F93
:1006A00040ECC4F000016051662761516723040EDD
:1006B0006625D96E000E6721DA6E010EDF6E6CC002
:1006C00060F06DC061F0000E636F320E626F40EC3F
:1006D000C4F0000E0001666F030E676F605166275D
:1006E000615167236EC060F06FC061F0000E636FF0
:1006F0000A0E626F40ECC4F0000160516627615140
:100700006723050E6625D96E000E6721DA6E010E8D
:10071000DF6E6CC060F06DC061F0000E636F320E72
:10072000626F40ECC4F0000E0001666F030E676F4D
:1007300060516627615167236EC060F06FC061F041
:10074000000E636F0A0E626F40ECC4F0000160514E
:10075000662761516723060E6625D96E000E672154
:10076000DA6E000EDF6E6CC060F06DC061F0000EDE
:10077000636F320E626F40ECC4F0000E0001666FD2
:10078000030E676F60516627615167236EC060F08A
:100790006FC061F0000E636F0A0E626F40ECC4F030
:1007A00000016051662761516723070E6625D96EE7
:1007B000000E6721DA6E000EDF6E6CC060F06DC057
:1007C00061F0000E636F320E626F40ECC4F0000EF9
:1007D0000001666F030E676F6051662761516723E2
:1007E0006EC060F06FC061F0000E636F0A0E626F42
:1007F00040ECC4F000016051662761516723080E88
:100800006625D96E000E6721DA6E020EDE6E000ECE
:10081000DD6E6E4B6F2B6CC060F06DC061F0000E32
:10082000636F320E626F40ECC4F0000E0001666F21
:10083000030E676F60516627615167236EC060F0D9
:100840006FC061F0000E636F0A0E626F40ECC4F07F
:1008500000016051662761516723040E6625D96E39
:10086000000E6721DA6E010EDF6E6CC060F06DC0A5
:1008700061F0000E636F320E626F40ECC4F0000E48
:100880000001666F030E676F605166276151672331
:100890006EC060F06FC061F0000E636F0A0E626F91
:1008A00040ECC4F000016051662761516723050EDA
:1008B0006625D96E000E6721DA6E010EDF6E6CC000
:1008C00060F06DC061F0000E636F320E626F40EC3D
:1008D000C4F0000E0001666F030E676F605166275B
:1008E000615167236EC060F06FC061F0000E636FEE
:1008F0000A0E626F40ECC4F000016051662761513E
:100900006723060E6625D96E000E6721DA6E000E8B
:10091000DF6E6CC060F06DC061F0000E636F320E70
:10092000626F40ECC4F0000E0001666F030E676F4B
:1009300060516627615167236EC060F06FC061F03F
:10094000000E636F0A0E626F40ECC4F0000160514C
:10095000662761516723070E6625D96E000E672151
:10096000DA6E010EDF6E6CC060F06DC061F0000EDB
:10097000636F320E626F40ECC4F0000E0001666FD0
:10098000030E676F60516627615167236EC060F088
:100990006FC061F0000E636F0A0E626F40ECC4F02E
:1009A00000016051662761516723080E6625D96EE4
:1009B000000E6721DA6E010EDE6E000EDD6E6C4BEE
:1009C0006D2B000E6F6F000E6E6F6CC060F06DC00F
:1009D00061F0000E636F320E626F40ECC4F0000EE7
:1009E0000001666F030E676F6051662761516723D0
:1009F0006EC060F06FC061F0000E636F0A0E626F30
:100A000040ECC4F000016051662761516723040E79
:100A10006625D96E000E6721DA6E000EDF6E6CC09F
:100A200060F06DC061F0000E636F320E626F40ECDB
:100A3000C4F0000E0001666F030E676F60516627F9
:100A4000615167236EC060F06FC061F0000E636F8C
:100A50000A0E626F40ECC4F00001605166276151DC
:100A60006723050E6625D96E000E6721DA6E000E2B
:100A7000DF6E6CC060F06DC061F0000E636F320E0F
:100A8000626F40ECC4F0000E0001666F030E676FEA
:100A900060516627615167236EC060F06FC061F0DE
:100AA000000E636F0A0E626F40ECC4F000016051EB
:100AB000662761516723060E6625D96E000E6721F1
:100AC000DA6E000EDF6E6CC060F06DC061F0000E7B
:100AD000636F320E626F40ECC4F0000E0001666F6F
:100AE000030E676F60516627615167236EC060F027
:100AF0006FC061F0000E636F0A0E626F40ECC4F0CD
:100B000000016051662761516723070E6625D96E83
:100B1000000E6721DA6E010EDF6E6CC060F06DC0F2
:100B200061F0000E636F320E626F40ECC4F0000E95
:100B30000001666F030E676F60516627615167237E
:100B40006EC060F06FC061F0000E636F0A0E626FDE
:100B500040ECC4F000016051662761516723080E24
:100B60006625D96E000E6721DA6E030EDE6E000E6A
:100B7000DD6E6E4B6F2B6CC060F06DC061F0000ECF
:100B8000636F320E626F40ECC4F0000E0001666FBE
:100B9000030E676F60516627615167236EC060F076
:100BA0006FC061F0000E636F0A0E626F40ECC4F01C
:100BB00000016051662761516723040E6625D96ED6
:100BC000000E6721DA6E010EDF6E6CC060F06DC042
:100BD00061F0000E636F320E626F40ECC4F0000EE5
:100BE0000001666F030E676F6051662761516723CE
:100BF0006EC060F06FC061F0000E636F0A0E626F2E
:100C000040ECC4F000016051662761516723050E76
:100C10006625D96E000E6721DA6E010EDF6E6CC09C
:100C200060F06DC061F0000E636F320E626F40ECD9
:100C3000C4F0000E0001666F030E676F60516627F7
:100C4000615167236EC060F06FC061F0000E636F8A
:100C50000A0E626F40ECC4F00001605166276151DA
:100C60006723060E6625D96E000E6721DA6E010E27
:100C7000DF6E6CC060F06DC061F0000E636F320E0D
:100C8000626F40ECC4F0000E0001666F030E676FE8
:100C900060516627615167236EC060F06FC061F0DC
:100CA000000E636F0A0E626F40ECC4F000016051E9
:100CB000662761516723070E6625D96E000E6721EE
:100CC000DA6E000EDF6E6CC060F06DC061F0000E79
:100CD000636F320E626F40ECC4F0000E0001666F6D
:100CE000030E676F60516627615167236EC060F025
:100CF0006FC061F0000E636F0A0E626F40ECC4F0CB
:100D000000016051662761516723080E6625D96E80
:100D1000000E6721DA6E010EDE6E000EDD6E6E4B88
:100D20006F2B6CC060F06DC061F0000E636F320E0F
:100D3000626F40ECC4F0000E0001666F030E676F37
:100D400060516627615167236EC060F06FC061F02B
:100D5000000E636F0A0E626F40ECC4F00001605138
:100D6000662761516723040E6625D96E000E672140
:100D7000DA6E000EDF6E6CC060F06DC061F0000EC8
:100D8000636F320E626F40ECC4F0000E0001666FBC
:100D9000030E676F60516627615167236EC060F074
:100DA0006FC061F0000E636F0A0E626F40ECC4F01A
:100DB00000016051662761516723050E6625D96ED3
:100DC000000E6721DA6E010EDF6E6CC060F06DC040
:100DD00061F0000E636F320E626F40ECC4F0000EE3
:100DE0000001666F030E676F6051662761516723CC
:100DF0006EC060F06FC061F0000E636F0A0E626F2C
:100E000040ECC4F000016051662761516723060E73
:100E10006625D96E000E6721DA6E000EDF6E6CC09B
:100E200060F06DC061F0000E636F320E626F40ECD7
:100E3000C4F0000E0001666F030E676F60516627F5
:100E4000615167236EC060F06FC061F0000E636F88
:100E50000A0E626F40ECC4F00001605166276151D8
:100E60006723070E6625D96E000E6721DA6E010E24
:100E7000DF6E6CC060F06DC061F0000E636F320E0B
:100E8000626F40ECC4F0000E0001666F030E676FE6
:100E900060516627615167236EC060F06FC061F0DA
:100EA000000E636F0A0E626F40ECC4F000016051E7
:100EB000662761516723080E6625D96E000E6721EB
:100EC000DA6E020EDE6E000EDD6E6E4B6F2B6CC0A6
:100ED00060F06DC061F0000E636F320E626F40EC27
:100EE000C4F0000E0001666F030E676F6051662745
:100EF000615167236EC060F06FC061F0000E636FD8
:100F00000A0E626F40ECC4F0000160516627615127
:100F10006723040E6625D96E000E6721DA6E000E77
:100F2000DF6E6CC060F06DC061F0000E636F320E5A
:100F3000626F40ECC4F0000E0001666F030E676F35
:100F400060516627615167236EC060F06FC061F029
:100F5000000E636F0A0E626F40ECC4F00001605136
:100F6000662761516723050E6625D96E000E67213D
:100F7000DA6E000EDF6E6CC060F06DC061F0000EC6
:100F8000636F320E626F40ECC4F0000E0001666FBA
:100F9000030E676F60516627615167236EC060F072
:100FA0006FC061F0000E636F0A0E626F40ECC4F018
:100FB00000016051662761516723060E6625D96ED0
:100FC000000E6721DA6E010EDF6E6CC060F06DC03E
:100FD00061F0000E636F320E626F40ECC4F0000EE1
:100FE0000001666F030E676F6051662761516723CA
:100FF0006EC060F06FC061F0000E636F0A0E626F2A
:1010000040ECC4F000016051662761516723070E70
:101010006625D96E000E6721DA6E010EDF6E6CC098
:1010200060F06DC061F0000E636F320E626F40ECD5
:10103000C4F0000E0001666F030E676F60516627F3
:10104000615167236EC060F06FC061F0000E636F86
:101050000A0E626F40ECC4F00001605166276151D6
:101060006723080E6625D96E000E6721DA6E020E20
:10107000DE6E000EDD6E6E4B6F2B6CC060F06DC0CF
:1010800061F0000E636F320E626F40ECC4F0000E30
:101090000001666F030E676F605166276151672319
:1010A0006EC060F06FC061F0000E636F0A0E626F79
:1010B00040ECC4F000016051662761516723040EC3
:1010C0006625D96E000E6721DA6E000EDF6E6CC0E9
:1010D00060F06DC061F0000E636F320E626F40EC25
:1010E000C4F0000E0001666F030E676F6051662743
:1010F000615167236EC060F06FC061F0000E636FD6
:101100000A0E626F40ECC4F0000160516627615125
:101110006723050E6625D96E000E6721DA6E010E73
:10112000DF6E6CC060F06DC061F0000E636F320E58
:10113000626F40ECC4F0000E0001666F030E676F33
:1011400060516627615167236EC060F06FC061F027
:10115000000E636F0A0E626F40ECC4F00001605134
:10116000662761516723060E6625D96E000E67213A
:10117000DA6E010EDF6E6CC060F06DC061F0000EC3
:10118000636F320E626F40ECC4F0000E0001666FB8
:10119000030E676F60516627615167236EC060F070
:1011A0006FC061F0000E636F0A0E626F40ECC4F016
:1011B00000016051662761516723070E6625D96ECD
:1011C000000E6721DA6E000EDF6E6CC060F06DC03D
:1011D00061F0000E636F320E626F40ECC4F0000EDF
:1011E0000001666F030E676F6051662761516723C8
:1011F0006EC060F06FC061F0000E636F0A0E626F28
:1012000040ECC4F000016051662761516723080E6D
:101210006625D96E000E6721DA6E020EDE6E000EB4
:10122000DD6E6C4B6D2B000E6F6F000E6E6F6CC021
:1012300060F06DC061F0000E636F320E626F40ECC3
:10124000C4F0000E0001666F030E676F60516627E1
:10125000615167236EC060F06FC061F0000E636F74
:101260000A0E626F40ECC4F00001605166276151C4
:101270006723040E6625D96E000E6721DA6E000E14
:10128000DF6E6CC060F06DC061F0000E636F320EF7
:10129000626F40ECC4F0000E0001666F030E676FD2
:1012A00060516627615167236EC060F06FC061F0C6
:1012B000000E636F0A0E626F40ECC4F000016051D3
:1012C000662761516723050E6625D96E000E6721DA
:1012D000DA6E000EDF6E6CC060F06DC061F0000E63
:1012E000636F320E626F40ECC4F0000E0001666F57
:1012F000030E676F60516627615167236EC060F00F
:101300006FC061F0000E636F0A0E626F40ECC4F0B4
:1013100000016051662761516723060E6625D96E6C
:10132000000E6721DA6E000EDF6E6CC060F06DC0DB
:1013300061F0000E636F320E626F40ECC4F0000E7D
:101340000001666F030E676F605166276151672366
:101350006EC060F06FC061F0000E636F0A0E626FC6
:1013600040ECC4F000016051662761516723070E0D
:101370006625D96E000E6721DA6E010EDF6E6CC035
:1013800060F06DC061F0000E636F320E626F40EC72
:10139000C4F0000E0001666F030E676F6051662790
:1013A000615167236EC060F06FC061F0000E636F23
:1013B0000A0E626F40ECC4F0000160516627615173
:1013C0006723080E6625D96E000E6721DA6E030EBC
:1013D000DE6E000EDD6E6E4B6F2B6CC060F06DC06C
:1013E00061F0000E636F320E626F40ECC4F0000ECD
:1013F0000001666F030E676F6051662761516723B6
:101400006EC060F06FC061F0000E636F0A0E626F15
:1014100040ECC4F000016051662761516723040E5F
:101420006625D96E000E6721DA6E010EDF6E6CC084
:1014300060F06DC061F0000E636F320E626F40ECC1
:10144000C4F0000E0001666F030E676F60516627DF
:10145000615167236EC060F06FC061F0000E636F72
:101460000A0E626F40ECC4F00001605166276151C2
:101470006723050E6625D96E000E6721DA6E000E11
:10148000DF6E6CC060F06DC061F0000E636F320EF5
:10149000626F40ECC4F0000E0001666F030E676FD0
:1014A00060516627615167236EC060F06FC061F0C4
:1014B000000E636F0A0E626F40ECC4F000016051D1
:1014C000662761516723060E6625D96E000E6721D7
:1014D000DA6E010EDF6E6CC060F06DC061F0000E60
:1014E000636F320E626F40ECC4F0000E0001666F55
:1014F000030E676F60516627615167236EC060F00D
:101500006FC061F0000E636F0A0E626F40ECC4F0B2
:1015100000016051662761516723070E6625D96E69
:10152000000E6721DA6E000EDF6E6CC060F06DC0D9
:1015300061F0000E636F320E626F40ECC4F0000E7B
:101540000001666F030E676F605166276151672364
:101550006EC060F06FC061F0000E636F0A0E626FC4
:1015600040ECC4F000016051662761516723080E0A
:101570006625D96E000E6721DA6E020EDE6E000E51
:10158000DD6E6E4B6F2B6CC060F06DC061F0000EB5
:10159000636F320E626F40ECC4F0000E0001666FA4
:1015A000030E676F60516627615167236EC060F05C
:1015B0006FC061F0000E636F0A0E626F40ECC4F002
:1015C00000016051662761516723040E6625D96EBC
:1015D000000E6721DA6E000EDF6E6CC060F06DC029
:1015E00061F0000E636F320E626F40ECC4F0000ECB
:1015F0000001666F030E676F6051662761516723B4
:101600006EC060F06FC061F0000E636F0A0E626F13
:1016100040ECC4F000016051662761516723050E5C
:101620006625D96E000E6721DA6E000EDF6E6CC083
:1016300060F06DC061F0000E636F320E626F40ECBF
:10164000C4F0000E0001666F030E676F60516627DD
:10165000615167236EC060F06FC061F0000E636F70
:101660000A0E626F40ECC4F00001605166276151C0
:101670006723060E6625D96E000E6721DA6E000E0E
:10168000DF6E6CC060F06DC061F0000E636F320EF3
:10169000626F40ECC4F0000E0001666F030E676FCE
:1016A00060516627615167236EC060F06FC061F0C2
:1016B000000E636F0A0E626F40ECC4F000016051CF
:1016C000662761516723070E6625D96E000E6721D4
:1016D000DA6E000EDF6E6CC060F06DC061F0000E5F
:1016E000636F320E626F40ECC4F0000E0001666F53
:1016F000030E676F60516627615167236EC060F00B
:101700006FC061F0000E636F0A0E626F40ECC4F0B0
:1017100000016051662761516723080E6625D96E66
:10172000000E6721DA6E040EDE6E000EDD6E6E4B6B
:101730006F2B6CC060F06DC061F0000E636F320EF5
:10174000626F40ECC4F0000E0001666F030E676F1D
:1017500060516627615167236EC060F06FC061F011
:10176000000E636F0A0E626F40ECC4F0000160511E
:10177000662761516723040E6625D96E000E672126
:10178000DA6E010EDF6E6CC060F06DC061F0000EAD
:10179000636F320E626F40ECC4F0000E0001666FA2
:1017A000030E676F60516627615167236EC060F05A
:1017B0006FC061F0000E636F0A0E626F40ECC4F000
:1017C00000016051662761516723050E6625D96EB9
:1017D000000E6721DA6E000EDF6E6CC060F06DC027
:1017E00061F0000E636F320E626F40ECC4F0000EC9
:1017F0000001666F030E676F6051662761516723B2
:101800006EC060F06FC061F0000E636F0A0E626F11
:1018100040ECC4F000016051662761516723060E59
:101820006625D96E000E6721DA6E010EDF6E6CC080
:1018300060F06DC061F0000E636F320E626F40ECBD
:10184000C4F0000E0001666F030E676F60516627DB
:10185000615167236EC060F06FC061F0000E636F6E
:101860000A0E626F40ECC4F00001605166276151BE
:101870006723070E6625D96E000E6721DA6E000E0B
:10188000DF6E6CC060F06DC061F0000E636F320EF1
:10189000626F40ECC4F0000E0001666F030E676FCC
:1018A00060516627615167236EC060F06FC061F0C0
:1018B000000E636F0A0E626F40ECC4F000016051CD
:1018C000662761516723080E6625D96E000E6721D1
:1018D000DA6E020EDE6E000EDD6E6E4B6F2B6CC08C
:1018E00060F06DC061F0000E636F320E626F40EC0D
:1018F000C4F0000E0001666F030E676F605166272B
:10190000615167236EC060F06FC061F0000E636FBD
:101910000A0E626F40ECC4F000016051662761510D
:101920006723040E6625D96E000E6721DA6E010E5C
:10193000DF6E6CC060F06DC061F0000E636F320E40
:10194000626F40ECC4F0000E0001666F030E676F1B
:1019500060516627615167236EC060F06FC061F00F
:10196000000E636F0A0E626F40ECC4F0000160511C
:10197000662761516723050E6625D96E000E672123
:10198000DA6E010EDF6E6CC060F06DC061F0000EAB
:10199000636F320E626F40ECC4F0000E0001666FA0
:1019A000030E676F60516627615167236EC060F058
:1019B0006FC061F0000E636F0A0E626F40ECC4F0FE
:1019C00000016051662761516723060E6625D96EB6
:1019D000000E6721DA6E000EDF6E6CC060F06DC025
:1019E00061F0000E636F320E626F40ECC4F0000EC7
:1019F0000001666F030E676F6051662761516723B0
:101A00006EC060F06FC061F0000E636F0A0E626F0F
:101A100040ECC4F000016051662761516723070E56
:101A20006625D96E000E6721DA6E000EDF6E6CC07F
:101A300060F06DC061F0000E636F320E626F40ECBB
:101A4000C4F0000E0001666F030E676F60516627D9
:101A5000615167236EC060F06FC061F0000E636F6C
:101A60000A0E626F40ECC4F00001605166276151BC
:101A70006723080E6625D96E000E6721DA6E020E06
:101A8000DE6E000EDD6E6C4B6D2B000E6F6F000E68
:101A90006E6F6CC060F06DC061F0000E636F320E4F
:101AA000626F40ECC4F0000E0001666F030E676FBA
:101AB00060516627615167236EC060F06FC061F0AE
:101AC000000E636F0A0E626F40ECC4F000016051BB
:101AD000662761516723040E6625D96E000E6721C3
:101AE000DA6E000EDF6E6CC060F06DC061F0000E4B
:101AF000636F320E626F40ECC4F0000E0001666F3F
:101B0000030E676F60516627615167236EC060F0F6
:101B10006FC061F0000E636F0A0E626F40ECC4F09C
:101B200000016051662761516723050E6625D96E55
:101B3000000E6721DA6E000EDF6E6CC060F06DC0C3
:101B400061F0000E636F320E626F40ECC4F0000E65
:101B50000001666F030E676F60516627615167234E
:101B60006EC060F06FC061F0000E636F0A0E626FAE
:101B700040ECC4F000016051662761516723060EF6
:101B80006625D96E000E6721DA6E010EDF6E6CC01D
:101B900060F06DC061F0000E636F320E626F40EC5A
:101BA000C4F0000E0001666F030E676F6051662778
:101BB000615167236EC060F06FC061F0000E636F0B
:101BC0000A0E626F40ECC4F000016051662761515B
:101BD0006723070E6625D96E000E6721DA6E010EA7
:101BE000DF6E6CC060F06DC061F0000E636F320E8E
:101BF000626F40ECC4F0000E0001666F030E676F69
:101C000060516627615167236EC060F06FC061F05C
:101C1000000E636F0A0E626F40ECC4F00001605169
:101C2000662761516723080E6625D96E000E67216D
:101C3000DA6E020EDE6E000EDD6E6E4B6F2B6CC028
:101C400060F06DC061F0000E636F320E626F40ECA9
:101C5000C4F0000E0001666F030E676F60516627C7
:101C6000615167236EC060F06FC061F0000E636F5A
:101C70000A0E626F40ECC4F00001605166276151AA
:101C80006723040E6625D96E000E6721DA6E010EF9
:101C9000DF6E6CC060F06DC061F0000E636F320EDD
:101CA000626F40ECC4F0000E0001666F030E676FB8
:101CB00060516627615167236EC060F06FC061F0AC
:101CC000000E636F0A0E626F40ECC4F000016051B9
:101CD000662761516723050E6625D96E000E6721C0
:101CE000DA6E010EDF6E6CC060F06DC061F0000E48
:101CF000636F320E626F40ECC4F0000E0001666F3D
:101D0000030E676F60516627615167236EC060F0F4
:101D10006FC061F0000E636F0A0E626F40ECC4F09A
:101D200000016051662761516723060E6625D96E52
:101D3000000E6721DA6E010EDF6E6CC060F06DC0C0
:101D400061F0000E636F320E626F40ECC4F0000E63
:101D50000001666F030E676F60516627615167234C
:101D60006EC060F06FC061F0000E636F0A0E626FAC
:101D700040ECC4F000016051662761516723070EF3
:101D80006625D96E000E6721DA6E000EDF6E6CC01C
:101D900060F06DC061F0000E636F320E626F40EC58
:101DA000C4F0000E0001666F030E676F6051662776
:101DB000615167236EC060F06FC061F0000E636F09
:101DC0000A0E626F40ECC4F0000160516627615159
:101DD0006723080E6625D96E000E6721DA6E010EA4
:101DE000DE6E000EDD6E6E4B6F2B6CC060F06DC052
:101DF00061F0000E636F320E626F40ECC4F0000EB3
:101E00000001666F030E676F60516627615167239B
:101E10006EC060F06FC061F0000E636F0A0E626FFB
:101E200040ECC4F000016051662761516723040E45
:101E30006625D96E000E6721DA6E000EDF6E6CC06B
:101E400060F06DC061F0000E636F320E626F40ECA7
:101E5000C4F0000E0001666F030E676F60516627C5
:101E6000615167236EC060F06FC061F0000E636F58
:101E70000A0E626F40ECC4F00001605166276151A8
:101E80006723050E6625D96E000E6721DA6E010EF6
:101E9000DF6E6CC060F06DC061F0000E636F320EDB
:101EA000626F40ECC4F0000E0001666F030E676FB6
:101EB00060516627615167236EC060F06FC061F0AA
:101EC000000E636F0A0E626F40ECC4F000016051B7
:101ED000662761516723060E6625D96E000E6721BD
:101EE000DA6E010EDF6E6CC060F06DC061F0000E46
:101EF000636F320E626F40ECC4F0000E0001666F3B
:101F0000030E676F60516627615167236EC060F0F2
:101F10006FC061F0000E636F0A0E626F40ECC4F098
:101F200000016051662761516723070E6625D96E4F
:101F3000000E6721DA6E010EDF6E6CC060F06DC0BE
:101F400061F0000E636F320E626F40ECC4F0000E61
:101F50000001666F030E676F60516627615167234A
:101F60006EC060F06FC061F0000E636F0A0E626FAA
:101F700040ECC4F000016051662761516723080EF0
:101F80006625D96E000E6721DA6E010EDE6E000E38
:101F9000DD6E6E4B6F2B6CC060F06DC061F0000E9B
:101FA000636F320E626F40ECC4F0000E0001666F8A
:101FB000030E676F60516627615167236EC060F042
:101FC0006FC061F0000E636F0A0E626F40ECC4F0E8
:101FD00000016051662761516723040E6625D96EA2
:101FE000000E6721DA6E010EDF6E6CC060F06DC00E
:101FF00061F0000E636F320E626F40ECC4F0000EB1
:102000000001666F030E676F605166276151672399
:102010006EC060F06FC061F0000E636F0A0E626FF9
:1020200040ECC4F000016051662761516723050E42
:102030006625D96E000E6721DA6E000EDF6E6CC069
:1020400060F06DC061F0000E636F320E626F40ECA5
:10205000C4F0000E0001666F030E676F60516627C3
:10206000615167236EC060F06FC061F0000E636F56
:102070000A0E626F40ECC4F00001605166276151A6
:102080006723060E6625D96E000E6721DA6E010EF3
:10209000DF6E6CC060F06DC061F0000E636F320ED9
:1020A000626F40ECC4F0000E0001666F030E676FB4
:1020B00060516627615167236EC060F06FC061F0A8
:1020C000000E636F0A0E626F40ECC4F000016051B5
:1020D000662761516723070E6625D96E000E6721BA
:1020E000DA6E010EDF6E6CC060F06DC061F0000E44
:1020F000636F320E626F40ECC4F0000E0001666F39
:10210000030E676F60516627615167236EC060F0F0
:102110006FC061F0000E636F0A0E626F40ECC4F096
:1021200000016051662761516723080E6625D96E4C
:10213000000E6721DA6E010EDE6E000EDD6E6E4B54
:102140006F2B6CC060F06DC061F0000E636F320EDB
:10215000626F40ECC4F0000E0001666F030E676F03
:1021600060516627615167236EC060F06FC061F0F7
:10217000000E636F0A0E626F40ECC4F00001605104
:10218000662761516723040E6625D96E000E67210C
:10219000DA6E000EDF6E6CC060F06DC061F0000E94
:1021A000636F320E626F40ECC4F0000E0001666F88
:1021B000030E676F60516627615167236EC060F040
:1021C0006FC061F0000E636F0A0E626F40ECC4F0E6
:1021D00000016051662761516723050E6625D96E9F
:1021E000000E6721DA6E010EDF6E6CC060F06DC00C
:1021F00061F0000E636F320E626F40ECC4F0000EAF
:102200000001666F030E676F605166276151672397
:102210006EC060F06FC061F0000E636F0A0E626FF7
:1022200040ECC4F000016051662761516723060E3F
:102230006625D96E000E6721DA6E010EDF6E6CC066
:1022400060F06DC061F0000E636F320E626F40ECA3
:10225000C4F0000E0001666F030E676F60516627C1
:10226000615167236EC060F06FC061F0000E636F54
:102270000A0E626F40ECC4F00001605166276151A4
:102280006723070E6625D96E000E6721DA6E000EF1
:10229000DF6E6CC060F06DC061F0000E636F320ED7
:1022A000626F40ECC4F0000E0001666F030E676FB2
:1022B00060516627615167236EC060F06FC061F0A6
:1022C000000E636F0A0E626F40ECC4F000016051B3
:1022D000662761516723080E6625D96E000E6721B7
:1022E000DA6E020EDE6E000EDD6E1200000E0101CF
:1022F000F26F000EF16F000EF46F000EF36F00012D
:10230000F951FA11D8A404D02C502D10D8B414D0FF
:102310000001F951FA11D8A412D02C502D10D8B4C4
:102320000ED00101F051D8B407D0FF0E0001AA6F02
:10233000A60EA96F32ECACF0000E0101F06F0001A7
:10234000F905FA11D8A412D02C502D10D8B40ED003
:102350000101F005D8B407D0000E0001AA6F5A0E93
:10236000A96F32ECACF0010E0101F06F0101E251F6
:102370000001F11906E10101E3510001F219D8B49D
:1023800092D0E2C1FBF0E3C1FCF0FB1FFC1FFB4B52
:10239000FC2BF151FB250101F36F0001F251FC21EF
:1023A0000101F46FF4AF3AD0F3C1FBF0F4C1FCF0DB
:1023B0000001FB1FFC1FFB4BFC2BFBC060F0FCC0B3
:1023C00061F0000E636F530E626F40ECC4F060C0AA
:1023D000F3F161C0F4F1000E0101E96F010EE86F45
:1023E000F4BF4ED0F45104E1A70EF35DD8A048D05D
:1023F000F3C1FBF0F4C1FCF00001FB1FFC1FFB4B21
:10240000FC2B4C0EFB250101F36F010E0001FC219A
:102410000101F46F000EE96F000E31D0F3C160F0DE
:10242000F4C161F0000E0001636F530E626F40EC67
:10243000C4F060C0F3F161C0F4F1000E0101E96F76
:10244000000EE86FF4BF1CD0F45104E1A70EF35D59
:10245000D8A016D0F3C1FBF0F4C1FCF00001FB1FC3
:10246000FC1FFB4BFC2B4C0EFB250101F36F010EF7
:102470000001FC210101F46F000EE96F010EE86F0D
:10248000F3C161F0F4C162F0000E0001646FC80E88
:10249000636FE8C165F0E9C166F0A4ECBBF0F1C080
:1024A000E2F1F2C0E3F1F7C061F0F8C062F0F7C00A
:1024B00063F0F8C064F0F1ECC0F023EC9EF0000E85
:1024C0000101396F040E386F000EEB6F000EEA6FDA
:1024D000000EED6F000EEC6FA3D123EC9EF02EC02A
:1024E000FBF02FC0FCF00001FB1FFC1FFB4BFC2B83
:1024F0000101DA510001FB250101F56FDB510001FB
:10250000FC210101F66FF5C160F0F6C161F038C140
:1025100062F039C163F040ECC4F060C0F5F161C015
:10252000F6F12FBE06D02F5003E15B0E2E5CD8B023
:10253000C2D00101F6BF0AD02D0EF55D010EF6598D
:10254000D8A004D0000EF66F1E0EF56FF6AF0AD0BD
:10255000E20EF55DFF0EF659D8B004D0FF0EF66F0F
:10256000E20EF56F040EDA250001FB6F000E01018B
:10257000DB210001FC6F0101F5510001FB1906E1AF
:102580000101F6510001FC19D8B417D0FC0EFB6F05
:10259000FF0EFC6FDAC1FDF0DBC1FEF0FB51FD2741
:1025A000FC51FE230101F5510001FD1910E101016B
:1025B000F6510001FE19D8A40AD0F7C061F0F8C0A6
:1025C00062F0F7C063F0F8C064F0F1ECC0F0010114
:1025D000F6BF31D0F5C1FBF0F6C1FCF00001FB1FE6
:1025E000FC1FFB4BFC2BF751FB250101EA6F00019F
:1025F000F851FC210101EB6F0001F951FA11D8A447
:102600000BD0EAC161F0EBC162F0F7C063F0F8C033
:1026100064F0F1ECC0F00FD00001F905FA11D8A474
:102620000AD0F7C061F0F8C062F0EAC163F0EBC114
:1026300064F0F1ECC0F00101F6BF05D0F65145E1C0
:10264000F505D8B042D0F6AF04D0F56DF61FD8B07E
:10265000F62BF5C1FBF0F6C1FCF00001FB1FFC1FDF
:10266000FB4BFC2BF751FB250101EC6F0001F851EE
:10267000FC210101ED6F0001F951FA11D8A40BD032
:10268000F7C061F0F8C062F0ECC163F0EDC164F036
:10269000F1ECC0F01AD00001F905FA11D8A415D058
:1026A000ECC161F0EDC162F0F7C063F0F8C064F016
:1026B000F1ECC0F00AD0F7C061F0F8C062F0F7C0EA
:1026C00063F0F8C064F0F1ECC0F0C9ECBDF00001BB
:1026D00061510101F127000162510101F2238EECE9
:1026E000C4F0000161516211D8B49AD03CC160F0CD
:1026F0003DC161F0000E636F320E626F40ECC4F0BA
:10270000040E0001F125FB6F000EF221FC6F000E9C
:10271000FD6F030EFE6FFB51FD27FC51FE23605140
:10272000FD276151FE233AC160F03BC161F0000E0C
:10273000636F0A0E626F40ECC4F000016051FD252A
:10274000D96E6151FE21DA6E010EDF6E000E0101BD
:10275000EF6F000EEE6F800E0001756FFF0E766F4B
:102760007EECABF0A2ECA7F0F7C0FBF0F8C0FCF0F9
:102770000001FB1FFC1FFB4BFC2BFBC061F0FCC0EE
:1027800062F0F7C0FDF0F8C0FEF0FD1FFE1FFD4B2C
:10279000FE2BFDC063F0FEC064F0F1ECC0F0C9ECAC
:1027A000BDF028D0C9ECBDF0000161510101EE2758
:1027B000000162510101EF23A2ECA7F0FC0E000121
:1027C000756FFF0E766F000E786F230E776F7EECBD
:1027D000ABF0600E0001756FFF0E766FEEC177F003
:1027E000EFC178F0F1C179F0F2C17AF07EECABF094
:1027F000A2ECA7F0F1C1FBF0F2C1FCF00001FB1F5D
:10280000FC1FFB4BFC2BFB510101EE5DEF51800ADD
:102810000001FD6FFC51800AFD59D8A01200C2D7FB
:102820000001F3510101F15DF251800A0001FB6FDB
:10283000F451800AFB59D8A050D6F151F211D8A416
:1028400005D001013C07D8A03D071DD00001F105CE
:10285000F211D8A404D001013A4B3B2B14D0020E44
:102860000001F119F211D8A404D001013C4B3D2B19
:102870000AD0030E0001F119F211D8A404D001010D
:102880003A07D8A03B073CC160F03DC161F0000EA3
:102890000001636F320E626F40ECC4F0000E000165
:1028A000FB6F030EFC6F6051FB276151FC233AC1A3
:1028B00060F03BC161F0000E636F0A0E626F40EC86
:1028C000C4F000016051FB276151FC23080EFB2579
:1028D000D96E000EFC21DA6E010EDBBE0CD0010EAB
:1028E000DB5003E1DE04D8A006D0F1C083F0F2C0D3
:1028F00084F0CAECC1F03CC160F03DC161F0000E53
:102900000001636F320E626F40ECC4F0000E0001F4
:10291000FB6F030EFC6F6051FB276151FC233AC132
:1029200060F03BC161F0000E636F0A0E626F40EC15
:10293000C4F000016051FB276151FC23080EFB2508
:10294000D96E000EFC21DA6EDE06000EDD5AB0EC08
:10295000C4F012008C0E0001756FFF0E766F3CC143
:1029600077F03DC178F03AC179F03BC17AF07EEC66
:10297000ABF0A2ECA7F03CC160F03DC161F0000EED
:102980000001636F320E626F40ECC4F0000E020172
:10299000C76F030EC86F000160510201C727000115
:1029A00061510201C8233AC160F03BC161F0000EE1
:1029B0000001636F0A0E626F40ECC4F000016051C9
:1029C0000201C727000161510201C823080EC72573
:1029D000D96E000EC821DA6E010EDBBE3DD2010EAB
:1029E000DB5003E1DE04D8A037D23CC160F03DC12A
:1029F00061F0000E0001636F320E626F40ECC4F0B4
:102A0000000E0201C76F030EC86F00016051020182
:102A1000C727000161510201C8233AC160F03BC1E0
:102A200061F0000E0001636F0A0E626F40ECC4F0AB
:102A3000000160510201C727000161510201C82352
:102A4000050EC725D96E000EC821DA6EDF50D8A456
:102A500044D03CC160F03DC161F0000E0001636FE5
:102A6000320E626F40ECC4F0000E0201C76F030E1D
:102A7000C86F000160510201C727000161510201C6
:102A8000C823010E01013A250001606F000E01010B
:102A90003B210001616F000E636F0A0E626F40EC14
:102AA000C4F0000160510201C72700016151020119
:102AB000C823080EC725D96E000EC821DA6E010E94
:102AC000DBBE0BD0010EDB5003E1DE04D8A005D045
:102AD000000E0101FE6F010E67D13CC160F03DC1E7
:102AE00061F0000E0001636F320E626F40ECC4F0C3
:102AF000000E0201C76F030EC86F00016051020192
:102B0000C727000161510201C8233AC160F03BC1EF
:102B100061F0000E0001636F0A0E626F40ECC4F0BA
:102B2000000160510201C727000161510201C82361
:102B3000060EC725D96E000EC821DA6EDF50D8A464
:102B400044D0010E01013C250001606F000E01011F
:102B50003D210001616F000E636F320E626F40EC29
:102B6000C4F0000E0201C76F030EC86F0001605170
:102B70000201C727000161510201C8233AC160F078
:102B80003BC161F0000E0001636F0A0E626F40EC02
:102B9000C4F0000160510201C72700016151020128
:102BA000C823080EC725D96E000EC821DA6E010EA3
:102BB000DBBE0BD0010EDB5003E1DE04D8A005D054
:102BC000000E0101FE6F020EEFD03CC160F03DC16E
:102BD00061F0000E0001636F320E626F40ECC4F0D2
:102BE000000E0201C76F030EC86F000160510201A1
:102BF000C727000161510201C8233AC160F03BC1FF
:102C000061F0000E0001636F0A0E626F40ECC4F0C9
:102C1000000160510201C727000161510201C82370
:102C2000070EC725D96E000EC821DA6EDF50D8A472
:102C300044D03CC160F03DC161F0000E0001636F03
:102C4000320E626F40ECC4F0000E0201C76F030E3B
:102C5000C86F000160510201C727000161510201E4
:102C6000C823FF0E01013A250001606FFF0E01012C
:102C70003B210001616F000E636F0A0E626F40EC32
:102C8000C4F0000160510201C72700016151020137
:102C9000C823080EC725D96E000EC821DA6E010EB2
:102CA000DBBE0BD0010EDB5003E1DE04D8A005D063
:102CB000000E0101FE6F030E77D03CC160F03DC1F4
:102CC00061F0000E0001636F320E626F40ECC4F0E1
:102CD000000E0201C76F030EC86F000160510201B0
:102CE000C727000161510201C8233AC160F03BC10E
:102CF00061F0000E0001636F0A0E626F40ECC4F0D9
:102D0000000160510201C727000161510201C8237F
:102D1000040EC725D96E000EC821DA6EDF50D8A484
:102D200045D0FF0E01013C250001606FFF0E01013F
:102D30003D210001616F000E636F320E626F40EC47
:102D4000C4F0000E0201C76F030EC86F000160518E
:102D50000201C727000161510201C8233AC160F096
:102D60003BC161F0000E0001636F0A0E626F40EC20
:102D7000C4F0000160510201C72700016151020146
:102D8000C823080EC725D96E000EC821DA6E010EC1
:102D9000DBBE0CD0010EDB5003E1DE04D8A006D070
:102DA000000E0101FE6F000EFD6F0AD0F50E00014E
:102DB000756FFF0E766F7EECABF0A2ECA7F0FFD73D
:102DC0003CC160F03DC161F0000E0001636F320E46
:102DD000626F40ECC4F0000E0201C76F030EC86FB3
:102DE000000160510201C727000161510201C8239F
:102DF0003AC160F03BC161F0000E0001636F0A0E42
:102E0000626F40ECC4F0000160510201C72700016D
:102E100061510201C823080EC725D96E000EC821D2
:102E2000DA6EDE06000EDD5AFDC1F1F0FEC1F2F0F1
:102E3000030E0001F46FCA0EF36F000EF66F000E62
:102E4000F56F000EF86FC80EF76F000EFA6F000EE8
:102E5000F96F76EC91F01200980E0001756FFF0E7D
:102E6000766F7EECABF0A2ECA7F080ECC0F083C0F4
:102E7000F7F184C0F8F1000E0101FA6FC80EF96F86
:102E800060ECB4F012000AD0940E0001936F020EB1
:102E900003D0610E936F010E946F08D00001915121
:102EA000000AD8B4F1D7010AD8B4F3D720EE02F063
:102EB0009351D9269451DA2291C0DFFF93D08A0E24
:102EC000866F010E876F020E886F030E896F7DEC8F
:102ED000A8F08A0E0001866F010E876F030E886FBF
:102EE000030E896F7DECA8F08A0E0001866F010E3B
:102EF000876F050E886F030E896F7DECA8F08A0E30
:102F00000001866F010E876F040E886F000E896FB7
:102F10007DECA8F0000120EE03F09351D9269451E6
:102F2000DA22C70EDE6E0F0EDD6E20EE06F0935134
:102F3000D9269451DA22C60EDE6E0F0EDD6E20EE1B
:102F400009F09351D9269451DA22C90E47D0760E52
:102F5000866F010E876F070E886F030E896F7DECF9
:102F6000A8F0760E0001866F010E876F060E886F3F
:102F7000030E896F7DECA8F0760E0001866F010EBE
:102F8000876F040E886F030E896F7DECA8F0760EB4
:102F90000001866F010E876F050E886F000E896F26
:102FA0007DECA8F0000120EE03F09351D926945156
:102FB000DA226D0EDE6E0F0EDD6E20EE06F09351FE
:102FC000D9269451DA226C0EDE6E0F0EDD6E20EEE5
:102FD00009F09351D9269451DA226F0EDE6E0F0E4E
:102FE000DD6E08D09151000AD8B469D7010AD8A47F
:102FF0001200ADD720EE06F09351D9269451DA2273
:10300000DECF60F0DDCF61F0050E626F000E636F02
:10301000BAECBFF08CD0000120EE06F09351D92617
:103020009451DA22DECF60F0DDCF61F0040E626FE2
:10303000000E636FBAECBFF0000120EE03F0935175
:10304000D9269451DA22DECF60F0DDCF61F0060E92
:10305000626F000E636FBAECBFF078D0000120EE13
:1030600006F09351D9269451DA22DECF60F0DDCFFD
:1030700061F0040E626F000E636FBAECBFF00001E6
:1030800020EE03F09351D9269451DA22DECF60F07E
:10309000DDCF61F0060E626F010E636FBAECBFF018
:1030A00055D0000120EE06F09351D9269451DA2232
:1030B000DECF60F0DDCF61F0040E626F010E636F52
:1030C000BAECBFF0000120EE03F09351D9269451E1
:1030D000DA22DECF60F0DDCF61F0060E626F000E07
:1030E000636FBAECBFF032D0000120EE06F09351CE
:1030F000D9269451DA22DECF60F0DDCF61F0040EE4
:10310000626F010E636FBAECBFF0000120EE03F0B6
:103110009351D9269451DA22DECF60F0DDCF61F0F1
:10312000060E626F010E636FBAECBFF00FD00001A4
:103130009251000AD8B46FD7010AD8B48FD7030AC6
:10314000D8B4AFD7010AD8A41200CED7000120EE20
:1031500006F09351D9269451DA22DECF60F0DDCF0C
:1031600061F0070E626F000E636FBAECBFF00001F2
:1031700020EE06F09351D9269451DA22DECF60F08A
:10318000DDCF61F0060E626F000E636FBAECBFF028
:103190008DC06DF08EC06EF08FC06FF090C070F07B
:1031A000D5ECAEF093C060F094C061F02CECC4F0AC
:1031B00004D09F860BD0A58E09D000019151000A42
:1031C000D8B4F7D7010AD8A41200F5D793C060F09D
:1031D00094C061F09FECC3F093C0D9FF94C0DAFFB4
:1031E000000EDF6E000120EE06F09351D9269451B7
:1031F000DA22DECF6BF0DDCF6CF0000E6D6F030EC8
:103200006E6FD0ECC4F0000120EE06F09351D92689
:103210009451DA22DECF60F0DDCF61F0050E626FEF
:10322000010E636FBAECBFF0120018ECB0F05AEC6C
:10323000C5F0F0ECC4F07EECC5F04EECC6F0DFEC6F
:10324000BBF05AECC0F0010EE8ECBEF000EC80F0F0
:10325000010E02ECC3F00009D8B40CD04CECA9F07C
:1032600031ECAEF0F8ECBCF089ECC5F00009D8A464
:1032700087ECC3F023EC9EF02EC076F02FC077F0E1
:103280007BECC4F01EECC3F0FCECBDF022EE87F04A
:1032900001D80AD00500FA6EDE50FD6EDE50FE6EDB
:1032A000DE50FF6EFA5012000201CF6F22EE69F07D
:1032B00001D80AD00500FA6EDE50FD6EDE50FE6EBB
:1032C000DE50FF6EFA5012000201D06F22EE7DF048
:1032D00001D80AD00500FA6EDE50FD6EDE50FE6E9B
:1032E000DE50FF6EFA5012000201D26F22EE73F030
:1032F00001D80AD00500FA6EDE50FD6EDE50FE6E7B
:10330000DE50FF6EFA5012000201D16FCF51D8B4D7
:1033100005D0000E0101496F030E486F0201D05124
:10332000D8B405D0000E0101496F010E486F0201AB
:10333000D251D8B405D0000E0101496F020E486F7A
:103340000201D151D8B405D0000E0101496F040E1D
:10335000486F010E02ECC3F00009D8B48BD701010D
:1033600048514911D8A414D0FC0E0001756FFF0E0E
:10337000766F000E786F230E776F7EECABF0700ED9
:103380000001756FFF0E766F7EECABF0A2ECA7F03C
:10339000030E010148194911D8B4B0D0E3D0FC0E96
:1033A0000001756FFF0E766F000E786F230E776F3A
:1033B0007EECABF0D10E0001756FFF0E766F7EECE8
:1033C000ABF0ED0E0001756FFF0E766F34C177F034
:1033D00035C178F07EECABF0AAEC94F08BECBEF04B
:1033E00000018C058D11D8A46CD03CC160F03DC1AA
:1033F00061F0000E636F320E626F40ECC4F0000E9D
:103400000201CB6F030ECC6F000160510201CB278C
:10341000000161510201CC233AC160F03BC161F06F
:10342000000E0001636F0A0E626F40ECC4F00001F1
:1034300060510201CB27000161510201CC23020E31
:10344000CB25D96E000ECC21DA6EDE50DE10D8A46A
:1034500038D03CC160F03DC161F0000E0001636FE7
:10346000320E626F40ECC4F0000E0201CB6F030E0F
:10347000CC6F000160510201CB27000161510201B4
:10348000CC233AC160F03BC161F0000E0001636FD4
:103490000A0E626F40ECC4F0000160510201CB27BC
:1034A000000161510201CC23020ECB25D96E000E22
:1034B000CC21DA6E010EDE6E000EDD6E0101344BA2
:1034C000352BA2ECA7F0010E0001616F5E0E606F5C
:1034D000BAECBEF0FCECBDF022EE73F001D80AD0DD
:1034E0000500FA6EDE50FD6EDE50FE6EDE50FF6EA1
:1034F000FA5012000009D8A4FFECC4F0010135BF56
:103500004ED7355122E1020E345DD8B01ED047D7D8
:10351000FC0E0001756FFF0E766F000E786F230EA4
:10352000776F7EECABF0D10E0001756FFF0E766FFA
:103530007EECABF0BC0E0001756FFF0E766F7EEC7B
:10354000ABF0A2ECA7F0FFECC4F00101E1AFE0D7D3
:10355000E40E0001756FFF0E766F7EECABF0A2EC0F
:10356000A7F0FFD70201D251D8B41BD078ECAFF04E
:103570004FECB6F0000E0001F26F030EF16F030E78
:10358000F46FCA0EF36F000EF66F000EF56F000EAB
:10359000F86FC80EF76F000EFA6F000EF96F76EC39
:1035A00091F0A2ECA7F089ECC5F00009D8B462D67E
:1035B00087ECC3F05FD600017151800B7A6F7151B7
:1035C0007125806F70BF80818051D8B40DD0802963
:1035D000D8A408D0000E6E6F000E6F6F000E706FD3
:1035E000000E716F708F08D0000E6E6F000E6F6F3F
:1035F000000E706F000E716F7551800B7A1B755144
:1036000075257B6F74BF7B817B51D8B40DD07B292E
:10361000D8A408D0000E726F000E736F000E746F86
:10362000000E756F748F08D0000E726F000E736FEE
:10363000000E746F000E756F7B51D8B403D08051AB
:10364000D8A409D0000E6E6F000E6F6F000E706F61
:10365000000E716F120074516E03F3CF85F0F4CF3A
:1036600086F085517C6F7D6B7E6B7F6B8651816FA1
:10367000826B836B846B73516F03F3CF85F0F4CF50
:1036800086F085517C27000E7D237E237F23865183
:103690008127000E82238323842372517003F3CF8A
:1036A00085F0F4CF86F085517C27000E7D237E23A4
:1036B0007F2386518127000E8223832384237EC0AB
:1036C0007FF07DC07EF07CC07DF07C6B72516F031B
:1036D000F3CF85F0F4CF86F085517C2786517D238A
:1036E000000E7E23000E7F2373516E03F3CF85F00F
:1036F000F4CF86F085517C2786517D23000E7E23F2
:10370000000E7F237EC07FF07DC07EF07CC07DF008
:103710007C6B72516E03F3CF85F0F4CF86F0855148
:103720007C2786517D23000E7E23000E7F2374515B
:103730006F03F3CF85F0F4CF86F085518127865152
:103740008223000E8323000E842373517003F3CF72
:1037500085F0F4CF86F08551812786518223000EB3
:103760008323000E842374517003F3CF85F0F4CFCC
:1037700086F08551766F8651776F786B796B78C05C
:1037800079F077C078F076C077F0766B7651812744
:103790007751822378518323795184237CC076F03A
:1037A0007DC077F07EC078F07FC079F0190E05D02B
:1037B000D8907933783377337633E82EF9D776514A
:1037C00081277751822378518323795184237EC0C6
:1037D0007FF07DC07EF07CC07DF07C6B7B5180C033
:1037E00076F0776B7627000E7723820E7625856F2D
:1037F000FF0E7721866F0FD0D890813782378337BD
:1038000084377FBF8181D8907C377D377E377F3783
:103810008507D8A0860783AFEFD7000E7B6F7FAFF9
:1038200016D0FF0E7C15766FFF0E7D15776FFF0E9D
:103830007E15786F7F0E7F15796F7651771178112D
:103840007911D8A402D081A102D0010E7B6F7B51E7
:10385000D8B41FD0010E8127000E82238323842336
:1038600084A117D081C076F082C077F083C078F051
:1038700084C079F07935793378337733763376C00D
:1038800081F077C082F078C083F079C084F0854BF6
:10389000862B86BF0DD0865103E18529D8A008D09C
:1038A000000E816F000E826F800E836F7F0E20D01E
:1038B00086BF05D086510EE18505D8B00BD0000E2D
:1038C000816F000E826F000E836F000E846F000EFA
:1038D0007A6F0FD085C080F0FF0E8117FF0E821720
:1038E0007F0E8317000E841780B1838FD8908031AC
:1038F000846F7A51841381C06EF082C06FF083C0F0
:1039000070F084C071F0120000018E51800B9B6F2B
:103910008E518E259D6F8DBF9D819D51D8B40DD048
:103920009D29D8A408D0000E8B6F000E8C6F000E5E
:103930008D6F000E8E6F8D8F06D0000E8B6F000E78
:103940008C6F000E8D6F000E8E6F9251800B9C6FEE
:103950009B519C19D8A49B8D925192259C6F91BF2D
:103960009C819C51D8B40DD09C29D8A408D0000EBD
:103970008F6F000E906F000E916F000E926F918FFF
:1039800006D0000E8F6F000E906F000E916F000E2C
:10399000926F9D519C5DD8B022D09BAD02D0800E1D
:1039A0009B1B9DC09EF09CC09DF09EC09CF08BC058
:1039B0009EF08FC08BF09EC08FF08CC09EF090C0A8
:1039C0008CF09EC090F08DC09EF091C08DF09EC096
:1039D00091F08EC09EF092C08EF09EC092F0000ECC
:1039E0009E6F9D51936F946B931F941F934B942BD9
:1039F0009C51956F966B935195279451962396BF42
:103A00002CD0965104E11A0E955DD8A026D08B518A
:103A10008C118D118E11D8B402D0010E01D0000E80
:103A20009E6F000E8B6F000E8C6F000E8D6F000E60
:103A30008E6F9CC09DF015D09EA105D0D8909E3170
:103A400001099E6F02D0D8909E338BB19E8F8E3528
:103A50008E338D338C338B339D2B9C519D5DD8A041
:103A6000EBD79BBD29D09D51D8A409D0000E8B6FF8
:103A7000000E8C6F000E8D6F000E8E6F12008F5136
:103A80008B2790518C2391518D2392518E238EA19F
:103A900083D09EA106D0D8909E339E5101099E6F7F
:103AA00002D0D8909E338BB19E8F8E358E338D335E
:103AB0008C338B339D2B70D08F518B5D90518C59F3
:103AC00091518D598E51800A936F9251800A93596A
:103AD000D8B036D08BC093F08CC094F08DC095F0E8
:103AE0008EC096F0931F941F951F961F932B000E68
:103AF0009423952396238F519325976F905194216A
:103B0000986F91519521996F925196219A6FFF0E5E
:103B100097258B6FFF0E98218C6FFF0E99218D6F6B
:103B2000FF0E9A218E6F800E9B1B9E6D9E51D8A416
:103B30000FD0010E8B27000E8C238D238E2308D0EF
:103B40008F518B5F90518C5B91518D5B92518E5B4D
:103B50008B518C118D118E11D8A41CD09E51D8A4DC
:103B600019D0000E8B6F000E8C6F000E8D6F000E43
:103B70008E6F1200D8908B378C378D378E379EBF63
:103B80008B819EA102D0D88001D0D8909E379D51C4
:103B9000D8A49D078DAFEED7000E9C6F9EAF0AD0C4
:103BA0009EC093F07F0E9317D8A402D08BA102D0B1
:103BB000010E9C6F9C51D8B420D0010E8B27000EB3
:103BC0008C238D238E238EA118D08BC093F08CC0B4
:103BD00094F08DC095F08EC096F09635963395335F
:103BE0009433933393C08BF094C08CF095C08DF0D8
:103BF00096C08EF09D29D8A49D2B9D29D8B403D0C2
:103C00009D51D8A40DD0000E8B6F000E8C6F000E4E
:103C10008D6F000E8E6F9D51D8A402D0000E9B6F49
:103C20009DA102D08D8F01D08D9FD8909D318E6F38
:103C30009BBF8E8F8BC08BF08CC08CF08DC08DF0B5
:103C40008EC08EF01200D8903034D96E3134DA6ED6
:103C5000460ED926020EDA22DECFD7F0DDCFD8F01D
:103C60000001D71FD81FD74BD82B010140510001AD
:103C7000D7250101406F41510001D8210101416F59
:103C8000000E0001616F000E606F8DECC2F0D890E5
:103C90003034D96E3134DA6E460ED926020EDA226D
:103CA000000160C0DEFF61C0DDFFD8903034D96E06
:103CB0003134DA6E460ED926020EDA22DECFD7F084
:103CC000DDCFD8F0010140510001D7250101406F3F
:103CD00041510001D8210101416F304A312ADE51A2
:103CE000305C3150800A0001D76F0101DF51800A3A
:103CF0000001D759D8A004D0000E316E000E306EEE
:103D000040C160F041C161F0DEC162F0DFC163F02B
:103D100029ECBAF060C02EF061C02FF02EC060F028
:103D20002FC061F00001000E61BFFF0E626F636F74
:103D3000010EDFECACF060C0D9F061C0DAF062C017
:103D4000DBF063C0DCF0000E0001C66F000EC76F31
:103D5000000EC86F400EC96FD9C0C2F0DAC0C3F000
:103D6000DBC0C4F0DCC0C5F0D0ECA5F0C2C0DDF013
:103D7000C3C0DEF0C4C0DFF0C5C0E0F02EC060F00C
:103D80002FC061F00001000E61BFFF0E626F636F14
:103D9000010EDFECACF060C0E1F061C0E2F062C0A7
:103DA000E3F063C0E4F0000E0001C66F000EC76FC1
:103DB000400EC86F400EC96FE1C0C2F0E2C0C3F050
:103DC000E3C0C4F0E4C0C5F0D0ECA5F0C2C0E5F09B
:103DD000C3C0E6F0C4C0E7F0C5C0E8F0A60E00011D
:103DE000726F9B0E736FC40E746F3A0E756FDDC0E9
:103DF0006EF0DEC06FF0DFC070F0E0C071F0DBECA1
:103E00009AF06EC08FF06FC090F070C091F071C0EA
:103E100092F0870E0001726F970E736F710E746FC0
:103E2000B50E756FE5C06EF0E6C06FF0E7C070F0DC
:103E3000E8C071F0DBEC9AF06EC08BF06FC08CF0D4
:103E400070C08DF071C08EF084EC9CF08BC0E9F0F6
:103E50008CC0EAF08DC0EBF08EC0ECF08C0E00014F
:103E6000726FB90E736F6B0E746F3F0E756F2EC04D
:103E700060F02FC061F0000E61BFFF0E626F636FD4
:103E8000010EDFECACF060C06EF061C06FF062C09C
:103E900070F063C071F0DBEC9AF06EC087F06FC019
:103EA00088F070C089F071C08AF0CFECC3F087C091
:103EB0008FF088C090F089C091F08AC092F0E9C07C
:103EC0008BF0EAC08CF0EBC08DF0ECC08EF084EC8F
:103ED0009CF08BC0EDF08CC0EEF08DC0EFF08EC08A
:103EE000F0F07B0E00018F6F540E906F630E916F98
:103EF000430E926FEDC08BF0EEC08CF0EFC08DF0F2
:103F0000F0C08EF084EC9CF08BC09FF08CC0A0F0D1
:103F10008DC0A1F08EC0A2F0CFECB4F09FC02EF007
:103F2000A0C02FF02EC076F02FC077F07BECC4F04D
:103F30001EECC3F0120000016351800B6C6F6351E3
:103F40006325776F62BF77817751D8B40DD0772919
:103F5000D8A408D0000E606F000E616F000E626F73
:103F6000000E636F628F06D0000E606F000E616FEF
:103F7000000E626F000E636F6751800B6C1B675100
:103F80006725786F66BF78817851D8B40DD07829CD
:103F9000D8A408D0000E646F000E656F000E666F27
:103FA000000E676F668F06D0000E646F000E656F9F
:103FB000000E666F000E676F645165116611671120
:103FC000D8A415D0000E606F000E616F000E626FF6
:103FD000000E636F800E62137F0E631360C060F08B
:103FE00061C061F062C062F063C063F0120077519B
:103FF000D8A411D0000E606F000E616F000E626FCA
:10400000000E636F60C060F061C061F062C062F07A
:1040100063C063F012007851686F696B681F691F95
:10402000684B692B77516A6F6B6B68516A276951CE
:104030006B237F0E6A25716F000E6B21726F60C05B
:104040006DF061C06EF062C06FF063C070F0000E82
:10405000606F000E616F000E626F000E636F000EE6
:10406000736F000E746F000E756F000E766F000E8A
:10407000786F28D07851D8B411D0D8906D376E377A
:104080006F377037D890603761376237633776BFE4
:104090006081D890733774377537763764516D5DAA
:1040A00065516E5966516F5967517059D8A009D042
:1040B000768D64516D5F65516E5B66516F5B6751C4
:1040C000705B782B190E7865D5D76D516E116F1115
:1040D0007011D8B411D073810FD0D8906037613788
:1040E0006237633776BF6081D8907337743775371E
:1040F00076377107D8A0720762AFEFD7000E786FDE
:1041000076AF16D0FF0E7315686FFF0E7415696FCA
:10411000FF0E75156A6F7F0E76156B6F685169110A
:104120006A116B11D8A402D060A102D0010E786F81
:104130007851D8B41FD0010E6027000E612362238E
:10414000632363A117D060C068F061C069F062C0EA
:104150006AF063C06BF06B356B336A336933683375
:1041600068C060F069C061F06AC062F06BC063F063
:10417000714B722B72BF10D0725103E17129D8A01C
:104180000BD0000E726F7169000E606F000E616FD0
:10419000000E626F000E636F72BF05D0725111E1A5
:1041A0007105D8B00ED0000E726F000E716F000E48
:1041B000606F000E616F000E626F000E636F000E85
:1041C0006C6F71C077F077A102D0628F01D0629FCF
:1041D000D8907731636F6C51631360C060F061C039
:1041E00061F062C062F063C063F01200080E00016B
:1041F0006F256C6F000E70216D6F000E6E6F6EEC90
:10420000C3F00001866F8651726F736B0E0ED890EB
:1042100072377337E82EFBD78651746F756B0C0EAF
:10422000D89074377537E82EFBD78651766F776B49
:104230000A0ED89076377737E82EFBD78651796FFC
:10424000786B86517A6F7B6B060ED8907A377B3706
:10425000E82EFBD786517C6F7D6B7C3B7D3BF00E5F
:104260007D177C510F0B7D13F00E7C1786517E6FEE
:104270007F6BD8907E377F37D8907E377F378651D7
:10428000806F816B7E5180137F5181137C5180132D
:104290007D5181137A5180137B51811378518013A2
:1042A00079518113765180137751811374518013A2
:1042B0007551811372518011826F73518111836F17
:1042C00086C084F0856B080E6F256C6F000E702120
:1042D0006D6F010E6E6F6EECC3F00001726F736B49
:1042E000D89072377337D8907237733772518413FE
:1042F00073518513080E6F256C6F000E70216D6F62
:10430000020E6E6F6EECC3F00001726F736B723B46
:10431000733BF00E731772510F0B7313F00E72177D
:104320007251841373518513080E6F256C6F000E44
:1043300070216D6F030E6E6F6EECC3F00001726F33
:10434000736B060ED89072377337E82EFBD7725115
:10435000841373518513080E6F256C6F000E702146
:104360006D6F040E6E6F6EECC3F00001726F7251D0
:10437000746F736B7351841374518513080E6F251A
:104380006C6F000E70216D6F050E6E6F6EECC3F0DA
:104390000001726F736B0A0ED89072377337E82E74
:1043A000FBD77251841373518513080E6F256C6F00
:1043B000000E70216D6F060E6E6F6EECC3F0000183
:1043C000726F736B0C0ED89072377337E82EFBD771
:1043D0007251841373518513080E6F256C6F000E94
:1043E00070216D6F070E6E6F6EECC3F00001726F7F
:1043F000736B0E0ED89072377337E82EFBD772515D
:104400008413735185138451821944E185518319B2
:10441000D8A4120030D020EE02F06F51D92670518E
:10442000DA22DECF60F0DDCF61F071C062F01FEC08
:10443000C6F012000001711F20EE02F06F51D92664
:104440007051DA22DECF60F0DDCF61F071C062F032
:104450001FECC6F01200000120EE04F06F51D926C7
:104460007051DA22DECF60F0DDCF61F071C062F012
:104470001FECC6F0120000018651000AD8B41200E9
:10448000010AD8B4C8D7030AD8B4D4D7010AD8A42B
:104490001200E1D712000001606F7ED03F0E1200C3
:1044A000060E12005B0E12004F0E1200660E120076
:1044B0006D0E12007D0E1200070E12007F0E12000C
:1044C0006F0E12005F0E12007C0E1200580E1200CA
:1044D0005E0E12007B0E1200710E12006F0E1200A3
:1044E000740E1200040E12000E0E12007A0E12004C
:1044F000060E1200140E1200540E12005C0E120072
:10450000730E1200670E1200500E12006D0E120094
:10451000780E12001C0E1200620E12002A0E1200FB
:10452000640E12006E0E12005B0E1200770E120067
:104530007F0E1200390E12003F0E1200790E12008B
:10454000710E12003D0E1200760E1200060E1200C1
:104550001E0E1200570E1200380E1200760E1200B8
:10456000760E12003F0E1200730E12003F0E120064
:10457000770E12006D0E1200310E12003E0E120068
:104580003E0E12007E0E1200760E1200660E120013
:104590005B0E1200800E1200000160512E0AD8B48A
:1045A000F9D71E0AD8B47AD7010AD8B479D7030A42
:1045B000D8B478D7010AD8B477D7070AD8B476D751
:1045C000010AD8B475D7030AD8B474D7010AD8B48D
:1045D00073D70F0AD8B472D7010AD8B471D7780A42
:1045E000D8B4A4D7030AD8B4A3D7010AD8B4A2D7A1
:1045F000070AD8B4A1D7010AD8B4A0D7030AD8B4FF
:104600009FD7010AD8B49ED70F0AD8B49DD7010A04
:10461000D8B49CD7030AD8B49BD7010AD8B49AD788
:10462000070AD8B499D7010AD8B498D7030AD8B4DE
:1046300097D7010AD8B496D71F0AD8B495D7010ADC
:10464000D8B494D7030AD8B493D7010AD8B492D770
:10465000070AD8B491D7010AD8B490D7030AD8B4BE
:104660008FD7010AD8B48ED70F0AD8B48DD7010AD4
:10467000D8B48CD7030AD8B48BD73B0AD8B422D786
:10468000030AD8B421D7010AD8B420D7070AD8B46E
:104690001FD7010AD8B41ED7030AD8B41DD7010A00
:1046A000D8B41CD70F0AD8B41BD7010AD8B41AD76C
:1046B000030AD8B419D7010AD8B418D7070AD8B44E
:1046C00017D7010AD8B416D7030AD8B415D7010AE8
:1046D000D8B414D71F0AD8B413D7010AD8B412D744
:1046E000030AD8B411D7010AD8B410D7070AD8B42E
:1046F0000FD7010AD8B40ED7030AD8B40DD7010AD0
:10470000D8B40CD70F0AD8B40BD7010AD8B40AD73B
:10471000030AD8B409D7000E12000001B751B8112E
:10472000B911BA11D8A409D0000EB76F000EB86F36
:10473000800EB96F3F0EBA6F1200180E606F720EC6
:10474000616F310E626F440E636FB7C064F0B8C022
:1047500065F0B9C066F0BAC067F04DECB1F0000189
:10476000D8B00FD0000E01011B6F220E1A6FFF0E82
:104770000001B76FFF0EB86F7F0EB96F7F0EBA6F73
:104780001200B7C060F0B8C061F0B9C062F0BAC042
:1047900063F0870E646F480E656F3A0E666FC40E45
:1047A000676F4DECB1F00001D8B00FD0000E0101E1
