:0614000055EF0AF0120096
:101408005182FACF17F0FBCF18F0E9CF19F0EACFE5
:101418001AF0E1CF1BF0E2CF1CF0D9CF1DF0DACFE4
:101428001EF0F3CF1FF0F4CF20F0F6CF21F0F7CF66
:1014380022F0F8CF23F0F5CF24F051C025F052C0A8
:1014480026F053C027F054C028F0F292F2B4F2AA62
:1014580002D0D8ECABF028C054F027C053F026C017
:1014680052F025C051F024C0F5FF23C0F8FF22C078
:10147800F7FF21C0F6FF20C0F4FF1FC0F3FF1EC016
:10148800DAFF1DC0D9FF1CC0E2FF1BC0E1FF1AC074
:10149800EAFF19C0E9FF18C0FBFF17C0FAFF519215
:0614A80011008CEF9FF023
:10FB900000001180002C0100B10200350036000089
:10FBA000B202003500360000B30200350036000214
:10FBB000003500360000B4000000C0A2000200843E
:10FBC0000000C1C50000C20D00000000C38D002A66
:10FBD0000000C48D00EE0000C50A000036C8000019
:10FBE000E012001C001000180033002C0025002833
:10FBF00000280027002F003C000000030003001035
:10FC0000008000780000E112001C00100018002D98
:10FC100000280023002800280026002F003B0000B9
:10FC200000030003001000003A0500002A00000253
:10FC30000000008100002B000003000000A2000073
:10FC400029002C0200040008001000200040008061
:10FC50000000010001020001000100020200000397
:10FC600003030001000A006400E8031027000103F9
:10FC7000070F1F3F7FFF0002010301041000000077
:10FC8000000000005F00000007000700147F147FE1
:10FC900014242A7F2A1223130864623649552250FD
:10FCA0000005030000001C2241000041221C000846
:10FCB0002A1C2A0808083E080800503000000808DE
:10FCC000080808006060000020100804023E514946
:10FCD000453E00427F400042615149462141454B2B
:10FCE000311814127F1027454545393C4A4949309F
:10FCF00001710905033649494936064949291E005B
:10FD00003636000000563600000008142241141454
:10FD100014141441221408000201510906324979D1
:10FD2000413E7E1111117E7F494949363E41414194
:10FD3000227F4141221C7F494949417F0909010134
:10FD40003E414151327F0808087F00417F41002039
:10FD500040413F017F081422417F404040407F02E4
:10FD600004027F7F0408107F3E4141413E7F090924
:10FD700009063E4151215E7F0919294646494949F4
:10FD80003101017F01013F4040403F1F2040201FC3
:10FD90007F2018207F631408146303047804036130
:10FDA0005149454300007F41410204081020414170
:10FDB0007F00000402010204404040404000010274
:10FDC000040020545454787F484444383844444410
:10FDD00020384444487F3854545418087E0901029E
:10FDE000081454543C7F0804047800447D400020EB
:10FDF00040443D00007F10284400417F40007C04C7
:10FE00001804787C0804047838444444387C14147A
:10FE10001408081414187C7C08040408485454542A
:10FE200020043F4440203C4040207C1C2040201CBB
:10FE30003C4030403C44281028440C5050503C4436
:10FE400064544C44000836410000007F000000412B
:10FE500036080008082A1C08081C2A080800008028
:10FE60003F1872313FF0FD753E4758633D58951D70
:10FE70003C82C4AE3AA8782139EF938037A092A78C
:10FE8000354656153400000000C4FF7F3F80EFFF69
:10FE9000BE90E1A93EEC8276BE82AD2B3E0E3CC305
:10FEA000BD87D1133D4178D3BB00FCFF0F0000FF9D
:10FEB000FFF0FF00FFFF00436F756C64206E6F74EE
:10FEC00020726574726965766520646174612C20A6
:10FED000537461636B20697320656D7074792E0AA9
:10FEE00000436F756C64206E6F7420696E73657269
:10FEF0007420646174612C20537461636B20697396
:10FF00002066756C6C2E0A000A54686520436C6F7D
:10FF1000736573206F626A65637420286D6D293A7A
:10FF2000202564000A5374657073205472617665ED
:10FF30006C6C65643A202564200A0A000A537465D3
:10FF400070732054726176656C6C65643A20256428
:10FF500000537465707065642033363020646567C3
:10FF6000726565730053656E736F72204D6F7669AD
:10FF70006E67212020200A000A476F696E672062A1
:10FF800061636B20746F3A202564000A20466F7508
:10FF90006E6420466C61673A202564007265763A8B
:10FFA0002564205461723A2025640A00526F626F02
:10FFB0007420526561647921200A0A0057414C4C33
:10FFC00020464F554E440A00506F733A2025642C4A
:10FFD000202564000A4144433A202564200A0A008F
:10FFE0000A53746570732025640064726976696EC3
:0FFFF00067002564200A002564090025630000CE
:020000040001F9
:100000000AD0C80E0001936F020E03D0860E936FC4
:10001000010E946F08D000019151000AD8B4F1D7B5
:10002000010AD8B4F3D720EE02F09351D9269451A7
:10003000DA2291C0DFFF93D0AF0E866F010E876F7B
:10004000020E886F030E896FA1EC91F0AF0E0001D4
:10005000866F010E876F030E886F030E896FA1EC08
:1000600091F0AF0E0001866F010E876F050E886F4D
:10007000030E896FA1EC91F0AF0E0001866F010EA7
:10008000876F040E886F000E896FA1EC91F000015C
:1000900020EE03F09351D9269451DA22C70EDE6E7A
:1000A0000F0EDD6E20EE06F09351D9269451DA2220
:1000B000C60EDE6E0F0EDD6E20EE09F09351D926CE
:1000C0009451DA22C90E47D09B0E866F010E876FBE
:1000D000070E886F030E896FA1EC91F09B0E000153
:1000E000866F010E876F060E886F030E896FA1EC75
:1000F00091F09B0E0001866F010E876F040E886FD2
:10010000030E896FA1EC91F09B0E0001866F010E2A
:10011000876F050E886F000E896FA1EC91F00001CA
:1001200020EE03F09351D9269451DA226D0EDE6E43
:100130000F0EDD6E20EE06F09351D9269451DA228F
:100140006C0EDE6E0F0EDD6E20EE09F09351D92697
:100150009451DA226F0EDE6E0F0EDD6E08D09151D3
:10016000000AD8B469D7010AD8A41200ADD720EE8E
:1001700006F09351D9269451DA22DECF60F0DDCF1C
:1001800061F0050E626F000E636FCFECA7F08CD0AC
:10019000000120EE06F09351D9269451DA22DECFE9
:1001A00060F0DDCF61F0040E626F000E636FCFEC84
:1001B000A7F0000120EE03F09351D9269451DA22E2
:1001C000DECF60F0DDCF61F0060E626F000E636F70
:1001D000CFECA7F078D0000120EE06F09351D9269D
:1001E0009451DA22DECF60F0DDCF61F0040E626F51
:1001F000000E636FCFECA7F0000120EE03F09351E7
:10020000D9269451DA22DECF60F0DDCF61F0060E00
:10021000626F010E636FCFECA7F055D0000120EEA6
:1002200006F09351D9269451DA22DECF60F0DDCF6B
:1002300061F0040E626F010E636FCFECA7F0000156
:1002400020EE03F09351D9269451DA22DECF60F0EC
:10025000DDCF61F0060E626F000E636FCFECA7F08A
:1002600032D0000120EE06F09351D9269451DA22C3
:10027000DECF60F0DDCF61F0040E626F010E636FC0
:10028000CFECA7F0000120EE03F09351D926945152
:10029000DA22DECF60F0DDCF61F0060E626F010E74
:1002A000636FCFECA7F00FD000019251000AD8B4D1
:1002B0006FD7010AD8B48FD7030AD8B4AFD7010AD1
:1002C000D8A41200CED7000120EE06F09351D92613
:1002D0009451DA22DECF60F0DDCF61F0070E626F5D
:1002E000000E636FCFECA7F0000120EE06F09351F3
:1002F000D9269451DA22DECF60F0DDCF61F0060E10
:10030000626F000E636FCFECA7F08DC06DF08EC0F2
:100310006EF08FC06FF090C070F04CEC97F093C00F
:1003200060F094C061F0B0ECABF004D09F860BD0CD
:10033000A58E09D000019151000AD8B4F7D7010A5F
:10034000D8A41200F5D793C060F094C061F03BECE4
:10035000ABF093C0D9FF94C0DAFF000EDF6E00014E
:1003600020EE06F09351D9269451DA22DECF6BF0BD
:10037000DDCF6CF0000E6D6F030E6E6F54ECACF0C1
:10038000000120EE06F09351D9269451DA22DECFF7
:1003900060F0DDCF61F0050E626F010E636FCFEC90
:1003A000A7F0120000017151800B7A6F7151712515
:1003B000806F70BF80818051D8B40DD08029D8A4BF
:1003C00008D0000E6E6F000E6F6F000E706F000E83
:1003D000716F708F08D0000E6E6F000E6F6F000E81
:1003E000706F000E716F7551800B7A1B75517525FA
:1003F0007B6F74BF7B817B51D8B40DD07B29D8A48F
:1004000008D0000E726F000E736F000E746F000E36
:10041000756F748F08D0000E726F000E736F000E30
:10042000746F000E756F7B51D8B403D08051D8A47F
:1004300009D0000E6E6F000E6F6F000E706F000E11
:10044000716F120074516E03F3CF85F0F4CF86F014
:1004500085517C6F7D6B7E6B7F6B8651816F826B6C
:10046000836B846B73516F03F3CF85F0F4CF86F009
:1004700085517C27000E7D237E237F238651812793
:10048000000E82238323842372517003F3CF85F0FF
:10049000F4CF86F085517C27000E7D237E237F23B9
:1004A00086518127000E8223832384237EC07FF020
:1004B0007DC07EF07CC07DF07C6B72516F03F3CF0A
:1004C00085F0F4CF86F085517C2786517D23000E80
:1004D0007E23000E7F2373516E03F3CF85F0F4CF9C
:1004E00086F085517C2786517D23000E7E23000EE9
:1004F0007F237EC07FF07DC07EF07CC07DF07C6B72
:1005000072516E03F3CF85F0F4CF86F085517C27CE
:1005100086517D23000E7E23000E7F2374516F03CE
:10052000F3CF85F0F4CF86F0855181278651822361
:10053000000E8323000E842373517003F3CF85F0E4
:10054000F4CF86F08551812786518223000E8323C4
:10055000000E842374517003F3CF85F0F4CF86F03E
:100560008551766F8651776F786B796B78C079F0AB
:1005700077C078F076C077F0766B76518127775127
:10058000822378518323795184237CC076F07DC007
:1005900077F07EC078F07FC079F0190E05D0D89042
:1005A0007933783377337633E82EF9D7765181274C
:1005B0007751822378518323795184237EC07FF041
:1005C0007DC07EF07CC07DF07C6B7B5180C076F07E
:1005D000776B7627000E7723820E7625856FFF0EC8
:1005E0007721866F0FD0D890813782378337843751
:1005F0007FBF8181D8907C377D377E377F378507F5
:10060000D8A0860783AFEFD7000E7B6F7FAF16D0E1
:10061000FF0E7C15766FFF0E7D15776FFF0E7E1532
:10062000786F7F0E7F15796F765177117811791178
:10063000D8A402D081A102D0010E7B6F7B51D8B427
:100640001FD0010E8127000E82238323842384A1DF
:1006500017D081C076F082C077F083C078F084C074
:1006600079F07935793378337733763376C081F022
:1006700077C082F078C083F079C084F0854B862BF8
:1006800086BF0DD0865103E18529D8A008D0000E81
:10069000816F000E826F800E836F7F0E20D086BF29
:1006A00005D086510EE18505D8B00BD0000E816FC4
:1006B000000E826F000E836F000E846F000E7A6F43
:1006C0000FD085C080F0FF0E8117FF0E82177F0EBE
:1006D0008317000E841780B1838FD8908031846F88
:1006E0007A51841381C06EF082C06FF083C070F0C5
:1006F00084C071F0120000018E51800B9B6F8E51EF
:100700008E259D6F8DBF9D819D51D8B40DD09D29A3
:10071000D8A408D0000E8B6F000E8C6F000E8D6F6A
:10072000000E8E6F8D8F06D0000E8B6F000E8C6FBB
:10073000000E8D6F000E8E6F9251800B9C6F9B513F
:100740009C19D8A49B8D925192259C6F91BF9C813E
:100750009C51D8B40DD09C29D8A408D0000E8F6F1E
:10076000000E906F000E916F000E926F918F06D069
:10077000000E8F6F000E906F000E916F000E926F43
:100780009D519C5DD8B022D09BAD02D0800E9B1BAA
:100790009DC09EF09CC09DF09EC09CF08BC09EF0C2
:1007A0008FC08BF09EC08FF08CC09EF090C08CF0FC
:1007B0009EC090F08DC09EF091C08DF09EC091F0D3
:1007C0008EC09EF092C08EF09EC092F0000E9E6F82
:1007D0009D51936F946B931F941F934B942B9C513B
:1007E000956F966B935195279451962396BF2CD075
:1007F000965104E11A0E955DD8A026D08B518C112C
:100800008D118E11D8B402D0010E01D0000E9E6F52
:10081000000E8B6F000E8C6F000E8D6F000E8E6FB2
:100820009CC09DF015D09EA105D0D8909E310109A5
:100830009E6F02D0D8909E338BB19E8F8E358E33B3
:100840008D338C338B339D2B9C519D5DD8A0EBD782
:100850009BBD29D09D51D8A409D0000E8B6F000EEE
:100860008C6F000E8D6F000E8E6F12008F518B27D4
:1008700090518C2391518D2392518E238EA183D040
:100880009EA106D0D8909E339E5101099E6F02D042
:10089000D8909E338BB19E8F8E358E338D338C33B3
:1008A0008B339D2B70D08F518B5D90518C59915112
:1008B0008D598E51800A936F9251800A9359D8B006
:1008C00036D08BC093F08CC094F08DC095F08EC064
:1008D00096F0931F941F951F961F932B000E942341
:1008E000952396238F519325976F90519421986F5C
:1008F00091519521996F925196219A6FFF0E9725EC
:100900008B6FFF0E98218C6FFF0E99218D6FFF0E5C
:100910009A218E6F800E9B1B9E6D9E51D8A40FD086
:10092000010E8B27000E8C238D238E2308D08F5130
:100930008B5F90518C5B91518D5B92518E5B8B5193
:100940008C118D118E11D8A41CD09E51D8A419D011
:10095000000E8B6F000E8C6F000E8D6F000E8E6F71
:100960001200D8908B378C378D378E379EBF8B8196
:100970009EA102D0D88001D0D8909E379D51D8A496
:100980009D078DAFEED7000E9C6F9EAF0AD09EC024
:1009900093F07F0E9317D8A402D08BA102D0010E42
:1009A0009C6F9C51D8B420D0010E8B27000E8C2355
:1009B0008D238E238EA118D08BC093F08CC094F021
:1009C0008DC095F08EC096F096359633953394335E
:1009D000933393C08BF094C08CF095C08DF096C08B
:1009E0008EF09D29D8A49D2B9D29D8B403D09D516C
:1009F000D8A40DD0000E8B6F000E8C6F000E8D6F83
:100A0000000E8E6F9D51D8A402D0000E9B6F9DA149
:100A100002D08D8F01D08D9FD8909D318E6F9BBF5E
:100A20008E8F8BC08BF08CC08CF08DC08DF08EC003
:100A30008EF01200000E00019D6F000E9C6F000EE4
:100A40009F6F000E9E6F0101F75100018C191AE192
:100A50000101F85100018D19D8A414D0D10E756F81
:100A6000FF0E766F92C077F093C078F0A2EC94F00E
:100A7000EA0E0001756FFF0E766FA2EC94F0F6ECB3
:100A80008FF085D0F7C194F0F8C195F00001941F64
:100A9000951F944B952B8C5194259E6F8D519521CC
:100AA0009F6F9FAF35D09EC094F09FC095F0941F6C
:100AB000951F944B952B94C060F095C061F0000E8B
:100AC000636F530E626FC4ECABF060C09EF061C008
:100AD0009FF0000E0001996F010E986F9FBF45D0E7
:100AE0009F5104E1A70E9E5DD8A03FD09EC094F018
:100AF0009FC095F0941F951F944B952B4C0E9425F9
:100B00009E6F010E95219F6F000E996F000E2CD0E5
:100B10009EC060F09FC061F0000E636F530E626F65
:100B2000C4ECABF060C09EF061C09FF0000E00010D
:100B3000996F000E986F9FBF18D09F5104E1A70EC8
:100B40009E5DD8A012D09EC094F09FC095F0941FD7
:100B5000951F944B952B4C0E94259E6F010E95215D
:100B60009F6F000E996F010E986F9EC061F09FC03D
:100B700062F0000E646FC80E636F98C065F099C094
:100B800066F0E8ECA3F08CC0F7F18DC0F8F192C0EC
:100B900061F093C062F092C063F093C064F096EC91
:100BA000A8F088D0FB0E0001756FFF0E766F000E67
:100BB000786F230E776FA2EC94F00DECA6F0000195
:100BC00061519C2762519D23F20E756FFF0E766F67
:100BD0009CC077F09DC078F0A2EC94F0F6EC8FF01A
:100BE00012ECACF0000161516211D8B463D0000E78
:100BF0009B6F000E9A6FBC0E756FFF0E766FA2ECA6
:100C000094F0F6EC8FF092C094F093C095F0000150
:100C1000941F951F944B952B94C061F095C062F082
:100C200092C096F093C097F0961F971F964B972B04
:100C300096C063F097C064F096ECA8F00DECA6F0B7
:100C400025D00DECA6F0000161519A2762519B233B
:100C5000F6EC8FF0FB0E0001756FFF0E766F000E45
:100C6000786F230E776FA2EC94F09C0E0001756FE5
:100C7000FF0E766F9AC077F09BC078F09CC079F039
:100C80009DC07AF0A2EC94F0F6EC8FF09CC094F04A
:100C90009DC095F00001941F951F944B952B945186
:100CA0009A5D9B51800A966F9551800A9659D8A0FB
:100CB0001200C7D700019DBF75D7E80E9C5D030EDB
:100CC0009D59D8A06FD78C518D11D8A404D0E207BC
:100CD000D8A0E30717D08C058D11D8A403D0E04B22
:100CE000E12B10D0020E8C198D11D8A403D0E24B49
:100CF000E32B08D0030E8C198D11D8A403D0E00784
:100D0000D8A0E10724ECACF01200D8900001E63541
:100D1000D96EE735DA6E6E0ED926020EDA22DECFF4
:100D2000D7F0DDCFD8F0D71FD81FD74BD82B2950FD
:100D3000D725296E2A50D8212A6E000E616F000E29
:100D4000606F0FECAAF0D8900001E635D96EE73558
:100D5000DA6E6E0ED926020EDA2260C0DEFF61C0A6
:100D6000DDFFD890E635D96EE735DA6E6E0ED926FE
:100D7000020EDA22DECFD7F0DDCFD8F02950D7250A
:100D8000296E2A50D8212A6EE64BE72B4750E65DA4
:100D9000E751800AD76F4850800AD759D8A004D0AD
:100DA000000EE76F000EE66F29C060F02AC061F008
:100DB00047C062F048C063F06CECA2F060C0E4F0A1
:100DC00061C0E5F0E4C060F0E5C061F00001000E34
:100DD00061BFFF0E626F636F010E56EC95F060C04D
:100DE00000F361C001F362C002F363C003F3000EBD
:100DF0000001C66F000EC76F000EC86F400EC96FAE
:100E000000C3C2F001C3C3F002C3C4F003C3C5F002
:100E100024EC8EF0C2C004F3C3C005F3C4C006F3D3
:100E2000C5C007F3E4C060F0E5C061F00001000E4A
:100E300061BFFF0E626F636F010E56EC95F060C0EC
:100E400008F361C009F362C00AF363C00BF3000E3C
:100E50000001C66F000EC76F400EC86F400EC96F0D
:100E600008C3C2F009C3C3F00AC3C4F00BC3C5F082
:100E700024EC8EF0C2C00CF3C3C00DF3C4C00EF35B
:100E8000C5C00FF3A60E0001726F9B0E736FC40EE8
:100E9000746F3A0E756F04C36EF005C36FF006C32E
:100EA00070F007C371F0D2EC81F06EC08FF06FC0AC
:100EB00090F070C091F071C092F0870E0001726FD7
:100EC000970E736F710E746FB50E756F0CC36EF065
:100ED0000DC36FF00EC370F00FC371F0D2EC81F050
:100EE0006EC08BF06FC08CF070C08DF071C08EF052
:100EF0007BEC83F08BC010F38CC011F38DC012F328
:100F00008EC013F38C0E0001726FB90E736F6B0EEF
:100F1000746F3F0E756FE4C060F0E5C061F0000EC5
:100F200061BFFF0E626F636F010E56EC95F060C0FB
:100F30006EF061C06FF062C070F063C071F0D2EC0F
:100F400081F06EC087F06FC088F070C089F071C00A
:100F50008AF053ECABF087C08FF088C090F089C066
:100F600091F08AC092F010C38BF011C38CF012C3C1
:100F70008DF013C38EF07BEC83F08BC014F38CC028
:100F800015F38DC016F38EC017F37B0E00018F6F23
:100F9000540E906F630E916F430E926F14C38BF0DB
:100FA00015C38CF016C38DF017C38EF07BEC83F065
:100FB0008BC09FF08CC0A0F08DC0A1F08EC0A2F0BD
:100FC00064EC9DF09FC0E4F0A0C0E5F0E4C076F0D2
:100FD000E5C077F0FFECABF0A0ECAAF01200000146
:100FE0006351800B6C6F63516325776F62BF7781AC
:100FF0007751D8B40DD07729D8A408D0000E606FEF
:10100000000E616F000E626F000E636F628F06D07C
:10101000000E606F000E616F000E626F000E636F56
:101020006751800B6C1B67516725786F66BF7881AD
:101030007851D8B40DD07829D8A408D0000E646FA8
:10104000000E656F000E666F000E676F668F06D02C
:10105000000E646F000E656F000E666F000E676F06
:101060006451651166116711D8A415D0000E606F28
:10107000000E616F000E626F000E636F800E6213D0
:101080007F0E631360C060F061C061F062C062F007
:1010900063C063F012007751D8A411D0000E606FC6
:1010A000000E616F000E626F000E636F60C060F033
:1010B00061C061F062C062F063C063F012007851F9
:1010C000686F696B681F691F684B692B77516A6F7E
:1010D0006B6B68516A2769516B237F0E6A25716FAC
:1010E000000E6B21726F60C06DF061C06EF062C067
:1010F0006FF063C070F0000E606F000E616F000E45
:10110000626F000E636F000E736F000E746F000E3F
:10111000756F000E766F000E786F28D07851D8B4B6
:1011200011D0D8906D376E376F377037D8906037E1
:1011300061376237633776BF6081D8907337743711
:101140007537763764516D5D65516E5966516F59CB
:1011500067517059D8A009D0768D64516D5F655183
:101160006E5B66516F5B6751705B782B190E78650B
:10117000D5D76D516E116F117011D8B411D0738124
:101180000FD0D890603761376237633776BF6081A0
:10119000D89073377437753776377107D8A07207D0
:1011A00062AFEFD7000E786F76AF16D0FF0E7315D3
:1011B000686FFF0E7415696FFF0E75156A6F7F0EED
:1011C00076156B6F685169116A116B11D8A402D042
:1011D00060A102D0010E786F7851D8B41FD0010EF3
:1011E0006027000E61236223632363A117D060C0D0
:1011F00068F061C069F062C06AF063C06BF06B3583
:101200006B336A336933683368C060F069C061F07A
:101210006AC062F06BC063F0714B722B72BF10D06A
:10122000725103E17129D8A00BD0000E726F716961
:10123000000E606F000E616F000E626F000E636F34
:1012400072BF05D0725111E17105D8B00ED0000EF9
:10125000726F000E716F000E606F000E616F000EF6
:10126000626F000E636F000E6C6F71C077F077A134
:1012700002D0628F01D0629FD8907731636F6C513A
:10128000631360C060F061C061F062C062F063C06F
:1012900063F01200080E00016F256C6F000E7021C4
:1012A0006D6F000E6E6F0AECABF00001866F865119
:1012B000726F736B0E0ED89072377337E82EFBD7B0
:1012C0008651746F756B0C0ED89074377537E82E95
:1012D000FBD78651766F776B0A0ED89076377737C3
:1012E000E82EFBD78651796F786B86517A6F7B6BCE
:1012F000060ED8907A377B37E82EFBD786517C6F65
:101300007D6B7C3B7D3BF00E7D177C510F0B7D137D
:10131000F00E7C1786517E6F7F6BD8907E377F37BB
:10132000D8907E377F378651806F816B7E518013D6
:101330007F5181137C5180137D5181137A51801329
:101340007B51811378518013795181137651801329
:10135000775181137451801375518113725180112B
:10136000826F73518111836F86C084F0856B080E84
:101370006F256C6F000E70216D6F010E6E6F0AECA1
:10138000ABF00001726F736BD89072377337D890DF
:10139000723773377251841373518513080E6F259A
:1013A0006C6F000E70216D6F020E6E6F0AECABF069
:1013B0000001726F736B723B733BF00E73177251C7
:1013C0000F0B7313F00E7217725184137351851340
:1013D000080E6F256C6F000E70216D6F030E6E6F1F
:1013E0000AECABF00001726F736B060ED890723787
:1013F0007337E82EFBD77251841373518513080E8F
:101400006F256C6F000E70216D6F040E6E6F0AEC0D
:10141000ABF00001726F7251746F736B7351841370
:1014200074518513080E6F256C6F000E70216D6F5F
:10143000050E6E6F0AECABF00001726F736B0A0E53
:10144000D89072377337E82EFBD7725184137351DB
:101450008513080E6F256C6F000E70216D6F060EE0
:101460006E6F0AECABF00001726F736B0C0ED890CC
:1014700072377337E82EFBD772518413735185137B
:10148000080E6F256C6F000E70216D6F070E6E6F6A
:101490000AECABF00001726F736B0E0ED8907237CE
:1014A0007337E82EFBD7725184137351851384511F
:1014B000821944E185518319D8A4120030D020EE5E
:1014C00002F06F51D9267051DA22DECF60F0DDCF05
:1014D00061F071C062F06BECADF012000001711FA1
:1014E00020EE02F06F51D9267051DA22DECF60F083
:1014F000DDCF61F071C062F06BECADF01200000165
:1015000020EE04F06F51D9267051DA22DECF60F060
:10151000DDCF61F071C062F06BECADF01200000144
:101520008651000AD8B41200010AD8B4C8D7030AF9
:10153000D8B4D4D7010AD8A41200E1D71200000110
:10154000606F7ED03F0E1200060E12005B0E12007E
:101550004F0E1200660E12006D0E12007D0E12006C
:10156000070E12007F0E12006F0E12005F0E1200A7
:101570007C0E1200580E12005E0E12007B0E12003E
:10158000710E12006F0E1200740E1200040E120083
:101590000E0E12007A0E1200060E1200140E120029
:1015A000540E12005C0E1200730E1200670E120031
:1015B000500E12006D0E1200780E12001C0E12005A
:1015C000620E12002A0E1200640E12006E0E12003D
:1015D0005B0E1200770E12007F0E1200390E120001
:1015E0003F0E1200790E1200710E12003D0E120015
:1015F000760E1200060E12001E0E1200570E12007A
:10160000380E1200760E1200760E12003F0E1200F7
:10161000730E12003F0E1200770E12006D0E1200B4
:10162000310E12003E0E12003E0E12007E0E12000F
:10163000760E1200660E12005B0E1200800E120073
:10164000000160512E0AD8B4F9D71E0AD8B47AD74F
:10165000010AD8B479D7030AD8B478D7010AD8B424
:1016600077D7070AD8B476D7010AD8B475D7030A52
:10167000D8B474D7010AD8B473D70F0AD8B472D7C4
:10168000010AD8B471D7780AD8B4A4D7030AD8B459
:10169000A3D7010AD8B4A2D7070AD8B4A1D7010AA0
:1016A000D8B4A0D7030AD8B49FD7010AD8B49ED71C
:1016B0000F0AD8B49DD7010AD8B49CD7030AD8B46E
:1016C0009BD7010AD8B49AD7070AD8B499D7010A88
:1016D000D8B498D7030AD8B497D7010AD8B496D704
:1016E0001F0AD8B495D7010AD8B494D7030AD8B43E
:1016F00093D7010AD8B492D7070AD8B491D7010A70
:10170000D8B490D7030AD8B48FD7010AD8B48ED7EB
:101710000F0AD8B48DD7010AD8B48CD7030AD8B42D
:101720008BD73B0AD8B422D7030AD8B421D7010AF1
:10173000D8B420D7070AD8B41FD7010AD8B41ED707
:10174000030AD8B41DD7010AD8B41CD70F0AD8B4DD
:101750001BD7010AD8B41AD7030AD8B419D7010A7B
:10176000D8B418D7070AD8B417D7010AD8B416D7EF
:10177000030AD8B415D7010AD8B414D71F0AD8B4AD
:1017800013D7010AD8B412D7030AD8B411D7010A63
:10179000D8B410D7070AD8B40FD7010AD8B40ED7D7
:1017A000030AD8B40DD7010AD8B40CD70F0AD8B49D
:1017B0000BD7010AD8B40AD7030AD8B409D7000E48
:1017C00012000001B751B811B911BA11D8A409D04B
:1017D000000EB76F000EB86F800EB96F3F0EBA6F74
:1017E0001200180E606F720E616F310E626F440E40
:1017F000636FB7C064F0B8C065F0B9C066F0BAC036
:1018000067F04FEC9AF00001D8B00FD0000E010144
:101810001B6F220E1A6FFF0E0001B76FFF0EB86F1D
:101820007F0EB96F7F0EBA6F1200B7C060F0B8C0FC
:1018300061F0B9C062F0BAC063F0870E646F480E01
:10184000656F3A0E666FC40E676F4FEC9AF0000139
:10185000D8B00FD0000E01011B6F220E1A6F000EC0
:101860000001B76F000EB86F000EB96F000EBA6FAF
:101870001200BAAF02D0010E01D0000EC16FC151EB
:10188000D8B412D0B7C087F0B8C088F0B9C089F01A
:10189000BAC08AF053ECABF087C0B7F088C0B8F09C
:1018A00089C0B9F08AC0BAF0B7C06EF0B8C06FF0A6
:1018B000B9C070F0BAC071F03B0E0001726FAA0E91
:1018C000736FB80E746F3F0E756FD2EC81F06EC0FF
:1018D000B7F06FC0B8F070C0B9F071C0BAF0B7C05F
:1018E000A9F0B8C0AAF0B9C0ABF0BAC0ACF0E0EC57
:1018F0009AF0A9C0BBF0AAC0BCF0ABC0BDF0ACC0B0
:10190000BEF0BBC09FF0BCC0A0F0BDC0A1F0BEC087
:10191000A2F064EC9DF09FC0BFF0A0C0C0F0B7C0C3
:101920009FF0B8C0A0F0B9C0A1F0BAC0A2F0BFC08B
:1019300060F0C0C061F00001000E61BFFF0E626F79
:10194000636F010E56EC95F060C0A3F061C0A4F087
:1019500062C0A5F063C0A6F027ECA9F09FC0B7F065
:10196000A0C0B8F0A1C0B9F0A2C0BAF0B7C09FF053
:10197000B8C0A0F0B9C0A1F0BAC0A2F05D0E0001DD
:10198000A36FFE0EA46F000EA66F090EA56FF2ECFA
:101990009BF09FC0AFF0A0C0B0F0A1C0B1F0A2C05A
:1019A000B2F0BFC0B3F0C0C0B4F0F2EC9CF0AFC076
:1019B000B7F0B0C0B8F0B1C0B9F0B2C0BAF0000131
:1019C000C151D8B42FD0B72912E1B82910E17F0E48
:1019D000B9190DE17F0EBA19D8A409D0000EB76F5E
:1019E000000EB86F000EB96F000EBA6F1200000E35
:1019F000606F000E616F800E626F3F0E636FB7C045
:101A000064F0B8C065F0B9C066F0BAC067F0EFEC3A
:101A100087F060C0B7F061C0B8F062C0B9F063C0D1
:101A2000BAF01200B7C0B7F0B8C0B8F0B9C0B9F09A
:101A3000BAC0BAF01200050E00019A6FB8D020EEBD
:101A400002F09651D9269751DA22DECF6BF0DDCF26
:101A50006CF098C06DF00F0E6E6F54ECACF000019E
:101A600020EE04F09651D9269751DA22DECF6BF0A2
:101A7000DDCF6CF098C06DF0000E6E6F54ECACF0E2
:101A8000A4D096C08FF097C090F098C091F0030E4C
:101A90000001926F48ECA8F000019A6F9A51D8A407
:101AA000120020EE02F09651D9269751DA22DECFAD
:101AB0006BF0DDCF6CF098C06DF0000E6E6F54ECE3
:101AC000ACF0000120EE04F09651D9269751DA22AD
:101AD000DECF6BF0DDCF6CF098C06DF0000E6E6F56
:101AE00054ECACF072D096C08FF097C090F098C0D4
:101AF00091F0030E0001926F48ECA8F000019A6F7C
:101B00009A51D8A4120020EE02F09651D92697518E
:101B1000DA22DECF6BF0DDCF6CF098C06DF00F0EE7
:101B20006E6F54ECACF0000120EE04F09651D92613
:101B30009751DA22DECF6BF0DDCF6CF098C06DF0FC
:101B40000F0E6E6F54ECACF040D096C08FF097C083
:101B500090F098C091F0030E0001926F48ECA8F04D
:101B600000019A6F9A51D8A4120020EE02F096510B
:101B7000D9269751DA22DECF6BF0DDCF6CF098C01A
:101B80006DF0000E6E6F54ECACF0000120EE04F02E
:101B90009651D9269751DA22DECF6BF0DDCF6CF06B
:101BA00098C06DF0000E6E6F54ECACF00ED00001DA
:101BB0009951000AD8B443D7010AD8B462D7030AAE
:101BC000D8B491D7010AD8B4C0D7080E0001962521
:101BD0006F6F000E9721706F9851040DF3CF71F065
:101BE00099C072F067ECAAF0080E000196256F6F9D
:101BF000000E9721706F9851040DF328716F99C0F2
:101C000072F067ECAAF0080E000196256F6F000EC7
:101C10009721706F9851040DF350020F716F99C0A6
:101C200072F067ECAAF0080E000196256F6F000EA7
:101C30009721706F9851040DF350030F716F99C085
:101C400072F067ECAAF01200000E0001D26FC251D0
:101C5000C311C411C511D8A424D0000E606F000EAA
:101C6000616F000E626F000E636FC6C064F0C7C084
:101C700065F0C8C066F0C9C067F04FEC9AF000018B
:101C8000D8A005D0000E01011B6F210E1A6F000EA7
:101C90000001C26F000EC36F000EC46F000EC56F4F
:101CA0001200C651C711C811C911D8A409D0000E1D
:101CB000C26F000EC36F800EC46F3F0EC56F12005F
:101CC000C5AF4FD0C6C09FF0C7C0A0F0C8C0A1F03C
:101CD000C9C0A2F064EC9DF09FC0D3F0A0C0D4F0C6
:101CE000A1C0D5F0A2C0D6F0D3C060F0D4C061F0DE
:101CF000D5C062F0D6C063F0000E56EC95F000013E
:101D0000C65160190AE1C751611907E1C85162194A
:101D100004E1C9516319D8B40FD0000E01011B6F43
:101D2000210E1A6F000E0001C26F000EC36F000E6D
:101D3000C46F000EC56F1200D351010BD26FC2C029
:101D400087F0C3C088F0C4C089F0C5C08AF053ECE6
:101D5000ABF087C0C2F088C0C3F089C0C4F08AC0AD
:101D6000C5F0C2C0AFF0C3C0B0F0C4C0B1F0C5C0D0
:101D7000B2F0E8EC93F0AFC0CAF0B0C0CBF0B1C0A5
:101D8000CCF0B2C0CDF0CAC06EF0CBC06FF0CCC00A
:101D900070F0CDC071F0C6C072F0C7C073F0C8C09B
:101DA00074F0C9C075F0D2EC81F06EC0CEF06FC097
:101DB000CFF070C0D0F071C0D1F0CEC0B7F0CFC0BE
:101DC000B8F0D0C0B9F0D1C0BAF0E1EC8BF0B7C038
:101DD000C2F0B8C0C3F0B9C0C4F0BAC0C5F00001C9
:101DE000D251D8B413D0C2C087F0C3C088F0C4C0E9
:101DF00089F0C5C08AF053ECABF087C0C2F088C050
:101E0000C3F089C0C4F08AC0C5F01200C2C0C2F0DD
:101E1000C3C0C3F0C4C0C4F0C5C0C5F01200050EF5
:101E200000019F6F6ED020EE02F09A51D9269B518F
:101E3000DA22DECF9DF0DDCF9EF09DC0D9FF9EC09F
:101E4000DAFFFF0E5CD09AC096F09BC097F0010EAF
:101E5000986F90ECA9F000019F6F9F51D8A41200D9
:101E600020EE02F09A51D9269B51DA22DECF9DF066
:101E7000DDCF9EF09DC0D9FF9EC0DAFF000EDF6E61
:101E800020EE04F02FD09AC096F09BC097F0020E7F
:101E9000986F90ECA9F000019F6F9F51D8A4120099
:101EA00020EE02F09A51D9269B51DA22DECF9DF026
:101EB000DDCF9EF09DC0D9FF9EC0DAFFFF0EDF6E22
:101EC00020EE04F0B2D79AC096F09BC097F0000EB7
:101ED000986F90ECA9F000019F6F9F51D8A4120059
:101EE00020EE02F09A51D9269B51DA22DECF9DF0E6
:101EF000DDCF9EF09DC0D9FF9EC0DAFF000EDF6EE1
:101F00000DD09C51000AD8B48ED7010AD8B49BD703
:101F1000030AD8B4B8D7010AD8B4D5D7080E9A2581
:101F20006F6F000E9B21706F000E716F9CC072F07E
:101F300067ECAAF0080E00019A256F6F000E9B2136
:101F4000706F010E716F9CC072F067ECAAF0080E02
:101F500000019A256F6F000E9B21706F020E716F4A
:101F60009CC072F067ECAAF0080E00019A256F6F12
:101F7000000E9B21706F030E716F9CC072F067ECB6
:101F8000AAF0080E00019A256F6F000E9B21706F5A
:101F9000040E716F9CC072F067ECAAF0080E00018D
:101FA0009A256F6F000E9B21706F050E716F9CC09C
:101FB00072F067ECAAF0080E00019A256F6F000E10
:101FC0009B21706F060E716F9CC072F067ECAAF0D7
:101FD000080E00019A256F6F000E9B21706F070E8F
:101FE000716F9CC072F067ECAAF012000001F5510D
:101FF000D8B41200E5C186F0E6C187F0E7C188F0E9
:10200000E8C189F0F451D8B404D0F2C085F00F0EC5
:10201000F26F000E8B6FB9D08B51020D500EF3246E
:10202000D96E020EF420DA6EDECFF9F1DDCFFAF1CF
:10203000000E8A6F130E8A6501D09ED08B51140D4D
:10204000180E836F030E846FF3508327F45084239C
:102050008A51010DF3508325D96EF4508421DA6E34
:10206000DFAE83D08B51140D180E836F030E846F77
:10207000F3508327F45084238A51010DF3508325B4
:10208000D96EF4508421DA6E7F0EDF168B51140D59
:10209000180E836F030E846FF3508327F45084234C
:1020A0008A51010DF3508325D96EF4508421DA6EE4
:1020B000DF50D8B443D035C069F036C06AF086C06E
:1020C0006BF087C06CF088C06DF089C06EF0EDC118
:1020D0006FF0EEC170F0EFC171F0F0C172F027EC5B
:1020E000A7F000018B51140D180E836F030E846F3F
:1020F000F3508327F45084238A51010DF350832534
:10210000D96EF4508421DA6EDF5039EC9FF065C04F
:1021100072F066C073F086C074F087C075F088C036
:1021200076F089C077F0EDC178F0EEC179F0EFC1BB
:102130007AF0F0C17BF0F1ECA2F017D0000E0001B4
:102140006A6F000E696F86C06BF087C06CF088C044
:102150006DF089C06EF0EDC16FF0EEC170F0EFC1AF
:1021600071F0F0C172F027ECA7F0060E000186278F
:10217000000E87238A2B5ED7080E8827000E89233E
:10218000000E876F060E866F8B2B8B51F25DD8B0D9
:1021900043D7F451D8B41200000EF46F85C0F2F0AA
:1021A0001200EFEC97F0CDECACF064ECACF0FCEC92
:1021B000ACF08CECADF023ECA4F003ECA9F0010E34
:1021C00051ECA7F0010E84ECAAF00009D8B40CD0B1
:1021D00070EC92F0A8EC96F03CECA5F0A9ECACF019
:1021E0000009D8A4D6ECAAF085EC86F0E4C076F01D
:1021F000E5C077F0FFECABF0A0ECAAF040ECA6F065
:1022000021EE79F001D80AD00500FA6EDE50FD6E9D
:10221000DE50FE6EDE50FF6EFA5012000001D96FE4
:1022200021EE5BF001D80AD00500FA6EDE50FD6E9B
:10223000DE50FE6EDE50FF6EFA5012000001DA6FC3
:1022400021EE6FF001D80AD00500FA6EDE50FD6E67
:10225000DE50FE6EDE50FF6EFA5012000001DB6FA2
:1022600021EE65F001D80AD00500FA6EDE50FD6E51
:10227000DE50FE6EDE50FF6EFA5012000001DC6F81
:10228000D951D8B405D0000E01013B6F030E3A6F4F
:102290000001DA51D8B405D0000E01013B6F010EE8
:1022A0003A6F0001DB51D8B405D0000E01013B6F3D
:1022B000020E3A6F0001DC51D8B405D0000E0101C6
:1022C0003B6F040E3A6F010E84ECAAF00009D8B4FB
:1022D0008BD701013A513B11D8A414D0FB0E000159
:1022E000756FFF0E766F000E786F230E776FA2EC7E
:1022F00094F0AC0E0001756FFF0E766FA2EC94F0B7
:10230000F6EC8FF0030E01013A193B11D8A40FD05F
:10231000F6EC8FF08DEC98F0BEEC99F0F6EC8FF0C7
:10232000000E01013B6F000E3A6FF6EC8FF0F6ECF9
:102330008FF0A9ECACF00009D8B456D7D6ECAAF0CF
:1023400053D786C0D9FF87C0DAFFDECF8BF0DDCF51
:102350008CF0050E00018A6FA7D020EE02F08651A6
:10236000D9268751DA22DECF60F0DDCF61F088C058
:1023700062F0010E636FCFECA7F0A4D08BC06FF0BA
:102380008CC070F0010E0001716F88C072F0D9EC42
:10239000A5F000018A6F8A51D8A4120020EE02F045
:1023A0008651D9268751DA22DECF60F0DDCF61F089
:1023B00088C062F0000E636FCFECA7F0000120EE42
:1023C00004F08651D9268751DA22DECF60F0DDCFC6
:1023D00061F088C062F0000E636FCFECA7F072D09E
:1023E0008BC06FF08CC070F0020E0001716F88C05E
:1023F00072F0D9ECA5F000018A6F8A51D8A41200BE
:1024000020EE02F08651D9268751DA22DECF60F025
:10241000DDCF61F088C062F0010E636FCFECA7F0F2
:10242000000120EE04F08651D9268751DA22DECF52
:1024300060F0DDCF61F088C062F0010E636FCFEC19
:10244000A7F040D08BC06FF08CC070F0000E000180
:10245000716F88C072F0D9ECA5F000018A6F8A51C3
:10246000D8A4120020EE02F08651D9268751DA2234
:10247000DECF60F0DDCF61F088C062F0000E636FE8
:10248000CFECA7F0000120EE04F08651D926875149
:10249000DA22DECF60F0DDCF61F088C062F0000E9E
:1024A000636FCFECA7F00ED000018951000AD8B4B9
:1024B00054D7010AD8B462D7030AD8B491D7010A15
:1024C000D8B4C0D7080E000186256F6F000E872193
:1024D000706F88C071F089C072F067ECAAF01200CA
:1024E0007C0E00019B6F010E9C6F000E9E6F020E12
:1024F0009D6F480E9F6F5B0EA06F010EA16F220EA5
:10250000A26F5A0EA36F010EA46F040EA56F140ED6
:10251000A66F000EA76F8CEC9EF05E0E00019B6F05
:10252000010E9C6F000E9E6F020E9D6F480E9F6FF6
:102530005B0EA06F010EA16F720EA26F5A0EA36FF9
:10254000010EA46F040EA56F140EA66F000EA76FE8
:102550008CEC9EF0540E00019B6F010E9C6F000EE0
:102560009E6F020E9D6F480E9F6F5B0EA06F010E57
:10257000A16F5E0EA26F5A0EA36F010EA46F040E20
:10258000A56F140EA66F000EA76F8CEC9EF0680E60
:1025900000019B6F010E9C6F000E9E6F020E9D6FDF
:1025A000480E9F6F5B0EA06F010EA16F4A0EA26FC7
:1025B0005A0EA36F010EA46F040EA56F140EA66F22
:1025C000000EA76F8CEC9EF0720E00019B6F010E47
:1025D0009C6F000E9E6F020E9D6F480E9F6F5B0EEC
:1025E000A06F010EA16F360EA26F5A0EA36F010EDF
:1025F000A46F040EA56F140EA66F000EA76F8CECCF
:102600009EF0A00E00018D6F860E8E6F010E8F6FF3
:10261000000E906F000E916F020E926F00EC80F032
:10262000C80E00016F6F020E706FA5ECA5F0000ED2
:102630000001A96F000EA86FA9510FE1080EA85D57
:10264000D8B012004C0EA825D96E010EA921DA6E61
:10265000000EDF6EA84BA92BEFD712000001A2518C
:10266000E4ECA1F0A0C0D9FFA1C0DAFF000160C076
:10267000DEFF61C0DDFFA25128ECA2F0000120EED8
:1026800006F0A051D926A151DA2260C0DEFF61C058
:10269000DDFFA25128ECA2F0000120EE04F0A051D1
:1026A000D926A151DA2260C0DEFF61C0DDFFA25150
:1026B000A0ECA1F0000120EE02F0A051D926A1511A
:1026C000DA2260C0DEFF61C0DDFF20EE04F0A05121
:1026D000D926A151DA22DECFA3F0DDCFA4F0A3C02A
:1026E000D9FFA4C0DAFF000EDF6E20EE02F0A05189
:1026F000D926A151DA22DECFA3F0DDCFA4F0A3C00A
:10270000D9FFA4C0DAFFFF0EDF6EA0C09AF0A1C00F
:102710009BF0000E9C6F0FEC8FF0000E0001A56F78
:10272000070EA56531D04BD0A0C086F0A1C087F0C0
:10273000A5C088F0030E0001896FA1EC91F03CD098
:10274000A0C086F0A1C087F0A5C088F0020E0001ED
:10275000896FA1EC91F030D0A0C086F0A1C087F0C5
:10276000A5C088F0010E0001896FA1EC91F024D082
:10277000A0C086F0A1C087F0A5C088F0000E0001BF
:10278000896FA1EC91F018D0A0C0D9FFA1C0DAFFE9
:10279000DECF6CF0DDCF6DF0A5C06EF00AECABF0D3
:1027A000000AD8B4C1D7010AD8B4D6D7030AD8B41E
:1027B000C7D7010AD8B4DCD70001A52BB1D7A0C078
:1027C0006FF0A1C070F0000E716F4AEC89F012003A
:1027D0000001B2AF0FD0000E01011B6F210E1A6F66
:1027E000000E0001AF6F000EB06F000EB16F000E53
:1027F000B26F1200AF51B011B111B211D8A40FD005
:10280000000E01011B6F220E1A6F000E0001AF6F48
:10281000000EB06F000EB16F000EB26F1200000E0E
:10282000726F000E736F000E746F400E756FB30EF3
:10283000646F000E656FAFC060F0B0C061F0B1C0F2
:1028400062F0B2C063F0DCEC9FF060C06EF061C07B
:102850006FF062C070F063C071F0D2EC81F06EC0B6
:102860008BF06FC08CF070C08DF071C08EF0000ED8
:1028700000018F6F000E906F800E916FBF0E926FF0
:102880007BEC83F08BC0AFF08CC0B0F08DC0B1F0AA
:102890008EC0B2F00001B307D8A0B407AFC09FF05C
:1028A000B0C0A0F0B1C0A1F0B2C0A2F0850EA36F7D
:1028B000FE0EA46F000EA66F080EA56FF2EC9BF043
:1028C0009FC0AFF0A0C0B0F0A1C0B1F0A2C0B2F004
:1028D000180E0001726F720E736F310E746F3F0E1F
:1028E000756FB3C060F0B4C061F0000E61BFFF0E41
:1028F000626F636F010E56EC95F060C06EF061C0C0
:102900006FF062C070F063C071F0D2EC81F06EC005
:102910008BF06FC08CF070C08DF071C08EF0AFC0C6
:102920008FF0B0C090F0B1C091F0B2C092F07BECEB
:1029300083F08BC0AFF08CC0B0F08DC0B1F08EC012
:10294000B2F01200770E00017E6F000E7F6F9ED0F6
:10295000250E8219D8B404D082515DECADF096D02A
:10296000000E00017C6F0ED07EC0D9FF7FC0DAFF61
:10297000DF50826F020E7E27000E7F2382515DECB6
:10298000ADF084D075C0F6FF76C0F7FF0001754B3F
:10299000762B000EF86E0800F5CF82F08251000A07
:1029A000D8B41200630AD8B4DFD7070AD8B403D06A
:1029B0000D0AD8A4E3D77EC0D9FF7FC0DAFFDECFEF
:1029C00080F0DDCF81F0020E00017E27000E7F2314
:1029D00081AF06D0030E7C13806D811FD8B0812B90
:1029E000010E826F050E8219D8B415D08251020DE6
:1029F000630EF324F66EFC0EF420F76EF86A000EF8
:102A0000F8220900F550805D0900F5508159D8A0E1
:102A100002D0822BE7D77CC07BF0030E7B17D8B4A3
:102A200003D02D0E5DECADF082C07DF02AD0000108
:102A30007D51020D630EF324F66EFC0EF420F76E4A
:102A4000F86A000EF8220900F5CF62F00A00F5CF0F
:102A500063F080C060F081C061F0A5ECA7F060C0B9
:102A600067F061C068F0000E00016A6F0A0E696FBE
:102A70006EECA9F000016751300F826F82515DEC5E
:102A8000ADF000017D077D29D8A4D1D775C0F6FF30
:102A900076C0F7FF0001754B762B000EF86E08002C
:102AA000F5CF82F08251D8B4120052D70001686F7E
:102AB00000016851D8A463AF1AD060C064F061C04F
:102AC00065F062C066F063C067F0641F651F661F33
:102AD000671F642B000E65236623672364C06AF0BA
:102AE00065C06BF066C06CF067C06DF008D060C068
:102AF0006AF061C06BF062C06CF063C06DF0605151
:102B0000611162116311D8A409D0000E606F000E2C
:102B1000616F000E626F000E636F1200960E696F98
:102B200006D0692BD8906D336C336B336A33000E4B
:102B30006A15646F000E6B15656F000E6C15666F7D
:102B4000FE0E6D15676F6451651166116711D8B47B
:102B50000DD0E7D7692B010E6A27000E6B236C237B
:102B60006D23D8906D336C336B336A33000E6A1566
:102B7000646F000E6B15656F000E6C15666FFF0EAF
:102B80006D15676F6451651166116711D8B407D070
:102B9000E1D76907D8906A376B376C376D376CBFF0
:102BA00003D0020E6961F5D769B108D0FF0E6A172C
:102BB000FF0E6B177F0E6C17FF0E6D17D8906933E1
:102BC00069C064F0656B666B676B64C067F0666BC9
:102BD000656B646B64516A1365516B1366516C13BA
:102BE00067516D136851D8A463AF01D06D8F6AC06F
:102BF00060F06BC061F06CC062F06DC063F01200F9
:102C00000001736F8AD030ECA3F01200F8ECA7F04B
:102C10001200D0ECA4F01200C6ECA0F01200FDEC03
:102C2000A6F0120073ECACF0120073C070F07F0ECF
:102C300000017017F251140D180E716F030E726FB0
:102C4000F3507127F4507223F351010DF3507125A5
:102C5000D96EF4507221DA6EDF507F0B7019D8B440
:102C600023D0010EF56FF251140D180E706F030E84
:102C7000716FF3507027F4507123F351010DF3502D
:102C80007025D96EF4507121DA6E73518009DF6EB0
:102C9000F251020D500EF324D96E020EF420DA6EBA
:102CA000F9C1DEFFFAC1DDFFFDECA6F00009D8B4E2
:102CB000120073C070F07F0E00017017F251140DF6
:102CC000180E716F030E726FF3507127F450722358
:102CD000F351010DF3507125D96EF4507221DA6E63
:102CE000DF507F0B7019D8B41200010EF56FF2514E
:102CF000140D180E706F030E716FF3507027F4509F
:102D00007123F351010DF3507025D96EF4507121E8
:102D1000DA6E73518009DF6E120000017351070AE9
:102D2000D8B47DD70F0AD8B471D7010AD8B474D7F4
:102D3000030AD8B468D7060AD8B46BD7010AD8B446
:102D400062D72D0AD8B471D7030AD8B46BD76DD720
:102D5000A0ECA6F0000E0001986F000E976F98513E
:102D60007DE1590E975DD8B079D0D8909735F66E41
:102D70009835F76E910EF626FB0EF722F86A000ED4
:102D8000F8220900800EF5180900F510D8A41DD00E
:102D900098511BE1580E975DD8B017D0974B982BE0
:102DA000D8909735F66E9835F76E910EF626FB0E95
:102DB000F722F86A000EF8220900F5CF60F00A0049
:102DC000F5CF61F0CFECA6F043D0D8900001973555
:102DD000F66E9835F76E910EF626FB0EF722F86A1E
:102DE000000EF8220900000EF55E0900010EF55AEA
:102DF000D8A01BD0000E636FD8909735F66E98352B
:102E0000F76E910EF626FB0EF722F86A000EF822F6
:102E10000900F5CF95F00900F5CF96F096C095F032
:102E2000966B955134ECACF013D0010E0001636F3A
:102E3000D8909735F66E9835F76E910EF626FB0E04
:102E4000F722F86A000EF8220800F55034ECACF0D6
:102E50000001974B982B985101E183D7000E616FC9
:102E6000640E606FCFECA6F0000E0001636F290EB8
:102E700034ECACF0010E10ECA1F0000E0001616F1B
:102E8000640E606FCFECA6F0000E00016A6F000EBA
:102E9000696FDFECA8F01200000E0001766F6C0E77
:102EA000776FDC0E786F020E796FD8906D376E37C2
:102EB0006F377037020E716FD8907933783377336C
:102EC0007633712FF9D776C060F077C061F078C0A3
:102ED00062F079C063F06DC064F06EC065F06FC0E1
:102EE00066F070C067F0AFECA2F060C07AF061C02D
:102EF0007BF062C07CF063C07DF00ED0000E00015C
:102F0000726F000E736F000E746F000E756FF02BF2
:102F1000020EF06501D023D07AC060F07BC061F072
:102F20007CC062F07DC063F00001F051010D7A0EAB
:102F3000F324F66EFC0EF420F76EF86A000EF82209
:102F40000800F550646F656B666B676BAFECA2F0C1
:102F5000000163516211D2E16105D8B0CFD7CA50E8
:102F6000F019FC0BF019CA6ECA849AECADF000019E
:102F7000F051010D7A0EF324F66EFC0EF420F76E7C
:102F8000F86A000EF8220800F5CFEFF0FF0E7A2560
:102F90000101006FFF0E00017B210101016FFF0E97
:102FA00000017C210101026FFF0E00017D21010162
:102FB000036F00C160F001C161F002C162F003C1A2
:102FC00063F00001EF51646F656B666B676BAFEC8C
:102FD000A2F000016051F06FF0C0CBFF1200010EB3
:102FE0004B6E000E0001DD6F000EDE6F000EDF6F16
:102FF000F10EA06F020EA16F000EA26F2EEC93F0E7
:10300000A50E0001A06F010EA16F010EA26F2EECA4
:1030100093F0AF0E0001A06F010EA16F020EA26F20
:103020002EEC93F09B0E0001A06F010EA16F030E1A
:10303000A26F2EEC93F0910E0001A06F010EA16F14
:10304000040EA26F2EEC93F0B90E0001A06F010EDA
:10305000A16F050EA26F2EEC93F0E70E0001A06F9A
:10306000020EA16F060EA26F2EEC93F0B90E0001B6
:10307000866F010E876F050E886F000E896FA1ECB9
:1030800091F0A50E0001966F010E976F000E986FDC
:10309000000E996F1BEC8DF0B90E0001866F010ECA
:1030A000876F060E886F030E896FA1EC91F0E70E13
:1030B00000019A6F020E9B6F030E9C6F0FEC8FF056
:1030C000E70E00016F6F020E706F040E716F000E3D
:1030D000726F32EC9EF0B90E00016F6F010E706FCF
:1030E000060E716F010E726F32EC9EF0000E51EC05
:1030F000A7F0010E51ECA7F0000E9E6E000EA16E1F
:10310000000EA46E9B8E9B8C000E0001616F640EFE
:10311000606FCFECA6F0D08E1200000E0001BB6FE6
:10312000000EBA6F000EBD6F000EBC6FBDBF06D0A3
:10313000BD513BE1040EBC5DD8B037D0000EBF6F6F
:10314000000EBE6FBFBF06D0BF512CE1050EBE5DA5
:10315000D8B028D0BCC060F0BDC061F0000E636F75
:10316000140E626FC4ECABF06A0E0001666F000EC5
:10317000676F6051662761516723D890BE35D96E5D
:10318000BF35DA6ED890D936DA366651D92667510E
:10319000DA22BAC0DEFFBBC0DDFFBA4BBB2BBE4B91
:1031A000BF2BD0D7BC4BBD2BC1D7000EC16F000EBB
:1031B000C06FC1BF06D0C15141E1040EC05DD8B09F
:1031C0003DD0000EC36F000EC26FC3BF06D0C35107
:1031D00032E1050EC25DD8B02ED0C2C066F0C3C0C9
:1031E00067F0D89066376737D89066376737C0C0C2
:1031F00060F0C1C061F0000E636F140E626FC4EC2A
:10320000ABF06A0E0001686F000E696F60516827AD
:10321000615169236651682767516923020E682549
:10322000D96E000E6921DA6E000EDE6E000EDD6EC4
:10323000C24BC32BCAD7C04BC12BBBD7000EE36F09
:10324000030EE26F000EE16F010EE06F120000014D
:1032500020EE07F07B51D9267C51DA2201D80AD022
:103260000500FA6EDE50FD6EDE50FE6EDE50FF6E23
:10327000FA5012000001836F7BC0D9FF7CC0DAFFD7
:103280008351DE18D8A41CD020EE01F07B51D92642
:103290007C51DA227D51DE5CD8B009D020EE01F0FD
:1032A0007B51D9267C51DA22000EDF6E120020EE0F
:1032B00001F07B51D9267C51DA227D51DF5E12006C
:1032C00020EE01F07B51D9267C51DA22DF507E6F4F
:1032D0007F6B7D517E27000E7F2320EE01F07B5116
:1032E000D9267C51DA22DF50806F816B7E51805D60
:1032F0008151800A826F7F51800A8259D8B01200B2
:1033000020EE01F07B51D9267C51DA227D51DF2657
:1033100020EE02F07B51D9267C51DA2210EE01F02A
:103320007B51E1267C51E222E750806F816BDE50B9
:10333000805DDE508159D8A012007BC0D9FF7CC0CF
:10334000DAFF83C0DFFF20EE01F07B51D9267C51EC
:10335000DA22000EDF6E20EE04F07B51D9267C517C
:10336000DA2201D812000500FA6EDE50FD6EDE5042
:10337000FE6EDE50FF6EFA5083511200000E000107
:103380008D6F030E8C6F030E8F6FE80E8E6F000E25
:10339000916F000E906F000E936FC80E926F1AEC33
:1033A00085F0C80E0001756FFF0E766FE2C077F0F2
:1033B000E3C078F0E0C079F0E1C07AF0A2EC94F0DC
:1033C000F6EC8FF0000E00018D6F000E8C6F030E77
:1033D0008F6FE80E8E6F000E916F000E906F000ED3
:1033E000936FC80E926F1AEC85F0C80E0001756FCE
:1033F000FF0E766FE2C077F0E3C078F0E0C079F0BE
:10340000E1C07AF0A2EC94F0F6EC8FF0000E00012F
:103410008D6F010E8C6F030E8F6FE80E8E6F000E96
:10342000916F000E906F000E936FC80E926F1AECA2
:1034300085F0C80E0001756FFF0E766FE2C077F061
:10344000E3C078F0E0C079F0E1C07AF0A2EC94F04B
:10345000F6EC8FF0000E00018D6F000E8C6F030EE6
:103460008F6FE80E8E6F000E916F000E906F000E42
:10347000936FC80E926F1AEC85F0C80E0001756F3D
:10348000FF0E766FE2C077F0E3C078F0E0C079F02D
:10349000E1C07AF0A2EC94F0F6EC8FF0FFD7000ECA
:1034A00000016015686F000E6115696F800E62156E
:1034B0006A6F7F0E63156B6F685169116A116B112A
:1034C000D8A408D0000E606F000E616F000E626F0E
:1034D000000E636F000E6415686F000E6515696F4E
:1034E000800E66156A6F7F0E67156B6F68516911E4
:1034F0006A116B11D8A408D0000E646F000E656FBE
:10350000000E666F000E676F63AF1DD060C068F07D
:1035100061C069F062C06AF063C06BF0681F691F28
:103520006A1F6B1F682B000E69236A236B23000E32
:103530006825606F000E6921616F000E6A21626F5D
:10354000800E6B21636F67AF1DD064C068F065C0EB
:1035500069F066C06AF067C06BF0681F691F6A1F78
:103560006B1F682B000E69236A236B23000E6825EE
:10357000646F000E6921656F000E6A21666F800E10
:103580006B21676F000E601B000E611B000E621B3B
:10359000800E631B000E641B000E651B000E661B75
:1035A000800E671B6451605D6551615966516259B7
:1035B00067516359D8B002D0D8901200D880120059
:1035C000A9C060F0AAC061F0ABC062F0ACC063F00B
:1035D000B10E0001646F000E656FDCEC9FF000011E
:1035E000B2AF14D0ACAF09D0000EA96F000EAA6F15
:1035F000800EAB6FBF0EAC6F1200000EA96F000EF5
:10360000AA6F000EAB6F000EAC6F1200B25104E156
:103610001D0EB15DD8A009D0A9C0A9F0AAC0AAF01A
:10362000ABC0ABF0ACC0ACF01200A9C09FF0AAC018
:10363000A0F0ABC0A1F0ACC0A2F064EC9DF09FC0C4
:1036400060F0A0C061F0A1C062F0A2C063F0010E02
:1036500056EC95F060C0ADF061C0AEF062C0AFF066
:1036600063C0B0F0A9C060F0AAC061F0ABC062F066
:10367000ACC063F0ADC064F0AEC065F0AFC066F042
:10368000B0C067F04FEC9AF00001D8B01BD0ADC0CD
:103690008BF0AEC08CF0AFC08DF0B0C08EF0000EDD
:1036A0008F6F000E906F800E916FBF0E926F7BEC4C
:1036B00083F08BC0A9F08CC0AAF08DC0ABF08EC097
:1036C000ACF01200ADC0A9F0AEC0AAF0AFC0ABF034
:1036D000B0C0ACF0120051B272EF9CF0000120EECD
:1036E00004F0EA51D926EB51DA22DF502DECAAF092
:1036F0000009D8B46ED0EAC0D9FFEBC0DAFFDE50C3
:10370000DE10D8B461D0EAC0D9FFEBC0DAFF010EF9
:10371000DBBE23D0010EDB5003E1DE04D8A01DD0B8
:10372000EAC0D9FFEBC0DAFFDE2804E17F0EDE1825
:10373000D8B407D0EAC0D9FFEBC0DAFFDE06000E2E
:10374000DD5A910E00016F6F010E706F000E716FE8
:10375000010E726F32EC9EF01CD0EAC0D9FFEBC0B4
:10376000DAFFDE0404E1800EDE18D8B407D0EAC028
:10377000D9FFEBC0DAFFDE2A000EDD22910E000138
:103780006F6F010E706F000E716F000E726F32EC72
:103790009EF0910E00016F6F010E706F010E716F40
:1037A000010E726F32EC9EF0910E00016F6F010EF0
:1037B000706F010E716F000E726F32EC9EF0A9EC0B
:1037C000ACF080ECADF01200A9ECACF09EECADF0EA
:1037D00012000BC160F00CC161F00DC162F072EC1F
:1037E000ADF01200A5C0A7F0A6C0A8F00001D890C7
:1037F000A737A837D890A737A837A3C0A9F0A4C087
:10380000AAF0A751A927A851AA23A9C0F6FFAAC0C8
:10381000F7FF000EF86E0900F5CFABF00900F5CF09
:10382000ACF00900F5CFADF00A00F5CFAEF04CD00A
:10383000ABC072F0ACC073F0ADC074F0AEC075F048
:103840009FC06EF0A0C06FF0A1C070F0A2C071F078
:10385000D2EC81F06EC08BF06FC08CF070C08DF038
:1038600071C08EF00001A507D8A0A607A5C0A7F0DB
:10387000A6C0A8F0D890A737A837D890A737A83700
:10388000A3C0A9F0A4C0AAF0A751A927A851AA23B0
:10389000A9C0F6FFAAC0F7FF000EF86E0900F5CF29
:1038A0008FF00900F5CF90F00900F5CF91F00A00F4
:1038B000F5CF92F07BEC83F08BC0ABF08CC0ACF01A
:1038C0008DC0ADF08EC0AEF00001A551A611D8A4F8
:1038D000AFD7ABC09FF0ACC0A0F0ADC0A1F0AEC000
:1038E000A2F01200000120EE04F0EA51D926EB51BB
:1038F000DA22DF50BBECAAF00009D8B46AD0EAC0E3
:10390000D9FFEBC0DAFFDE50DE10D8B45DD0EAC0DC
:10391000D9FFEBC0DAFF010EDBBE22D0010EDB5077
:1039200003E1DE04D8A01CD0EAC0D9FFEBC0DAFF67
:10393000DE2804E17F0EDE18D8B407D0EAC0D9FF34
:10394000EBC0DAFFDE06000EDD5A910E106E010E9E
:10395000116E000E126E010E136EE4EC9EF01BD081
:10396000EAC0D9FFEBC0DAFFDE0404E1800EDE1806
:10397000D8B407D0EAC0D9FFEBC0DAFFDE2A000EC8
:10398000DD22910E106E010E116E000E126E000EF1
:10399000136EE4EC9EF0910E106E010E116E010E8E
:1039A000126E010E136EE4EC9EF0910E106E010E7D
:1039B000116E010E126E000E136EE4EC9EF0AAEC76
:1039C000ADF086ECADF01200AAECADF0A7ECADF0D6
:1039D00012000BC101F00CC102F00DC103F079EC33
:1039E000ADF012000001AF51B011B111B211D8A465
:1039F00009D0000EAF6F000EB06F000EB16F000E59
:103A0000B26F1200B2517F0BB56FB66BD890B5375D
:103A1000B637B551B327B651B423B1AF03D0B56BA8
:103A2000B52B02D00001B56BB551B327000EB423FE
:103A3000B4AF0FD0000E01011B6F220E1A6F000EE3
:103A40000001AF6F000EB06F000EB16F000EB26FCD
:103A50001200B4BF1BD0B405D8A018D0000E0101CD
:103A60001B6F220E1A6F0001B2AF08D0FF0EAF6FAE
:103A7000FF0EB06F7F0EB16FFF0EE9D7FF0EAF6F75
:103A8000FF0EB06F7F0EB16F7F0EE1D7B435B4314A
:103A9000B66FB331B56FB251B519800BB519B26FAE
:103AA000B3C0B5F0010EB517B533B533B151B51983
:103AB0007F0BB519B16FAFC0AFF0B0C0B0F0B1C0FF
:103AC000B1F0B2C0B2F012000001A135A235A86F6A
:103AD000A851D8A409D0000E9F6F000EA06F000E51
:103AE000A16F000EA26F12009FC0A3F0A0C0A4F0AF
:103AF000A1C0A5F0A2C0A6F0200E05D0D890A63394
:103B0000A533A433A333E82EF9D7A351A76FA18F10
:103B1000FF0E9F17FF0EA017FF0EA117000EA21792
:103B2000960EA85FA8AF16D0A851800A970FD8B0FC
:103B300009D0000E9F6F000EA06F000EA16F000E47
:103B4000A26F1200D890A233A133A0339F33A83FB5
:103B5000F9D715D01F0EA8650FD0000E9F6F000E6D
:103B6000A06F000EA16F000EA26F1200D8909F37B9
:103B7000A037A137A237A807A851D8A4F7D7A751D3
:103B8000D8B408D0A21FA11FA01F9F6D000EA023B4
:103B9000A123A2239FC09FF0A0C0A0F0A1C0A1F0CC
:103BA000A2C0A2F012006CC074F06DC075F0000EDF
:103BB0000001736F000E726F6EC070F06FC071F015
:103BC00074517511D8A430D070C0D9FF71C0DAFF1C
:103BD000300EDF6E000E736F010E726F39D074C03D
:103BE00067F075C068F0000E6A6F0A0E696F6EECC0
:103BF000A9F000016751300F70C0D9FF71C0DAFF22
:103C0000DF6E74C060F075C061F0000E636F0A0E65
:103C1000626FA5ECA7F060C074F061C075F00001A0
:103C2000724B732B704B712B74517511D8B406D035
:103C3000735104E1060E725DD8A0D1D76EC060F05A
:103C40006FC061F072C062F073C063F07BECA7F0EC
:103C5000000172516E25D96E73516F21DA6E000E1C
:103C6000DF6E1200080E00016F256C6F000E7021D0
:103C70006D6F71C06EF00AECABF00001736F3DD058
:103C8000010E721720EE02F06F51D9267051DA2220
:103C9000DECF60F0DDCF61F071C062F072C063F022
:103CA000CFECA7F01200010E00017217010E721B7B
:103CB00020EE02F06F51D9267051DA22DECF60F08B
:103CC000DDCF61F071C062F072C063F0CFECA7F09D
:103CD0001200010E0001721720EE04F06F51D92678
:103CE0007051DA22DECF60F0DDCF61F071C062F09A
:103CF00072C063F0CFECA7F0120000017351000A0C
:103D0000D8B41200010AD8B4BBD7030AD8B4CBD7B1
:103D1000010AD8A41200DDD700019B519C11D8B430
:103D200012009F51A011A111D8B41200A251A311E9
:103D3000A411D8B41200A551A611A711D8B412002D
:103D40009D519E11D8A404D0000E9E6F010E9D6F50
:103D50009BC0D9FF9CC0DAFF000EDF6E20EE01F0A1
:103D60009B51D9269C51DA22000EDF6E20EE02F024
:103D70009B51D9269C51DA229DC0DEFF9EC0DDFFFB
:103D800020EE04F09B51D9269C51DA22A5C0DEFF1B
:103D9000A6C0DEFFA7C0DEFF20EE07F09B51D926AC
:103DA0009C51DA22A2C0DEFFA3C0DEFFA4C0DEFF6A
:103DB00001D812000500FA6E9F51FD6EA051FE6EF3
:103DC000A151FF6EFA501200080E10240D6E000E65
:103DD00011200E6E12C00FF06BECABF0146E3BD0E6
:103DE000010E131620EE02F01050D9261150DA22DF
:103DF000DECF01F0DDCF02F012C003F013C004F0FB
:103E000070ECA8F01200010E1316010E131A20EE2A
:103E100002F01050D9261150DA22DECF01F0DDCFAA
:103E200002F012C003F013C004F070ECA8F012000E
:103E3000010E131620EE04F01050D9261150DA228C
:103E4000DECF01F0DDCF02F012C003F013C004F0AA
:103E500070ECA8F012001450000AD8B41200010A45
:103E6000D8B4BED7030AD8B4CED7010AD8A412005A
:103E7000DFD700016B6F200E00016B5F6B51050DEA
:103E8000F3CF69F0F4CF6AF07D0E69256C6FFC0EFC
:103E90006A216D6F000E706F040E706501D037D00F
:103EA000000E716F060E716501D02DD06CC060F0F0
:103EB0006DC061F071C062F09AECABF00009D8A45B
:103EC00005D035C06EF036C06FF004D0F9C16EF089
:103ED000FAC16FF0000171510A0D820E676F020E78
:103EE000686FF3506727F45068237051020DF35048
:103EF0006725D96EF4506821DA6E6EC0DEFF6FC0A0
:103F0000DDFF712BCFD76C4B6D2B702BC5D7820E7D
:103F1000656F020E666F1200E20EF66E590EF76EB6
:103F2000010EF86E01EEE5F010EE16F00900F5CF87
:103F3000EEFFE550E150FAE15A0EF66E5B0EF76EB9
:103F4000010EF86E0900F5CFF5F0AC0EF66E5A0EC4
:103F5000F76E010EF86E00EE43F010EE0EF0090061
:103F6000F5CFEEFFE550E150FAE103EE18F011EE67
:103F70002CF0EE6AE550E150FCE1E250FAE102EE8D
:103F800000F0FB0EEE6AE806FDE101EE00F0E50E42
:103F9000EE6AE806FDE100EEDDF0180EEE6AE806D6
:103FA000FDE100EE29F01A0EEE6AE806FDE15190FF
:103FB00051920001D1EF90F0000160516111621146
:103FC0006311D8A411D064C0D9FF65C0DAFF000E18
:103FD000DE6E000EDD6E000E606F000E616F000E73
:103FE000626F000E636F120063517F0B666F676B29
:103FF000D8906637673764C0D9FF65C0DAFF66C0FE
:10400000DEFF67C0DDFF62AF03D0666B662B02D0B8
:104010000001666B665164C0D9FF65C0DAFFDE122D
:10402000000EDD1264C0D9FF65C0DAFF820EDE2605
:10403000FF0EDD2263816383638563876389638BFE
:10404000639D629F60C060F061C061F062C062F019
:1040500063C063F01200000E0001656F000E646F14
:104060002ED04C0E6425D96E010E6521DA6E61C02A
:10407000E1FF62C0E2FFE7509FEC8AF0DF6E4C0E7A
:1040800000016425D96E010E6521DA6E800EDE18FE
:10409000D8A40BD06407D8A065074C0E6425D96E50
:1040A000010E6521DA6E000EDB8E614B622B644BD4
:1040B000652B655116E1060E645DD8B012D061C063
:1040C000D9FF62C0DAFFDF50D8B40BD0CAD74C0E8C
:1040D0006425D96E010E6521DA6E000EDF6E644B29
:1040E000652B655105E1060E645DD8B01200EFD76F
:1040F00012000001686F020E00016527020E67279B
:10410000030E6827030E6627000E636F2A0E34EC39
:10411000ACF0010E0001636F000E34ECACF0010E48
:104120000001636F685134ECACF0010E0001636F65
:10413000000E34ECACF0010E0001636F665134ECFC
:10414000ACF0000E0001636F2B0E34ECACF0010EEE
:104150000001636F000E34ECACF0010E0001636FE0
:10416000655134ECACF0010E0001636F000E34ECCD
:10417000ACF0010E0001636F675134ECACF0000E3F
:104180000001636F2C0E34ECACF01200000E000145
:104190006E6FFA0E4324606FFF0E4420616F000EB5
:1041A000636F060E626F6CECA2F0000160516F6FDE
:1041B0006FC060F0616B000E636F040E626F6CEC99
:1041C000A2F0000160516D6F000E6E6F06D023ECFF
:1041D000ABF0FDECA6F000016E2B6D51040DF31E4B
:1041E000F41EF34AF42A6F51686F696BF350682725
:1041F000F4506923681F691F684B692B040E6827F8
:10420000000E69236E516A6F6B6B68516A5D6B516A
:10421000800A6C6F6951800A6C59D8B01200D7D7E8
:104220000001656F000E0001666F000E636F360EB1
:1042300034ECACF000016551030B666F2BD0010E1E
:10424000636FC80E34ECACF0800E506E800E4F6E73
:104250001200010E0001636FA80E34ECACF0800E6A
:10426000506E800E4F6E1200010E0001636F080E3B
:1042700034ECACF0800E506E800E4F6E1200010ECA
:104280000001636F680E34ECACF0800E506E800E4F
:104290004F6E120000016651000AD8B4D0D7010A4F
:1042A000D8B4D7D7030AD8B4DFD7010AD8A41200EC
:1042B000E6D700016451010D6D0EF324F66EFC0E7D
:1042C000F420F76EF86A000EF8220800F5CF6AF0C5
:1042D000000E696F03D06251635F692B6251635DA9
:1042E000D8B0F9D764516303F350636F6951632702
:1042F0006A51651763C066F06AC067F0662B02D02A
:10430000D8906737662FFCD700016751FF0A686FA6
:1043100060C0D9FF61C0DAFF6851DF1663C066F084
:1043200065C067F0662B02D0D8906737662FFCD740
:1043300060C0D9FF61C0DAFF00016751DF121200CF
:104340000001626F29D0920E0001606F0F0E616F45
:104350001200930E606F0F0E616F1200940E606F6B
:104360000F0E616F1200950E606F0F0E616F1200DD
:10437000960E606F0F0E616F1200970E606F0F0E3A
:10438000616F1200980E606F0F0E616F1200000EC9
:10439000606F000E616F120000016251000AD8B414
:1043A000D2D7010AD8B4D5D7030AD8B4D7D7010ACF
:1043B000D8B4D9D7070AD8B4DBD7010AD8B4DDD727
:1043C000030AD8B4DFD7E3D70001626F29D0B50E56
:1043D0000001606FFE0E616F1200B30E606FFE0E83
:1043E000616F1200B10E606FFE0E616F1200AF0EB2
:1043F000606FFE0E616F1200AD0E606FFE0E616F9A
:104400001200AB0E606FFE0E616F1200A90E606F9E
:10441000FE0E616F1200000E606F000E616F1200E1
:1044200000016251000AD8B4D2D7010AD8B4D5D756
:10443000030AD8B4D7D7010AD8B4D9D7070AD8B451
:10444000DBD7010AD8B4DDD7030AD8B4DFD7E3D766
:104450000001626F29D0800E0001606F0F0E616F46
:104460001200810E606F0F0E616F1200820E606F7E
:104470000F0E616F1200830E606F0F0E616F1200DE
:10448000840E606F0F0E616F1200850E606F0F0E4D
:10449000616F1200860E606F0F0E616F1200000ECA
:1044A000606F000E616F120000016251000AD8B403
:1044B000D2D7010AD8B4D5D7030AD8B4D7D7010ABE
:1044C000D8B4D9D7070AD8B4DBD7010AD8B4DDD716
:1044D000030AD8B4DFD7E3D7000E0001656F63AFDE
:1044E00006D0626D631FD8B0632B010E656F61AF9C
:1044F00006D0606D611FD8B0612B010E651B000EE8
:10450000676F000E666F62516311D8B41CD0010E44
:10451000646F04D0D89062376337642B63AFFAD7E7
:10452000D890663767376251605D63516159D8A092
:1045300005D06251605F6351615B6681D8906333DF
:104540006233642FEDD76551D8B404D0666D671F10
:10455000D8B0672B66C060F067C061F01200000E33
:104560000001686F000E696F000E6A6F000E6B6FBE
:104570006451651166116711D8B42AD0010E6C6FB1
:1045800006D0D89064376537663767376C2B67AFCE
:10459000F8D7D890683769376A376B376451605DF0
:1045A000655161596651625967516359D8A009D064
:1045B0006451605F6551615B6651625B6751635B2B
:1045C0006881D89067336633653364336C2FE1D7E5
:1045D00068C060F069C061F06AC062F06BC063F0EF
:1045E0001200000E0001826F74517825806F7651A1
:1045F0007A25816F7AC060F07BC061F078C062F08C
:1046000079C063F0C4ECABF060C07EF061C07FF0B5
:1046100076C065F000018005666F8105676F745193
:1046200079ECA0F0000E0001826F10D08251020DD3
:10463000F3507225D96EF4507321DA6EDECF65F037
:10464000DDCF66F08FECACF00001822B82517C6FE5
:104650007D6B7E517C5D7F517D59D8B01200E6D7CD
:104660002DD00001F251140D180E606F030E616F12
:10467000F3506027F4506123F351010DF35060258E
:10468000D96EF4506121DA6EDF50D8B416D0010E25
:10469000F56FF251140D180E606F030E616FF35039
:1046A0006027F4506123F351010DF3506025D96E5A
:1046B000F4506121DA6E800EDF6EF32B130E0001D1
:1046C000F365CFD7000EF36FF22B080E4526000ED0
:1046D0004622000E446E060E436E12000001666F05
:1046E000760EF66EFC0EF76E000EF86E0900F5CF32
:1046F00062F00900F5CF63F00900F5CF64F00A001D
:10470000F5CF65F0110E0001676F030E6617665155
:10471000010D620EF324D96E000EF420DA6EDF5024
:10472000606F67C061F0602B02D0D8906137602F56
:10473000FCD700016151676F67390F0B676F6751D5
:104740000F0B676F0101525100016719F00B6719D8
:104750000101526F120060C0F6FF61C0F7FF000E4A
:10476000F86E0F0EF76403D00800F55005D0F6CFB1
:10477000E9FFF7CFEAFFEF500001686F6451010DC8
:104780006D0EF324F66EFC0EF420F76EF86A000E40
:10479000F8220800F5CF66F0000E676F03D0625173
:1047A000635F672B6251635DD8B0F9D764516303CF
:1047B000F350636F675163276329656F02D0D89008
:1047C0006833652FFCD700016651681768511200E5
:1047D000000E00016A6F010E696F65516611D8A461
:1047E00004D069696A69611F621F890E64ECADF0CB
:1047F0000001645164ECADF00001635164ECADF074
:1048000000016A5164ECADF00001695164ECADF057
:10481000000E0001686F000E676F9D0E64ECADF036
:104820000001625164ECADF00001615164ECADF047
:1048300024ECACF08E0E64ECADF0070E64ECADF041
:1048400096ECADF01200DD0E00019B6F020E9C6F26
:10485000000E9E6F020E9D6FCA0E9F6F590EA06FC5
:10486000010EA16F860EA26F5A0EA36F010EA46FE8
:10487000E00EA56F550EA66F010EA76F8CEC9EF093
:10488000D30E00019B6F020E9C6F000E9E6F020EF6
:104890009D6FB20E9F6F590EA06F010EA16F0E0E8D
:1048A000A26F5A0EA36F010EA46FD80EA56F570EFC
:1048B000A66F010EA76F8CEC9EF0120001C0F6FFF0
:1048C00002C0F7FF000EF86E0F0EF76403D0080069
:1048D000F55005D0F6CFE9FFF7CFEAFFEF50096EAC
:1048E0000550010D6D0EF324F66EFC0EF420F76EEC
:1048F000F86A000EF8220800F5CF07F0000E086EE7
:1049000003D00350045E082A0350045CD8B0F9D7E2
:1049100005500402F350046E085004260428066E65
:1049200002D0D8900932062EFCD70750091609503C
:1049300012000001666F090E00016361120066C07B
:104940003CF0000E3A6E070E3A6401D01FD03CC016
:1049500064F0010E00016417060E656FD89064378D
:10496000652FFCD764513B6E6339E842F80B3A106F
:104970003B10676FD8903C32C80E606F020E616FBB
:1049800067C062F006ECA5F03A2ADDD7C80E000138
:10499000606F020E616F000E626F06ECA5F01200F0
:1049A000000E0001F36F000EF26F000E636F0E0E2B
:1049B000636501D020D0000E626F130E626501D0D6
:1049C00018D0010EF56F6351140D180E606F030EB1
:1049D000616FF3506027F45061236251010DF35071
:1049E0006025D96EF4506121DA6E800EDF6E622B85
:1049F000E4D7632BDCD7010EF46F000E446E060E75
:104A0000436E000E466E060E456E120026D0B3C1F0
:104A1000D9FFB4C1DAFF0101DF9462C0C9FFC7A0AA
:104A2000FED7C9CF62F0B3C1D9FFB4C1DAFF01012B
:104A3000DF8412009FC1D9FFA0C1DAFF0101DF9E10
:104A400062C06FFF6DA0FED76FCF62F09FC1D9FF2C
:104A5000A0C1DAFF0101DF8E1200000120EE02F09A
:104A60006051D9266151DA22DF50000AD8B4CFD77D
:104A7000010AD8A41200DED7000E0001F36F000E69
:104A8000F26F000E626F130E626501D01200000E0D
:104A9000636F0E0E636501D022D06351140D180EA2
:104AA000606F030E616FF3506027F4506123625111
:104AB000010DF3506025D96EF4506121DA6E000EBD
:104AC000DF6E6351020D500EF324D96E020EF420F6
:104AD000DA6EFF0EDE6EFF0EDD6E632BDAD7622B11
:104AE000D2D7000120EE06F06F51D9267051DA229C
:104AF000DECF60F0DDCF61F0050E626F000E636FF8
:104B0000CFECA7F0000120EE06F06F51D9267051CE
:104B1000DA22DECF6BF0DDCF6CF0000E6D6F000E91
:104B20006E6F54ECACF0000120EE06F06F51D92608
:104B30007051DA22DECF60F0DDCF61F0050E626FDA
:104B4000010E636FCFECA7F01200000120EE06F01B
:104B50006F51D9267051DA22DECF60F0DDCF61F0DF
:104B6000050E626F000E636FCFECA7F0000120EE20
:104B700006F06F51D9267051DA22DECF6BF0DDCF0F
:104B80006CF0000E6D6F020E6E6F54ECACF0000115
:104B900020EE06F06F51D9267051DA22DECF60F098
:104BA000DDCF61F0050E626F010E636FCFECA7F0F1
:104BB0001200530EF66EFC0EF76E000EF86E20EE2D
:104BC00075F00F0E0900F5CFDEFFE806FBE26FC0BF
:104BD0006CF070C06DF072C06EF00AECABF00001CA
:104BE000856F040E716117D0040E856114D0715168
:104BF000040D750E736F000E746FF3507327F4502D
:104C000074238551010DF3507325D96EF45074212E
:104C1000DA6EDF501200050E12008E0E64ECADF05D
:104C2000130E64ECADF096ECADF00001636F6351D0
:104C300001013E6F3F6B96ECADF00001636F635175
:104C400001013C6F3D6B000E0001636FFF0E646F4E
:104C500001013E510001666F656B63516517645138
:104C6000661701013C51000165110101406F00010F
:104C700066510101416F40C161F041C162F0120013
:104C8000FC0E966E7C0E00017B6F010E7C6F010E98
:104C90007D6F27EC99F05E0E00017B6F010E7C6F3B
:104CA000010E7D6F27EC99F0540E00017B6F010E11
:104CB0007C6F010E7D6F27EC99F0680E00017B6F11
:104CC000010E7C6F010E7D6F27EC99F0720E0001D2
:104CD0007B6F010E7C6F010E7D6F27EC99F0120047
:104CE000050E00018C6F86C0D9FF87C0DAFFDECFCA
:104CF0008DF0DDCF8EF08851020DF3CF8AF0885110
:104D0000020DF3288B6F8DC06FF08EC070F089C0DC
:104D100071F08AC072F0D9ECA5F000018C6F8C5153
:104D2000D8A40CD08DC06FF08EC070F089C071F027
:104D30008BC072F0D9ECA5F000018C6F8C51120081
:104D4000B90E0001866F010E876F070E886F030E84
:104D5000896FA1EC91F0B90E0001866F010E876F8B
:104D6000060E886F030E896FA1EC91F020ECA8F07D
:104D7000C00E00018D6FC60E8E6F2D0E8F6F000E50
:104D8000906F010E916F010E926F00EC80F0860E15
:104D900000016F6F010E706F71ECA5F012001BD057
:104DA000000E0001626F000E636F000E646F000E54
:104DB000656F655164110FE1B00E625D040E6359B9
:104DC000D8B009D000F0010E00016227000E632365
:104DD00064236523EED700016007D8A0610760292E
:104DE000DFE16129D8A4DCD7080E626F800E636F03
:104DF000000E646F000E656F12000001F32B060EAB
:104E00004326000E4422060E4324646F000E442005
:104E1000656F65BF07D0655103E1800E645DD8B052
:104E200030ECA3F0080E45240001646F000E46200C
:104E3000656F65BF0AD0655104E1800E645DD8A03E
:104E400004D0D0ECA4F0010E1200000E1200000EEF
:104E50000001756F000E766F6DC065F06B516F25A8
:104E6000736F7305666F6D517125746F7405676F8D
:104E70006B5179ECA0F071C076F000017651D8B496
:104E800012006FC075F07551D8B409D069C065F0D3
:104E90006AC066F08FECACF000017507F4D77607B6
:104EA000EDD700018D6F18D0AF0E0001866F010E97
:104EB000876F000E886F030E896FA1EC91F014D0FC
:104EC000AF0E0001866F010E876F010E886F030E13
:104ED000896FA1EC91F008D000018D51000AD8B47F
:104EE000E3D7010AD8B4ECD7000E0001746F8D51DE
:104EF000BBECA8F01200000162516025656F6351A0
:104F00006121666F18D060C0D9FF61C0DAFFDF5041
:104F1000646F65C0D9FF66C0DAFF60C0E1FF61C0A1
:104F2000E2FFDFCFE7FF604B612B65C0D9FF66C0B2
:104F3000DAFF64C0DFFF6507D8A066076551605DD2
:104F400066516159D8B01200DED7000E0001666FBD
:104F5000000E656F62516311D8B41CD0010E646FEE
:104F600004D0D89062376337642B63AFFAD7D890F8
:104F7000653766376251605D63516159D8A005D0CD
:104F80006251605F6351615B6581D89063336233C6
:104F9000642FEDD765C060F066C061F01200010EAD
:104FA0000001631762C064F0010E656F642B02D0CC
:104FB000D8906537642FFCD700016551FF0A666FF2
:104FC00060C0D9FF61C0DAFF6651DF1662C064F0CD
:104FD00063C065F0642B02D0D8906537642FFCD78E
:104FE00060C0D9FF61C0DAFF00016551DF12120015
:104FF0000001F351D8B406D0FA0E4326FF0E442226
:10500000F3071BD0F251D8B40CD0000E446E720ED0
:10501000436EF80E4526FF0E4622130EF36FF2077D
:105020000CD0000E446E060E436E000E466E060E49
:10503000456E000EF36F000EF26F23ECABF0120022
:10504000C1ECACF0010EB0ECA9F0000E0001616FF4
:10505000800E606FCFECA6F0010EB0ECA9F0B5ECBD
:10506000ACF0000E0001616F800E606FCFECA6F017
:10507000010EB0ECA9F0C1ECACF0000E0001616FC4
:10508000800E606FCFECA6F0010EB0ECA9F012001C
:10509000050E0001956F9151020DF3CF93F09151E0
:1050A000020DF328946F8FC086F090C087F093C0F4
:1050B00088F092C089F070ECA6F00001956F9551D0
:1050C000D8A40CD08FC086F090C087F094C088F030
:1050D00092C089F070ECA6F00001956F9551120016
:1050E000010E041603C005F0010E066E052A02D05B
:1050F000D8900636052EFCD70650FF0A076E01C071
:10510000D9FF02C0DAFF0750DF1603C005F004C064
:1051100006F0052A02D0D8900636052EFCD701C02D
:10512000D9FF02C0DAFF0650DF121200000162AFA1
:1051300006D0616D621FD8B0622B611F621F64AF21
:1051400006D0636D641FD8B0642B631F641F910E7B
:1051500064ECADF00001625164ECADF0000161510E
:1051600064ECADF00001645164ECADF000016351FA
:1051700064ECADF012000001756F18D0AF0E0001A5
:105180006F6F010E706F000E716F74C072F032ECB1
:105190009EF01200AF0E00016F6F010E706F010ED6
:1051A000716F74C072F032EC9EF012000001755104
:1051B000000AD8B4E3D7010AD8A41200EBD7000E36
:1051C00000016B6F000E6C6F000E656F5004666F10
:1051D0004F04676F000E79ECA0F04FC06CF0000137
:1051E0006C51D8B4120050C06BF06B51D8B409D0D8
:1051F00069C065F06AC066F08FECACF000016B0727
:10520000F4D76C07EDD7AD0EC16E000E0101376FFC
:10521000000E366F10D0D89001013635D96E373573
:10522000DA6E6E0ED926020EDA22000EDE6E000E47
:10523000DD6E364B372B4750365D3751800A000103
:10524000606F4850800A6059D8B01200E4D7000E51
:105250000001A31B000EA41B000EA51B800EA61BA5
:105260009FC08BF0A0C08CF0A1C08DF0A2C08EF0CA
:10527000A3C08FF0A4C090F0A5C091F0A6C092F09A
:105280007BEC83F08BC09FF08CC0A0F08DC0A1F0B0
:105290008EC0A2F0120018D0000E0001626F000E46
:1052A000636F000E646F000E656F625163116411CD
:1052B0006511D8A409D000F0010E00016227000E8C
:1052C000632364236523F1D700016007D8A0610739
:1052D0006029E2E16129D8B41200DED700016951EA
:1052E0006A11D8B418D0010E6B6F04D0D89069370A
:1052F0006A376B2B6AAFFAD76951675D6A51685993
:10530000D8A004D06951675F6A51685BD8906A334E
:1053100069336B2FF1D767C067F068C068F012007F
:10532000050E0001996F96C08FF097C090F0000EA7
:10533000916F98C092F048ECA8F00001996F9951D4
:10534000D8A40CD096C08FF097C090F0010E916F4A
:1053500098C092F048ECA8F00001996F99511200A2
:105360000001786F14D0AF0E0001746F010E756FDD
:10537000000E766F83ECABF01200AF0E0001746F7D
:10538000010E756F010E766F83ECABF01200000119
:105390007851000AD8B4E7D7010AD8A41200EDD793
:1053A00016D0000E036E000E046E000E056E000E89
:1053B000066E0350041005100610D8A408D000F0A3
:1053C000010E0326000E042205220622F2D7010652
:1053D000D8A002060128E5E10228D8B41200E1D7DE
:1053E000000120EE06F06051D9266151DA22DECFAD
:1053F00063F0DDCF64F063C0D9FF64C0DAFFDF5033
:10540000656F6251040DF328636F02D0D890653345
:10541000632FFCD70F0E00016517655112000001C4
:1054200061BF0BD0615104E1050E605DD8A005D0CD
:10543000000E616F000E606F1200000EC26E6045BC
:10544000E846FC0BC26EC280C282C2B2FED7C290D6
:10545000C3CF60F0C4CF61F012000001676F8650C7
:105460000F0B0001666F4B50D8A402D0000E120043
:10547000000E4B6E67516619D8B40AD0F00E86162E
:1054800067518612000E616F0A0E606F4BECA9F037
:10549000010E1200000120EE06F06051D926615184
:1054A000DA22DECF63F0DDCF64F063C0D9FF64C0E1
:1054B000DAFFDF50656F6229636F02D0D8906533E1
:1054C000632FFCD7010E0001651765511200030E12
:1054D000000171650ED0010E6F256B6F000E7021FB
:1054E0006C6F7151FC0F6D6F72C06EF044ECACF0DC
:1054F00012006FC06BF070C06CF071C06DF072C0C4
:105500006EF044ECACF012000001676F86500F0B98
:105510000001666F4B50D8B4FDD7000E4B6E0001F2
:1055200067516619D8B40AD0F00E861667518612F4
:10553000000E616F0A0E606F4BECA9F0010E1200B5
:10554000000E0001696F000E686F695113E1080ECB
:10555000685DD8B0120068C063F04C0E6825D96E43
:10556000010E6921DA6EDF5099ECA4F00001684B5E
:10557000692BEBD71200086E86500F0B076E4B504D
:10558000D8A402D0000E1200000E4B6E085007186F
:10559000D8B40AD0F00E861608508612000E026E9D
:1055A0000A0E016ED0ECA9F0010E12000001DD51CF
:1055B000DE11DF11D8B40CD001D80AD00500FA6E84
