:0614000055EF0AF0120096
:101408005182FACF17F0FBCF18F0E9CF19F0EACFE5
:101418001AF0E1CF1BF0E2CF1CF0D9CF1DF0DACFE4
:101428001EF0F3CF1FF0F4CF20F0F6CF21F0F7CF66
:1014380022F0F8CF23F0F5CF24F051C025F052C0A8
:1014480026F053C027F054C028F0F292F2B4F2AA62
:1014580002D059ECAEF028C054F027C053F026C093
:1014680052F025C051F024C0F5FF23C0F8FF22C078
:10147800F7FF21C0F6FF20C0F4FF1FC0F3FF1EC016
:10148800DAFF1DC0D9FF1CC0E2FF1BC0E1FF1AC074
:10149800EAFF19C0E9FF18C0FBFF17C0FAFF519215
:0614A8001100E9EFA2F0C3
:10FB560000001180002C0100B102003500360000C3
:10FB6600B202003500360000B3020035003600024E
:10FB7600003500360000B4000000C0A20002008478
:10FB86000000C1C50000C20D00000000C38D002AA0
:10FB96000000C48D00EE0000C50A000036C8000053
:10FBA600E012001C001000180033002C002500286D
:10FBB60000280027002F003C00000003000300106F
:10FBC600008000780000E112001C00100018002DD3
:10FBD60000280023002800280026002F003B0000F4
:10FBE60000030003001000003A0500002A0000028E
:10FBF6000000008100002B000003000000A20000AE
:10FC060029002C020004000800100020004000809B
:10FC160000000100010200010001000202000003D1
:10FC260003030001000A006400E803102700010333
:10FC3600070F1F3F7FFF00020103010410000000B1
:10FC4600000000005F00000007000700147F147F1B
:10FC560014242A7F2A122313086462364955225037
:10FC66000005030000001C2241000041221C000880
:10FC76002A1C2A0808083E08080050300000080818
:10FC8600080808006060000020100804023E514980
:10FC9600453E00427F400042615149462141454B65
:10FCA600311814127F1027454545393C4A494930D9
:10FCB60001710905033649494936064949291E0095
:10FCC600363600000056360000000814224114148F
:10FCD600141414412214080002015109063249790C
:10FCE600413E7E1111117E7F494949363E414141CF
:10FCF600227F4141221C7F494949417F090901016F
:10FD06003E414151327F0808087F00417F41002073
:10FD160040413F017F081422417F404040407F021E
:10FD260004027F7F0408107F3E4141413E7F09095E
:10FD360009063E4151215E7F09192946464949492E
:10FD46003101017F01013F4040403F1F2040201FFD
:10FD56007F2018207F63140814630304780403616A
:10FD66005149454300007F414102040810204141AA
:10FD76007F000004020102044040404040000102AE
:10FD8600040020545454787F48444438384444444A
:10FD960020384444487F3854545418087E090102D8
:10FDA600081454543C7F0804047800447D40002025
:10FDB60040443D00007F10284400417F40007C0401
:10FDC6001804787C0804047838444444387C1414B5
:10FDD6001408081414187C7C080404084854545465
:10FDE60020043F4440203C4040207C1C2040201CF6
:10FDF6003C4030403C44281028440C5050503C4471
:10FE060064544C44000836410000007F0000004165
:10FE160036080008082A1C08081C2A080800008062
:10FE26003F1872313FF0FD753E4758633D58951DAA
:10FE36003C82C4AE3AA8782139EF938037A092A7C6
:10FE4600354656153400000000C4FF7F3F80EFFFA3
:10FE5600BE90E1A93EEC8276BE82AD2B3E0E3CC33F
:10FE6600BD87D1133D4178D3BB00FCFF0F0000FFD7
:10FE7600FFF0FF00FFFF00507265737320646F7719
:10FE86006E20666F720A737175617265206472699D
:10FE960076652C0A00507265737320757020666F44
:10FEA60072204952207363616E206D6F64652C0A5F
:10FEB60000507265737320726967687420666F728A
:10FEC60020356D0A2064726976652C0A00546865CF
:10FED600207461726765742064697374616E63650A
:10FEE6002069733A2025640A005072657373206C8A
:10FEF60065667420666F722077616C6C20666F6C25
:10FF06006C6F770A000A54686520436C6F736573DB
:10FF1600206F626A65637420286D6D293A20256416
:10FF260000535155415245204452495645204D4FA4
:10FF36004445203321200A0054726176656C65645D
:10FF46002044697374616E63653A0A2564000A5336
:10FF5600746570732054726176656C6C65643A20C2
:10FF660025640053746570706564203336302064F0
:10FF760065677265657300202020202020202020E0
:10FF860020202020202020200A0053656E736F72E7
:10FF9600204D6F76696E67212020200A000A476F80
:10FFA600696E67206261636B20746F3A2025640076
:10FFB60053656E736F72204D6F76696E67210A0006
:10FFC60041444320415645524147452025640A0095
:10FFD600526F626F7420526561647921200A004273
:10FFE60065736E656F723A20256400546F74616C98
:0AFFF6003A2025640A00256300008C
:020000040001F9
:1000000098EC99F056ECAFF0D3ECAEF091ECAFF089
:1000100029ECB0F0FCECA5F068ECAAF0010ECFECF6
:10002000A8F0010EC2ECACF00009D8B40CD019EC69
:1000300094F051EC98F015ECA7F032ECAFF0000919
:10004000D8A414ECADF00FECACF0E1EC88F0E9C012
:1000500076F0EAC077F080ECAEF0DEECACF0E6ECE7
:10006000A7F021EE75F001D80AD00500FA6EDE5037
:10007000FD6EDE50FE6EDE50FF6EFA501200000183
:10008000E06F21EE57F001D80AD00500FA6EDE507D
:10009000FD6EDE50FE6EDE50FF6EFA501200000163
:1000A000E16F21EE6BF001D80AD00500FA6EDE5048
:1000B000FD6EDE50FE6EDE50FF6EFA501200000143
:1000C000E36F21EE61F001D80AD00500FA6EDE5030
:1000D000FD6EDE50FE6EDE50FF6EFA501200000123
:1000E000E26FE051D8B404D0000E326E030E316ED0
:1000F000E151D8B404D0000E326E010E316EE351DE
:10010000D8B404D0000E326E020E316EE251D8B473
:1001100004D0000E326E040E316E010EC2ECACF053
:100120000009D8B490D731503210D8A457D0000E5F
:100130000001746F010EFEECAAF093ECAEF042ECFD
:10014000AAF0FC0E0001756FFF0E766F000E786F3F
:10015000230E776F4BEC96F0D60E0001756FFF0EF5
:10016000766F4BEC96F0B70E0001756FFE0E766F52
:100170004BEC96F07D0E0001756FFE0E766F4BEC2A
:1001800096F09B0E0001756FFE0E766F4BEC96F0AD
:10019000EF0E0001756FFE0E766F4BEC96F07D0E44
:1001A0000001756FFF0E766F4BEC96F07D0E00012F
:1001B000756FFF0E766F4BEC96F07D0E0001756F3C
:1001C000FF0E766F4BEC96F07D0E0001756FFF0E03
:1001D000766F4BEC96F06FEC92F0CFD23104321088
:1001E000D8A46ED0010E0001746F010EFEECAAF0CF
:1001F000000E0001626FC80E616F61ECADF0F1ECB2
:10020000ADF0000161512F2662513022FC0E756F56
:10021000FF0E766F000E786F230E776F4BEC96F023
:100220003E0E0001756FFF0E766F2FC077F030C065
:1002300078F04BEC96F07D0E0001756FFF0E766F37
:100240004BEC96F07D0E0001756FFF0E766F4BEC58
:1002500096F07D0E0001756FFF0E766F4BEC96F0F9
:100260007D0E0001756FFF0E766F4BEC96F07D0EE4
:100270000001756FFF0E766F4BEC96F07D0E00015E
:10028000756FFF0E766F4BEC96F07D0E0001756F6B
:10029000FF0E766F4BEC96F07D0E0001756FFF0E32
:1002A000766F4BEC96F06FEC92F030BE66D2880E13
:1002B0002F5C130E3058D8A060D293ECAEF059D218
:1002C000020E31183210D8A412D0010E0001746F42
:1002D000010EFEECAAF0FBEC9CF06FECA0F0070E18
:1002E0000001616FD00E606F75ECA8F042D2030E72
:1002F00031183210D8A4A1D0000E0001626FFA0E9E
:10030000616F61ECADF0010E0001746F010EFEEC47
:10031000AAF0F1ECADF0000161512F2662513022BC
:10032000010132512F24346F33513020356FFC0ED0
:100330000001756FFF0E766F000E786F230E776FDA
:100340004BEC96F0270E0001756FFF0E766F4BECAD
:1003500096F0F10E0001756FFF0E766F34C177F0E5
:1003600035C178F04BEC96F07D0E0001756FFF0EF5
:10037000766F4BEC96F07D0E0001756FFF0E766F79
:100380004BEC96F07D0E0001756FFF0E766F4BEC17
:1003900096F07D0E0001756FFF0E766F4BEC96F0B8
:1003A0007D0E0001756FFF0E766F4BEC96F07D0EA3
:1003B0000001756FFF0E766F4BEC96F07D0E00011D
:1003C000756FFF0E766F4BEC96F07D0E0001756F2A
:1003D000FF0E766F4BEC96F06FEC92F030BE1AD0B9
:1003E000E80E2F5C030E3058D8A014D0000E000188
:1003F000626F520E616F000E646F640E636FA3EC48
:10040000A8F0000E306E000E2F6E0101E80E3227AC
:10041000030E3323010135BFB0D1A00E345D0F0EA2
:100420003559D8A0AAD193ECAEF0010E0001616F4E
:10043000F40E606F75ECA8F09CD1040E31183210E8
:10044000D8A49BD15EEC9BF0BFECA5F04AC0E4F0D1
:100450004BC0E5F0010E0001746F010EFEECAAF036
:1004600062ECAFF001011DBF80D11D5103E11C05FD
:10047000D8A07BD1000E326E000E316E76D1E1EC49
:1004800088F0FC0E0001756FFF0E766F000E786F1E
:10049000230E776F4BEC96F0D30E0001756FFE0EB6
:1004A000766FE4C077F0E5C078F04BEC96F0C60EBE
:1004B0000001756FFF0E766FE9C077F0EAC078F043
:1004C0004BEC96F07D0E0001756FFF0E766F4BECD6
:1004D00096F07D0E0001756FFF0E766F4BEC96F077
:1004E0007D0E0001756FFF0E766F4BEC96F07D0E62
:1004F0000001756FFF0E766F4BEC96F07D0E0001DC
:10050000756FFF0E766F4BEC96F07D0E0001756FE8
:10051000FF0E766F4BEC96F07D0E0001756FFF0EAF
:10052000766F4BEC96F07D0E0001756FFF0E766FC7
:100530004BEC96F06FEC92F0E9C076F0EAC077F001
:1005400080ECAEF0DEECACF0E6ECA7F0020E0001C1
:10055000E925DB6F000EEA21DC6FE451DB5DDC5145
:10056000800ADD6FE551800ADD59D8B016D0FE0E45
:10057000DB6FFF0EDC6FE9C0DDF0EAC0DEF0DB51BF
:10058000DD27DC51DE23DD51E45DE551800ADF6FBC
:10059000DE51800ADF59D8A012D0000E626F320EF1
:1005A000616F000E646F320E636F000E666F320E65
:1005B000656F000E686F320E676F45ECAEF0020E8D
:1005C0000001E925DB6F000EEA21DC6FE451DB5D01
:1005D000DC51800ADD6FE551800ADD59D8B012D0B8
:1005E000000E626F320E616F000E646F320E636F29
:1005F000000E666F280E656F000E686F280E676F1D
:1006000045ECAEF0FE0E0001DB6FFF0EDC6FE9C0C3
:10061000DDF0EAC0DEF0DB51DD27DC51DE23DD5109
:10062000E45DE551800ADF6FDE51800ADF59D8B002
:1006300012D0000E626F280E616F000E646F280EDC
:10064000636F000E666F320E656F000E686F320EBC
:10065000676F45ECAEF0050E0001E925DB6F000E7B
:10066000EA21DC6FE451DB5DDC51800ADD6FE5518E
:10067000800ADD59D8B012D0000E626F320E616F61
:10068000000E646F320E636F000E666F1E0E656F94
:10069000000E686F1E0E676F45ECAEF0FB0E00019A
:1006A000DB6FFF0EDC6FE9C0DDF0EAC0DEF0DB518E
:1006B000DD27DC51DE23DD51E45DE551800ADF6F8B
:1006C000DE51800ADF59D8B012D0000E626F1E0EC4
:1006D000616F000E646F1E0E636F000E666F320E48
:1006E000656F000E686F320E676F45ECAEF062EC1E
:1006F000AFF0E50E0001756FFF0E766FF1C077F079
:10070000786B4BEC96F00001F151D8B405D0000E97
:10071000E56F000EE46F2DD021EE6BF001D80AD00A
:100720000500FA6EDE50FD6EDE50FE6EDE50FF6E8E
:10073000FA5012000009D8B418D021EE6BF001D89D
:100740000AD00500FA6EDE50FD6EDE50FE6EDE5001
:10075000FF6EFA5012000001E36FE351D8B409D0E4
:10076000000E326E000E316E04D00001F151D8B48B
:1007700086D6000E326E000E316E6FEC92F032ECC7
:10078000AFF00009D8B45FD414ECADF05CD40AD05B
:10079000C80E0001936F020E03D0820E936F010EFC
:1007A000946F08D000019151000AD8B4F1D7010A22
:1007B000D8B4F3D720EE02F09351D9269451DA221F
:1007C00091C0DFFF93D0AB0E866F010E876F020ED4
:1007D000886F030E896F4AEC93F0AB0E0001866FB1
:1007E000010E876F030E886F030E896F4AEC93F03A
:1007F000AB0E0001866F010E876F050E886F030E2A
:10080000896F4AEC93F0AB0E0001866F010E876F83
:10081000040E886F000E896F4AEC93F0000120EE01
:1008200003F09351D9269451DA22C70EDE6E0F0ED3
:10083000DD6E20EE06F09351D9269451DA22C60ED1
:10084000DE6E0F0EDD6E20EE09F09351D926945125
:10085000DA22C90E47D0970E866F010E876F070EFA
:10086000886F030E896F4AEC93F0970E0001866F34
:10087000010E876F060E886F030E896F4AEC93F0A6
:10088000970E0001866F010E876F040E886F030EAE
:10089000896F4AEC93F0970E0001866F010E876F07
:1008A000050E886F000E896F4AEC93F0000120EE70
:1008B00003F09351D9269451DA226D0EDE6E0F0E9D
:1008C000DD6E20EE06F09351D9269451DA226C0E9B
:1008D000DE6E0F0EDD6E20EE09F09351D926945195
:1008E000DA226F0EDE6E0F0EDD6E08D09151000A17
:1008F000D8B469D7010AD8A41200ADD720EE06F00B
:100900009351D9269451DA22DECF60F0DDCF61F029
:10091000050E626F000E636FA1ECA9F08CD0000190
:1009200020EE06F09351D9269451DA22DECF60F002
:10093000DDCF61F0040E626F000E636FA1ECA9F0D1
:10094000000120EE03F09351D9269451DA22DECF34
:1009500060F0DDCF61F0060E626F000E636FA1ECF8
:10096000A9F078D0000120EE06F09351D9269451D9
:10097000DA22DECF60F0DDCF61F0040E626F000E90
:10098000636FA1ECA9F0000120EE03F09351D9268A
:100990009451DA22DECF60F0DDCF61F0060E626F97
:1009A000010E636FA1ECA9F055D0000120EE06F016
:1009B0009351D9269451DA22DECF60F0DDCF61F079
:1009C000040E626F010E636FA1ECA9F0000120EE2E
:1009D00003F09351D9269451DA22DECF60F0DDCFB7
:1009E00061F0060E626F000E636FA1ECA9F032D0C9
:1009F000000120EE06F09351D9269451DA22DECF81
:100A000060F0DDCF61F0040E626F010E636FA1EC48
:100A1000A9F0000120EE03F09351D9269451DA2277
:100A2000DECF60F0DDCF61F0060E626F010E636F06
:100A3000A1ECA9F00FD000019251000AD8B46FD7F1
:100A4000010AD8B48FD7030AD8B4AFD7010AD8A403
:100A50001200CED7000120EE06F09351D926945112
:100A6000DA22DECF60F0DDCF61F0070E626F000E9C
:100A7000636FA1ECA9F0000120EE06F09351D92696
:100A80009451DA22DECF60F0DDCF61F0060E626FA6
:100A9000000E636FA1ECA9F08DC06DF08EC06EF0FA
:100AA0008FC06FF090C070F0F5EC98F093C060F0DC
:100AB00094C061F01DECAEF004D09F860BD0A58EE3
:100AC00009D000019151000AD8B4F7D7010AD8A47F
:100AD0001200F5D793C060F094C061F07AECADF0ED
:100AE00093C0D9FF94C0DAFF000EDF6E000120EE44
:100AF00006F09351D9269451DA22DECF6BF0DDCF88
:100B00006CF0000E6D6F030E6E6FB3ECAEF0000173
:100B100020EE06F09351D9269451DA22DECF60F010
:100B2000DDCF61F0050E626F010E636FA1ECA9F0DD
:100B3000120000017151800B7A6F71517125806F25
:100B400070BF80818051D8B40DD08029D8A408D03E
:100B5000000E6E6F000E6F6F000E706F000E716FE3
:100B6000708F08D0000E6E6F000E6F6F000E706FEA
:100B7000000E716F7551800B7A1B755175257B6F57
:100B800074BF7B817B51D8B40DD07B29D8A408D009
:100B9000000E726F000E736F000E746F000E756F93
:100BA000748F08D0000E726F000E736F000E746F9A
:100BB000000E756F7B51D8B403D08051D8A409D0F2
:100BC000000E6E6F000E6F6F000E706F000E716F73
:100BD000120074516E03F3CF85F0F4CF86F0855187
:100BE0007C6F7D6B7E6B7F6B8651816F826B836BBD
:100BF000846B73516F03F3CF85F0F4CF86F085518A
:100C00007C27000E7D237E237F2386518127000EC3
:100C100082238323842372517003F3CF85F0F4CFB2
:100C200086F085517C27000E7D237E237F2386510D
:100C30008127000E8223832384237EC07FF07DC022
:100C40007EF07CC07DF07C6B72516F03F3CF85F03A
:100C5000F4CF86F085517C2786517D23000E7E23BC
:100C6000000E7F2373516E03F3CF85F0F4CF86F02F
:100C700085517C2786517D23000E7E23000E7F2325
:100C80007EC07FF07DC07EF07CC07DF07C6B7251B9
:100C90006E03F3CF85F0F4CF86F085517C27865123
:100CA0007D23000E7E23000E7F2374516F03F3CF4C
:100CB00085F0F4CF86F08551812786518223000E7E
:100CC0008323000E842373517003F3CF85F0F4CF98
:100CD00086F08551812786518223000E8323000EE2
:100CE000842374517003F3CF85F0F4CF86F08551DF
:100CF000766F8651776F786B796B78C079F077C0B3
:100D000078F076C077F0766B765181277751822321
:100D100078518323795184237CC076F07DC077F0AD
:100D20007EC078F07FC079F0190E05D0D890793365
:100D3000783377337633E82EF9D776518127775198
:100D4000822378518323795184237EC07FF07DC034
:100D50007EF07CC07DF07C6B7B5180C076F0776B41
:100D60007627000E7723820E7625856FFF0E77217A
:100D7000866F0FD0D89081378237833784377FBF13
:100D80008181D8907C377D377E377F378507D8A023
:100D9000860783AFEFD7000E7B6F7FAF16D0FF0EB5
:100DA0007C15766FFF0E7D15776FFF0E7E15786FC1
:100DB0007F0E7F15796F7651771178117911D8A44C
:100DC00002D081A102D0010E7B6F7B51D8B41FD01D
:100DD000010E8127000E82238323842384A117D050
:100DE00081C076F082C077F083C078F084C079F05B
:100DF0007935793378337733763376C081F077C0BD
:100E000082F078C083F079C084F0854B862B86BF52
:100E10000DD0865103E18529D8A008D0000E816F3E
:100E2000000E826F800E836F7F0E20D086BF05D0AC
:100E300086510EE18505D8B00BD0000E816F000EF3
:100E4000826F000E836F000E846F000E7A6F0FD0DA
:100E500085C080F0FF0E8117FF0E82177F0E83176B
:100E6000000E841780B1838FD8908031846F7A51BF
:100E7000841381C06EF082C06FF083C070F084C0B4
:100E800071F0120000018E51800B9B6F8E518E25E8
:100E90009D6F8DBF9D819D51D8B40DD09D29D8A443
:100EA00008D0000E8B6F000E8C6F000E8D6F000E41
:100EB0008E6F8D8F06D0000E8B6F000E8C6F000E24
:100EC0008D6F000E8E6F9251800B9C6F9B519C1901
:100ED000D8A49B8D925192259C6F91BF9C819C516F
:100EE000D8B40DD09C29D8A408D0000E8F6F000E66
:100EF000906F000E916F000E926F918F06D0000ED2
:100F00008F6F000E906F000E916F000E926F9D51CB
:100F10009C5DD8B022D09BAD02D0800E9B1B9DC0A3
:100F20009EF09CC09DF09EC09CF08BC09EF08FC038
:100F30008BF09EC08FF08CC09EF090C08CF09EC055
:100F400090F08DC09EF091C08DF09EC091F08EC04B
:100F50009EF092C08EF09EC092F0000E9E6F9D514A
:100F6000936F946B931F941F934B942B9C51956F8D
:100F7000966B935195279451962396BF2CD09651FA
:100F800004E11A0E955DD8A026D08B518C118D11DD
:100F90008E11D8B402D0010E01D0000E9E6F000E4B
:100FA0008B6F000E8C6F000E8D6F000E8E6F9CC0CD
:100FB0009DF015D09EA105D0D8909E3101099E6F5D
:100FC00002D0D8909E338BB19E8F8E358E338D3369
:100FD0008C338B339D2B9C519D5DD8A0EBD79BBD53
:100FE00029D09D51D8A409D0000E8B6F000E8C6FB4
:100FF000000E8D6F000E8E6F12008F518B27905157
:101000008C2391518D2392518E238EA183D09EA14A
:1010100006D0D8909E339E5101099E6F02D0D89081
:101020009E338BB19E8F8E358E338D338C338B33C5
:101030009D2B70D08F518B5D90518C5991518D5952
:101040008E51800A936F9251800A9359D8B036D04E
:101050008BC093F08CC094F08DC095F08EC096F04C
:10106000931F941F951F961F932B000E9423952377
:1010700096238F519325976F90519421986F91519A
:101080009521996F925196219A6FFF0E97258B6F3C
:10109000FF0E98218C6FFF0E99218D6FFF0E9A2104
:1010A0008E6F800E9B1B9E6D9E51D8A40FD0010E9B
:1010B0008B27000E8C238D238E2308D08F518B5FBE
:1010C00090518C5B91518D5B92518E5B8B518C1149
:1010D0008D118E11D8A41CD09E51D8A419D0000E09
:1010E0008B6F000E8C6F000E8D6F000E8E6F1200D6
:1010F000D8908B378C378D378E379EBF8B819EA1D2
:1011000002D0D88001D0D8909E379D51D8A49D0799
:101110008DAFEED7000E9C6F9EAF0AD09EC093F0AD
:101120007F0E9317D8A402D08BA102D0010E9C6F22
:101130009C51D8B420D0010E8B27000E8C238D2318
:101140008E238EA118D08BC093F08CC094F08DC0EC
:1011500095F08EC096F0963596339533943393334D
:1011600093C08BF094C08CF095C08DF096C08EF03B
:101170009D29D8A49D2B9D29D8B403D09D51D8A4D6
:101180000DD0000E8B6F000E8C6F000E8D6F000E59
:101190008E6F9D51D8A402D0000E9B6F9DA102D0EE
:1011A0008D8F01D08D9FD8909D318E6F9BBF8E8F7C
:1011B0008BC08BF08CC08CF08DC08DF08EC08EF00B
:1011C0001200D8902934D96E2A34DA6E000ED9264E
:1011D000020EDA22DECFD7F0DDCFD8F00001D71F24
:1011E000D81FD74BD82B010122510001D72501016F
:1011F000226F23510001D8210101236F000E00014D
:10120000616F000E606F4DECACF0D8902934D96E50
:101210002A34DA6E000ED926020EDA22000160C0EE
:10122000DEFF61C0DDFFD8902934D96E2A34DA6E32
:10123000000ED926020EDA22DECFD7F0DDCFD8F0AD
:10124000010122510001D7250101226F2351000124
:10125000D8210101236F294A2A2AF151295C2A50F9
:10126000800A0001D76F0101F251800A0001D759AD
:10127000D8A004D0000E2A6E000E296E22C160F0A4
:1012800023C161F0F1C162F0F2C163F043ECA4F05C
:1012900060C0E9F061C0EAF0E9C060F0EAC061F066
:1012A0000001000E61BFFF0E626F636F010EFFEC65
:1012B00096F060C000F361C001F362C002F363C046
:1012C00003F3000E0001C66F000EC76F000EC86F5B
:1012D000400EC96F00C3C2F001C3C3F002C3C4F023
:1012E00003C3C5F09DEC90F0C2C004F3C3C005F386
:1012F000C4C006F3C5C007F3E9C060F0EAC061F0FE
:101300000001000E61BFFF0E626F636F010EFFEC04
:1013100096F060C008F361C009F362C00AF363C0CD
:101320000BF3000E0001C66F000EC76F400EC86FB2
:10133000400EC96F08C3C2F009C3C3F00AC3C4F0AA
:101340000BC3C5F09DEC90F0C2C00CF3C3C00DF30D
:10135000C4C00EF3C5C00FF3A60E0001726F9B0E42
:10136000736FC40E746F3A0E756F04C36EF005C3CD
:101370006FF006C370F007C371F099EC85F06EC092
:101380008FF06FC090F070C091F071C092F0870E36
:101390000001726F970E736F710E746FB50E756FDB
:1013A0000CC36EF00DC36FF00EC370F00FC371F07D
:1013B00099EC85F06EC08BF06FC08CF070C08DF032
:1013C00071C08EF042EC87F08BC010F38CC011F32B
:1013D0008DC012F38EC013F38C0E0001726FB90E24
:1013E000736F6B0E746F3F0E756FE9C060F0EAC0EB
:1013F00061F0000E61BFFF0E626F636F010EFFECC4
:1014000096F060C06EF061C06FF062C070F063C0B3
:1014100071F099EC85F06EC087F06FC088F070C0F5
:1014200089F071C08AF0AAECADF087C08FF088C057
:1014300090F089C091F08AC092F010C38BF011C374
:101440008CF012C38DF013C38EF042EC87F08BC08A
:1014500014F38CC015F38DC016F38EC017F37B0EFA
:1014600000018F6F540E906F630E916F430E926F59
:1014700014C38BF015C38CF016C38DF017C38EF018
:1014800042EC87F08BC09FF08CC0A0F08DC0A1F023
:101490008EC0A2F0EFEC9EF09FC0E9F0A0C0EAF091
:1014A000E9C060F0EAC061F0000E0001636F0A0E4F
:1014B000626F31ECAEF060C0E9F061C0EAF0E9C003
:1014C00076F0EAC077F080ECAEF0DEECACF0120023
:1014D00000016351800B6C6F63516325776F62BFAE
:1014E00077817751D8B40DD07729D8A408D0000ED1
:1014F000606F000E616F000E626F000E636F628F8F
:1015000006D0000E606F000E616F000E626F000E5D
:10151000636F6751800B6C1B67516725786F66BFDF
:1015200078817851D8B40DD07829D8A408D0000E8D
:10153000646F000E656F000E666F000E676F668F3A
:1015400006D0000E646F000E656F000E666F000E11
:10155000676F6451651166116711D8A415D0000E2C
:10156000606F000E616F000E626F000E636F800E81
:1015700062137F0E631360C060F061C061F062C0EF
:1015800062F063C063F012007751D8A411D0000E4E
:10159000606F000E616F000E626F000E636F60C0BF
:1015A00060F061C061F062C062F063C063F012007D
:1015B0007851686F696B681F691F684B692B775199
:1015C0006A6F6B6B68516A2769516B237F0E6A25BE
:1015D000716F000E6B21726F60C06DF061C06EF0B4
:1015E00062C06FF063C070F0000E606F000E616F3C
:1015F000000E626F000E636F000E736F000E746F4B
:10160000000E756F000E766F000E786F28D078513F
:10161000D8B411D0D8906D376E376F377037D890F7
:10162000603761376237633776BF6081D890733730
:1016300074377537763764516D5D65516E596651F3
:101640006F5967517059D8A009D0768D64516D5F7C
:1016500065516E5B66516F5B6751705B782B190E3D
:101660007865D5D76D516E116F117011D8B411D046
:1016700073810FD0D890603761376237633776BF98
:101680006081D89073377437753776377107D8A073
:10169000720762AFEFD7000E786F76AF16D0FF0EED
:1016A0007315686FFF0E7415696FFF0E75156A6FFD
:1016B0007F0E76156B6F685169116A116B11D8A492
:1016C00002D060A102D0010E786F7851D8B41FD03B
:1016D000010E6027000E61236223632363A117D0EC
:1016E00060C068F061C069F062C06AF063C06BF00E
:1016F0006B356B336A336933683368C060F069C037
:1017000061F06AC062F06BC063F0714B722B72BF04
:1017100010D0725103E17129D8A00BD0000E726F66
:101720007169000E606F000E616F000E626F000E37
:10173000636F72BF05D0725111E17105D8B00ED040
:10174000000E726F000E716F000E606F000E616F01
:10175000000E626F000E636F000E6C6F71C077F049
:1017600077A102D0628F01D0629FD8907731636FEA
:101770006C51631360C060F061C061F062C062F0E0
:1017800063C063F01200080E00016F256C6F000E3D
:1017900070216D6F000E6E6F48ECADF00001866F2A
:1017A0008651726F736B0E0ED89072377337E82EB6
:1017B000FBD78651746F756B0C0ED89074377537E4
:1017C000E82EFBD78651766F776B0A0ED890763766
:1017D0007737E82EFBD78651796F786B86517A6F11
:1017E0007B6B060ED8907A377B37E82EFBD7865175
:1017F0007C6F7D6B7C3B7D3BF00E7D177C510F0B2E
:101800007D13F00E7C1786517E6F7F6BD8907E37EC
:101810007F37D8907E377F378651806F816B7E51BE
:1018200080137F5181137C5180137D5181137A5134
:1018300080137B5181137851801379518113765134
:101840008013775181137451801375518113725134
:101850008011826F73518111836F86C084F0856B14
:10186000080E6F256C6F000E70216D6F010E6E6F8C
:1018700048ECADF00001726F736BD890723773371C
:10188000D890723773377251841373518513080ED1
:101890006F256C6F000E70216D6F020E6E6F48EC3D
:1018A000ADF00001726F736B723B733BF00E7317F8
:1018B00072510F0B7313F00E721772518413735120
:1018C0008513080E6F256C6F000E70216D6F030E6F
:1018D0006E6F48ECADF00001726F736B060ED8901E
:1018E00072377337E82EFBD7725184137351851307
:1018F000080E6F256C6F000E70216D6F040E6E6FF9
:1019000048ECADF00001726F7251746F736B7351DC
:10191000841374518513080E6F256C6F000E7021AF
:101920006D6F050E6E6F48ECADF00001726F736B5A
:101930000A0ED89072377337E82EFBD77251841392
:1019400073518513080E6F256C6F000E70216D6F3B
:10195000060E6E6F48ECADF00001726F736B0C0EEB
:10196000D89072377337E82EFBD7725184137351B6
:101970008513080E6F256C6F000E70216D6F070EBA
:101980006E6F48ECADF00001726F736B0E0ED89065
:1019900072377337E82EFBD7725184137351851356
:1019A0008451821944E185518319D8A4120030D0A2
:1019B00020EE02F06F51D9267051DA22DECF60F0AE
:1019C000DDCF61F071C062F0F4ECAFF01200000105
:1019D000711F20EE02F06F51D9267051DA22DECF4E
:1019E00060F0DDCF61F071C062F0F4ECAFF0120096
:1019F000000120EE04F06F51D9267051DA22DECFBB
:101A000060F0DDCF61F071C062F0F4ECAFF0120075
:101A100000018651000AD8B41200010AD8B4C8D710
:101A2000030AD8B4D4D7010AD8A41200E1D712000F
:101A30000001606F7ED03F0E1200060E12005B0E9A
:101A400012004F0E1200660E12006D0E12007D0E77
:101A50001200070E12007F0E12006F0E12005F0EB2
:101A600012007C0E1200580E12005E0E12007B0E49
:101A70001200710E12006F0E1200740E1200040E8E
:101A800012000E0E12007A0E1200060E1200140E34
:101A90001200540E12005C0E1200730E1200670E3C
:101AA0001200500E12006D0E1200780E12001C0E65
:101AB0001200620E12002A0E1200640E12006E0E48
:101AC00012005B0E1200770E12007F0E1200390E0C
:101AD00012003F0E1200790E1200710E12003D0E20
:101AE0001200760E1200060E12001E0E1200570E85
:101AF0001200380E1200760E1200760E12003F0E03
:101B00001200730E12003F0E1200770E12006D0EBF
:101B10001200310E12003E0E12003E0E12007E0E1A
:101B20001200760E1200660E12005B0E1200800E7E
:101B30001200000160512E0AD8B4F9D71E0AD8B499
:101B40007AD7010AD8B479D7030AD8B478D7010A6A
:101B5000D8B477D7070AD8B476D7010AD8B475D7DE
:101B6000030AD8B474D7010AD8B473D70F0AD8B40B
:101B700072D7010AD8B471D7780AD8B4A4D7030AA7
:101B8000D8B4A3D7010AD8B4A2D7070AD8B4A1D72A
:101B9000010AD8B4A0D7030AD8B49FD7010AD8B491
:101BA0009ED70F0AD8B49DD7010AD8B49CD7030A90
:101BB000D8B49BD7010AD8B49AD7070AD8B499D712
:101BC000010AD8B498D7030AD8B497D7010AD8B471
:101BD00096D71F0AD8B495D7010AD8B494D7030A68
:101BE000D8B493D7010AD8B492D7070AD8B491D7FA
:101BF000010AD8B490D7030AD8B48FD7010AD8B451
:101C00008ED70F0AD8B48DD7010AD8B48CD7030A5F
:101C1000D8B48BD73B0AD8B422D7030AD8B421D77B
:101C2000010AD8B420D7070AD8B41FD7010AD8B4FC
:101C30001ED7030AD8B41DD7010AD8B41CD70F0A7F
:101C4000D8B41BD7010AD8B41AD7030AD8B419D705
:101C5000010AD8B418D7070AD8B417D7010AD8B4DC
:101C600016D7030AD8B415D7010AD8B414D71F0A57
:101C7000D8B413D7010AD8B412D7030AD8B411D7ED
:101C8000010AD8B410D7070AD8B40FD7010AD8B4BC
:101C90000ED7030AD8B40DD7010AD8B40CD70F0A4F
:101CA000D8B40BD7010AD8B40AD7030AD8B409D7D5
:101CB000000E12000001B751B811B911BA11D8A421
:101CC00009D0000EB76F000EB86F800EB96F3F0ECF
:101CD000BA6F1200180E606F720E616F310E626F74
:101CE000440E636FB7C064F0B8C065F0B9C066F069
:101CF000BAC067F0CDEC9AF00001D8B00FD0000E5A
:101D000001011B6F220E1A6FFF0E0001B76FFF0E4D
:101D1000B86F7F0EB96F7F0EBA6F1200B7C060F058
:101D2000B8C061F0B9C062F0BAC063F0870E646FEA
:101D3000480E656F3A0E666FC40E676FCDEC9AF071
:101D40000001D8B00FD0000E01011B6F220E1A6FD8
:101D5000000E0001B76F000EB86F000EB96F000ED5
:101D6000BA6F1200BAAF02D0010E01D0000EC16FDF
:101D7000C151D8B412D0B7C087F0B8C088F0B9C08C
:101D800089F0BAC08AF0AAECADF087C0B7F088C07D
:101D9000B8F089C0B9F08AC0BAF0B7C06EF0B8C068
:101DA0006FF0B9C070F0BAC071F03B0E0001726FF5
:101DB000AA0E736FB80E746F3F0E756F99EC85F0B5
:101DC0006EC0B7F06FC0B8F070C0B9F071C0BAF0B3
:101DD000B7C0A9F0B8C0AAF0B9C0ABF0BAC0ACF0B7
:101DE000E9EC9BF0A9C0BBF0AAC0BCF0ABC0BDF051
:101DF000ACC0BEF0BBC09FF0BCC0A0F0BDC0A1F0A5
:101E0000BEC0A2F0EFEC9EF09FC0BFF0A0C0C0F03B
:101E1000B7C09FF0B8C0A0F0B9C0A1F0BAC0A2F09E
:101E2000BFC060F0C0C061F00001000E61BFFF0ED6
:101E3000626F636F010EFFEC96F060C0A3F061C0AB
:101E4000A4F062C0A5F063C0A6F046ECABF09FC062
:101E5000B7F0A0C0B8F0A1C0B9F0A2C0BAF0B7C046
:101E60009FF0B8C0A0F0B9C0A1F0BAC0A2F0230E94
:101E70000001A36FFE0EA46F000EA66F090EA56FE2
:101E80007DEC9DF09FC0AFF0A0C0B0F0A1C0B1F05C
:101E9000A2C0B2F0BFC0B3F0C0C0B4F07DEC9EF001
:101EA000AFC0B7F0B0C0B8F0B1C0B9F0B2C0BAF0CE
:101EB0000001C151D8B42FD0B72912E1B82910E1DF
:101EC0007F0EB9190DE17F0EBA19D8A409D0000E02
:101ED000B76F000EB86F000EB96F000EBA6F120028
:101EE000000E606F000E616F800E626F3F0E636FB9
:101EF000B7C064F0B8C065F0B9C066F0BAC067F0AA
:101F000068EC8AF060C0B7F061C0B8F062C0B9F0A8
:101F100063C0BAF01200B7C0B7F0B8C0B8F0B9C02B
:101F2000B9F0BAC0BAF01200050E00019A6FB8D02D
:101F300020EE02F09651D9269751DA22DECF6BF0CF
:101F4000DDCF6CF098C06DF00F0E6E6FB3ECAEF09D
:101F5000000120EE04F09651D9269751DA22DECF07
:101F60006BF0DDCF6CF098C06DF0000E6E6FB3ECCF
:101F7000AEF0A4D096C08FF097C090F098C091F0CA
:101F8000030E0001926FF2ECA9F000019A6F9A51D2
:101F9000D8A4120020EE02F09651D9269751DA22E9
:101FA000DECF6BF0DDCF6CF098C06DF0000E6E6F81
:101FB000B3ECAEF0000120EE04F09651D926975113
:101FC000DA22DECF6BF0DDCF6CF098C06DF0000E42
:101FD0006E6FB3ECAEF072D096C08FF097C090F0F9
:101FE00098C091F0030E0001926FF2ECA9F000018D
:101FF0009A6F9A51D8A4120020EE02F09651D92679
:102000009751DA22DECF6BF0DDCF6CF098C06DF027
:102010000F0E6E6FB3ECAEF0000120EE04F096519F
:10202000D9269751DA22DECF6BF0DDCF6CF098C065
:102030006DF00F0E6E6FB3ECAEF040D096C08FF027
:1020400097C090F098C091F0030E0001926FF2ECEF
:10205000A9F000019A6F9A51D8A4120020EE02F064
:102060009651D9269751DA22DECF6BF0DDCF6CF096
:1020700098C06DF0000E6E6FB3ECAEF0000120EE74
:1020800004F09651D9269751DA22DECF6BF0DDCFDE
:102090006CF098C06DF0000E6E6FB3ECAEF00ED029
:1020A00000019951000AD8B443D7010AD8B462D7C5
:1020B000030AD8B491D7010AD8B4C0D7080E0001DA
:1020C00096256F6F000E9721706F9851040DF3CF16
:1020D00071F099C072F0A5ECACF0080E00019625E5
:1020E0006F6F000E9721706F9851040DF328716F78
:1020F00099C072F0A5ECACF0080E000196256F6F48
:10210000000E9721706F9851040DF350020F716FFC
:1021100099C072F0A5ECACF0080E000196256F6F27
:10212000000E9721706F9851040DF350030F716FDB
:1021300099C072F0A5ECACF01200000E0001D26F55
:10214000C251C311C411C511D8A424D0000E606FB0
:10215000000E616F000E626F000E636FC6C064F008
:10216000C7C065F0C8C066F0C9C067F0CDEC9AF092
:102170000001D8A005D0000E01011B6F210E1A6FBF
:10218000000E0001C26F000EC36F000EC46F000E80
:10219000C56F1200C651C711C811C911D8A409D002
:1021A000000EC26F000EC36F800EC46F3F0EC56F6E
:1021B0001200C5AF4FD0C6C09FF0C7C0A0F0C8C0C6
:1021C000A1F0C9C0A2F0EFEC9EF09FC0D3F0A0C078
:1021D000D4F0A1C0D5F0A2C0D6F0D3C060F0D4C076
:1021E00061F0D5C062F0D6C063F0000EFFEC96F04F
:1021F0000001C65160190AE1C751611907E1C851D0
:10220000621904E1C9516319D8B40FD0000E01015D
:102210001B6F210E1A6F000E0001C26F000EC36FFC
:10222000000EC46F000EC56F1200D351010BD26FA8
:10223000C2C087F0C3C088F0C4C089F0C5C08AF0AE
:10224000AAECADF087C0C2F088C0C3F089C0C4F06A
:102250008AC0C5F0C2C0AFF0C3C0B0F0C4C0B1F016
:10226000C5C0B2F091EC95F0AFC0CAF0B0C0CBF0F1
:10227000B1C0CCF0B2C0CDF0CAC06EF0CBC06FF030
:10228000CCC070F0CDC071F0C6C072F0C7C073F0A2
:10229000C8C074F0C9C075F099EC85F06EC0CEF07E
:1022A0006FC0CFF070C0D0F071C0D1F0CEC0B7F029
:1022B000CFC0B8F0D0C0B9F0D1C0BAF05AEC8EF0AF
:1022C000B7C0C2F0B8C0C3F0B9C0C4F0BAC0C5F05E
:1022D0000001D251D8B413D0C2C087F0C3C088F077
:1022E000C4C089F0C5C08AF0AAECADF087C0C2F0C6
:1022F00088C0C3F089C0C4F08AC0C5F01200C2C053
:10230000C2F0C3C0C3F0C4C0C4F0C5C0C5F0120061
:10231000050E00019F6F6ED020EE02F09A51D92673
:102320009B51DA22DECF9DF0DDCF9EF09DC0D9FF1C
:102330009EC0DAFFFF0E5CD09AC096F09BC097F06B
:10234000010E986FAFECABF000019F6F9F51D8A4C6
:10235000120020EE02F09A51D9269B51DA22DECFEC
:102360009DF0DDCF9EF09DC0D9FF9EC0DAFF000E2C
:10237000DF6E20EE04F02FD09AC096F09BC097F04D
:10238000020E986FAFECABF000019F6F9F51D8A485
:10239000120020EE02F09A51D9269B51DA22DECFAC
:1023A0009DF0DDCF9EF09DC0D9FF9EC0DAFFFF0EED
:1023B000DF6E20EE04F0B2D79AC096F09BC097F083
:1023C000000E986FAFECABF000019F6F9F51D8A447
:1023D000120020EE02F09A51D9269B51DA22DECF6C
:1023E0009DF0DDCF9EF09DC0D9FF9EC0DAFF000EAC
:1023F000DF6E0DD09C51000AD8B48ED7010AD8B434
:102400009BD7030AD8B4B8D7010AD8B4D5D7080ED9
:102410009A256F6F000E9B21706F000E716F9CC02C
:1024200072F0A5ECACF0080E00019A256F6F000E5B
:102430009B21706F010E716F9CC072F0A5ECACF027
:10244000080E00019A256F6F000E9B21706F020E1F
:10245000716F9CC072F0A5ECACF0080E00019A25DB
:102460006F6F000E9B21706F030E716F9CC072F036
:10247000A5ECACF0080E00019A256F6F000E9B21B1
:10248000706F040E716F9CC072F0A5ECACF0080E7A
:1024900000019A256F6F000E9B21706F050E716F02
:1024A0009CC072F0A5ECACF0080E00019A256F6F8D
:1024B000000E9B21706F060E716F9CC072F0A5EC30
:1024C000ACF0080E00019A256F6F000E9B21706F13
:1024D000070E716F9CC072F0A5ECACF012004D506D
:1024E000D8B41200E1C186F0E2C187F0E3C188F000
:1024F000E4C189F00001F551D8B404D0F3C085F0EF
:102500000F0EF36F000E8B6FB9D08B51020D640E5E
:10251000F324D96E020EF420DA6EDECFF3F1DDCFB4
:10252000F4F1000E8A6F130E8A6501D09ED08B5194
:10253000140D180E836F030E846FF3508327F4502D
:1025400084238A51010DF3508325D96EF4508421E0
:10255000DA6EDFAE83D08B51140D180E836F030E2D
:10256000846FF3508327F45084238A51010DF35074
:102570008325D96EF4508421DA6E7F0EDF168B51DD
:10258000140D180E836F030E846FF3508327F450DD
:1025900084238A51010DF3508325D96EF450842190
:1025A000DA6EDF50D8B443D035C069F036C06AF077
:1025B00086C06BF087C06CF088C06DF089C06EF08B
:1025C000E9C16FF0EAC170F0EBC171F0ECC172F0DB
:1025D00023ECA9F000018B51140D180E836F030E2C
:1025E000846FF3508327F45084238A51010DF350F4
:1025F0008325D96EF4508421DA6EDF5019ECA1F0F6
:1026000065C072F066C073F086C074F087C075F064
:1026100088C076F089C077F0E9C178F0EAC179F036
:10262000EBC17AF0ECC17BF0C8ECA4F017D0000E3F
:1026300000016A6F000E696F86C06BF087C06CF096
:1026400088C06DF089C06EF0E9C16FF0EAC170F02A
:10265000EBC171F0ECC172F023ECA9F0060E0001A1
:102660008627000E87238A2B5ED7080E8827000E48
:102670008923000E876F060E866F8B2B8B51F35DBF
:10268000D8B043D7F551D8B41200000EF56F85C00D
:10269000F3F0120086C0D9FF87C0DAFFDECF8BF0DF
:1026A000DDCF8CF0050E00018A6FA7D020EE02F07E
:1026B0008651D9268751DA22DECF60F0DDCF61F076
:1026C00088C062F0010E636FA1ECA9F0A4D08BC0AA
:1026D0006FF08CC070F0010E0001716F88C072F055
:1026E000B2ECA7F000018A6F8A51D8A4120020EE44
:1026F00002F08651D9268751DA22DECF60F0DDCF95
:1027000061F088C062F0000E636FA1ECA9F00001D7
:1027100020EE04F08651D9268751DA22DECF60F010
:10272000DDCF61F088C062F0000E636FA1ECA9F00C
:1027300072D08BC06FF08CC070F0020E0001716F10
:1027400088C072F0B2ECA7F000018A6F8A51D8A459
:10275000120020EE02F08651D9268751DA22DECF10
:1027600060F0DDCF61F088C062F0010E636FA1EC14
:10277000A9F0000120EE04F08651D9268751DA2213
:10278000DECF60F0DDCF61F088C062F0010E636FD4
:10279000A1ECA9F040D08BC06FF08CC070F0000E9F
:1027A0000001716F88C072F0B2ECA7F000018A6F6F
:1027B0008A51D8A4120020EE02F08651D926875102
:1027C000DA22DECF60F0DDCF61F088C062F0000E6B
:1027D000636FA1ECA9F0000120EE04F08651D92628
:1027E0008751DA22DECF60F0DDCF61F088C062F081
:1027F000000E636FA1ECA9F00ED000018951000A10
:10280000D8B454D7010AD8B462D7030AD8B491D740
:10281000010AD8B4C0D7080E000186256F6F000EDC
:102820008721706F88C071F089C072F0A5ECACF0A0
:102830001200780E00019B6F010E9C6F000E9E6FC0
:10284000020E9D6FA20E9F6F600EA06F010EA16F12
:102850004C0EA26F5F0EA36F010EA46F040EA56F46
:10286000140EA66F000EA76F17ECA0F05A0E000111
:102870009B6F010E9C6F000E9E6F020E9D6FA20E4D
:102880009F6F600EA06F010EA16F9C0EA26F5F0E76
:10289000A36F010EA46F040EA56F140EA66F000E99
:1028A000A76F17ECA0F0500E00019B6F010E9C6FFC
:1028B000000E9E6F020E9D6FA20E9F6F600EA06FA6
:1028C000010EA16F880EA26F5F0EA36F010EA46FA1
:1028D000040EA56F140EA66F000EA76F17ECA0F0E4
:1028E000640E00019B6F010E9C6F000E9E6F020E26
:1028F0009D6FA20E9F6F600EA06F010EA16F740EF0
:10290000A26F5F0EA36F010EA46F040EA56F140ECD
:10291000A66F000EA76F17ECA0F06E0E00019B6F64
:10292000010E9C6F000E9E6F020E9D6FA20E9F6F98
:10293000600EA06F010EA16F600EA26F5F0EA36FFD
:10294000010EA46F040EA56F140EA66F000EA76FE4
:1029500017ECA0F0A00E00018D6F860E8E6F010E99
:102960008F6F000E906F000E916F020E926FC7EC8A
:1029700083F0C80E00016F6F020E706F7EECA7F03F
:10298000000E0001A96F000EA86FA9510FE1080EFB
:10299000A85DD8B01200480EA825D96E010EA92155
:1029A000DA6E000EDF6EA84BA92BEFD712000001E4
:1029B000A251BBECA3F0A0C0D9FFA1C0DAFF000177
:1029C00060C0DEFF61C0DDFFA251FFECA3F000019B
:1029D00020EE06F0A051D926A151DA2260C0DEFF18
:1029E00061C0DDFFA251FFECA3F0000120EE04F076
:1029F000A051D926A151DA2260C0DEFF61C0DDFFFF
:102A0000A25177ECA3F0000120EE02F0A051D926EC
:102A1000A151DA2260C0DEFF61C0DDFF20EE04F0CC
:102A2000A051D926A151DA22DECFA3F0DDCFA4F048
:102A3000A3C0D9FFA4C0DAFF000EDF6E20EE02F0C3
:102A4000A051D926A151DA22DECFA3F0DDCFA4F028
:102A5000A3C0D9FFA4C0DAFFFF0EDF6EA0C09AF0BA
:102A6000A1C09BF0000E9C6F88EC91F0000E00015D
:102A7000A56F070EA56531D04BD0A0C086F0A1C0D0
:102A800087F0A5C088F0030E0001896F4AEC93F02F
:102A90003CD0A0C086F0A1C087F0A5C088F0020E8F
:102AA0000001896F4AEC93F030D0A0C086F0A1C03D
:102AB00087F0A5C088F0010E0001896F4AEC93F001
:102AC00024D0A0C086F0A1C087F0A5C088F0000E79
:102AD0000001896F4AEC93F018D0A0C0D9FFA1C0C3
:102AE000DAFFDECF6CF0DDCF6DF0A5C06EF048EC04
:102AF000ADF0000AD8B4C1D7010AD8B4D6D7030ABA
:102B0000D8B4C7D7010AD8B4DCD70001A52BB1D7F8
:102B1000A0C06FF0A1C070F0000E716FC3EC8BF01D
:102B200012000001B2AF0FD0000E01011B6F210E89
:102B30001A6F000E0001AF6F000EB06F000EB16F84
:102B4000000EB26F1200AF51B011B111B211D8A482
:102B50000FD0000E01011B6F220E1A6F000E000134
:102B6000AF6F000EB06F000EB16F000EB26F1200AB
:102B7000000E726F000E736F000E746F400E756F53
:102B8000B30E646F000E656FAFC060F0B0C061F04F
:102B9000B1C062F0B2C063F06CECA1F060C06EF046
:102BA00061C06FF062C070F063C071F099EC85F0A5
:102BB0006EC08BF06FC08CF070C08DF071C08EF065
:102BC000000E00018F6F000E906F800E916FBF0E90
:102BD000926F42EC87F08BC0AFF08CC0B0F08DC02C
:102BE000B1F08EC0B2F00001B307D8A0B407AFC0F7
:102BF0009FF0B0C0A0F0B1C0A1F0B2C0A2F04B0EE7
:102C0000A36FFE0EA46F000EA66F080EA56F7DECDD
:102C10009DF09FC0AFF0A0C0B0F0A1C0B1F0A2C0C5
:102C2000B2F0180E0001726F720E736F310E746F76
:102C30003F0E756FB3C060F0B4C061F0000E61BFAD
:102C4000FF0E626F636F010EFFEC96F060C06EF0D6
:102C500061C06FF062C070F063C071F099EC85F0F4
:102C60006EC08BF06FC08CF070C08DF071C08EF0B4
:102C7000AFC08FF0B0C090F0B1C091F0B2C092F090
:102C800042EC87F08BC0AFF08CC0B0F08DC0B1F0DB
:102C90008EC0B2F01200770E00017C6F000E7D6FC7
:102CA0009ED0250E8019D8B404D0805102ECB0F02B
:102CB00096D0000E00017A6F0ED07CC0D9FF7DC087
:102CC000DAFFDF50806F020E7C27000E7D238051DB
:102CD00002ECB0F084D075C0F6FF76C0F7FF0001BB
:102CE000754B762B000EF86E0800F5CF80F0805102
:102CF000000AD8B41200630AD8B4DFD7070AD8B4E0
:102D000003D00D0AD8A4E3D77CC0D9FF7DC0DAFF79
:102D1000DECF7EF0DDCF7FF0020E00017C27000EBB
:102D20007D237FAF06D0030E7A137E6D7F1FD8B050
:102D30007F2B010E806F050E8019D8B415D08051FD
:102D4000020D290EF324F66EFC0EF420F76EF86ADD
:102D5000000EF8220900F5507E5D0900F5507F59FC
:102D6000D8A002D0802BE7D77AC079F0030E79176C
:102D7000D8B403D02D0E02ECB0F080C07BF02AD086
:102D800000017B51020D290EF324F66EFC0EF42097
:102D9000F76EF86A000EF8220900F5CF62F00A001B
:102DA000F5CF63F07EC060F07FC061F077ECA9F0F2
:102DB00060C067F061C068F0000E00016A6F0A0E23
:102DC000696F8DECABF000016751300F806F80515F
:102DD00002ECB0F000017B077B29D8A4D1D775C0E5
:102DE000F6FF76C0F7FF0001754B762B000EF86EEC
:102DF0000800F5CF80F08051D8B4120052D70001FE
:102E0000686F00016851D8A463AF1AD060C064F045
:102E100061C065F062C066F063C067F0641F651F43
:102E2000661F671F642B000E65236623672364C03B
:102E30006AF065C06BF066C06CF067C06DF008D0DA
:102E400060C06AF061C06BF062C06CF063C06DF08E
:102E50006051611162116311D8A409D0000E606F36
:102E6000000E616F000E626F000E636F1200960E0F
:102E7000696F06D0692BD8906D336C336B336A332E
:102E8000000E6A15646F000E6B15656F000E6C15F1
:102E9000666FFE0E6D15676F6451651166116711DF
:102EA000D8B40DD0E7D7692B010E6A27000E6B232B
:102EB0006C236D23D8906D336C336B336A33000E03
:102EC0006A15646F000E6B15656F000E6C15666FEA
:102ED000FF0E6D15676F6451651166116711D8B4E7
:102EE00007D0E1D76907D8906A376B376C376D37F1
:102EF0006CBF03D0020E6961F5D769B108D0FF0E2F
:102F00006A17FF0E6B177F0E6C17FF0E6D17D890A8
:102F1000693369C064F0656B666B676B64C067F0AA
:102F2000666B656B646B64516A1365516B13665114
:102F30006C1367516D136851D8A463AF01D06D8FC6
:102F40006AC060F06BC061F06CC062F06DC063F08D
:102F500012000001736F8AD007ECA5F012001AEC82
:102F6000AAF01200A9ECA6F0120056ECA2F0120092
:102F7000F9ECA8F01200F0ECAEF0120073C070F0A3
:102F80007F0E00017017F351140D180E716F030EB0
:102F9000726FF3507127F4507223F451010DF35006
:102FA0007125D96EF4507221DA6EDF507F0B7019E3
:102FB000D8B423D0010E4D6EF351140D180E706F5E
:102FC000030E716FF3507027F4507123F451010D0B
:102FD000F3507025D96EF4507121DA6E7351800967
:102FE000DF6EF351020D640EF324D96E020EF4204D
:102FF000DA6EF3C1DEFFF4C1DDFFF9ECA8F00009E1
:10300000D8B4120073C070F07F0E00017017F35136
:10301000140D180E716F030E726FF3507127F45078
:103020007223F451010DF3507125D96EF4507221C1
:10303000DA6EDF507F0B7019D8B41200010E4D6E9E
:10304000F351140D180E706F030E716FF35070274B
:10305000F4507123F451010DF3507025D96EF450E2
:103060007121DA6E73518009DF6E12000001735115
:10307000070AD8B47DD70F0AD8B471D7010AD8B4DB
:1030800074D7030AD8B468D7060AD8B46BD7010A34
:10309000D8B462D72D0AD8B471D7030AD8B46BD785
:1030A0006DD746ECA8F0000E0001986F000E976FE8
:1030B00098517DE1590E975DD8B079D0D890973569
:1030C000F66E9835F76E570EF626FB0EF722F86A65
:1030D000000EF8220900800EF5180900F510D8A49A
:1030E0001DD098511BE1580E975DD8B017D0974B63
:1030F000982BD8909735F66E9835F76E570EF626C2
:10310000FB0EF722F86A000EF8220900F5CF60F0F6
:103110000A00F5CF61F075ECA8F043D0D89000011B
:103120009735F66E9835F76E570EF626FB0EF7229A
:10313000F86A000EF8220900000EF55E0900010E83
:10314000F55AD8A01BD0000E636FD8909735F66E55
:103150009835F76E570EF626FB0EF722F86A000E2A
:10316000F8220900F5CF95F00900F5CF96F096C04A
:1031700095F0966B9551C3ECAEF013D0010E0001A3
:10318000636FD8909735F66E9835F76E570EF62622
:10319000FB0EF722F86A000EF8220800F550C3EC87
:1031A000AEF00001974B982B985101E183D7000EA8
:1031B000616F640E606F75ECA8F0000E0001636F24
:1031C000290EC3ECAEF0010EA0ECA2F0000E00013F
:1031D000616F640E606F75ECA8F0000E00016A6FFD
:1031E000000E696F22ECABF01200000E0001766F4A
:1031F0006C0E776FDC0E786F020E796FD8906D379A
:103200006E376F377037020E716FD890793378331D
:1032100077337633712FF9D776C060F077C061F0DD
:1032200078C062F079C063F06DC064F06EC065F084
:103230006FC066F070C067F086ECA4F060C07AF0F2
:1032400061C07BF062C07CF063C07DF00ED0000EE8
:103250000001726F000E736F000E746F000E756FB9
:10326000F22B020EF26501D023D07AC060F07BC051
:1032700061F07CC062F07DC063F00001F251010D8D
:10328000400EF324F66EFC0EF420F76EF86A000E82
:10329000F8220800F550646F656B666B676B86EC0F
:1032A000A4F0000163516211D2E16105D8B0CFD71B
:1032B000CA50F219FC0BF219CA6ECA8433ECB0F092
:1032C0000001F251010D400EF324F66EFC0EF420C5
:1032D000F76EF86A000EF8220800F5CF39F0FF0EFD
:1032E0007A250101006FFF0E00017B210101016FB2
:1032F000FF0E00017C210101026FFF0E00017D2104
:103300000101036F00C160F001C161F002C162F010
:1033100003C163F039500001646F656B666B676BC6
:1033200086ECA4F000016051F26FF2C0CBFF1200F6
:10333000010E4C6E000E0001E66F000EE76F000EEE
:10334000E86FF10EA06F020EA16F000EA26FD7EC16
:1033500094F0A10E0001A06F010EA16F010EA26FEB
:10336000D7EC94F0AB0E0001A06F010EA16F020E1E
:10337000A26FD7EC94F0970E0001A06F010EA16F21
:10338000030EA26FD7EC94F08D0E0001A06F010E1A
:10339000A16F040EA26FD7EC94F0B50E0001A06FE0
:1033A000010EA16F050EA26FD7EC94F0E70E00019D
:1033B000A06F020EA16F060EA26FD7EC94F0B50EAF
:1033C0000001866F010E876F050E886F000E896FF2
:1033D0004AEC93F0A10E0001966F010E976F000E5C
:1033E000986F000E996F94EC8FF0B50E0001866F08
:1033F000010E876F060E886F030E896F4AEC93F0FB
:10340000E70E00019A6F020E9B6F030E9C6F88EC13
:1034100091F0E70E00016F6F020E706F040E716F76
:10342000000E726FBDEC9FF0B50E00016F6F010EC4
:10343000706F060E716F010E726FBDEC9FF0000E83
:10344000CFECA8F0010ECFECA8F0000E9E6E000E9F
:10345000A16E000EA46E9B8E9B8C000E0001616F0E
:10346000640E606F75ECA8F0D08E1200000120EEA3
:1034700007F07B51D9267C51DA2201D80AD0050009
:10348000FA6EDE50FD6EDE50FE6EDE50FF6EFA50BC
:1034900012000001836F7BC0D9FF7CC0DAFF83512B
:1034A000DE18D8A41CD020EE01F07B51D9267C5127
:1034B000DA227D51DE5CD8B009D020EE01F07B51DC
:1034C000D9267C51DA22000EDF6E120020EE01F0C8
:1034D0007B51D9267C51DA227D51DF5E120020EE2D
:1034E00001F07B51D9267C51DA22DF507E6F7F6B51
:1034F0007D517E27000E7F2320EE01F07B51D926DF
:103500007C51DA22DF50806F816B7E51805D81516A
:10351000800A826F7F51800A8259D8B0120020EE53
:1035200001F07B51D9267C51DA227D51DF2620EE35
:1035300002F07B51D9267C51DA2210EE01F07B514A
:10354000E1267C51E222E750806F816BDE50805D86
:10355000DE508159D8A012007BC0D9FF7CC0DAFFB1
:1035600083C0DFFF20EE01F07B51D9267C51DA22A7
:10357000000EDF6E20EE04F07B51D9267C51DA225A
:1035800001D812000500FA6EDE50FD6EDE50FE6EB0
:10359000DE50FF6EFA5083511200000E00016015DC
:1035A000686F000E6115696F800E62156A6F7F0E7D
:1035B00063156B6F685169116A116B11D8A408D03B
:1035C000000E606F000E616F000E626F000E636F81
:1035D000000E6415686F000E6515696F800E661524
:1035E0006A6F7F0E67156B6F685169116A116B11F5
:1035F000D8A408D0000E646F000E656F000E666FD1
:10360000000E676F63AF1DD060C068F061C069F0E5
:1036100062C06AF063C06BF0681F691F6A1F6B1F8E
:10362000682B000E69236A236B23000E6825606FE8
:10363000000E6921616F000E6A21626F800E6B219E
:10364000636F67AF1DD064C068F065C069F066C085
:103650006AF067C06BF0681F691F6A1F6B1F682BD9
:10366000000E69236A236B23000E6825646F000E29
:103670006921656F000E6A21666F800E6B21676F8E
:10368000000E601B000E611B000E621B800E631B90
:10369000000E641B000E651B000E661B800E671B70
:1036A0006451605D65516159665162596751635952
:1036B000D8B002D0D8901200D8801200FC0E0001C1
:1036C000756FFF0E766F000E786F230E776F4BECE1
:1036D00096F07D0E0001756FFF0E766F4BEC96F045
:1036E000B60E0001756FFF0E766F4BEC96F07D0EF7
:1036F0000001756FFF0E766F4BEC96F07D0E0001AA
:10370000756FFF0E766F4BEC96F07D0E0001756FB6
:10371000FF0E766F4BEC96F07D0E0001756FFF0E7D
:10372000766F4BEC96F07D0E0001756FFF0E766F95
:103730004BEC96F07D0E0001756FFF0E766F4BEC33
:1037400096F07D0E0001756FFF0E766F4BEC96F0D4
:103750006FEC92F019D02D4A2E2AE1EC88F04A50F5
:103760000001E95DEA51800AD96F4B50800AD959AE
:10377000D8B008D0E9C04AF0EAC04BF02DC02BF019
:103780002EC02CF0D9ECAAF02EBEE5D72D04020EE7
:103790002E58D8A0E0D76FEC92F0839A839E809445
:1037A0008096000E0101276F010E266F2BC0D9F005
:1037B0002CC0DAF00001D91FDA1FD94BDA2B000E2A
:1037C000D9250101286F020E0001DA210101296FBC
:1037D0001200A9C060F0AAC061F0ABC062F0ACC03A
:1037E00063F0B10E0001646F000E656F6CECA1F028
:1037F0000001B2AF14D0ACAF09D0000EA96F000E1B
:10380000AA6F800EAB6FBF0EAC6F1200000EA96FD7
:10381000000EAA6F000EAB6F000EAC6F1200B2511B
:1038200004E11D0EB15DD8A009D0A9C0A9F0AAC0BD
:10383000AAF0ABC0ABF0ACC0ACF01200A9C09FF0D6
:10384000AAC0A0F0ABC0A1F0ACC0A2F0EFEC9EF01B
:103850009FC060F0A0C061F0A1C062F0A2C063F0A0
:10386000010EFFEC96F060C0ADF061C0AEF062C03A
:10387000AFF063C0B0F0A9C060F0AAC061F0ABC007
:1038800062F0ACC063F0ADC064F0AEC065F0AFC034
:1038900066F0B0C067F0CDEC9AF00001D8B01BD054
:1038A000ADC08BF0AEC08CF0AFC08DF0B0C08EF06C
:1038B000000E8F6F000E906F800E916FBF0E926F93
:1038C00042EC87F08BC0A9F08CC0AAF08DC0ABF0A1
:1038D0008EC0ACF01200ADC0A9F0AEC0AAF0AFC06F
:1038E000ABF0B0C0ACF0120051B2FDEF9DF00001A2
:1038F00020EE04F0ED51D926EE51DA22DF506BECC8
:10390000ACF00009D8B46ED0EDC0D9FFEEC0DAFF3C
:10391000DE50DE10D8B461D0EDC0D9FFEEC0DAFFC2
:10392000010EDBBE23D0010EDB5003E1DE04D8A084
:103930001DD0EDC0D9FFEEC0DAFFDE2804E17F0E16
:10394000DE18D8B407D0EDC0D9FFEEC0DAFFDE062E
:10395000000EDD5A8D0E00016F6F010E706F000EAC
:10396000716F010E726FBDEC9FF01CD0EDC0D9FFDE
:10397000EEC0DAFFDE0404E1800EDE18D8B407D012
:10398000EDC0D9FFEEC0DAFFDE2A000EDD228D0E7B
:1039900000016F6F010E706F000E716F000E726F7D
:1039A000BDEC9FF08D0E00016F6F010E706F010E68
:1039B000716F010E726FBDEC9FF08D0E00016F6F85
:1039C000010E706F010E716F000E726FBDEC9FF0F3
:1039D00032ECAFF017ECB0F0120032ECAFF04BEC81
:1039E000B0F012000BC160F00CC161F00DC162F0CB
:1039F000FBECAFF01200FC0E0001756FFF0E766F4E
:103A0000000E786F230E776F4BEC96F07D0E000161
:103A1000756FFF0E766F4BEC96F0900E0001756F90
:103A2000FF0E766F4BEC96F07D0E0001756FFF0E6A
:103A3000766F4BEC96F07D0E0001756FFF0E766F82
:103A40004BEC96F07D0E0001756FFF0E766F4BEC20
:103A500096F07D0E0001756FFF0E766F4BEC96F0C1
:103A60007D0E0001756FFF0E766F4BEC96F07D0EAC
:103A70000001756FFF0E766F4BEC96F06FEC92F0D5
:103A800019D02D4A2E2AE1EC88F04A500001E95D58
:103A9000EA51800AD96F4B50800AD959D8B008D062
:103AA000E9C04AF0EAC04BF02DC02BF02EC02CF03C
:103AB000B4ECAAF02EBEE5D72D04020E2E58D8A0E5
:103AC000E0D7839A839E80948096000E0101276F31
:103AD000010E266F2BC0D9F02CC0DAF00001D91FDF
:103AE000DA1FD94BDA2B000ED92501012A6F020EFD
:103AF0000001DA2101012B6F1200A5C0A7F0A6C0BA
:103B0000A8F00001D890A737A837D890A737A837D2
:103B1000A3C0A9F0A4C0AAF0A751A927A851AA231D
:103B2000A9C0F6FFAAC0F7FF000EF86E0900F5CF96
:103B3000ABF00900F5CFACF00900F5CFADF00A000D
:103B4000F5CFAEF04CD0ABC072F0ACC073F0ADC0EE
:103B500074F0AEC075F09FC06EF0A0C06FF0A1C051
:103B600070F0A2C071F099EC85F06EC08BF06FC060
:103B70008CF070C08DF071C08EF00001A507D8A048
:103B8000A607A5C0A7F0A6C0A8F0D890A737A83769
:103B9000D890A737A837A3C0A9F0A4C0AAF0A7510E
:103BA000A927A851AA23A9C0F6FFAAC0F7FF000EB3
:103BB000F86E0900F5CF8FF00900F5CF90F00900FD
:103BC000F5CF91F00A00F5CF92F042EC87F08BC070
:103BD000ABF08CC0ACF08DC0ADF08EC0AEF000018B
:103BE000A551A611D8A4AFD7ABC09FF0ACC0A0F030
:103BF000ADC0A1F0AEC0A2F01200000120EE04F0B2
:103C0000ED51D926EE51DA22DF50F9ECACF0000983
:103C1000D8B46AD0EDC0D9FFEEC0DAFFDE50DE10B6
:103C2000D8B45DD0EDC0D9FFEEC0DAFF010EDBBE27
:103C300022D0010EDB5003E1DE04D8A01CD0EDC081
:103C4000D9FFEEC0DAFFDE2804E17F0EDE18D8B41B
:103C500007D0EDC0D9FFEEC0DAFFDE06000EDD5A58
:103C60008D0E106E010E116E000E126E010E136E8F
:103C7000C4ECA0F01BD0EDC0D9FFEEC0DAFFDE042B
:103C800004E1800EDE18D8B407D0EDC0D9FFEEC035
:103C9000DAFFDE2A000EDD228D0E106E010E116E8F
:103CA000000E126E000E136EC4ECA0F08D0E106E9E
:103CB000010E116E010E126E010E136EC4ECA0F017
:103CC0008D0E106E010E116E010E126E000E136E2F
:103CD000C4ECA0F057ECB0F01DECB0F0120057ECC3
:103CE000B0F054ECB0F012000BC101F00CC102F0C6
:103CF0000DC103F010ECB0F012000001AF51B01193
:103D0000B111B211D8A409D0000EAF6F000EB06F80
:103D1000000EB16F000EB26F1200B2517F0BB56F83
:103D2000B66BD890B537B637B551B327B651B42373
:103D3000B1AF03D0B56BB52B02D00001B56BB55157
:103D4000B327000EB423B4AF0FD0000E01011B6FD8
:103D5000220E1A6F000E0001AF6F000EB06F000E42
:103D6000B16F000EB26F1200B4BF1BD0B405D8A063
:103D700018D0000E01011B6F220E1A6F0001B2AFA6
:103D800008D0FF0EAF6FFF0EB06F7F0EB16FFF0E4A
:103D9000E9D7FF0EAF6FFF0EB06F7F0EB16F7F0ED2
:103DA000E1D7B435B431B66FB331B56FB251B5198F
:103DB000800BB519B26FB3C0B5F0010EB517B533AE
:103DC000B533B151B5197F0BB519B16FAFC0AFF0B5
:103DD000B0C0B0F0B1C0B1F0B2C0B2F0120000019A
:103DE000A135A235A86FA851D8A409D0000E9F6FA5
:103DF000000EA06F000EA16F000EA26F12009FC0F8
:103E0000A3F0A0C0A4F0A1C0A5F0A2C0A6F0200E0F
:103E100005D0D890A633A533A433A333E82EF9D721
:103E2000A351A76FA18FFF0E9F17FF0EA017FF0EC4
:103E3000A117000EA217960EA85FA8AF16D0A85122
:103E4000800A970FD8B009D0000E9F6F000EA06FA8
:103E5000000EA16F000EA26F1200D890A233A13302
:103E6000A0339F33A83FF9D715D01F0EA8650FD0F8
:103E7000000E9F6F000EA06F000EA16F000EA26FCC
:103E80001200D8909F37A037A137A237A807A851B2
:103E9000D8A4F7D7A751D8B408D0A21FA11FA01F3C
:103EA0009F6D000EA023A123A2239FC09FF0A0C05E
:103EB000A0F0A1C0A1F0A2C0A2F012006CC074F0EA
:103EC0006DC075F0000E0001736F000E726F6EC052
:103ED00070F06FC071F074517511D8A430D070C0FB
:103EE000D9FF71C0DAFF300EDF6E000E736F010E66
:103EF000726F39D074C067F075C068F0000E6A6FD9
:103F00000A0E696F8DECABF000016751300F70C085
:103F1000D9FF71C0DAFFDF6E74C060F075C061F068
:103F2000000E636F0A0E626F77ECA9F060C074F048
:103F300061C075F00001724B732B704B712B745183
:103F40007511D8B406D0735104E1060E725DD8A085
:103F5000D1D76EC060F06FC061F072C062F073C004
:103F600063F04DECA9F0000172516E25D96E7351CA
:103F70006F21DA6E000EDF6E1200080E00016F2551
:103F80006C6F000E70216D6F71C06EF048ECADF07B
:103F90000001736F3DD0010E721720EE02F06F51D9
:103FA000D9267051DA22DECF60F0DDCF61F071C02A
:103FB00062F072C063F0A1ECA9F01200010E0001E2
:103FC0007217010E721B20EE02F06F51D92670514C
:103FD000DA22DECF60F0DDCF61F071C062F072C036
:103FE00063F0A1ECA9F01200010E0001721720EE9F
:103FF00004F06F51D9267051DA22DECF60F0DDCFA8
:1040000061F071C062F072C063F0A1ECA9F012001F
:1040100000017351000AD8B41200010AD8B4BBD70A
:10402000030AD8B4CBD7010AD8A41200DDD7000107
:104030009B519C11D8B412009F51A011A111D8B46A
:104040001200A251A311A411D8B41200A551A611B7
:10405000A711D8B412009D519E11D8A404D0000E0F
:104060009E6F010E9D6F9BC0D9FF9CC0DAFF000EB2
:10407000DF6E20EE01F09B51D9269C51DA22000E12
:10408000DF6E20EE02F09B51D9269C51DA229DC0B2
:10409000DEFF9EC0DDFF20EE04F09B51D9269C512F
:1040A000DA22A5C0DEFFA6C0DEFFA7C0DEFF20EE3D
:1040B00007F09B51D9269C51DA22A2C0DEFFA3C093
:1040C000DEFFA4C0DEFF01D812000500FA6E9F518A
:1040D000FD6EA051FE6EA151FF6EFA501200FC0E53
:1040E0000001756FFF0E766F000E786F230E776FED
:1040F0004BEC96F0690E0001756FFF0E766F4BEC7E
:1041000096F00B0E0001756FFF0E766F4AC077F0C8
:104110004BC078F04BEC96F0A30E0001756FFF0ECC
:10412000766F2BC077F02CC078F04BEC96F06FECEC
:1041300092F020D001012A07D8A02B07FC0E000125
:10414000756FFF0E766F000E786F230E776F4BEC56
:1041500096F0540E0001756FFF0E766F2AC177F04E
:104160002BC178F04BEC96F06FEC92F0E1EC88F01C
:10417000D9ECAAF001012A512B11D8A4DBD7839ADC
:10418000839E809480961200080E10240D6E000EFF
:1041900011200E6E12C00FF0C2ECADF0146E3BD0C9
:1041A000010E131620EE02F01050D9261150DA221B
:1041B000DECF01F0DDCF02F012C003F013C004F037
:1041C0008EECAAF01200010E1316010E131A20EE47
:1041D00002F01050D9261150DA22DECF01F0DDCFE7
:1041E00002F012C003F013C004F08EECAAF012002B
:1041F000010E131620EE04F01050D9261150DA22C9
:10420000DECF01F0DDCF02F012C003F013C004F0E6
:104210008EECAAF012001450000AD8B41200010A61
:10422000D8B4BED7030AD8B4CED7010AD8A4120096
:10423000DFD700016B6F200E00016B5F6B51050D26
:10424000F3CF69F0F4CF6AF0430E69256C6FFC0E72
:104250006A216D6F000E706F040E706501D037D04B
:10426000000E716F060E716501D02DD06CC060F02C
:104270006DC061F071C062F007ECAEF00009D8A427
:1042800005D035C06EF036C06FF004D0F3C16EF0CB
:10429000F4C16FF0000171510A0D820E676F020EBA
:1042A000686FF3506727F45068237051020DF35084
:1042B0006725D96EF4506821DA6E6EC0DEFF6FC0DC
:1042C000DDFF712BCFD76C4B6D2B702BC5D7820EBA
:1042D000656F020E666F120000016051611162117C
:1042E0006311D8A411D064C0D9FF65C0DAFF000EF5
:1042F000DE6E000EDD6E000E606F000E616F000E50
:10430000626F000E636F120063517F0B666F676B05
:10431000D8906637673764C0D9FF65C0DAFF66C0DA
:10432000DEFF67C0DDFF62AF03D0666B662B02D095
:104330000001666B665164C0D9FF65C0DAFFDE120A
:10434000000EDD1264C0D9FF65C0DAFF820EDE26E2
:10435000FF0EDD2263816383638563876389638BDB
:10436000639D629F60C060F061C061F062C062F0F6
:1043700063C063F01200000E0001656F000E646FF1
:104380002ED0480E6425D96E010E6521DA6E61C00B
:10439000E1FF62C0E2FFE75018EC8DF0DF6E480EDF
:1043A00000016425D96E010E6521DA6E800EDE18DB
:1043B000D8A40BD06407D8A06507480E6425D96E31
:1043C000010E6521DA6E000EDB8E614B622B644BB1
:1043D000652B655116E1060E645DD8B012D061C040
:1043E000D9FF62C0DAFFDF50D8B40BD0CAD7480E6D
:1043F0006425D96E010E6521DA6E000EDF6E644B06
:10440000652B655105E1060E645DD8B01200EFD74B
:1044100012000001686F020E00016527020E672777
:10442000030E6827030E6627000E636F2A0EC3EC87
:10443000AEF0010E0001636F000EC3ECAEF0010E92
:104440000001636F6851C3ECAEF0010E0001636FB1
:10445000000EC3ECAEF0010E0001636F6651C3ECB9
:10446000AEF0000E0001636F2B0EC3ECAEF0010E38
:104470000001636F000EC3ECAEF0010E0001636F2C
:104480006551C3ECAEF0010E0001636F000EC3EC8A
:10449000AEF0010E0001636F6751C3ECAEF0000E89
:1044A0000001636F2C0EC3ECAEF01200000E000191
:1044B0006E6FFA0E4624606FFF0E4720616F000E8C
:1044C000636F060E626F43ECA4F0000160516F6FE2
:1044D0006FC060F0616B000E636F040E626F43EC9F
:1044E000A4F0000160516D6F000E6E6F06D092EC6B
:1044F000ADF0F9ECA8F000016E2B6D51040DF31E28
:10450000F41EF34AF42A6F51686F696BF350682701
:10451000F4506923681F691F684B692B040E6827D4
:10452000000E69236E516A6F6B6B68516A5D6B5147
:10453000800A6C6F6951800A6C59D8B01200D7D7C5
:104540000001656F000E0001666F000E636F360E8E
:10455000C3ECAEF000016551030B666F2BD0010E6A
:10456000636FC80EC3ECAEF0800E506E800E4F6EBF
:104570001200010E0001636FA80EC3ECAEF0800EB6
:10458000506E800E4F6E1200010E0001636F080E18
:10459000C3ECAEF0800E506E800E4F6E1200010E16
:1045A0000001636F680EC3ECAEF0800E506E800E9B
:1045B0004F6E120000016651000AD8B4D0D7010A2C
:1045C000D8B4D7D7030AD8B4DFD7010AD8A41200C9
:1045D000E6D70C0EF66E5F0EF76E010EF86E01EE6A
:1045E000E1F010EE16F00900F5CFEEFFE550E150D6
:1045F000FAE1460EF66E600EF76E010EF86E00EEF2
:1046000046F010EE0BF00900F5CFEEFFE550E1505B
:10461000FAE103EE18F011EE2CF0EE6AE550E150ED
:10462000FCE1E250FAE102EE00F0FB0EEE6AE80671
:10463000FDE101EE00F0E10EEE6AE806FDE100EEBC
:10464000E6F0100EEE6AE806FDE100EE29F01D0E20
:10465000EE6AE806FDE151905192000100EF80F012
:1046600000016451010D330EF324F66EFC0EF420AC
:10467000F76EF86A000EF8220800F5CF6AF0000E17
:10468000696F03D06251635F692B6251635DD8B07B
:10469000F9D764516303F350636F695163276A511B
:1046A000651763C066F06AC067F0662B02D0D890C9
:1046B0006737662FFCD700016751FF0A686F60C03B
:1046C000D9FF61C0DAFF6851DF1663C066F065C0CC
:1046D00067F0662B02D0D8906737662FFCD760C092
:1046E000D9FF61C0DAFF00016751DF12120000013B
:1046F000626F29D0920E0001606F0F0E616F120081
:10470000930E606F0F0E616F1200940E606F0F0EAC
:10471000616F1200950E606F0F0E616F1200960EA2
:10472000606F0F0E616F1200970E606F0F0E616F5A
:104730001200980E606F0F0E616F1200000E606F16
:10474000000E616F120000016251000AD8B4D2D786
:10475000010AD8B4D5D7030AD8B4D7D7010AD8B438
:10476000D9D7070AD8B4DBD7010AD8B4DDD7030AF2
:10477000D8B4DFD7E3D70001626F29D07B0E0001E8
:10478000606FFE0E616F1200790E606FFE0E616F3A
:104790001200770E606FFE0E616F1200750E606F73
:1047A000FE0E616F1200730E606FFE0E616F1200DD
:1047B000710E606FFE0E616F12006F0E606FFE0E65
:1047C000616F1200000E606F000E616F1200000139
:1047D0006251000AD8B4D2D7010AD8B4D5D7030A97
:1047E000D8B4D7D7010AD8B4D9D7070AD8B4DBD7F9
:1047F000010AD8B4DDD7030AD8B4DFD7E3D7000164
:10480000626F29D0800E0001606F0F0E616F120081
:10481000810E606F0F0E616F1200820E606F0F0EBF
:10482000616F1200830E606F0F0E616F1200840EB5
:10483000606F0F0E616F1200850E606F0F0E616F5B
:104840001200860E606F0F0E616F1200000E606F17
:10485000000E616F120000016251000AD8B4D2D775
:10486000010AD8B4D5D7030AD8B4D7D7010AD8B427
:10487000D9D7070AD8B4DBD7010AD8B4DDD7030AE1
:10488000D8B4DFD7E3D7000E0001656F63AF06D061
:10489000626D631FD8B0632B010E656F61AF06D0E8
:1048A000606D611FD8B0612B010E651B000E676F34
:1048B000000E666F62516311D8B41CD0010E646F94
:1048C00004D0D89062376337642B63AFFAD7D8909F
:1048D000663767376251605D63516159D8A005D072
:1048E0006251605F6351615B6681D890633362336C
:1048F000642FEDD76551D8B404D0666D671FD8B06A
:10490000672B66C060F067C061F01200000E000106
:10491000686F000E696F000E6A6F000E6B6F645156
:10492000651166116711D8B42AD0010E6C6F06D0DC
:10493000D89064376537663767376C2B67AFF8D721
:10494000D890683769376A376B376451605D655155
:1049500061596651625967516359D8A009D06451B1
:10496000605F6551615B6651625B6751635B688143
:10497000D89067336633653364336C2FE1D768C0F2
:1049800060F069C061F06AC062F06BC063F0120051
:10499000000E0001826F74517825806F76517A2560
:1049A000816F7AC060F07BC061F078C062F079C03E
:1049B00063F031ECAEF060C07EF061C07FF076C095
:1049C00065F000018005666F8105676F745109EC21
:1049D000A2F0000E0001826F10D08251020DF35040
:1049E0007225D96EF4507321DA6EDECF65F0DDCF1B
:1049F00066F018ECAFF00001822B82517C6F7D6B6A
:104A00007E517C5D7F517D59D8B01200E6D72DD004
:104A10000001F351140D180E606F030E616FF35017
:104A20006027F4506123F451010DF3506025D96ED5
:104A3000F4506121DA6EDF50D8B416D0010E4D6EFD
:104A4000F351140D180E606F030E616FF350602761
:104A5000F4506123F451010DF3506025D96EF450E8
:104A60006121DA6E800EDF6EF42B130E0001F46507
:104A7000CFD7000EF46FF32B080E4826000E492204
:104A8000000E476E060E466E12000001666F3C0E69
:104A9000F66EFC0EF76E000EF86E0900F5CF62F0B0
:104AA0000900F5CF63F00900F5CF64F00A00F5CFF7
:104AB00065F0110E0001676F030E66176651010D58
:104AC000620EF324D96E000EF420DA6EDF50606FB0
:104AD00067C061F0602B02D0D8906137602FFCD79F
:104AE00000016151676F67390F0B676F67510F0BDB
:104AF000676F01014E5100016719F00B6719010141
:104B00004E6F120060C0F6FF61C0F7FF000EF86E36
:104B10000F0EF76403D00800F55005D0F6CFE9FF7B
:104B2000F7CFEAFFEF500001686F6451010D330EBB
:104B3000F324F66EFC0EF420F76EF86A000EF822ED
:104B40000800F5CF66F0000E676F03D06251635F17
:104B5000672B6251635DD8B0F9D764516303F3509A
:104B6000636F675163276329656F02D0D8906833FC
:104B7000652FFCD70001665168176851120032D0CA
:104B800001012807D8A02907FC0E0001756FFF0E50
:104B9000766F000E786F230E776F4BEC96F0690EF0
:104BA0000001756FFF0E766F4BEC96F00B0E000157
:104BB000756FFF0E766F4AC077F04BC078F04BEC04
:104BC00096F0A30E0001756FFF0E766F2BC077F085
:104BD0002CC078F04BEC96F06FEC92F0E1EC88F0A2
:104BE000B4ECAAF0010128512911D8A4C9D7839A9D
:104BF000839E809480961200DD0E00019B6F020E52
:104C00009C6F000E9E6F020E9D6FF40E9F6F5E0EE6
:104C1000A06F010EA16FB00EA26F5F0EA36F010E09
:104C2000A46F5C0EA56F5A0EA66F010EA76F17EC4E
:104C3000A0F0D30E00019B6F020E9C6F000E9E6FC2
:104C4000020E9D6FDC0E9F6F5E0EA06F010EA16FB6
:104C5000380EA26F5F0EA36F010EA46FDA0EA56F60
:104C60005C0EA66F010EA76F17ECA0F0120001C03A
:104C7000F6FF02C0F7FF000EF86E0F0EF76403D0C8
:104C80000800F55005D0F6CFE9FFF7CFEAFFEF5067
:104C9000096E0550010D330EF324F66EFC0EF42060
:104CA000F76EF86A000EF8220800F5CF07F0000E44
:104CB000086E03D00350045E082A0350045CD8B089
:104CC000F9D705500402F350046E08500426042856
:104CD000066E02D0D8900932062EFCD7075009166E
:104CE000095012000001666F090E00016361120095
:104CF00066C03FF0000E3D6E070E3D6401D01FD030
:104D00003FC064F0010E00016417060E656FD89075
:104D10006437652FFCD764513E6E6339E842F80B67
:104D20003D103E10676FD8903F32C80E606F020E84
:104D3000616F67C062F0DFECA6F03D2ADDD7C80ED8
:104D40000001606F020E616F000E626FDFECA6F073
:104D50001200000E0001F46F000EF36F000E636F7F
:104D60000E0E636501D020D0000E626F130E6265D7
:104D700001D018D0010E4D6E6351140D180E606FE6
:104D8000030E616FF3506027F45061236251010DEF
:104D9000F3506025D96EF4506121DA6E800EDF6E1B
:104DA000622BE4D7632BDCD7010EF56F000E476E44
:104DB000060E466E000E496E060E486E120026D094
:104DC000AFC1D9FFB0C1DAFF0101DF9462C0C9FFF2
:104DD000C7A0FED7C9CF62F0AFC1D9FFB0C1DAFF1B
:104DE0000101DF8412009BC1D9FF9CC1DAFF0101E0
:104DF000DF9E62C06FFF6DA0FED76FCF62F09BC1D8
:104E0000D9FF9CC1DAFF0101DF8E1200000120EE04
:104E100002F06051D9266151DA22DF50000AD8B47D
:104E2000CFD7010AD8A41200DED7000E0001F46F1C
:104E3000000EF36F000E626F130E626501D0120058
:104E4000000E636F0E0E636501D022D06351140D06
:104E5000180E606F030E616FF3506027F4506123EA
:104E60006251010DF3506025D96EF4506121DA6E64
:104E7000000EDF6E6351020D640EF324D96E020E34
:104E8000F420DA6EFF0EDE6EFF0EDD6E632BDAD7D6
:104E9000622BD2D7000120EE06F06F51D926705157
:104EA000DA22DECF60F0DDCF61F0050E626F000E1A
:104EB000636FA1ECA9F0000120EE06F06F51D92636
:104EC0007051DA22DECF6BF0DDCF6CF0000E6D6F2B
:104ED000000E6E6FB3ECAEF0000120EE06F06F51E5
:104EE000D9267051DA22DECF60F0DDCF61F0050EF9
:104EF000626F010E636FA1ECA9F01200000120EEB9
:104F000006F06F51D9267051DA22DECF60F0DDCF86
:104F100061F0050E626F000E636FA1ECA9F0000155
:104F200020EE06F06F51D9267051DA22DECF6BF0F9
:104F3000DDCF6CF0000E6D6F020E6E6FB3ECAEF055
:104F4000000120EE06F06F51D9267051DA22DECF33
:104F500060F0DDCF61F0050E626F010E636FA1ECB2
:104F6000A9F01200190EF66EFC0EF76E000EF86E28
:104F700020EE75F00F0E0900F5CFDEFFE806FBE22C
:104F80006FC06CF070C06DF072C06EF048ECADF0A8
:104F90000001856F040E716117D0040E856114D075
:104FA0007151040D750E736F000E746FF3507327FB
:104FB000F45074238551010DF3507325D96EF450CC
:104FC0007421DA6EDF501200050E1200FC0E966E90
:104FD000780E00017B6F010E7C6F010E7D6F36EC49
:104FE0009AF05A0E00017B6F010E7C6F010E7D6FEF
:104FF00036EC9AF0500E00017B6F010E7C6F010EB3
:105000007D6F36EC9AF0640E00017B6F010E7C6FB1
:10501000010E7D6F36EC9AF06E0E00017B6F010E73
:105020007C6F010E7D6F36EC9AF01200050E0001C8
:105030008C6F86C0D9FF87C0DAFFDECF8DF0DDCF61
:105040008EF08851020DF3CF8AF08851020DF328BB
:105050008B6F8DC06FF08EC070F089C071F08AC008
:1050600072F0B2ECA7F000018C6F8C51D8A40CD078
:105070008DC06FF08EC070F089C071F08BC072F07F
:10508000B2ECA7F000018C6F8C511200B50E00013C
:10509000866F010E876F070E886F030E896F4AECCB
:1050A00093F0B50E0001866F010E876F060E886FB4
:1050B000030E896F4AEC93F0CAECA9F0C00E000110
:1050C0008D6FC60E8E6F2D0E8F6F000E906F010EBE
:1050D000916F010E926FC7EC83F0820E00016F6F2B
:1050E000010E706F4AECA7F012001BD0000E0001F9
:1050F000626F000E636F000E646F000E656F655186
:1051000064110FE1B00E625D040E6359D8B009D08E
:1051100000F0010E00016227000E63236423652363
:10512000EED700016007D8A061076029DFE161299F
:10513000D8A4DCD7080E626F800E636F000E646F18
:10514000000E656F1200890E09ECB0F00001645189
:1051500009ECB0F00001635109ECB0F0000E09EC6D
:10516000B0F0010E09ECB0F0000E0001666F000E09
:10517000656F9D0E09ECB0F00001625109ECB0F0D2
:105180000001615109ECB0F093ECAEF08E0E09EC29
:10519000B0F0070E09ECB0F037ECB0F012000001EF
:1051A0008D6F18D0AB0E0001866F010E876F000E59
:1051B000886F030E896F4AEC93F014D0AB0E000198
:1051C000866F010E876F010E886F030E896F4AECA0
:1051D00093F008D000018D51000AD8B4E3D7010A3A
:1051E000D8B4ECD7000E0001746F8D51FEECAAF01C
:1051F00012000001F42B060E4626000E4722060E72
:105200004624646F000E4720656F65BF07D0655167
:1052100003E1800E645DD8B007ECA5F0080E4824C9
:105220000001646F000E4920656F65BF0AD06551AB
:1052300004E1800E645DD8A004D0A9ECA6F0010EB4
:105240001200000E1200000E0001756F000E766F46
:105250006DC065F06B516F25736F7305666F6D518F
:105260007125746F7405676F6B5109ECA2F071C002
:1052700076F000017651D8B412006FC075F0755108
:10528000D8B409D069C065F06AC066F018ECAFF018
:1052900000017507F4D77607EDD70001625160254C
:1052A000656F63516121666F18D060C0D9FF61C01E
:1052B000DAFFDF50646F65C0D9FF66C0DAFF60C0F7
:1052C000E1FF61C0E2FFDFCFE7FF604B612B65C00C
:1052D000D9FF66C0DAFF64C0DFFF6507D8A06607A4
:1052E0006551605D66516159D8B01200DED7000E7D
:1052F0000001666F000E656F62516311D8B41CD057
:10530000010E646F04D0D89062376337642B63AFAB
:10531000FAD7D890653766376251605D635161593D
:10532000D8A005D06251605F6351615B6581D89000
:1053300063336233642FEDD765C060F066C061F0FF
:105340001200010E0001631762C064F0010E656F68
:10535000642B02D0D8906537642FFCD700016551CB
:10536000FF0A666F60C0D9FF61C0DAFF6651DF16C1
:1053700062C064F063C065F0642B02D0D8906537DA
:10538000642FFCD760C0D9FF61C0DAFF000165510E
:10539000DF1212004AECAFF0010ECFECABF0000EC2
:1053A0000001616F800E606F75ECA8F0010ECFEC0C
:1053B000ABF03EECAFF0000E0001616F800E606F4D
:1053C00075ECA8F0010ECFECABF04AECAFF0000E9C
:1053D0000001616F800E606F75ECA8F0010ECFECDC
:1053E000ABF01200050E0001956F9151020DF3CF45
:1053F00093F09151020DF328946F8FC086F090C006
:1054000087F093C088F092C089F016ECA8F00001F4
:10541000956F9551D8A40CD08FC086F090C087F0BE
:1054200094C088F092C089F016ECA8F00001956F46
:10543000955112000001F451D8B406D0FA0E462658
:10544000FF0E4722F4071BD0F351D8B40CD0000E46
:10545000476E720E466EF80E4826FF0E4922130E56
:10546000F46FF3070CD0000E476E060E466E000E6A
:10547000496E060E486E000EF46F000EF36F92EC4C
:10548000ADF01200000E0101356F000E346F000EFA
:10549000276F000E266F000E2E6E000E2D6E270E4B
:1054A0004B6E100E4A6E000E2F6F000E2E6F000E08
:1054B0002C6E000E2B6E000E2D6F000E2C6F000E4A
:1054C000306E000E2F6E000E336F000E326F120022
:1054D000AD0EC16E000E0101256F000E246F10D0BD
:1054E000D89001012435D96E2535DA6E000ED92603
:1054F000020EDA22000EDE6E000EDD6E244B252B2E
:10550000F151245D2551800A0001606F0101F251C3
:10551000800A00016059D8B01200E2D7010E0416CB
:1055200003C005F0010E066E052A02D0D89006369B
:10553000052EFCD70650FF0A076E01C0D9FF02C036
:10554000DAFF0750DF1603C005F004C006F0052A95
:1055500002D0D8900636052EFCD701C0D9FF02C074
:10556000DAFF0650DF12120047ECB0F0000E000127
:10557000616F020E606F75ECA8F043ECB0F0000EA6
