:0614000055EF0AF0120096
:101408005182FACF17F0FBCF18F0E9CF19F0EACFE5
:101418001AF0E1CF1BF0E2CF1CF0D9CF1DF0DACFE4
:101428001EF0F3CF1FF0F4CF20F0F6CF21F0F7CF66
:1014380022F0F8CF23F0F5CF24F051C025F052C0A8
:1014480026F053C027F054C028F0F292F2B4F2AA62
:1014580002D047ECC4F028C054F027C053F026C08F
:1014680052F025C051F024C0F5FF23C0F8FF22C078
:10147800F7FF21C0F6FF20C0F4FF1FC0F3FF1EC016
:10148800DAFF1DC0D9FF1CC0E2FF1BC0E1FF1AC074
:10149800EAFF19C0E9FF18C0FBFF17C0FAFF519215
:0614A8001100C2EFB8F0D4
:10FB420000001180002C0100B102003500360000D7
:10FB5200B202003500360000B30200350036000262
:10FB6200003500360000B4000000C0A2000200848C
:10FB72000000C1C50000C20D00000000C38D002AB4
:10FB82000000C48D00EE0000C50A000036C8000067
:10FB9200E012001C001000180033002C0025002881
:10FBA20000280027002F003C000000030003001083
:10FBB200008000780000E112001C00100018002DE7
:10FBC20000280023002800280026002F003B000008
:10FBD20000030003001000003A0500002A000002A2
:10FBE2000000008100002B000003000000A20000C2
:10FBF20029002C02000400080010002000400080B0
:10FC020000000100010200010001000202000003E5
:10FC120003030001000A006400E803102700010347
:10FC2200070F1F3F7FFF00020103010410000000C5
:10FC3200000000005F00000007000700147F147F2F
:10FC420014242A7F2A12231308646236495522504B
:10FC52000005030000001C2241000041221C000894
:10FC62002A1C2A0808083E0808005030000008082C
:10FC7200080808006060000020100804023E514994
:10FC8200453E00427F400042615149462141454B79
:10FC9200311814127F1027454545393C4A494930ED
:10FCA20001710905033649494936064949291E00A9
:10FCB20036360000005636000000081422411414A3
:10FCC2001414144122140800020151090632497920
:10FCD200413E7E1111117E7F494949363E414141E3
:10FCE200227F4141221C7F494949417F0909010183
:10FCF2003E414151327F0808087F00417F41002088
:10FD020040413F017F081422417F404040407F0232
:10FD120004027F7F0408107F3E4141413E7F090972
:10FD220009063E4151215E7F091929464649494942
:10FD32003101017F01013F4040403F1F2040201F11
:10FD42007F2018207F63140814630304780403617E
:10FD52005149454300007F414102040810204141BE
:10FD62007F000004020102044040404040000102C2
:10FD7200040020545454787F48444438384444445E
:10FD820020384444487F3854545418087E090102EC
:10FD9200081454543C7F0804047800447D40002039
:10FDA20040443D00007F10284400417F40007C0415
:10FDB2001804787C0804047838444444387C1414C9
:10FDC2001408081414187C7C080404084854545479
:10FDD20020043F4440203C4040207C1C2040201C0A
:10FDE2003C4030403C44281028440C5050503C4485
:10FDF20064544C44000836410000007F000000417A
:10FE020036080008082A1C08081C2A080800008076
:10FE12003F1872313FF0FD753E4758633D58951DBE
:10FE22003C82C4AE3AA8782139EF938037A092A7DA
:10FE3200354656153400000000C4FF7F3F80EFFFB7
:10FE4200BE90E1A93EEC8276BE82AD2B3E0E3CC353
:10FE5200BD87D1133D4178D3BB00FCFF0F0000FFEB
:10FE6200FFF0FF00FFFF00436F756C64206E6F743C
:10FE720020726574726965766520646174612C20F4
:10FE8200537461636B20697320656D7074792E0AF7
:10FE920000436F756C64206E6F7420696E736572B7
:10FEA2007420646174612C20537461636B206973E4
:10FEB2002066756C6C2E0A000A54686520436C6FCC
:10FEC200736573206F626A65637420286D6D293AC9
:10FED200202564000A53746570732054726176653C
:10FEE2006C6C65643A202564200A0A000A53746522
:10FEF20070732054726176656C6C65643A20256477
:10FF02000053746570706564203336302064656711
:10FF1200726565730053656E736F72204D6F7669FB
:10FF22006E67212020200A000A476F696E672062EF
:10FF320061636B20746F3A202564000A0A0A4F70CD
:10FF420074696F6E733A2025640A0A0A000A204611
:10FF52006F756E6420466C61673A20256400726595
:10FF6200763A2564205461723A2025640A00526F61
:10FF7200626F7420526561647921200A0A00574138
:10FF82004C4C20464F554E440A00583D25642C20C7
:10FF9200593D25640A006E6F206F7074696F6E732D
:10FFA2000A000A4E4F5448494E47212121000A4176
:10FFB20044433A202564200A0A00476F696E67208D
:10FFC200486F6D65000A5374657073202564000ADA
:10FFD200202020202020200A000A466C616720256C
:10FFE2006400484F4D45212121400076633A202587
:0EFFF200640A0026262626260A002563000043
:020000040001F9
:10000000000E0001696F000E686F000E6D6F000E2C
:100010006C6F000E6F6F000E6E6F000E6B6F000E38
:100020006A6F6BBF06D06B5114E1140E6A5DD8B0D5
:1000300010D0D8906A35D96E6B35DA6E000ED9269D
:10004000030EDA22040EDE6E000EDD6E6A4B6B2BA1
:10005000E8D7000E6D6F000E6C6F6DBF06D06D514E
:1000600070E1040E6C5DD8B06CD0000E6F6F000EA6
:100070006E6F6FBF06D06F515DE1050E6E5DD8B03B
:1000800059D06CC060F06DC061F0000E636F320E2D
:10009000626F33ECC4F0000E0001666F020E676FF2
:1000A00060516627615167236EC060F06FC061F0D8
:1000B000000E636F0A0E626F33ECC4F000016051F2
:1000C0006625D96E61516721DA6E68C0DEFF69C0AE
:1000D000DDFF6CC060F06DC061F0000E636F320E2A
:1000E000626F33ECC4F0000E0001666F020E676FA2
:1000F00060516627615167236EC060F06FC061F088
:10010000000E636F0A0E626F33ECC4F000016051A1
:10011000662761516723020E6625D96E000E67219E
:10012000DA6E000EDE6E000EDD6E684B692B6E4BD4
:100130006F2B9FD76C4B6D2B6DBF97D76D5101E126
:1001400090D7000E6D6F000E6C6F000E6F6F000E7B
:100150006E6F000E01013D6F030E3C6F000E3B6F92
:10016000010E3A6F6CC060F06DC061F0000E0001CE
:10017000636F320E626F33ECC4F0000E0001666FE5
:10018000020E676F60516627615167236EC060F091
:100190006FC061F0000E636F0A0E626F33ECC4F043
:1001A00000016051662761516723040E6625D96EF0
:1001B000000E6721DA6E010EDF6E6CC060F06DC05C
:1001C00061F0000E636F320E626F33ECC4F0000E0C
:1001D0000001666F020E676F6051662761516723E9
:1001E0006EC060F06FC061F0000E636F0A0E626F48
:1001F00033ECC4F000016051662761516723050E9E
:100200006625D96E000E6721DA6E000EDF6E6CC0B7
:1002100060F06DC061F0000E636F320E626F33EC00
:10022000C4F0000E0001666F020E676F6051662712
:10023000615167236EC060F06FC061F0000E636FA4
:100240000A0E626F33ECC4F0000160516627615101
:100250006723060E6625D96E000E6721DA6E000E42
:10026000DF6E6CC060F06DC061F0000E636F320E27
:10027000626F33ECC4F0000E0001666F020E676F10
:1002800060516627615167236EC060F06FC061F0F6
:10029000000E636F0A0E626F33ECC4F00001605110
:1002A000662761516723070E6625D96E000E672108
:1002B000DA6E010EDF6E6CC060F06DC061F0000E92
:1002C000636F320E626F33ECC4F0000E0001666F94
:1002D000020E676F60516627615167236EC060F040
:1002E0006FC061F0000E636F0A0E626F33ECC4F0F2
:1002F00000016051662761516723080E6625D96E9B
:10030000000E6721DA6E020EDE6E000EDD6E6E4BA1
:100310006F2B6CC060F06DC061F0000E636F320E29
:10032000626F33ECC4F0000E0001666F020E676F5F
:1003300060516627615167236EC060F06FC061F045
:10034000000E636F0A0E626F33ECC4F0000160515F
:10035000662761516723040E6625D96E000E67215A
:10036000DA6E010EDF6E6CC060F06DC061F0000EE1
:10037000636F320E626F33ECC4F0000E0001666FE3
:10038000020E676F60516627615167236EC060F08F
:100390006FC061F0000E636F0A0E626F33ECC4F041
:1003A00000016051662761516723050E6625D96EED
:1003B000000E6721DA6E000EDF6E6CC060F06DC05B
:1003C00061F0000E636F320E626F33ECC4F0000E0A
:1003D0000001666F020E676F6051662761516723E7
:1003E0006EC060F06FC061F0000E636F0A0E626F46
:1003F00033ECC4F000016051662761516723060E9B
:100400006625D96E000E6721DA6E010EDF6E6CC0B4
:1004100060F06DC061F0000E636F320E626F33ECFE
:10042000C4F0000E0001666F020E676F6051662710
:10043000615167236EC060F06FC061F0000E636FA2
:100440000A0E626F33ECC4F00001605166276151FF
:100450006723070E6625D96E000E6721DA6E000E3F
:10046000DF6E6CC060F06DC061F0000E636F320E25
:10047000626F33ECC4F0000E0001666F020E676F0E
:1004800060516627615167236EC060F06FC061F0F4
:10049000000E636F0A0E626F33ECC4F0000160510E
:1004A000662761516723080E6625D96E000E672105
:1004B000DA6E020EDE6E000EDD6E6E4B6F2B6CC0C0
:1004C00060F06DC061F0000E636F320E626F33EC4E
:1004D000C4F0000E0001666F020E676F6051662760
:1004E000615167236EC060F06FC061F0000E636FF2
:1004F0000A0E626F33ECC4F000016051662761514F
:100500006723040E6625D96E000E6721DA6E010E90
:10051000DF6E6CC060F06DC061F0000E636F320E74
:10052000626F33ECC4F0000E0001666F020E676F5D
:1005300060516627615167236EC060F06FC061F043
:10054000000E636F0A0E626F33ECC4F0000160515D
:10055000662761516723050E6625D96E000E672157
:10056000DA6E000EDF6E6CC060F06DC061F0000EE0
:10057000636F320E626F33ECC4F0000E0001666FE1
:10058000020E676F60516627615167236EC060F08D
:100590006FC061F0000E636F0A0E626F33ECC4F03F
:1005A00000016051662761516723060E6625D96EEA
:1005B000000E6721DA6E000EDF6E6CC060F06DC059
:1005C00061F0000E636F320E626F33ECC4F0000E08
:1005D0000001666F020E676F6051662761516723E5
:1005E0006EC060F06FC061F0000E636F0A0E626F44
:1005F00033ECC4F000016051662761516723070E98
:100600006625D96E000E6721DA6E000EDF6E6CC0B3
:1006100060F06DC061F0000E636F320E626F33ECFC
:10062000C4F0000E0001666F020E676F605166270E
:10063000615167236EC060F06FC061F0000E636FA0
:100640000A0E626F33ECC4F00001605166276151FD
:100650006723080E6625D96E000E6721DA6E030E39
:10066000DE6E000EDD6E6E4B6F2B6CC060F06DC0E9
:1006700061F0000E636F320E626F33ECC4F0000E57
:100680000001666F020E676F605166276151672334
:100690006EC060F06FC061F0000E636F0A0E626F93
:1006A00033ECC4F000016051662761516723040EEA
:1006B0006625D96E000E6721DA6E010EDF6E6CC002
:1006C00060F06DC061F0000E636F320E626F33EC4C
:1006D000C4F0000E0001666F020E676F605166275E
:1006E000615167236EC060F06FC061F0000E636FF0
:1006F0000A0E626F33ECC4F000016051662761514D
:100700006723050E6625D96E000E6721DA6E010E8D
:10071000DF6E6CC060F06DC061F0000E636F320E72
:10072000626F33ECC4F0000E0001666F020E676F5B
:1007300060516627615167236EC060F06FC061F041
:10074000000E636F0A0E626F33ECC4F0000160515B
:10075000662761516723060E6625D96E000E672154
:10076000DA6E000EDF6E6CC060F06DC061F0000EDE
:10077000636F320E626F33ECC4F0000E0001666FDF
:10078000020E676F60516627615167236EC060F08B
:100790006FC061F0000E636F0A0E626F33ECC4F03D
:1007A00000016051662761516723070E6625D96EE7
:1007B000000E6721DA6E000EDF6E6CC060F06DC057
:1007C00061F0000E636F320E626F33ECC4F0000E06
:1007D0000001666F020E676F6051662761516723E3
:1007E0006EC060F06FC061F0000E636F0A0E626F42
:1007F00033ECC4F000016051662761516723080E95
:100800006625D96E000E6721DA6E020EDE6E000ECE
:10081000DD6E6E4B6F2B6CC060F06DC061F0000E32
:10082000636F320E626F33ECC4F0000E0001666F2E
:10083000020E676F60516627615167236EC060F0DA
:100840006FC061F0000E636F0A0E626F33ECC4F08C
:1008500000016051662761516723040E6625D96E39
:10086000000E6721DA6E010EDF6E6CC060F06DC0A5
:1008700061F0000E636F320E626F33ECC4F0000E55
:100880000001666F020E676F605166276151672332
:100890006EC060F06FC061F0000E636F0A0E626F91
:1008A00033ECC4F000016051662761516723050EE7
:1008B0006625D96E000E6721DA6E010EDF6E6CC000
:1008C00060F06DC061F0000E636F320E626F33EC4A
:1008D000C4F0000E0001666F020E676F605166275C
:1008E000615167236EC060F06FC061F0000E636FEE
:1008F0000A0E626F33ECC4F000016051662761514B
:100900006723060E6625D96E000E6721DA6E000E8B
:10091000DF6E6CC060F06DC061F0000E636F320E70
:10092000626F33ECC4F0000E0001666F020E676F59
:1009300060516627615167236EC060F06FC061F03F
:10094000000E636F0A0E626F33ECC4F00001605159
:10095000662761516723070E6625D96E000E672151
:10096000DA6E010EDF6E6CC060F06DC061F0000EDB
:10097000636F320E626F33ECC4F0000E0001666FDD
:10098000020E676F60516627615167236EC060F089
:100990006FC061F0000E636F0A0E626F33ECC4F03B
:1009A00000016051662761516723080E6625D96EE4
:1009B000000E6721DA6E010EDE6E000EDD6E6C4BEE
:1009C0006D2B000E6F6F000E6E6F6CC060F06DC00F
:1009D00061F0000E636F320E626F33ECC4F0000EF4
:1009E0000001666F020E676F6051662761516723D1
:1009F0006EC060F06FC061F0000E636F0A0E626F30
:100A000033ECC4F000016051662761516723040E86
:100A10006625D96E000E6721DA6E000EDF6E6CC09F
:100A200060F06DC061F0000E636F320E626F33ECE8
:100A3000C4F0000E0001666F020E676F60516627FA
:100A4000615167236EC060F06FC061F0000E636F8C
:100A50000A0E626F33ECC4F00001605166276151E9
:100A60006723050E6625D96E000E6721DA6E000E2B
:100A7000DF6E6CC060F06DC061F0000E636F320E0F
:100A8000626F33ECC4F0000E0001666F020E676FF8
:100A900060516627615167236EC060F06FC061F0DE
:100AA000000E636F0A0E626F33ECC4F000016051F8
:100AB000662761516723060E6625D96E000E6721F1
:100AC000DA6E000EDF6E6CC060F06DC061F0000E7B
:100AD000636F320E626F33ECC4F0000E0001666F7C
:100AE000020E676F60516627615167236EC060F028
:100AF0006FC061F0000E636F0A0E626F33ECC4F0DA
:100B000000016051662761516723070E6625D96E83
:100B1000000E6721DA6E010EDF6E6CC060F06DC0F2
:100B200061F0000E636F320E626F33ECC4F0000EA2
:100B30000001666F020E676F60516627615167237F
:100B40006EC060F06FC061F0000E636F0A0E626FDE
:100B500033ECC4F000016051662761516723080E31
:100B60006625D96E000E6721DA6E030EDE6E000E6A
:100B7000DD6E6E4B6F2B6CC060F06DC061F0000ECF
:100B8000636F320E626F33ECC4F0000E0001666FCB
:100B9000020E676F60516627615167236EC060F077
:100BA0006FC061F0000E636F0A0E626F33ECC4F029
:100BB00000016051662761516723040E6625D96ED6
:100BC000000E6721DA6E010EDF6E6CC060F06DC042
:100BD00061F0000E636F320E626F33ECC4F0000EF2
:100BE0000001666F020E676F6051662761516723CF
:100BF0006EC060F06FC061F0000E636F0A0E626F2E
:100C000033ECC4F000016051662761516723050E83
:100C10006625D96E000E6721DA6E010EDF6E6CC09C
:100C200060F06DC061F0000E636F320E626F33ECE6
:100C3000C4F0000E0001666F020E676F60516627F8
:100C4000615167236EC060F06FC061F0000E636F8A
:100C50000A0E626F33ECC4F00001605166276151E7
:100C60006723060E6625D96E000E6721DA6E010E27
:100C7000DF6E6CC060F06DC061F0000E636F320E0D
:100C8000626F33ECC4F0000E0001666F020E676FF6
:100C900060516627615167236EC060F06FC061F0DC
:100CA000000E636F0A0E626F33ECC4F000016051F6
:100CB000662761516723070E6625D96E000E6721EE
:100CC000DA6E000EDF6E6CC060F06DC061F0000E79
:100CD000636F320E626F33ECC4F0000E0001666F7A
:100CE000020E676F60516627615167236EC060F026
:100CF0006FC061F0000E636F0A0E626F33ECC4F0D8
:100D000000016051662761516723080E6625D96E80
:100D1000000E6721DA6E010EDE6E000EDD6E6E4B88
:100D20006F2B6CC060F06DC061F0000E636F320E0F
:100D3000626F33ECC4F0000E0001666F020E676F45
:100D400060516627615167236EC060F06FC061F02B
:100D5000000E636F0A0E626F33ECC4F00001605145
:100D6000662761516723040E6625D96E000E672140
:100D7000DA6E000EDF6E6CC060F06DC061F0000EC8
:100D8000636F320E626F33ECC4F0000E0001666FC9
:100D9000020E676F60516627615167236EC060F075
:100DA0006FC061F0000E636F0A0E626F33ECC4F027
:100DB00000016051662761516723050E6625D96ED3
:100DC000000E6721DA6E010EDF6E6CC060F06DC040
:100DD00061F0000E636F320E626F33ECC4F0000EF0
:100DE0000001666F020E676F6051662761516723CD
:100DF0006EC060F06FC061F0000E636F0A0E626F2C
:100E000033ECC4F000016051662761516723060E80
:100E10006625D96E000E6721DA6E000EDF6E6CC09B
:100E200060F06DC061F0000E636F320E626F33ECE4
:100E3000C4F0000E0001666F020E676F60516627F6
:100E4000615167236EC060F06FC061F0000E636F88
:100E50000A0E626F33ECC4F00001605166276151E5
:100E60006723070E6625D96E000E6721DA6E010E24
:100E7000DF6E6CC060F06DC061F0000E636F320E0B
:100E8000626F33ECC4F0000E0001666F020E676FF4
:100E900060516627615167236EC060F06FC061F0DA
:100EA000000E636F0A0E626F33ECC4F000016051F4
:100EB000662761516723080E6625D96E000E6721EB
:100EC000DA6E020EDE6E000EDD6E6E4B6F2B6CC0A6
:100ED00060F06DC061F0000E636F320E626F33EC34
:100EE000C4F0000E0001666F020E676F6051662746
:100EF000615167236EC060F06FC061F0000E636FD8
:100F00000A0E626F33ECC4F0000160516627615134
:100F10006723040E6625D96E000E6721DA6E000E77
:100F2000DF6E6CC060F06DC061F0000E636F320E5A
:100F3000626F33ECC4F0000E0001666F020E676F43
:100F400060516627615167236EC060F06FC061F029
:100F5000000E636F0A0E626F33ECC4F00001605143
:100F6000662761516723050E6625D96E000E67213D
:100F7000DA6E000EDF6E6CC060F06DC061F0000EC6
:100F8000636F320E626F33ECC4F0000E0001666FC7
:100F9000020E676F60516627615167236EC060F073
:100FA0006FC061F0000E636F0A0E626F33ECC4F025
:100FB00000016051662761516723060E6625D96ED0
:100FC000000E6721DA6E010EDF6E6CC060F06DC03E
:100FD00061F0000E636F320E626F33ECC4F0000EEE
:100FE0000001666F020E676F6051662761516723CB
:100FF0006EC060F06FC061F0000E636F0A0E626F2A
:1010000033ECC4F000016051662761516723070E7D
:101010006625D96E000E6721DA6E010EDF6E6CC098
:1010200060F06DC061F0000E636F320E626F33ECE2
:10103000C4F0000E0001666F020E676F60516627F4
:10104000615167236EC060F06FC061F0000E636F86
:101050000A0E626F33ECC4F00001605166276151E3
:101060006723080E6625D96E000E6721DA6E020E20
:10107000DE6E000EDD6E6E4B6F2B6CC060F06DC0CF
:1010800061F0000E636F320E626F33ECC4F0000E3D
:101090000001666F020E676F60516627615167231A
:1010A0006EC060F06FC061F0000E636F0A0E626F79
:1010B00033ECC4F000016051662761516723040ED0
:1010C0006625D96E000E6721DA6E000EDF6E6CC0E9
:1010D00060F06DC061F0000E636F320E626F33EC32
:1010E000C4F0000E0001666F020E676F6051662744
:1010F000615167236EC060F06FC061F0000E636FD6
:101100000A0E626F33ECC4F0000160516627615132
:101110006723050E6625D96E000E6721DA6E010E73
:10112000DF6E6CC060F06DC061F0000E636F320E58
:10113000626F33ECC4F0000E0001666F020E676F41
:1011400060516627615167236EC060F06FC061F027
:10115000000E636F0A0E626F33ECC4F00001605141
:10116000662761516723060E6625D96E000E67213A
:10117000DA6E010EDF6E6CC060F06DC061F0000EC3
:10118000636F320E626F33ECC4F0000E0001666FC5
:10119000020E676F60516627615167236EC060F071
:1011A0006FC061F0000E636F0A0E626F33ECC4F023
:1011B00000016051662761516723070E6625D96ECD
:1011C000000E6721DA6E000EDF6E6CC060F06DC03D
:1011D00061F0000E636F320E626F33ECC4F0000EEC
:1011E0000001666F020E676F6051662761516723C9
:1011F0006EC060F06FC061F0000E636F0A0E626F28
:1012000033ECC4F000016051662761516723080E7A
:101210006625D96E000E6721DA6E020EDE6E000EB4
:10122000DD6E6C4B6D2B000E6F6F000E6E6F6CC021
:1012300060F06DC061F0000E636F320E626F33ECD0
:10124000C4F0000E0001666F020E676F60516627E2
:10125000615167236EC060F06FC061F0000E636F74
:101260000A0E626F33ECC4F00001605166276151D1
:101270006723040E6625D96E000E6721DA6E000E14
:10128000DF6E6CC060F06DC061F0000E636F320EF7
:10129000626F33ECC4F0000E0001666F020E676FE0
:1012A00060516627615167236EC060F06FC061F0C6
:1012B000000E636F0A0E626F33ECC4F000016051E0
:1012C000662761516723050E6625D96E000E6721DA
:1012D000DA6E000EDF6E6CC060F06DC061F0000E63
:1012E000636F320E626F33ECC4F0000E0001666F64
:1012F000020E676F60516627615167236EC060F010
:101300006FC061F0000E636F0A0E626F33ECC4F0C1
:1013100000016051662761516723060E6625D96E6C
:10132000000E6721DA6E000EDF6E6CC060F06DC0DB
:1013300061F0000E636F320E626F33ECC4F0000E8A
:101340000001666F020E676F605166276151672367
:101350006EC060F06FC061F0000E636F0A0E626FC6
:1013600033ECC4F000016051662761516723070E1A
:101370006625D96E000E6721DA6E010EDF6E6CC035
:1013800060F06DC061F0000E636F320E626F33EC7F
:10139000C4F0000E0001666F020E676F6051662791
:1013A000615167236EC060F06FC061F0000E636F23
:1013B0000A0E626F33ECC4F0000160516627615180
:1013C0006723080E6625D96E000E6721DA6E030EBC
:1013D000DE6E000EDD6E6E4B6F2B6CC060F06DC06C
:1013E00061F0000E636F320E626F33ECC4F0000EDA
:1013F0000001666F020E676F6051662761516723B7
:101400006EC060F06FC061F0000E636F0A0E626F15
:1014100033ECC4F000016051662761516723040E6C
:101420006625D96E000E6721DA6E010EDF6E6CC084
:1014300060F06DC061F0000E636F320E626F33ECCE
:10144000C4F0000E0001666F020E676F60516627E0
:10145000615167236EC060F06FC061F0000E636F72
:101460000A0E626F33ECC4F00001605166276151CF
:101470006723050E6625D96E000E6721DA6E000E11
:10148000DF6E6CC060F06DC061F0000E636F320EF5
:10149000626F33ECC4F0000E0001666F020E676FDE
:1014A00060516627615167236EC060F06FC061F0C4
:1014B000000E636F0A0E626F33ECC4F000016051DE
:1014C000662761516723060E6625D96E000E6721D7
:1014D000DA6E010EDF6E6CC060F06DC061F0000E60
:1014E000636F320E626F33ECC4F0000E0001666F62
:1014F000020E676F60516627615167236EC060F00E
:101500006FC061F0000E636F0A0E626F33ECC4F0BF
:1015100000016051662761516723070E6625D96E69
:10152000000E6721DA6E000EDF6E6CC060F06DC0D9
:1015300061F0000E636F320E626F33ECC4F0000E88
:101540000001666F020E676F605166276151672365
:101550006EC060F06FC061F0000E636F0A0E626FC4
:1015600033ECC4F000016051662761516723080E17
:101570006625D96E000E6721DA6E020EDE6E000E51
:10158000DD6E6E4B6F2B6CC060F06DC061F0000EB5
:10159000636F320E626F33ECC4F0000E0001666FB1
:1015A000020E676F60516627615167236EC060F05D
:1015B0006FC061F0000E636F0A0E626F33ECC4F00F
:1015C00000016051662761516723040E6625D96EBC
:1015D000000E6721DA6E000EDF6E6CC060F06DC029
:1015E00061F0000E636F320E626F33ECC4F0000ED8
:1015F0000001666F020E676F6051662761516723B5
:101600006EC060F06FC061F0000E636F0A0E626F13
:1016100033ECC4F000016051662761516723050E69
:101620006625D96E000E6721DA6E000EDF6E6CC083
:1016300060F06DC061F0000E636F320E626F33ECCC
:10164000C4F0000E0001666F020E676F60516627DE
:10165000615167236EC060F06FC061F0000E636F70
:101660000A0E626F33ECC4F00001605166276151CD
:101670006723060E6625D96E000E6721DA6E000E0E
:10168000DF6E6CC060F06DC061F0000E636F320EF3
:10169000626F33ECC4F0000E0001666F020E676FDC
:1016A00060516627615167236EC060F06FC061F0C2
:1016B000000E636F0A0E626F33ECC4F000016051DC
:1016C000662761516723070E6625D96E000E6721D4
:1016D000DA6E000EDF6E6CC060F06DC061F0000E5F
:1016E000636F320E626F33ECC4F0000E0001666F60
:1016F000020E676F60516627615167236EC060F00C
:101700006FC061F0000E636F0A0E626F33ECC4F0BD
:1017100000016051662761516723080E6625D96E66
:10172000000E6721DA6E040EDE6E000EDD6E6E4B6B
:101730006F2B6CC060F06DC061F0000E636F320EF5
:10174000626F33ECC4F0000E0001666F020E676F2B
:1017500060516627615167236EC060F06FC061F011
:10176000000E636F0A0E626F33ECC4F0000160512B
:10177000662761516723040E6625D96E000E672126
:10178000DA6E010EDF6E6CC060F06DC061F0000EAD
:10179000636F320E626F33ECC4F0000E0001666FAF
:1017A000020E676F60516627615167236EC060F05B
:1017B0006FC061F0000E636F0A0E626F33ECC4F00D
:1017C00000016051662761516723050E6625D96EB9
:1017D000000E6721DA6E000EDF6E6CC060F06DC027
:1017E00061F0000E636F320E626F33ECC4F0000ED6
:1017F0000001666F020E676F6051662761516723B3
:101800006EC060F06FC061F0000E636F0A0E626F11
:1018100033ECC4F000016051662761516723060E66
:101820006625D96E000E6721DA6E010EDF6E6CC080
:1018300060F06DC061F0000E636F320E626F33ECCA
:10184000C4F0000E0001666F020E676F60516627DC
:10185000615167236EC060F06FC061F0000E636F6E
:101860000A0E626F33ECC4F00001605166276151CB
:101870006723070E6625D96E000E6721DA6E000E0B
:10188000DF6E6CC060F06DC061F0000E636F320EF1
:10189000626F33ECC4F0000E0001666F020E676FDA
:1018A00060516627615167236EC060F06FC061F0C0
:1018B000000E636F0A0E626F33ECC4F000016051DA
:1018C000662761516723080E6625D96E000E6721D1
:1018D000DA6E020EDE6E000EDD6E6E4B6F2B6CC08C
:1018E00060F06DC061F0000E636F320E626F33EC1A
:1018F000C4F0000E0001666F020E676F605166272C
:10190000615167236EC060F06FC061F0000E636FBD
:101910000A0E626F33ECC4F000016051662761511A
:101920006723040E6625D96E000E6721DA6E010E5C
:10193000DF6E6CC060F06DC061F0000E636F320E40
:10194000626F33ECC4F0000E0001666F020E676F29
:1019500060516627615167236EC060F06FC061F00F
:10196000000E636F0A0E626F33ECC4F00001605129
:10197000662761516723050E6625D96E000E672123
:10198000DA6E010EDF6E6CC060F06DC061F0000EAB
:10199000636F320E626F33ECC4F0000E0001666FAD
:1019A000020E676F60516627615167236EC060F059
:1019B0006FC061F0000E636F0A0E626F33ECC4F00B
:1019C00000016051662761516723060E6625D96EB6
:1019D000000E6721DA6E000EDF6E6CC060F06DC025
:1019E00061F0000E636F320E626F33ECC4F0000ED4
:1019F0000001666F020E676F6051662761516723B1
:101A00006EC060F06FC061F0000E636F0A0E626F0F
:101A100033ECC4F000016051662761516723070E63
:101A20006625D96E000E6721DA6E000EDF6E6CC07F
:101A300060F06DC061F0000E636F320E626F33ECC8
:101A4000C4F0000E0001666F020E676F60516627DA
:101A5000615167236EC060F06FC061F0000E636F6C
:101A60000A0E626F33ECC4F00001605166276151C9
:101A70006723080E6625D96E000E6721DA6E020E06
:101A8000DE6E000EDD6E6C4B6D2B000E6F6F000E68
:101A90006E6F6CC060F06DC061F0000E636F320E4F
:101AA000626F33ECC4F0000E0001666F020E676FC8
:101AB00060516627615167236EC060F06FC061F0AE
:101AC000000E636F0A0E626F33ECC4F000016051C8
:101AD000662761516723040E6625D96E000E6721C3
:101AE000DA6E000EDF6E6CC060F06DC061F0000E4B
:101AF000636F320E626F33ECC4F0000E0001666F4C
:101B0000020E676F60516627615167236EC060F0F7
:101B10006FC061F0000E636F0A0E626F33ECC4F0A9
:101B200000016051662761516723050E6625D96E55
:101B3000000E6721DA6E000EDF6E6CC060F06DC0C3
:101B400061F0000E636F320E626F33ECC4F0000E72
:101B50000001666F020E676F60516627615167234F
:101B60006EC060F06FC061F0000E636F0A0E626FAE
:101B700033ECC4F000016051662761516723060E03
:101B80006625D96E000E6721DA6E010EDF6E6CC01D
:101B900060F06DC061F0000E636F320E626F33EC67
:101BA000C4F0000E0001666F020E676F6051662779
:101BB000615167236EC060F06FC061F0000E636F0B
:101BC0000A0E626F33ECC4F0000160516627615168
:101BD0006723070E6625D96E000E6721DA6E010EA7
:101BE000DF6E6CC060F06DC061F0000E636F320E8E
:101BF000626F33ECC4F0000E0001666F020E676F77
:101C000060516627615167236EC060F06FC061F05C
:101C1000000E636F0A0E626F33ECC4F00001605176
:101C2000662761516723080E6625D96E000E67216D
:101C3000DA6E020EDE6E000EDD6E6E4B6F2B6CC028
:101C400060F06DC061F0000E636F320E626F33ECB6
:101C5000C4F0000E0001666F020E676F60516627C8
:101C6000615167236EC060F06FC061F0000E636F5A
:101C70000A0E626F33ECC4F00001605166276151B7
:101C80006723040E6625D96E000E6721DA6E010EF9
:101C9000DF6E6CC060F06DC061F0000E636F320EDD
:101CA000626F33ECC4F0000E0001666F020E676FC6
:101CB00060516627615167236EC060F06FC061F0AC
:101CC000000E636F0A0E626F33ECC4F000016051C6
:101CD000662761516723050E6625D96E000E6721C0
:101CE000DA6E010EDF6E6CC060F06DC061F0000E48
:101CF000636F320E626F33ECC4F0000E0001666F4A
:101D0000020E676F60516627615167236EC060F0F5
:101D10006FC061F0000E636F0A0E626F33ECC4F0A7
:101D200000016051662761516723060E6625D96E52
:101D3000000E6721DA6E010EDF6E6CC060F06DC0C0
:101D400061F0000E636F320E626F33ECC4F0000E70
:101D50000001666F020E676F60516627615167234D
:101D60006EC060F06FC061F0000E636F0A0E626FAC
:101D700033ECC4F000016051662761516723070E00
:101D80006625D96E000E6721DA6E000EDF6E6CC01C
:101D900060F06DC061F0000E636F320E626F33EC65
:101DA000C4F0000E0001666F020E676F6051662777
:101DB000615167236EC060F06FC061F0000E636F09
:101DC0000A0E626F33ECC4F0000160516627615166
:101DD0006723080E6625D96E000E6721DA6E010EA4
:101DE000DE6E000EDD6E6E4B6F2B6CC060F06DC052
:101DF00061F0000E636F320E626F33ECC4F0000EC0
:101E00000001666F020E676F60516627615167239C
:101E10006EC060F06FC061F0000E636F0A0E626FFB
:101E200033ECC4F000016051662761516723040E52
:101E30006625D96E000E6721DA6E000EDF6E6CC06B
:101E400060F06DC061F0000E636F320E626F33ECB4
:101E5000C4F0000E0001666F020E676F60516627C6
:101E6000615167236EC060F06FC061F0000E636F58
:101E70000A0E626F33ECC4F00001605166276151B5
:101E80006723050E6625D96E000E6721DA6E010EF6
:101E9000DF6E6CC060F06DC061F0000E636F320EDB
:101EA000626F33ECC4F0000E0001666F020E676FC4
:101EB00060516627615167236EC060F06FC061F0AA
:101EC000000E636F0A0E626F33ECC4F000016051C4
:101ED000662761516723060E6625D96E000E6721BD
:101EE000DA6E010EDF6E6CC060F06DC061F0000E46
:101EF000636F320E626F33ECC4F0000E0001666F48
:101F0000020E676F60516627615167236EC060F0F3
:101F10006FC061F0000E636F0A0E626F33ECC4F0A5
:101F200000016051662761516723070E6625D96E4F
:101F3000000E6721DA6E010EDF6E6CC060F06DC0BE
:101F400061F0000E636F320E626F33ECC4F0000E6E
:101F50000001666F020E676F60516627615167234B
:101F60006EC060F06FC061F0000E636F0A0E626FAA
:101F700033ECC4F000016051662761516723080EFD
:101F80006625D96E000E6721DA6E010EDE6E000E38
:101F9000DD6E6E4B6F2B6CC060F06DC061F0000E9B
:101FA000636F320E626F33ECC4F0000E0001666F97
:101FB000020E676F60516627615167236EC060F043
:101FC0006FC061F0000E636F0A0E626F33ECC4F0F5
:101FD00000016051662761516723040E6625D96EA2
:101FE000000E6721DA6E010EDF6E6CC060F06DC00E
:101FF00061F0000E636F320E626F33ECC4F0000EBE
:102000000001666F020E676F60516627615167239A
:102010006EC060F06FC061F0000E636F0A0E626FF9
:1020200033ECC4F000016051662761516723050E4F
:102030006625D96E000E6721DA6E000EDF6E6CC069
:1020400060F06DC061F0000E636F320E626F33ECB2
:10205000C4F0000E0001666F020E676F60516627C4
:10206000615167236EC060F06FC061F0000E636F56
:102070000A0E626F33ECC4F00001605166276151B3
:102080006723060E6625D96E000E6721DA6E010EF3
:10209000DF6E6CC060F06DC061F0000E636F320ED9
:1020A000626F33ECC4F0000E0001666F020E676FC2
:1020B00060516627615167236EC060F06FC061F0A8
:1020C000000E636F0A0E626F33ECC4F000016051C2
:1020D000662761516723070E6625D96E000E6721BA
:1020E000DA6E010EDF6E6CC060F06DC061F0000E44
:1020F000636F320E626F33ECC4F0000E0001666F46
:10210000020E676F60516627615167236EC060F0F1
:102110006FC061F0000E636F0A0E626F33ECC4F0A3
:1021200000016051662761516723080E6625D96E4C
:10213000000E6721DA6E010EDE6E000EDD6E6E4B54
:102140006F2B6CC060F06DC061F0000E636F320EDB
:10215000626F33ECC4F0000E0001666F020E676F11
:1021600060516627615167236EC060F06FC061F0F7
:10217000000E636F0A0E626F33ECC4F00001605111
:10218000662761516723040E6625D96E000E67210C
:10219000DA6E000EDF6E6CC060F06DC061F0000E94
:1021A000636F320E626F33ECC4F0000E0001666F95
:1021B000020E676F60516627615167236EC060F041
:1021C0006FC061F0000E636F0A0E626F33ECC4F0F3
:1021D00000016051662761516723050E6625D96E9F
:1021E000000E6721DA6E010EDF6E6CC060F06DC00C
:1021F00061F0000E636F320E626F33ECC4F0000EBC
:102200000001666F020E676F605166276151672398
:102210006EC060F06FC061F0000E636F0A0E626FF7
:1022200033ECC4F000016051662761516723060E4C
:102230006625D96E000E6721DA6E010EDF6E6CC066
:1022400060F06DC061F0000E636F320E626F33ECB0
:10225000C4F0000E0001666F020E676F60516627C2
:10226000615167236EC060F06FC061F0000E636F54
:102270000A0E626F33ECC4F00001605166276151B1
:102280006723070E6625D96E000E6721DA6E000EF1
:10229000DF6E6CC060F06DC061F0000E636F320ED7
:1022A000626F33ECC4F0000E0001666F020E676FC0
:1022B00060516627615167236EC060F06FC061F0A6
:1022C000000E636F0A0E626F33ECC4F000016051C0
:1022D000662761516723080E6625D96E000E6721B7
:1022E000DA6E020EDE6E000EDD6E1200000E0101CF
:1022F000F26F000EF16F000EF46F000EF36F00012D
:10230000F951FA11D8A404D02C502D10D8B414D0FF
:102310000001F951FA11D8A412D02C502D10D8B4C4
:102320000ED00101F051D8B407D0FF0E0001AA6F02
:10233000A60EA96F2BECACF0000E0101F06F0001AE
:10234000F905FA11D8A412D02C502D10D8B40ED003
:102350000101F005D8B407D0000E0001AA6F5A0E93
:10236000A96F2BECACF0010E0101F06F0101E251FD
:102370000001F11906E10101E3510001F219D8B49D
:1023800092D0E2C1FBF0E3C1FCF0FB1FFC1FFB4B52
:10239000FC2BF151FB250101F36F0001F251FC21EF
:1023A0000101F46FF4AF3AD0F3C1FBF0F4C1FCF0DB
:1023B0000001FB1FFC1FFB4BFC2BFBC060F0FCC0B3
:1023C00061F0000E636F530E626F33ECC4F060C0B7
:1023D000F3F161C0F4F1000E0101E96F010EE86F45
:1023E000F4BF4ED0F45104E1A70EF35DD8A048D05D
:1023F000F3C1FBF0F4C1FCF00001FB1FFC1FFB4B21
:10240000FC2B4C0EFB250101F36F010E0001FC219A
:102410000101F46F000EE96F000E31D0F3C160F0DE
:10242000F4C161F0000E0001636F530E626F33EC74
:10243000C4F060C0F3F161C0F4F1000E0101E96F76
:10244000000EE86FF4BF1CD0F45104E1A70EF35D59
:10245000D8A016D0F3C1FBF0F4C1FCF00001FB1FC3
:10246000FC1FFB4BFC2B4C0EFB250101F36F010EF7
:102470000001FC210101F46F000EE96F010EE86F0D
:10248000F3C161F0F4C162F0000E0001646FC80E88
:10249000636FE8C165F0E9C166F097ECBBF0F1C08D
:1024A000E2F1F2C0E3F1F7C061F0F8C062F0F7C00A
:1024B00063F0F8C064F0E4ECC0F01CEC9EF0000E99
:1024C0000101396F040E386F000EEB6F000EEA6FDA
:1024D000000EED6F000EEC6FA3D11CEC9EF02EC031
:1024E000FBF02FC0FCF00001FB1FFC1FFB4BFC2B83
:1024F0000101DA510001FB250101F56FDB510001FB
:10250000FC210101F66FF5C160F0F6C161F038C140
:1025100062F039C163F033ECC4F060C0F5F161C022
:10252000F6F12FBE06D02F5003E15B0E2E5CD8B023
:10253000C2D00101F6BF0AD02D0EF55D010EF6598D
:10254000D8A004D0000EF66F1E0EF56FF6AF0AD0BD
:10255000E20EF55DFF0EF659D8B004D0FF0EF66F0F
:10256000E20EF56F040EDA250001FB6F000E01018B
:10257000DB210001FC6F0101F5510001FB1906E1AF
:102580000101F6510001FC19D8B417D0FC0EFB6F05
:10259000FF0EFC6FDAC1FDF0DBC1FEF0FB51FD2741
:1025A000FC51FE230101F5510001FD1910E101016B
:1025B000F6510001FE19D8A40AD0F7C061F0F8C0A6
:1025C00062F0F7C063F0F8C064F0E4ECC0F0010121
:1025D000F6BF31D0F5C1FBF0F6C1FCF00001FB1FE6
:1025E000FC1FFB4BFC2BF751FB250101EA6F00019F
:1025F000F851FC210101EB6F0001F951FA11D8A447
:102600000BD0EAC161F0EBC162F0F7C063F0F8C033
:1026100064F0E4ECC0F00FD00001F905FA11D8A481
:102620000AD0F7C061F0F8C062F0EAC163F0EBC114
:1026300064F0E4ECC0F00101F6BF05D0F65145E1CD
:10264000F505D8B042D0F6AF04D0F56DF61FD8B07E
:10265000F62BF5C1FBF0F6C1FCF00001FB1FFC1FDF
:10266000FB4BFC2BF751FB250101EC6F0001F851EE
:10267000FC210101ED6F0001F951FA11D8A40BD032
:10268000F7C061F0F8C062F0ECC163F0EDC164F036
:10269000E4ECC0F01AD00001F905FA11D8A415D065
:1026A000ECC161F0EDC162F0F7C063F0F8C064F016
:1026B000E4ECC0F00AD0F7C061F0F8C062F0F7C0F7
:1026C00063F0F8C064F0E4ECC0F0BCECBDF00001D5
:1026D00061510101F127000162510101F22381ECF6
:1026E000C4F0000161516211D8B49AD03CC160F0CD
:1026F0003DC161F0000E636F320E626F33ECC4F0C7
:10270000040E0001F125FB6F000EF221FC6F000E9C
:10271000FD6F020EFE6FFB51FD27FC51FE23605141
:10272000FD276151FE233AC160F03BC161F0000E0C
:10273000636F0A0E626F33ECC4F000016051FD2537
:10274000D96E6151FE21DA6E010EDF6E000E0101BD
:10275000EF6F000EEE6F800E0001756FFF0E766F4B
:1027600077ECABF09BECA7F0F7C0FBF0F8C0FCF007
:102770000001FB1FFC1FFB4BFC2BFBC061F0FCC0EE
:1027800062F0F7C0FDF0F8C0FEF0FD1FFE1FFD4B2C
:10279000FE2BFDC063F0FEC064F0E4ECC0F0BCECC6
:1027A000BDF028D0BCECBDF0000161510101EE2765
:1027B000000162510101EF239BECA7F0FC0E000128
:1027C000756FFF0E766F000E786F230E776F77ECC4
:1027D000ABF0600E0001756FFF0E766FEEC177F003
:1027E000EFC178F0F1C179F0F2C17AF077ECABF09B
:1027F0009BECA7F0F1C1FBF0F2C1FCF00001FB1F64
:10280000FC1FFB4BFC2BFB510101EE5DEF51800ADD
:102810000001FD6FFC51800AFD59D8A01200C2D7FB
:102820000001F3510101F15DF251800A0001FB6FDB
:10283000F451800AFB59D8A050D6F151F211D8A416
:1028400005D001013C07D8A03D071DD00001F105CE
:10285000F211D8A404D001013A4B3B2B14D0020E44
:102860000001F119F211D8A404D001013C4B3D2B19
:102870000AD0030E0001F119F211D8A404D001010D
:102880003A07D8A03B07F1C083F0F2C084F0BDEC5A
:10289000C1F03CC160F03DC161F0000E0001636F0A
:1028A000320E626F33ECC4F0000E0001FB6F020EBB
:1028B000FC6F6051FB276151FC233AC160F03BC1C2
:1028C00061F0000E636F0A0E626F33ECC4F000011A
:1028D0006051FB276151FC23080EFB25D96E000EC9
:1028E000FC21DA6EDE06000EDD5AA3ECC4F0120005
:1028F0008C0E0001756FFF0E766F3CC177F03DC105
:1029000078F03AC179F03BC17AF077ECABF09BEC10
:10291000A7F03CC160F03DC161F0000E0001636FA3
:10292000320E626F33ECC4F0000E0201FB6F020E38
:10293000FC6F000160510201FB270001615102019F
:10294000FC233AC160F03BC161F0000E0001636FEF
:102950000A0E626F33ECC4F0000160510201FB27E4
:10296000000161510201FC23080EFB25D96E000E07
:10297000FC21DA6E010EDBBE3DD2010EDB5003E11D
:10298000DE04D8A037D23CC160F03DC161F0000E3A
:102990000001636F320E626F33ECC4F0000E02016F
:1029A000FB6F020EFC6F000160510201FB2700016A
:1029B00061510201FC233AC160F03BC161F0000E9D
:1029C0000001636F0A0E626F33ECC4F000016051C6
:1029D0000201FB27000161510201FC23050EFB25CA
:1029E000D96E000EFC21DA6EDF50D8A444D03CC171
:1029F00060F03DC161F0000E0001636F320E626F46
:102A000033ECC4F0000E0201FB6F020EFC6F0001FC
:102A100060510201FB27000161510201FC23010EFC
:102A200001013A250001606F000E01013B21000108
:102A3000616F000E636F0A0E626F33ECC4F0000129
:102A400060510201FB27000161510201FC23080EC5
:102A5000FB25D96E000EFC21DA6E010EDBBE0BD019
:102A6000010EDB5003E1DE04D8A005D0000E010109
:102A7000FE6F010E67D13CC160F03DC161F0000EF8
:102A80000001636F320E626F33ECC4F0000E02017E
:102A9000FB6F020EFC6F000160510201FB27000179
:102AA00061510201FC233AC160F03BC161F0000EAC
:102AB0000001636F0A0E626F33ECC4F000016051D5
:102AC0000201FB27000161510201FC23060EFB25D8
:102AD000D96E000EFC21DA6EDF50D8A444D0010E6E
:102AE00001013C250001606F000E01013D21000144
:102AF000616F000E636F320E626F33ECC4F0000E34
:102B00000201FB6F020EFC6F000160510201FB2706
:102B1000000161510201FC233AC160F03BC161F048
:102B2000000E0001636F0A0E626F33ECC4F0000107
:102B300060510201FB27000161510201FC23080ED4
:102B4000FB25D96E000EFC21DA6E010EDBBE0BD028
:102B5000010EDB5003E1DE04D8A005D0000E010118
:102B6000FE6F020EEFD03CC160F03DC161F0000E7F
:102B70000001636F320E626F33ECC4F0000E02018D
:102B8000FB6F020EFC6F000160510201FB27000188
:102B900061510201FC233AC160F03BC161F0000EBB
:102BA0000001636F0A0E626F33ECC4F000016051E4
:102BB0000201FB27000161510201FC23070EFB25E6
:102BC000D96E000EFC21DA6EDF50D8A444D03CC18F
:102BD00060F03DC161F0000E0001636F320E626F64
:102BE00033ECC4F0000E0201FB6F020EFC6F00011B
:102BF00060510201FB27000161510201FC23FF0E1D
:102C000001013A250001606FFF0E01013B21000127
:102C1000616F000E636F0A0E626F33ECC4F0000147
:102C200060510201FB27000161510201FC23080EE3
:102C3000FB25D96E000EFC21DA6E010EDBBE0BD037
:102C4000010EDB5003E1DE04D8A005D0000E010127
:102C5000FE6F030E77D03CC160F03DC161F0000E05
:102C60000001636F320E626F33ECC4F0000E02019C
:102C7000FB6F020EFC6F000160510201FB27000197
:102C800061510201FC233AC160F03BC161F0000ECA
:102C90000001636F0A0E626F33ECC4F000016051F3
:102CA0000201FB27000161510201FC23040EFB25F8
:102CB000D96E000EFC21DA6EDF50D8A445D0FF0E8D
:102CC00001013C250001606FFF0E01013D21000163
:102CD000616F000E636F320E626F33ECC4F0000E52
:102CE0000201FB6F020EFC6F000160510201FB2725
:102CF000000161510201FC233AC160F03BC161F067
:102D0000000E0001636F0A0E626F33ECC4F0000125
:102D100060510201FB27000161510201FC23080EF2
:102D2000FB25D96E000EFC21DA6E010EDBBE0CD045
:102D3000010EDB5003E1DE04D8A006D0000E010135
:102D4000FE6F000EFD6F0AD0F50E0001756FFF0ECD
:102D5000766F77ECABF09BECA7F0FFD73CC160F04F
:102D60003DC161F0000E0001636F320E626F33EC03
:102D7000C4F0000E0201FB6F020EFC6F00016051F7
:102D80000201FB27000161510201FC233AC160F0FE
:102D90003BC161F0000E0001636F0A0E626F33ECFD
:102DA000C4F0000160510201FB27000161510201E2
:102DB000FC23080EFB25D96E000EFC21DA6EDE0620
:102DC000000EDD5AFDC1F1F0FEC1F2F0030E00016C
:102DD000F46FCA0EF36F000EF66F000EF56F000E63
:102DE000F86FC80EF76F000EFA6F000EF96F76ECF1
:102DF00091F01200980E0001756FFF0E766F77EC60
:102E0000ABF09BECA7F073ECC0F083C0F7F184C08B
:102E1000F8F1000E0101FA6FC80EF96F59ECB4F029
:102E20000101E007D8A0E107120011ECB0F04DEC71
:102E3000C5F0E3ECC4F071ECC5F041ECC6F0D2ECA7
:102E4000BBF04DECC0F0010EDBECBEF000EC80F00E
:102E5000010EF5ECC2F00009D8B40CD045ECA9F095
:102E60002AECAEF0EBECBCF07CECC5F00009D8A489
:102E70007AECC3F01CEC9EF02EC076F02FC077F0F9
:102E80006EECC4F011ECC3F0EFECBDF023EECDF02E
:102E900001D80AD00500FA6EDE50FD6EDE50FE6EDF
:102EA000DE50FF6EFA5012000301DE6F23EEAFF02A
:102EB00001D80AD00500FA6EDE50FD6EDE50FE6EBF
:102EC000DE50FF6EFA5012000301DF6F23EEC3F0F5
:102ED00001D80AD00500FA6EDE50FD6EDE50FE6E9F
:102EE000DE50FF6EFA5012000301E16F23EEB9F0DD
:102EF00001D80AD00500FA6EDE50FD6EDE50FE6E7F
:102F0000DE50FF6EFA5012000301E06FDE51D8B4BC
:102F100005D0000E0101496F030E486F0301DF5118
:102F2000D8B405D0000E0101496F010E486F0301AE
:102F3000E151D8B405D0000E0101496F020E486F6F
:102F40000301E051D8B405D0000E0101496F040E11
:102F5000486F010EF5ECC2F00009D8B48BD701011F
:102F600048514911D8A414D0FC0E0001756FFF0E12
:102F7000766F000E786F230E776F77ECABF0700EE4
:102F80000001756FFF0E766F77ECABF09BECA7F04E
:102F9000030E010148194911D8B4D7D00AD1FC0E4B
:102FA0000001756FFF0E766F000E786F230E776F3E
:102FB00077ECABF0D10E0001756FFF0E766F77ECFA
:102FC000ABF0ED0E0001756FFF0E766F34C177F038
:102FD00035C178F077ECABF03D0E0001756FFF0E58
:102FE000766F3CC160F03DC161F0000E636F320E40
:102FF000626F33ECC4F0000E0301DA6F020EDB6F78
:10300000000160510301DA27000161510301DB2354
:103010003AC160F03BC161F0000E0001636F0A0E1F
:10302000626F33ECC4F0000160510301DA27000144
:1030300061510301DB23080EDA25D96E000EDB2176
:10304000DA6EDECF77F0DDCF78F077ECABF078ECAE
:1030500094F07EECBEF000018C058D11D8A46CD0EC
:103060003CC160F03DC161F0000E636F320E626FD3
:1030700033ECC4F0000E0301DA6F020EDB6F0001C7
:1030800060510301DA27000161510301DB233AC1DA
:1030900060F03BC161F0000E0001636F0A0E626FC9
:1030A00033ECC4F0000160510301DA2700016151E3
:1030B0000301DB23020EDA25D96E000EDB21DA6E66
:1030C000DE50DE10D8A438D03CC160F03DC161F0C4
:1030D000000E0001636F320E626F33ECC4F0000E1D
:1030E0000301DA6F020EDB6F000160510301DA2782
:1030F000000161510301DB233AC160F03BC161F083
:10310000000E0001636F0A0E626F33ECC4F0000121
:1031100060510301DA27000161510301DB23020E34
:10312000DA25D96E000EDB21DA6E010EDE6E000E9E
:10313000DD6E0101344B352B9BECA7F0010E000135
:10314000616F5E0E606FADECBEF0010135BF27D739
:10315000355122E1020E345DD8B01ED020D7FC0ECE
:103160000001756FFF0E766F000E786F230E776F7C
:1031700077ECABF0D10E0001756FFF0E766F77EC38
:10318000ABF0BC0E0001756FFF0E766F77ECABF005
:103190009BECA7F0F2ECC4F00101E1AFE0D7E40E44
:1031A0000001756FFF0E766F77ECABF09BECA7F02C
:1031B000FFD70301E151D8B41BD071ECAFF048EC5C
:1031C000B6F0000E0001F26F030EF16F030EF46F04
:1031D000CA0EF36F000EF66F000EF56F000EF86F5B
:1031E000C80EF76F000EFA6F000EF96F76EC91F0D3
:1031F0009BECA7F07CECC5F00009D8B43BD67AEC88
:10320000C3F038D60AD0C80E0001936F020E03D067
:10321000610E936F010E946F08D000019151000A66
:10322000D8B4F1D7010AD8B4F3D720EE02F0935105
:10323000D9269451DA2291C0DFFF93D08A0E866F8F
:10324000010E876F020E886F030E896F76ECA8F06F
:103250008A0E0001866F010E876F030E886F030EC2
:10326000896F76ECA8F08A0E0001866F010E876FD9
:10327000050E886F030E896F76ECA8F08A0E0001A8
:10328000866F010E876F040E886F000E896F76ECD3
:10329000A8F0000120EE03F09351D9269451DA22D0
:1032A000C70EDE6E0F0EDD6E20EE06F09351D926AE
:1032B0009451DA22C60EDE6E0F0EDD6E20EE09F09E
:1032C0009351D9269451DA22C90E47D0760E866FD3
:1032D000010E876F070E886F030E896F76ECA8F0DA
:1032E000760E0001866F010E876F060E886F030E43
:1032F000896F76ECA8F0760E0001866F010E876F5D
:10330000040E886F030E896F76ECA8F0760E00012C
:10331000866F010E876F050E886F000E896F76EC41
:10332000A8F0000120EE03F09351D9269451DA223F
:103330006D0EDE6E0F0EDD6E20EE06F09351D92677
:103340009451DA226C0EDE6E0F0EDD6E20EE09F067
:103350009351D9269451DA226F0EDE6E0F0EDD6E78
:1033600008D09151000AD8B469D7010AD8A4120034
:10337000ADD720EE06F09351D9269451DA22DECF54
:1033800060F0DDCF61F0050E626F000E636FADEC93
:10339000BFF08CD0000120EE06F09351D926945155
:1033A000DA22DECF60F0DDCF61F0040E626F000E36
:1033B000636FADECBFF0000120EE03F09351D9260E
:1033C0009451DA22DECF60F0DDCF61F0060E626F3D
:1033D000000E636FADECBFF078D0000120EE06F078
:1033E0009351D9269451DA22DECF60F0DDCF61F01F
:1033F000040E626F000E636FADECBFF0000120EEB3
:1034000003F09351D9269451DA22DECF60F0DDCF5C
:1034100061F0060E626F010E636FADECBFF055D028
:10342000000120EE06F09351D9269451DA22DECF26
:1034300060F0DDCF61F0040E626F010E636FADECE2
:10344000BFF0000120EE03F09351D9269451DA2207
:10345000DECF60F0DDCF61F0060E626F000E636FAD
:10346000ADECBFF032D0000120EE06F09351D9262A
:103470009451DA22DECF60F0DDCF61F0040E626F8E
:10348000010E636FADECBFF0000120EE03F093512D
:10349000D9269451DA22DECF60F0DDCF61F0060E3E
:1034A000626F010E636FADECBFF00FD0000192515F
:1034B000000AD8B46FD7010AD8B48FD7030AD8B49A
:1034C000AFD7010AD8A41200CED7000120EE06F033
:1034D0009351D9269451DA22DECF60F0DDCF61F02E
:1034E000070E626F000E636FADECBFF0000120EEBF
:1034F00006F09351D9269451DA22DECF60F0DDCF69
:1035000061F0060E626F000E636FADECBFF08DC010
:103510006DF08EC06EF08FC06FF090C070F0CEEC8A
:10352000AEF093C060F094C061F01FECC4F004D022
:103530009F860BD0A58E09D000019151000AD8B406
:10354000F7D7010AD8A41200F5D793C060F094C051
:1035500061F092ECC3F093C0D9FF94C0DAFF000E83
:10356000DF6E000120EE06F09351D9269451DA2245
:10357000DECF6BF0DDCF6CF0000E6D6F030E6E6F63
:10358000C3ECC4F0000120EE06F09351D92694510B
:10359000DA22DECF60F0DDCF61F0050E626F010E42
:1035A000636FADECBFF0120000017151800B7A6FB8
:1035B00071517125806F70BF80818051D8B40DD05A
:1035C0008029D8A408D0000E6E6F000E6F6F000E19
:1035D000706F000E716F708F08D0000E6E6F000E4E
:1035E0006F6F000E706F000E716F7551800B7A1B3C
:1035F000755175257B6F74BF7B817B51D8B40DD01D
:103600007B29D8A408D0000E726F000E736F000ED5
:10361000746F000E756F748F08D0000E726F000EFD
:10362000736F000E746F000E756F7B51D8B403D0AA
:103630008051D8A409D0000E6E6F000E6F6F000E7F
:10364000706F000E716F120074516E03F3CF85F02E
:10365000F4CF86F085517C6F7D6B7E6B7F6B8651DE
:10366000816F826B836B846B73516F03F3CF85F033
:10367000F4CF86F085517C27000E7D237E237F23A7
:1036800086518127000E8223832384237251700385
:10369000F3CF85F0F4CF86F085517C27000E7D2393
:1036A0007E237F2386518127000E82238323842358
:1036B0007EC07FF07DC07EF07CC07DF07C6B72515F
:1036C0006F03F3CF85F0F4CF86F085517C278651C8
:1036D0007D23000E7E23000E7F2373516E03F3CFF4
:1036E00085F0F4CF86F085517C2786517D23000E2E
:1036F0007E23000E7F237EC07FF07DC07EF07CC0E5
:103700007DF07C6B72516E03F3CF85F0F4CF86F0C1
:1037100085517C2786517D23000E7E23000E7F235A
:1037200074516F03F3CF85F0F4CF86F08551812774
:1037300086518223000E8323000E8423735170036D
:10374000F3CF85F0F4CF86F085518127865182230F
:10375000000E8323000E842374517003F3CF85F091
:10376000F4CF86F08551766F8651776F786B796BE1
:1037700078C079F077C078F076C077F0766B7651C4
:1037800081277751822378518323795184237CC008
:1037900076F07DC077F07EC078F07FC079F0190EAA
:1037A00005D0D8907933783377337633E82EF9D74C
:1037B000765181277751822378518323795184234D
:1037C0007EC07FF07DC07EF07CC07DF07C6B7B5145
:1037D00080C076F0776B7627000E7723820E7625F1
:1037E000856FFF0E7721866F0FD0D8908137823793
:1037F000833784377FBF8181D8907C377D377E3790
:103800007F378507D8A0860783AFEFD7000E7B6F81
:103810007FAF16D0FF0E7C15766FFF0E7D15776F8C
:10382000FF0E7E15786F7F0E7F15796F76517711B9
:1038300078117911D8A402D081A102D0010E7B6F3A
:103840007B51D8B41FD0010E8127000E8223832321
:10385000842384A117D081C076F082C077F083C022
:1038600078F084C079F079357933783377337633EB
:1038700076C081F077C082F078C083F079C084F0A0
:10388000854B862B86BF0DD0865103E18529D8A0B4
:1038900008D0000E816F000E826F800E836F7F0E46
:1038A00020D086BF05D086510EE18505D8B00BD05B
:1038B000000E816F000E826F000E836F000E846F0A
:1038C000000E7A6F0FD085C080F0FF0E8117FF0EBB
:1038D00082177F0E8317000E841780B1838FD890D4
:1038E0008031846F7A51841381C06EF082C06FF092
:1038F00083C070F084C071F0120000018E51800B03
:103900009B6F8E518E259D6F8DBF9D819D51D8B42B
:103910000DD09D29D8A408D0000E8B6F000E8C6F9F
:10392000000E8D6F000E8E6F8D8F06D0000E8B6F88
:10393000000E8C6F000E8D6F000E8E6F9251800BFB
:103940009C6F9B519C19D8A49B8D925192259C6F82
:1039500091BF9C819C51D8B40DD09C29D8A408D08B
:10396000000E8F6F000E906F000E916F000E926F21
:10397000918F06D0000E8F6F000E906F000E916F2A
:10398000000E926F9D519C5DD8B022D09BAD02D0AD
:10399000800E9B1B9DC09EF09CC09DF09EC09CF025
:1039A0008BC09EF08FC08BF09EC08FF08CC09EF0BD
:1039B00090C08CF09EC090F08DC09EF091C08DF0B4
:1039C0009EC091F08EC09EF092C08EF09EC092F08C
:1039D000000E9E6F9D51936F946B931F941F934B9A
:1039E000942B9C51956F966B9351952794519623E8
:1039F00096BF2CD0965104E11A0E955DD8A026D022
:103A00008B518C118D118E11D8B402D0010E01D0C2
:103A1000000E9E6F000E8B6F000E8C6F000E8D6F70
:103A2000000E8E6F9CC09DF015D09EA105D0D89041
:103A30009E3101099E6F02D0D8909E338BB19E8F2C
:103A40008E358E338D338C338B339D2B9C519D5D06
:103A5000D8A0EBD79BBD29D09D51D8A409D0000E8A
:103A60008B6F000E8C6F000E8D6F000E8E6F12002C
:103A70008F518B2790518C2391518D2392518E23FE
:103A80008EA183D09EA106D0D8909E339E5101096D
:103A90009E6F02D0D8909E338BB19E8F8E358E3321
:103AA0008D338C338B339D2B70D08F518B5D905128
:103AB0008C5991518D598E51800A936F9251800A81
:103AC0009359D8B036D08BC093F08CC094F08DC091
:103AD00095F08EC096F0931F941F951F961F932B01
:103AE000000E9423952396238F519325976F905121
:103AF0009421986F91519521996F925196219A6FC7
:103B0000FF0E97258B6FFF0E98218C6FFF0E99216A
:103B10008D6FFF0E9A218E6F800E9B1B9E6D9E51A6
:103B2000D8A40FD0010E8B27000E8C238D238E235B
:103B300008D08F518B5F90518C5B91518D5B92516E
:103B40008E5B8B518C118D118E11D8A41CD09E517F
:103B5000D8A419D0000E8B6F000E8C6F000E8D6FE5
:103B6000000E8E6F1200D8908B378C378D378E37C2
:103B70009EBF8B819EA102D0D88001D0D8909E3765
:103B80009D51D8A49D078DAFEED7000E9C6F9EAFC0
:103B90000AD09EC093F07F0E9317D8A402D08BA1B9
:103BA00002D0010E9C6F9C51D8B420D0010E8B27FF
:103BB000000E8C238D238E238EA118D08BC093F002
:103BC0008CC094F08DC095F08EC096F096359633EB
:103BD00095339433933393C08BF094C08CF095C09D
:103BE0008DF096C08EF09D29D8A49D2B9D29D8B428
:103BF00003D09D51D8A40DD0000E8B6F000E8C6F9A
:103C0000000E8D6F000E8E6F9D51D8A402D0000E55
:103C10009B6F9DA102D08D8F01D08D9FD8909D313B
:103C20008E6F9BBF8E8F8BC08BF08CC08CF08DC045
:103C30008DF08EC08EF01200D8903034D96E3134B1
:103C4000DA6E460ED926030EDA22DECFD7F0DDCFAC
:103C5000D8F00001D71FD81FD74BD82B01014051F6
:103C60000001D7250101406F41510001D821010118
:103C7000416F000E0001616F000E606F80ECC2F0BA
:103C8000D8903034D96E3134DA6E460ED926030E10
:103C9000DA22000160C0DEFF61C0DDFFD890303461
:103CA000D96E3134DA6E460ED926030EDA22DECF13
:103CB000D7F0DDCFD8F0010140510001D725010137
:103CC000406F41510001D8210101416F304A312A32
:103CD000DE51305C3150800A0001D76F0101DF51A5
:103CE000800A0001D759D8A004D0000E316E000E12
:103CF000306E40C160F041C161F0DEC162F0DFC1F1
:103D000063F01CECBAF060C02EF061C02FF02EC042
:103D100060F02FC061F00001000E61BFFF0E626F06
:103D2000636F010ED8ECACF060C0D9F061C0DAF07E
:103D300062C0DBF063C0DCF0000E0001C66F000E55
:103D4000C76F000EC86F400EC96FD9C0C2F0DAC08D
:103D5000C3F0DBC0C4F0DCC0C5F0C9ECA5F0C2C044
:103D6000DDF0C3C0DEF0C4C0DFF0C5C0E0F02EC09F
:103D700060F02FC061F00001000E61BFFF0E626FA6
:103D8000636F010ED8ECACF060C0E1F061C0E2F00E
:103D900062C0E3F063C0E4F0000E0001C66F000EE5
:103DA000C76F400EC86F400EC96FE1C0C2F0E2C0DD
:103DB000C3F0E3C0C4F0E4C0C5F0C9ECA5F0C2C0D4
:103DC000E5F0C3C0E6F0C4C0E7F0C5C0E8F0A60E59
:103DD0000001726F9B0E736FC40E746F3A0E756F95
:103DE000DDC06EF0DEC06FF0DFC070F0E0C071F0DB
:103DF000D4EC9AF06EC08FF06FC090F070C091F06C
:103E000071C092F0870E0001726F970E736F710E82
:103E1000746FB50E756FE5C06EF0E6C06FF0E7C069
:103E200070F0E8C071F0D4EC9AF06EC08BF06FC007
:103E30008CF070C08DF071C08EF07DEC9CF08BC06A
:103E4000E9F08CC0EAF08DC0EBF08EC0ECF08C0E87
:103E50000001726FB90E736F6B0E746F3F0E756F4A
:103E60002EC060F02FC061F0000E61BFFF0E626FC8
:103E7000636F010ED8ECACF060C06EF061C06FF003
:103E800062C070F063C071F0D4EC9AF06EC087F03D
:103E90006FC088F070C089F071C08AF0C2ECC3F0C6
:103EA00087C08FF088C090F089C091F08AC092F0EE
:103EB000E9C08BF0EAC08CF0EBC08DF0ECC08EF066
:103EC0007DEC9CF08BC0EDF08CC0EEF08DC0EFF07F
:103ED0008EC0F0F07B0E00018F6F540E906F630E5A
:103EE000916F430E926FEDC08BF0EEC08CF0EFC07F
:103EF0008DF0F0C08EF07DEC9CF08BC09FF08CC0FC
:103F0000A0F08DC0A1F08EC0A2F0C8ECB4F09FC0AC
:103F10002EF0A0C02FF02EC076F02FC077F06EEC00
:103F2000C4F011ECC3F0120000016351800B6C6F00
:103F300063516325776F62BF77817751D8B40DD015
:103F40007729D8A408D0000E606F000E616F000EB4
:103F5000626F000E636F628F06D0000E606F000EFE
:103F6000616F000E626F000E636F6751800B6C1BF8
:103F700067516725786F66BF78817851D8B40DD0C6
:103F80007829D8A408D0000E646F000E656F000E6B
:103F9000666F000E676F668F06D0000E646F000EAE
:103FA000656F000E666F000E676F645165116611D4
:103FB0006711D8A415D0000E606F000E616F000E5F
:103FC000626F000E636F800E62137F0E631360C01A
:103FD00060F061C061F062C062F063C063F0120023
:103FE0007751D8A411D0000E606F000E616F000EE3
:103FF000626F000E636F60C060F061C061F062C00C
:1040000062F063C063F012007851686F696B681FDB
:10401000691F684B692B77516A6F6B6B68516A2710
:1040200069516B237F0E6A25716F000E6B21726FD1
:1040300060C06DF061C06EF062C06FF063C070F080
:10404000000E606F000E616F000E626F000E636FF6
:10405000000E736F000E746F000E756F000E766F9A
:10406000000E786F28D07851D8B411D0D8906D3721
:104070006E376F377037D890603761376237633784
:1040800076BF6081D890733774377537763764514F
:104090006D5D65516E5966516F5967517059D8A061
:1040A00009D0768D64516D5F65516E5B66516F5BB3
:1040B0006751705B782B190E7865D5D76D516E11ED
:1040C0006F117011D8B411D073810FD0D8906037B0
:1040D00061376237633776BF6081D8907337743742
:1040E000753776377107D8A0720762AFEFD7000E29
:1040F000786F76AF16D0FF0E7315686FFF0E7415CC
:10410000696FFF0E75156A6F7F0E76156B6F6851BC
:1041100069116A116B11D8A402D060A102D0010EFE
:10412000786F7851D8B41FD0010E6027000E61233C
:104130006223632363A117D060C068F061C069F097
:1041400062C06AF063C06BF06B356B336A336933FE
:10415000683368C060F069C061F06AC062F06BC02B
:1041600063F0714B722B72BF10D0725103E1712951
:10417000D8A00BD0000E726F7169000E606F000E38
:10418000616F000E626F000E636F72BF05D07251D7
:1041900011E17105D8B00ED0000E726F000E716F74
:1041A000000E606F000E616F000E626F000E636F95
:1041B000000E6C6F71C077F077A102D0628F01D0D2
:1041C000629FD8907731636F6C51631360C060F069
:1041D00061C061F062C062F063C063F01200080E5B
:1041E00000016F256C6F000E70216D6F000E6E6FF9
:1041F00061ECC3F00001866F8651726F736B0E0E17
:10420000D89072377337E82EFBD78651746F756B71
:104210000C0ED89074377537E82EFBD78651766F21
:10422000776B0A0ED89076377737E82EFBD7865112
:10423000796F786B86517A6F7B6B060ED8907A37E0
:104240007B37E82EFBD786517C6F7D6B7C3B7D3BBB
:10425000F00E7D177C510F0B7D13F00E7C178651ED
:104260007E6F7F6BD8907E377F37D8907E377F37D1
:104270008651806F816B7E5180137F5181137C51F9
:1042800080137D5181137A5180137B5181137851B2
:1042900080137951811376518013775181137451B2
:1042A00080137551811372518011826F7351811186
:1042B000836F86C084F0856B080E6F256C6F000ECF
:1042C00070216D6F010E6E6F61ECC3F00001726FB3
:1042D000736BD89072377337D890723773377251C7
:1042E000841373518513080E6F256C6F000E7021B7
:1042F0006D6F020E6E6F61ECC3F00001726F736B35
:10430000723B733BF00E731772510F0B7313F00E69
:1043100072177251841373518513080E6F256C6FD9
:10432000000E70216D6F030E6E6F61ECC3F0000123
:10433000726F736B060ED89072377337E82EFBD707
:104340007251841373518513080E6F256C6F000E24
:1043500070216D6F040E6E6F61ECC3F00001726F1F
:104360007251746F736B7351841374518513080EFB
:104370006F256C6F000E70216D6F050E6E6F61EC16
:10438000C3F00001726F736B0A0ED89072377337E7
:10439000E82EFBD77251841373518513080E6F25D5
:1043A0006C6F000E70216D6F060E6E6F61ECC3F0C6
:1043B0000001726F736B0C0ED89072377337E82E52
:1043C000FBD77251841373518513080E6F256C6FE0
:1043D000000E70216D6F070E6E6F61ECC3F000016F
:1043E000726F736B0E0ED89072377337E82EFBD74F
:1043F00072518413735185138451821944E185519C
:104400008319D8A4120030D020EE02F06F51D926C3
:104410007051DA22DECF60F0DDCF61F071C062F062
:1044200012ECC6F012000001711F20EE02F06F5175
:10443000D9267051DA22DECF60F0DDCF61F071C095
:1044400062F012ECC6F01200000120EE04F06F5191
:10445000D9267051DA22DECF60F0DDCF61F071C075
:1044600062F012ECC6F0120000018651000AD8B4C6
:104470001200010AD8B4C8D7030AD8B4D4D7010AA5
:10448000D8A41200E1D712000001606F7ED03F0E69
:104490001200060E12005B0E12004F0E1200660E86
:1044A00012006D0E12007D0E1200070E12007F0E1C
:1044B00012006F0E12005F0E12007C0E1200580EDA
:1044C00012005E0E12007B0E1200710E12006F0EB3
:1044D0001200740E1200040E12000E0E12007A0E5C
:1044E0001200060E1200140E1200540E12005C0E82
:1044F0001200730E1200670E1200500E12006D0EA5
:104500001200780E12001C0E1200620E12002A0E0B
:104510001200640E12006E0E12005B0E1200770E77
:1045200012007F0E1200390E12003F0E1200790E9B
:104530001200710E12003D0E1200760E1200060ED1
:1045400012001E0E1200570E1200380E1200760EC8
:104550001200760E12003F0E1200730E12003F0E74
:104560001200770E12006D0E1200310E12003E0E78
:1045700012003E0E12007E0E1200760E1200660E23
:1045800012005B0E1200800E1200000160512E0A14
:10459000D8B4F9D71E0AD8B47AD7010AD8B479D7D3
:1045A000030AD8B478D7010AD8B477D7070AD8B4A1
:1045B00076D7010AD8B475D7030AD8B474D7010ADC
:1045C000D8B473D70F0AD8B472D7010AD8B471D748
:1045D000780AD8B4A4D7030AD8B4A3D7010AD8B4A8
:1045E000A2D7070AD8B4A1D7010AD8B4A0D7030A22
:1045F000D8B49FD7010AD8B49ED70F0AD8B49DD794
:10460000010AD8B49CD7030AD8B49BD7010AD8B4FE
:104610009AD7070AD8B499D7010AD8B498D7030A09
:10462000D8B497D7010AD8B496D71F0AD8B495D76B
:10463000010AD8B494D7030AD8B493D7010AD8B4DE
:1046400092D7070AD8B491D7010AD8B490D7030AF1
:10465000D8B48FD7010AD8B48ED70F0AD8B48DD763
:10466000010AD8B48CD7030AD8B48BD73B0AD8B484
:1046700022D7030AD8B421D7010AD8B420D7070A11
:10468000D8B41FD7010AD8B41ED7030AD8B41DD78F
:10469000010AD8B41CD70F0AD8B41BD7010AD8B462
:1046A0001AD7030AD8B419D7010AD8B418D7070AF9
:1046B000D8B417D7010AD8B416D7030AD8B415D777
:1046C000010AD8B414D71F0AD8B413D7010AD8B432
:1046D00012D7030AD8B411D7010AD8B410D7070AE1
:1046E000D8B40FD7010AD8B40ED7030AD8B40DD75F
:1046F000010AD8B40CD70F0AD8B40BD7010AD8B422
:104700000AD7030AD8B409D7000E12000001B75126
:10471000B811B911BA11D8A409D0000EB76F000EA4
:10472000B86F800EB96F3F0EBA6F1200180E606F2F
:10473000720E616F310E626F440E636FB7C064F02A
:10474000B8C065F0B9C066F0BAC067F046ECB1F029
:104750000001D8B00FD0000E01011B6F220E1A6F9E
:10476000FF0E0001B76FFF0EB86F7F0EB96F7F0E9F
:10477000BA6F1200B7C060F0B8C061F0B9C062F0A3
:10478000BAC063F0870E646F480E656F3A0E666FAD
:10479000C40E676F46ECB1F00001D8B00FD0000E28
:1047A00001011B6F220E1A6F000E0001B76F000E81
:1047B000B86F000EB96F000EBA6F1200BAAF02D018
:1047C000010E01D0000EC16FC151D8B412D0B7C0D4
:1047D00087F0B8C088F0B9C089F0BAC08AF0C2ECDE
:1047E000C3F087C0B7F088C0B8F089C0B9F08AC0FC
:1047F000BAF0B7C06EF0B8C06FF0B9C070F0BAC010
:1048000071F03B0E0001726FAA0E736FB80E746FD9
:104810003F0E756FD4EC9AF06EC0B7F06FC0B8F071
:1048200070C0B9F071C0BAF0B7C0A9F0B8C0AAF0B2
:10483000B9C0ABF0BAC0ACF0D7ECB1F0A9C0BBF0D6
:10484000AAC0BCF0ABC0BDF0ACC0BEF0BBC09FF016
:10485000BCC0A0F0BDC0A1F0BEC0A2F0C8ECB4F0D6
:104860009FC0BFF0A0C0C0F0B7C09FF0B8C0A0F01C
:10487000B9C0A1F0BAC0A2F0BFC060F0C0C061F082
:104880000001000E61BFFF0E626F636F010ED8EC76
:10489000ACF060C0A3F061C0A4F062C0A5F063C03A
:1048A000A6F076ECC1F09FC0B7F0A0C0B8F0A1C0F0
:1048B000B9F0A2C0BAF0B7C09FF0B8C0A0F0B9C0BC
:1048C000A1F0BAC0A2F00F0E0001A36FFE0EA46FFC
:1048D000000EA66F090EA56FE8ECB2F09FC0AFF016
:1048E000A0C0B0F0A1C0B1F0A2C0B2F0BFC0B3F0A0
:1048F000C0C0B4F0E7ECB3F0AFC0B7F0B0C0B8F0F0
:10490000B1C0B9F0B2C0BAF00001C151D8B42FD0D3
:10491000B72912E1B82910E17F0EB9190DE17F0E18
:10492000BA19D8A409D0000EB76F000EB86F000EE8
:10493000B96F000EBA6F1200000E606F000E616F4B
:10494000800E626F3F0E636FB7C064F0B8C065F051
:10495000B9C066F0BAC067F094EC9FF060C0B7F0E1
:1049600061C0B8F062C0B9F063C0BAF01200B7C05D
:10497000B7F0B8C0B8F0B9C0B9F0BAC0BAF0120018
:10498000050E00019A6FB8D020EE02F09651D9269C
:104990009751DA22DECF6BF0DDCF6CF098C06DF06E
:1049A0000F0E6E6FC3ECC4F0000120EE04F09651C0
:1049B000D9269751DA22DECF6BF0DDCF6CF098C0AC
:1049C0006DF0000E6E6FC3ECC4F0A4D096C08FF0F3
:1049D00097C090F098C091F0030E0001926FFEEC2A
:1049E000BFF000019A6F9A51D8A4120020EE02F095
:1049F0009651D9269751DA22DECF6BF0DDCF6CF0DD
:104A000098C06DF0000E6E6FC3ECC4F0000120EE94
:104A100004F09651D9269751DA22DECF6BF0DDCF24
:104A20006CF098C06DF0000E6E6FC3ECC4F072D0E5
:104A300096C08FF097C090F098C091F0030E0001DF
:104A4000926FFEECBFF000019A6F9A51D8A4120049
:104A500020EE02F09651D9269751DA22DECF6BF084
:104A6000DDCF6CF098C06DF00F0E6E6FC3ECC4F02C
:104A7000000120EE04F09651D9269751DA22DECFBC
:104A80006BF0DDCF6CF098C06DF00F0E6E6FC3EC65
:104A9000C4F040D096C08FF097C090F098C091F0CD
:104AA000030E0001926FFEECBFF000019A6F9A5165
:104AB000D8A4120020EE02F09651D9269751DA229E
:104AC000DECF6BF0DDCF6CF098C06DF0000E6E6F36
:104AD000C3ECC4F0000120EE04F09651D9269751A2
:104AE000DA22DECF6BF0DDCF6CF098C06DF0000EF7
:104AF0006E6FC3ECC4F00ED000019951000AD8B417
:104B000043D7010AD8B462D7030AD8B491D7010AAF
:104B1000D8B4C0D7080E000196256F6F000E9721FC
:104B2000706F9851040DF3CF71F099C072F0D8EC0A
:104B3000C2F0080E000196256F6F000E9721706F6E
:104B40009851040DF328716F99C072F0D8ECC2F03F
:104B5000080E000196256F6F000E9721706F985117
:104B6000040DF350020F716F99C072F0D8ECC2F0CF
:104B7000080E000196256F6F000E9721706F9851F7
:104B8000040DF350030F716F99C072F0D8ECC2F0AE
:104B90001200000E0001D26FC251C311C411C51121
:104BA000D8A424D0000E606F000E616F000E626FFB
:104BB000000E636FC6C064F0C7C065F0C8C066F081
:104BC000C9C067F046ECB1F00001D8A005D0000ED6
:104BD00001011B6F210E1A6F000E0001C26F000E43
:104BE000C36F000EC46F000EC56F1200C651C7110F
:104BF000C811C911D8A409D0000EC26F000EC36F2E
:104C0000800EC46F3F0EC56F1200C5AF4FD0C6C037
:104C10009FF0C7C0A0F0C8C0A1F0C9C0A2F0C8EC06
:104C2000B4F09FC0D3F0A0C0D4F0A1C0D5F0A2C012
:104C3000D6F0D3C060F0D4C061F0D5C062F0D6C069
:104C400063F0000ED8ECACF00001C65160190AE127
:104C5000C751611907E1C851621904E1C9516319CB
:104C6000D8B40FD0000E01011B6F210E1A6F000E79
:104C70000001C26F000EC36F000EC46F000EC56F3F
:104C80001200D351010BD26FC2C087F0C3C088F0AD
:104C9000C4C089F0C5C08AF0C2ECC3F087C0C2F0BE
:104CA00088C0C3F089C0C4F08AC0C5F0C2C0AFF0EC
:104CB000C3C0B0F0C4C0B1F0C5C0B2F0BDECAAF042
:104CC000AFC0CAF0B0C0CBF0B1C0CCF0B2C0CDF034
:104CD000CAC06EF0CBC06FF0CCC070F0CDC071F028
:104CE000C6C072F0C7C073F0C8C074F0C9C075F018
:104CF000D4EC9AF06EC0CEF06FC0CFF070C0D0F0A0
:104D000071C0D1F0CEC0B7F0CFC0B8F0D0C0B9F00C
:104D1000D1C0BAF086ECA3F0B7C0C2F0B8C0C3F0FF
:104D2000B9C0C4F0BAC0C5F00001D251D8B413D094
:104D3000C2C087F0C3C088F0C4C089F0C5C08AF083
:104D4000C2ECC3F087C0C2F088C0C3F089C0C4F011
:104D50008AC0C5F01200C2C0C2F0C3C0C3F0C4C054
:104D6000C4F0C5C0C5F01200050E00019F6F6ED0E3
:104D700020EE02F09A51D9269B51DA22DECF9DF027
:104D8000DDCF9EF09DC0D9FF9EC0DAFFFF0E5CD044
:104D90009AC096F09BC097F0010E986F01ECC2F09C
:104DA00000019F6F9F51D8A4120020EE02F09A518B
:104DB000D9269B51DA22DECF9DF0DDCF9EF09DC03B
:104DC000D9FF9EC0DAFF000EDF6E20EE04F02FD078
:104DD0009AC096F09BC097F0020E986F01ECC2F05B
:104DE00000019F6F9F51D8A4120020EE02F09A514B
:104DF000D9269B51DA22DECF9DF0DDCF9EF09DC0FB
:104E0000D9FF9EC0DAFFFF0EDF6E20EE04F0B2D7AE
:104E10009AC096F09BC097F0000E986F01ECC2F01C
:104E200000019F6F9F51D8A4120020EE02F09A510A
:104E3000D9269B51DA22DECF9DF0DDCF9EF09DC0BA
:104E4000D9FF9EC0DAFF000EDF6E0DD09C51000A24
:104E5000D8B48ED7010AD8B49BD7030AD8B4B8D730
:104E6000010AD8B4D5D7080E9A256F6F000E9B2182
:104E7000706F000E716F9CC072F0D8ECC2F0080E1B
:104E800000019A256F6F000E9B21706F010E716FEC
:104E90009CC072F0D8ECC2F0080E00019A256F6F2A
:104EA000000E9B21706F020E716F9CC072F0D8ECE7
:104EB000C2F0080E00019A256F6F000E9B21706FE3
:104EC000030E716F9CC072F0D8ECC2F0080E0001A6
:104ED0009A256F6F000E9B21706F040E716F9CC03E
:104EE00072F0D8ECC2F0080E00019A256F6F000E28
:104EF0009B21706F050E716F9CC072F0D8ECC2F0F0
:104F0000080E00019A256F6F000E9B21706F060E30
:104F1000716F9CC072F0D8ECC2F0080E00019A25A7
:104F20006F6F000E9B21706F070E716F9CC072F047
:104F3000D8ECC2F012004D50D8B41200C8C186F0AF
:104F4000C9C187F0CAC188F0CBC189F04750D8B435
:104F500004D045C085F00F0E456E000E00018B6F2A
:104F6000B9D08B51020D280EF324D96E030EF42014
:104F7000DA6EDECFE4F1DDCFE5F1000E8A6F130EBD
:104F80008A6501D09ED08B51140DE20E836F030E03
:104F9000846FF3508327F45084238A51010DF3501A
:104FA0008325D96EF4508421DA6EDFAE83D08B5125
:104FB000140DE20E836F030E846FF3508327F450B9
:104FC00084238A51010DF3508325D96EF450842136
:104FD000DA6E7F0EDF168B51140DE20E836F030E17
:104FE000846FF3508327F45084238A51010DF350CA
:104FF0008325D96EF4508421DA6EDF50D8B443D0C3
:1050000054C169F055C16AF086C06BF087C06CF07E
:1050100088C06DF089C06EF0D0C16FF0D1C170F062
:10502000D2C171F0D3C172F02FECBFF000018B51EF
:10503000140DE20E836F030E846FF3508327F45038
:1050400084238A51010DF3508325D96EF4508421B5
:10505000DA6EDF50F2ECB6F065C072F066C073F045
:1050600086C074F087C075F088C076F089C077F08C
:10507000D0C178F0D1C179F0D2C17AF0D3C17BF040
:10508000A1ECBAF017D0000E00016A6F000E696F34
:1050900086C06BF087C06CF088C06DF089C06EF080
:1050A000D0C16FF0D1C170F0D2C171F0D3C172F034
:1050B0002FECBFF0060E00018627000E87238A2BF7
:1050C0005ED7080E8827000E8923000E876F060E14
:1050D000866F8B2B8B51455CD8B043D74750D8B4E3
:1050E0001200000E476E85C045F0120086C0D9FF41
:1050F00087C0DAFFDECF8BF0DDCF8CF0050E00012C
:105100008A6FA7D020EE02F08651D9268751DA2285
:10511000DECF60F0DDCF61F088C062F0010E636F1A
:10512000ADECBFF0A4D08BC06FF08CC070F0010E5E
:105130000001716F88C072F088ECBDF000018A6FC9
:105140008A51D8A4120020EE02F08651D926875148
:10515000DA22DECF60F0DDCF61F088C062F0000EB1
:10516000636FADECBFF0000120EE04F08651D9264C
:105170008751DA22DECF60F0DDCF61F088C062F0C7
:10518000000E636FADECBFF072D08BC06FF08CC0BF
:1051900070F0020E0001716F88C072F088ECBDF0F3
:1051A00000018A6F8A51D8A4120020EE02F08651C5
:1051B000D9268751DA22DECF60F0DDCF61F088C0DA
:1051C00062F0010E636FADECBFF0000120EE04F061
:1051D0008651D9268751DA22DECF60F0DDCF61F02B
:1051E00088C062F0010E636FADECBFF040D08BC0A1
:1051F0006FF08CC070F0000E0001716F88C072F00B
:1052000088ECBDF000018A6F8A51D8A4120020EE0C
:1052100002F08651D9268751DA22DECF60F0DDCF49
:1052200061F088C062F0000E636FADECBFF000016A
:1052300020EE04F08651D9268751DA22DECF60F0C5
:10524000DDCF61F088C062F0000E636FADECBFF09F
:105250000ED000018951000AD8B454D7010AD8B43D
:1052600062D7030AD8B491D7010AD8B4C0D7080EC0
:10527000000186256F6F000E8721706F88C071F066
:1052800089C072F0D8ECC2F01200D00E00019B6F02
:10529000030E9C6F000E9E6F020E9D6FBC0E9F6FE3
:1052A0008C0EA06F010EA16F220EA26F8B0EA36F4A
:1052B000010EA46F040EA56F140EA66F000EA76F4B
:1052C000F0ECB5F0B20E00019B6F030E9C6F000E68
:1052D0009E6F020E9D6FBC0E9F6F8C0EA06F010E15
:1052E000A16F720EA26F8B0EA36F010EA46F040E3E
:1052F000A56F140EA66F000EA76FF0ECB5F0A80E08
:1053000000019B6F030E9C6F000E9E6F020E9D6F3F
:10531000BC0E9F6F8C0EA06F010EA16F5E0EA26F70
:105320008B0EA36F010EA46F040EA56F140EA66F53
:10533000000EA76FF0ECB5F0BC0E00019B6F030EE2
:105340009C6F000E9E6F020E9D6FBC0E9F6F8C0EA9
:10535000A06F010EA16F4A0EA26F8B0EA36F010EFC
:10536000A46F040EA56F140EA66F000EA76FF0ECCD
:10537000B5F0C60E00019B6F030E9C6F000E9E6F72
:10538000020E9D6FBC0E9F6F8C0EA06F010EA16F61
:10539000360EA26F8B0EA36F010EA46F040EA56FC5
:1053A000140EA66F000EA76FF0ECB5F0A00E000172
:1053B0008D6F860E8E6F010E8F6F000E906F000E38
:1053C000916F020E926F02EC99F0C80E00016F6FA0
:1053D000020E706F54ECBDF0000E0001A96F000EBC
:1053E000A86FA9510FE1080EA85DD8B01200A00E59
:1053F000A825D96E030EA921DA6E000EDF6EA84B28
:10540000A92BEFD712000001A25194ECB9F0A0C073
:10541000D9FFA1C0DAFF000160C0DEFF61C0DDFF7F
:10542000A251D8ECB9F0000120EE06F0A051D92627
:10543000A151DA2260C0DEFF61C0DDFFA251D8ECCD
:10544000B9F0000120EE04F0A051D926A151DA22D2
:1054500060C0DEFF61C0DDFFA25150ECB9F0000179
:1054600020EE02F0A051D926A151DA2260C0DEFF61
:1054700061C0DDFF20EE04F0A051D926A151DA224F
:10548000DECFA3F0DDCFA4F0A3C0D9FFA4C0DAFF24
:10549000000EDF6E20EE02F0A051D926A151DA22D3
:1054A000DECFA3F0DDCFA4F0A3C0D9FFA4C0DAFF04
:1054B000FF0EDF6EA0C09AF0A1C09BF0000E9C6FA3
:1054C000B4ECA6F0000E0001A56F070EA56531D063
:1054D0004BD0A0C086F0A1C087F0A5C088F0030E15
:1054E0000001896F76ECA8F03CD0A0C086F0A1C086
:1054F00087F0A5C088F0020E0001896F76ECA8F055
:1055000030D0A0C086F0A1C087F0A5C088F0010E01
:105510000001896F76ECA8F024D0A0C086F0A1C06D
:1055200087F0A5C088F0000E0001896F76ECA8F026
:1055300018D0A0C0D9FFA1C0DAFFDECF6CF0DDCF5C
:105540006DF0A5C06EF061ECC3F0000AD8B4C1D70D
:10555000010AD8B4D6D7030AD8B4C7D7010AD8B439
:10556000DCD70001A52BB1D7A0C06FF0A1C070F0AF
