:0614000055EF0AF0120096
:101408005182FACF17F0FBCF18F0E9CF19F0EACFE5
:101418001AF0E1CF1BF0E2CF1CF0D9CF1DF0DACFE4
:101428001EF0F3CF1FF0F4CF20F0F6CF21F0F7CF66
:1014380022F0F8CF23F0F5CF24F051C025F052C0A8
:1014480026F053C027F054C028F0F292F2B4F2AA62
:1014580002D0B2ECC5F028C054F027C053F026C023
:1014680052F025C051F024C0F5FF23C0F8FF22C078
:10147800F7FF21C0F6FF20C0F4FF1FC0F3FF1EC016
:10148800DAFF1DC0D9FF1CC0E2FF1BC0E1FF1AC074
:10149800EAFF19C0E9FF18C0FBFF17C0FAFF519215
:0614A8001100FAEFB9F09B
:10FB3A0000001180002C0100B102003500360000DF
:10FB4A00B202003500360000B3020035003600026A
:10FB5A00003500360000B4000000C0A20002008494
:10FB6A000000C1C50000C20D00000000C38D002ABC
:10FB7A000000C48D00EE0000C50A000036C800006F
:10FB8A00E012001C001000180033002C0025002889
:10FB9A0000280027002F003C00000003000300108B
:10FBAA00008000780000E112001C00100018002DEF
:10FBBA0000280023002800280026002F003B000010
:10FBCA0000030003001000003A0500002A000002AA
:10FBDA000000008100002B000003000000A20000CA
:10FBEA0029002C02000400080010002000400080B8
:10FBFA0000000100010200010001000202000003EE
:10FC0A0003030001000A006400E80310270001034F
:10FC1A00070F1F3F7FFF00020103010410000000CD
:10FC2A00000000005F00000007000700147F147F37
:10FC3A0014242A7F2A122313086462364955225053
:10FC4A000005030000001C2241000041221C00089C
:10FC5A002A1C2A0808083E08080050300000080834
:10FC6A00080808006060000020100804023E51499C
:10FC7A00453E00427F400042615149462141454B81
:10FC8A00311814127F1027454545393C4A494930F5
:10FC9A0001710905033649494936064949291E00B1
:10FCAA0036360000005636000000081422411414AB
:10FCBA001414144122140800020151090632497928
:10FCCA00413E7E1111117E7F494949363E414141EB
:10FCDA00227F4141221C7F494949417F090901018B
:10FCEA003E414151327F0808087F00417F41002090
:10FCFA0040413F017F081422417F404040407F023B
:10FD0A0004027F7F0408107F3E4141413E7F09097A
:10FD1A0009063E4151215E7F09192946464949494A
:10FD2A003101017F01013F4040403F1F2040201F19
:10FD3A007F2018207F631408146303047804036186
:10FD4A005149454300007F414102040810204141C6
:10FD5A007F000004020102044040404040000102CA
:10FD6A00040020545454787F484444383844444466
:10FD7A0020384444487F3854545418087E090102F4
:10FD8A00081454543C7F0804047800447D40002041
:10FD9A0040443D00007F10284400417F40007C041D
:10FDAA001804787C0804047838444444387C1414D1
:10FDBA001408081414187C7C080404084854545481
:10FDCA0020043F4440203C4040207C1C2040201C12
:10FDDA003C4030403C44281028440C5050503C448D
:10FDEA0064544C44000836410000007F0000004182
:10FDFA0036080008082A1C08081C2A08080000807F
:10FE0A003F1872313FF0FD753E4758633D58951DC6
:10FE1A003C82C4AE3AA8782139EF938037A092A7E2
:10FE2A00354656153400000000C4FF7F3F80EFFFBF
:10FE3A00BE90E1A93EEC8276BE82AD2B3E0E3CC35B
:10FE4A00BD87D1133D4178D3BB00FCFF0F0000FFF3
:10FE5A00FFF0FF00FFFF00436F756C64206E6F7444
:10FE6A0020726574726965766520646174612C20FC
:10FE7A00537461636B20697320656D7074792E0AFF
:10FE8A0000436F756C64206E6F7420696E736572BF
:10FE9A007420646174612C20537461636B206973EC
:10FEAA002066756C6C2E0A000A54686520436C6FD4
:10FEBA00736573206F626A65637420286D6D293AD1
:10FECA00202564000A537465707320547261766544
:10FEDA006C6C65643A202564200A0A000A0A436F9A
:10FEEA002D6F7264696E6174652025642020256413
:10FEFA000A000A53746570732054726176656C6CDB
:10FF0A0065643A2025640053746570706564203313
:10FF1A00363020646567726565730053656E736F6A
:10FF2A0072204D6F76696E67212020200A000A47E9
:10FF3A006F696E67206261636B20746F3A20256473
:10FF4A00000A20466F756E6420466C61673A202568
:10FF5A0064007265763A2564205461723A202564F9
:10FF6A000A00526F626F7420526561647921200A17
:10FF7A000A000A0A7265763A2564205461723A0ABE
:10FF8A000057414C4C20464F554E440A00583D25D7
:10FF9A00642C20593D25640A006E6F206F707469C5
:10FFAA006F6E730A000A4144433A202564200A0A04
:10FFBA0000476F696E6720486F6D65000A53746564
:10FFCA007073202564000A202020202020200A00A7
:10FFDA000A466C616720256400484F4D452121215E
:10FFEA00400076633A2025640A0026262626260A39
:05FFFA0000256300007A
:020000040001F9
:10000000000E0001696F000E686F000E6D6F000E2C
:100010006C6F000E6F6F000E6E6F000E6B6F000E38
:100020006A6F6BBF06D06B5114E1140E6A5DD8B0D5
:1000300010D0D8906A35D96E6B35DA6E000ED9269D
:10004000030EDA22640EDE6E000EDD6E6A4B6B2B41
:10005000E8D7000E6D6F000E6C6F6DBF06D06D514E
:1000600070E1040E6C5DD8B06CD0000E6F6F000EA6
:100070006E6F6FBF06D06F515DE1050E6E5DD8B03B
:1000800059D06CC060F06DC061F0000E636F320E2D
:10009000626F9EECC5F0000E0001666F020E676F86
:1000A00060516627615167236EC060F06FC061F0D8
:1000B000000E636F0A0E626F9EECC5F00001605186
:1000C0006625D96E61516721DA6E68C0DEFF69C0AE
:1000D000DDFF6CC060F06DC061F0000E636F320E2A
:1000E000626F9EECC5F0000E0001666F020E676F36
:1000F00060516627615167236EC060F06FC061F088
:10010000000E636F0A0E626F9EECC5F00001605135
:10011000662761516723020E6625D96E000E67219E
:10012000DA6E000EDE6E000EDD6E684B692B6E4BD4
:100130006F2B9FD76C4B6D2B6DBF97D76D5101E126
:1001400090D7000E6D6F000E6C6F000E6F6F000E7B
:100150006E6F000E0101416F030E406F000E3F6F86
:10016000010E3E6F6CC060F06DC061F0000E0001CA
:10017000636F320E626F9EECC5F0000E0001666F79
:10018000020E676F60516627615167236EC060F091
:100190006FC061F0000E636F0A0E626F9EECC5F0D7
:1001A00000016051662761516723040E6625D96EF0
:1001B000000E6721DA6E010EDF6E6CC060F06DC05C
:1001C00061F0000E636F320E626F9EECC5F0000EA0
:1001D0000001666F020E676F6051662761516723E9
:1001E0006EC060F06FC061F0000E636F0A0E626F48
:1001F0009EECC5F000016051662761516723050E32
:100200006625D96E000E6721DA6E000EDF6E6CC0B7
:1002100060F06DC061F0000E636F320E626F9EEC95
:10022000C5F0000E0001666F020E676F6051662711
:10023000615167236EC060F06FC061F0000E636FA4
:100240000A0E626F9EECC5F0000160516627615195
:100250006723060E6625D96E000E6721DA6E000E42
:10026000DF6E6CC060F06DC061F0000E636F320E27
:10027000626F9EECC5F0000E0001666F020E676FA4
:1002800060516627615167236EC060F06FC061F0F6
:10029000000E636F0A0E626F9EECC5F000016051A4
:1002A000662761516723070E6625D96E000E672108
:1002B000DA6E010EDF6E6CC060F06DC061F0000E92
:1002C000636F320E626F9EECC5F0000E0001666F28
:1002D000020E676F60516627615167236EC060F040
:1002E0006FC061F0000E636F0A0E626F9EECC5F086
:1002F00000016051662761516723080E6625D96E9B
:10030000000E6721DA6E020EDE6E000EDD6E6E4BA1
:100310006F2B6CC060F06DC061F0000E636F320E29
:10032000626F9EECC5F0000E0001666F020E676FF3
:1003300060516627615167236EC060F06FC061F045
:10034000000E636F0A0E626F9EECC5F000016051F3
:10035000662761516723040E6625D96E000E67215A
:10036000DA6E010EDF6E6CC060F06DC061F0000EE1
:10037000636F320E626F9EECC5F0000E0001666F77
:10038000020E676F60516627615167236EC060F08F
:100390006FC061F0000E636F0A0E626F9EECC5F0D5
:1003A00000016051662761516723050E6625D96EED
:1003B000000E6721DA6E000EDF6E6CC060F06DC05B
:1003C00061F0000E636F320E626F9EECC5F0000E9E
:1003D0000001666F020E676F6051662761516723E7
:1003E0006EC060F06FC061F0000E636F0A0E626F46
:1003F0009EECC5F000016051662761516723060E2F
:100400006625D96E000E6721DA6E010EDF6E6CC0B4
:1004100060F06DC061F0000E636F320E626F9EEC93
:10042000C5F0000E0001666F020E676F605166270F
:10043000615167236EC060F06FC061F0000E636FA2
:100440000A0E626F9EECC5F0000160516627615193
:100450006723070E6625D96E000E6721DA6E000E3F
:10046000DF6E6CC060F06DC061F0000E636F320E25
:10047000626F9EECC5F0000E0001666F020E676FA2
:1004800060516627615167236EC060F06FC061F0F4
:10049000000E636F0A0E626F9EECC5F000016051A2
:1004A000662761516723080E6625D96E000E672105
:1004B000DA6E020EDE6E000EDD6E6E4B6F2B6CC0C0
:1004C00060F06DC061F0000E636F320E626F9EECE3
:1004D000C5F0000E0001666F020E676F605166275F
:1004E000615167236EC060F06FC061F0000E636FF2
:1004F0000A0E626F9EECC5F00001605166276151E3
:100500006723040E6625D96E000E6721DA6E010E90
:10051000DF6E6CC060F06DC061F0000E636F320E74
:10052000626F9EECC5F0000E0001666F020E676FF1
:1005300060516627615167236EC060F06FC061F043
:10054000000E636F0A0E626F9EECC5F000016051F1
:10055000662761516723050E6625D96E000E672157
:10056000DA6E000EDF6E6CC060F06DC061F0000EE0
:10057000636F320E626F9EECC5F0000E0001666F75
:10058000020E676F60516627615167236EC060F08D
:100590006FC061F0000E636F0A0E626F9EECC5F0D3
:1005A00000016051662761516723060E6625D96EEA
:1005B000000E6721DA6E000EDF6E6CC060F06DC059
:1005C00061F0000E636F320E626F9EECC5F0000E9C
:1005D0000001666F020E676F6051662761516723E5
:1005E0006EC060F06FC061F0000E636F0A0E626F44
:1005F0009EECC5F000016051662761516723070E2C
:100600006625D96E000E6721DA6E000EDF6E6CC0B3
:1006100060F06DC061F0000E636F320E626F9EEC91
:10062000C5F0000E0001666F020E676F605166270D
:10063000615167236EC060F06FC061F0000E636FA0
:100640000A0E626F9EECC5F0000160516627615191
:100650006723080E6625D96E000E6721DA6E030E39
:10066000DE6E000EDD6E6E4B6F2B6CC060F06DC0E9
:1006700061F0000E636F320E626F9EECC5F0000EEB
:100680000001666F020E676F605166276151672334
:100690006EC060F06FC061F0000E636F0A0E626F93
:1006A0009EECC5F000016051662761516723040E7E
:1006B0006625D96E000E6721DA6E010EDF6E6CC002
:1006C00060F06DC061F0000E636F320E626F9EECE1
:1006D000C5F0000E0001666F020E676F605166275D
:1006E000615167236EC060F06FC061F0000E636FF0
:1006F0000A0E626F9EECC5F00001605166276151E1
:100700006723050E6625D96E000E6721DA6E010E8D
:10071000DF6E6CC060F06DC061F0000E636F320E72
:10072000626F9EECC5F0000E0001666F020E676FEF
:1007300060516627615167236EC060F06FC061F041
:10074000000E636F0A0E626F9EECC5F000016051EF
:10075000662761516723060E6625D96E000E672154
:10076000DA6E000EDF6E6CC060F06DC061F0000EDE
:10077000636F320E626F9EECC5F0000E0001666F73
:10078000020E676F60516627615167236EC060F08B
:100790006FC061F0000E636F0A0E626F9EECC5F0D1
:1007A00000016051662761516723070E6625D96EE7
:1007B000000E6721DA6E000EDF6E6CC060F06DC057
:1007C00061F0000E636F320E626F9EECC5F0000E9A
:1007D0000001666F020E676F6051662761516723E3
:1007E0006EC060F06FC061F0000E636F0A0E626F42
:1007F0009EECC5F000016051662761516723080E29
:100800006625D96E000E6721DA6E020EDE6E000ECE
:10081000DD6E6E4B6F2B6CC060F06DC061F0000E32
:10082000636F320E626F9EECC5F0000E0001666FC2
:10083000020E676F60516627615167236EC060F0DA
:100840006FC061F0000E636F0A0E626F9EECC5F020
:1008500000016051662761516723040E6625D96E39
:10086000000E6721DA6E010EDF6E6CC060F06DC0A5
:1008700061F0000E636F320E626F9EECC5F0000EE9
:100880000001666F020E676F605166276151672332
:100890006EC060F06FC061F0000E636F0A0E626F91
:1008A0009EECC5F000016051662761516723050E7B
:1008B0006625D96E000E6721DA6E010EDF6E6CC000
:1008C00060F06DC061F0000E636F320E626F9EECDF
:1008D000C5F0000E0001666F020E676F605166275B
:1008E000615167236EC060F06FC061F0000E636FEE
:1008F0000A0E626F9EECC5F00001605166276151DF
:100900006723060E6625D96E000E6721DA6E000E8B
:10091000DF6E6CC060F06DC061F0000E636F320E70
:10092000626F9EECC5F0000E0001666F020E676FED
:1009300060516627615167236EC060F06FC061F03F
:10094000000E636F0A0E626F9EECC5F000016051ED
:10095000662761516723070E6625D96E000E672151
:10096000DA6E010EDF6E6CC060F06DC061F0000EDB
:10097000636F320E626F9EECC5F0000E0001666F71
:10098000020E676F60516627615167236EC060F089
:100990006FC061F0000E636F0A0E626F9EECC5F0CF
:1009A00000016051662761516723080E6625D96EE4
:1009B000000E6721DA6E010EDE6E000EDD6E6C4BEE
:1009C0006D2B000E6F6F000E6E6F6CC060F06DC00F
:1009D00061F0000E636F320E626F9EECC5F0000E88
:1009E0000001666F020E676F6051662761516723D1
:1009F0006EC060F06FC061F0000E636F0A0E626F30
:100A00009EECC5F000016051662761516723040E1A
:100A10006625D96E000E6721DA6E000EDF6E6CC09F
:100A200060F06DC061F0000E636F320E626F9EEC7D
:100A3000C5F0000E0001666F020E676F60516627F9
:100A4000615167236EC060F06FC061F0000E636F8C
:100A50000A0E626F9EECC5F000016051662761517D
:100A60006723050E6625D96E000E6721DA6E000E2B
:100A7000DF6E6CC060F06DC061F0000E636F320E0F
:100A8000626F9EECC5F0000E0001666F020E676F8C
:100A900060516627615167236EC060F06FC061F0DE
:100AA000000E636F0A0E626F9EECC5F0000160518C
:100AB000662761516723060E6625D96E000E6721F1
:100AC000DA6E000EDF6E6CC060F06DC061F0000E7B
:100AD000636F320E626F9EECC5F0000E0001666F10
:100AE000020E676F60516627615167236EC060F028
:100AF0006FC061F0000E636F0A0E626F9EECC5F06E
:100B000000016051662761516723070E6625D96E83
:100B1000000E6721DA6E010EDF6E6CC060F06DC0F2
:100B200061F0000E636F320E626F9EECC5F0000E36
:100B30000001666F020E676F60516627615167237F
:100B40006EC060F06FC061F0000E636F0A0E626FDE
:100B50009EECC5F000016051662761516723080EC5
:100B60006625D96E000E6721DA6E030EDE6E000E6A
:100B7000DD6E6E4B6F2B6CC060F06DC061F0000ECF
:100B8000636F320E626F9EECC5F0000E0001666F5F
:100B9000020E676F60516627615167236EC060F077
:100BA0006FC061F0000E636F0A0E626F9EECC5F0BD
:100BB00000016051662761516723040E6625D96ED6
:100BC000000E6721DA6E010EDF6E6CC060F06DC042
:100BD00061F0000E636F320E626F9EECC5F0000E86
:100BE0000001666F020E676F6051662761516723CF
:100BF0006EC060F06FC061F0000E636F0A0E626F2E
:100C00009EECC5F000016051662761516723050E17
:100C10006625D96E000E6721DA6E010EDF6E6CC09C
:100C200060F06DC061F0000E636F320E626F9EEC7B
:100C3000C5F0000E0001666F020E676F60516627F7
:100C4000615167236EC060F06FC061F0000E636F8A
:100C50000A0E626F9EECC5F000016051662761517B
:100C60006723060E6625D96E000E6721DA6E010E27
:100C7000DF6E6CC060F06DC061F0000E636F320E0D
:100C8000626F9EECC5F0000E0001666F020E676F8A
:100C900060516627615167236EC060F06FC061F0DC
:100CA000000E636F0A0E626F9EECC5F0000160518A
:100CB000662761516723070E6625D96E000E6721EE
:100CC000DA6E000EDF6E6CC060F06DC061F0000E79
:100CD000636F320E626F9EECC5F0000E0001666F0E
:100CE000020E676F60516627615167236EC060F026
:100CF0006FC061F0000E636F0A0E626F9EECC5F06C
:100D000000016051662761516723080E6625D96E80
:100D1000000E6721DA6E010EDE6E000EDD6E6E4B88
:100D20006F2B6CC060F06DC061F0000E636F320E0F
:100D3000626F9EECC5F0000E0001666F020E676FD9
:100D400060516627615167236EC060F06FC061F02B
:100D5000000E636F0A0E626F9EECC5F000016051D9
:100D6000662761516723040E6625D96E000E672140
:100D7000DA6E000EDF6E6CC060F06DC061F0000EC8
:100D8000636F320E626F9EECC5F0000E0001666F5D
:100D9000020E676F60516627615167236EC060F075
:100DA0006FC061F0000E636F0A0E626F9EECC5F0BB
:100DB00000016051662761516723050E6625D96ED3
:100DC000000E6721DA6E010EDF6E6CC060F06DC040
:100DD00061F0000E636F320E626F9EECC5F0000E84
:100DE0000001666F020E676F6051662761516723CD
:100DF0006EC060F06FC061F0000E636F0A0E626F2C
:100E00009EECC5F000016051662761516723060E14
:100E10006625D96E000E6721DA6E000EDF6E6CC09B
:100E200060F06DC061F0000E636F320E626F9EEC79
:100E3000C5F0000E0001666F020E676F60516627F5
:100E4000615167236EC060F06FC061F0000E636F88
:100E50000A0E626F9EECC5F0000160516627615179
:100E60006723070E6625D96E000E6721DA6E010E24
:100E7000DF6E6CC060F06DC061F0000E636F320E0B
:100E8000626F9EECC5F0000E0001666F020E676F88
:100E900060516627615167236EC060F06FC061F0DA
:100EA000000E636F0A0E626F9EECC5F00001605188
:100EB000662761516723080E6625D96E000E6721EB
:100EC000DA6E020EDE6E000EDD6E6E4B6F2B6CC0A6
:100ED00060F06DC061F0000E636F320E626F9EECC9
:100EE000C5F0000E0001666F020E676F6051662745
:100EF000615167236EC060F06FC061F0000E636FD8
:100F00000A0E626F9EECC5F00001605166276151C8
:100F10006723040E6625D96E000E6721DA6E000E77
:100F2000DF6E6CC060F06DC061F0000E636F320E5A
:100F3000626F9EECC5F0000E0001666F020E676FD7
:100F400060516627615167236EC060F06FC061F029
:100F5000000E636F0A0E626F9EECC5F000016051D7
:100F6000662761516723050E6625D96E000E67213D
:100F7000DA6E000EDF6E6CC060F06DC061F0000EC6
:100F8000636F320E626F9EECC5F0000E0001666F5B
:100F9000020E676F60516627615167236EC060F073
:100FA0006FC061F0000E636F0A0E626F9EECC5F0B9
:100FB00000016051662761516723060E6625D96ED0
:100FC000000E6721DA6E010EDF6E6CC060F06DC03E
:100FD00061F0000E636F320E626F9EECC5F0000E82
:100FE0000001666F020E676F6051662761516723CB
:100FF0006EC060F06FC061F0000E636F0A0E626F2A
:101000009EECC5F000016051662761516723070E11
:101010006625D96E000E6721DA6E010EDF6E6CC098
:1010200060F06DC061F0000E636F320E626F9EEC77
:10103000C5F0000E0001666F020E676F60516627F3
:10104000615167236EC060F06FC061F0000E636F86
:101050000A0E626F9EECC5F0000160516627615177
:101060006723080E6625D96E000E6721DA6E020E20
:10107000DE6E000EDD6E6E4B6F2B6CC060F06DC0CF
:1010800061F0000E636F320E626F9EECC5F0000ED1
:101090000001666F020E676F60516627615167231A
:1010A0006EC060F06FC061F0000E636F0A0E626F79
:1010B0009EECC5F000016051662761516723040E64
:1010C0006625D96E000E6721DA6E000EDF6E6CC0E9
:1010D00060F06DC061F0000E636F320E626F9EECC7
:1010E000C5F0000E0001666F020E676F6051662743
:1010F000615167236EC060F06FC061F0000E636FD6
:101100000A0E626F9EECC5F00001605166276151C6
:101110006723050E6625D96E000E6721DA6E010E73
:10112000DF6E6CC060F06DC061F0000E636F320E58
:10113000626F9EECC5F0000E0001666F020E676FD5
:1011400060516627615167236EC060F06FC061F027
:10115000000E636F0A0E626F9EECC5F000016051D5
:10116000662761516723060E6625D96E000E67213A
:10117000DA6E010EDF6E6CC060F06DC061F0000EC3
:10118000636F320E626F9EECC5F0000E0001666F59
:10119000020E676F60516627615167236EC060F071
:1011A0006FC061F0000E636F0A0E626F9EECC5F0B7
:1011B00000016051662761516723070E6625D96ECD
:1011C000000E6721DA6E000EDF6E6CC060F06DC03D
:1011D00061F0000E636F320E626F9EECC5F0000E80
:1011E0000001666F020E676F6051662761516723C9
:1011F0006EC060F06FC061F0000E636F0A0E626F28
:101200009EECC5F000016051662761516723080E0E
:101210006625D96E000E6721DA6E020EDE6E000EB4
:10122000DD6E6C4B6D2B000E6F6F000E6E6F6CC021
:1012300060F06DC061F0000E636F320E626F9EEC65
:10124000C5F0000E0001666F020E676F60516627E1
:10125000615167236EC060F06FC061F0000E636F74
:101260000A0E626F9EECC5F0000160516627615165
:101270006723040E6625D96E000E6721DA6E000E14
:10128000DF6E6CC060F06DC061F0000E636F320EF7
:10129000626F9EECC5F0000E0001666F020E676F74
:1012A00060516627615167236EC060F06FC061F0C6
:1012B000000E636F0A0E626F9EECC5F00001605174
:1012C000662761516723050E6625D96E000E6721DA
:1012D000DA6E000EDF6E6CC060F06DC061F0000E63
:1012E000636F320E626F9EECC5F0000E0001666FF8
:1012F000020E676F60516627615167236EC060F010
:101300006FC061F0000E636F0A0E626F9EECC5F055
:1013100000016051662761516723060E6625D96E6C
:10132000000E6721DA6E000EDF6E6CC060F06DC0DB
:1013300061F0000E636F320E626F9EECC5F0000E1E
:101340000001666F020E676F605166276151672367
:101350006EC060F06FC061F0000E636F0A0E626FC6
:101360009EECC5F000016051662761516723070EAE
:101370006625D96E000E6721DA6E010EDF6E6CC035
:1013800060F06DC061F0000E636F320E626F9EEC14
:10139000C5F0000E0001666F020E676F6051662790
:1013A000615167236EC060F06FC061F0000E636F23
:1013B0000A0E626F9EECC5F0000160516627615114
:1013C0006723080E6625D96E000E6721DA6E030EBC
:1013D000DE6E000EDD6E6E4B6F2B6CC060F06DC06C
:1013E00061F0000E636F320E626F9EECC5F0000E6E
:1013F0000001666F020E676F6051662761516723B7
:101400006EC060F06FC061F0000E636F0A0E626F15
:101410009EECC5F000016051662761516723040E00
:101420006625D96E000E6721DA6E010EDF6E6CC084
:1014300060F06DC061F0000E636F320E626F9EEC63
:10144000C5F0000E0001666F020E676F60516627DF
:10145000615167236EC060F06FC061F0000E636F72
:101460000A0E626F9EECC5F0000160516627615163
:101470006723050E6625D96E000E6721DA6E000E11
:10148000DF6E6CC060F06DC061F0000E636F320EF5
:10149000626F9EECC5F0000E0001666F020E676F72
:1014A00060516627615167236EC060F06FC061F0C4
:1014B000000E636F0A0E626F9EECC5F00001605172
:1014C000662761516723060E6625D96E000E6721D7
:1014D000DA6E010EDF6E6CC060F06DC061F0000E60
:1014E000636F320E626F9EECC5F0000E0001666FF6
:1014F000020E676F60516627615167236EC060F00E
:101500006FC061F0000E636F0A0E626F9EECC5F053
:1015100000016051662761516723070E6625D96E69
:10152000000E6721DA6E000EDF6E6CC060F06DC0D9
:1015300061F0000E636F320E626F9EECC5F0000E1C
:101540000001666F020E676F605166276151672365
:101550006EC060F06FC061F0000E636F0A0E626FC4
:101560009EECC5F000016051662761516723080EAB
:101570006625D96E000E6721DA6E020EDE6E000E51
:10158000DD6E6E4B6F2B6CC060F06DC061F0000EB5
:10159000636F320E626F9EECC5F0000E0001666F45
:1015A000020E676F60516627615167236EC060F05D
:1015B0006FC061F0000E636F0A0E626F9EECC5F0A3
:1015C00000016051662761516723040E6625D96EBC
:1015D000000E6721DA6E000EDF6E6CC060F06DC029
:1015E00061F0000E636F320E626F9EECC5F0000E6C
:1015F0000001666F020E676F6051662761516723B5
:101600006EC060F06FC061F0000E636F0A0E626F13
:101610009EECC5F000016051662761516723050EFD
:101620006625D96E000E6721DA6E000EDF6E6CC083
:1016300060F06DC061F0000E636F320E626F9EEC61
:10164000C5F0000E0001666F020E676F60516627DD
:10165000615167236EC060F06FC061F0000E636F70
:101660000A0E626F9EECC5F0000160516627615161
:101670006723060E6625D96E000E6721DA6E000E0E
:10168000DF6E6CC060F06DC061F0000E636F320EF3
:10169000626F9EECC5F0000E0001666F020E676F70
:1016A00060516627615167236EC060F06FC061F0C2
:1016B000000E636F0A0E626F9EECC5F00001605170
:1016C000662761516723070E6625D96E000E6721D4
:1016D000DA6E000EDF6E6CC060F06DC061F0000E5F
:1016E000636F320E626F9EECC5F0000E0001666FF4
:1016F000020E676F60516627615167236EC060F00C
:101700006FC061F0000E636F0A0E626F9EECC5F051
:1017100000016051662761516723080E6625D96E66
:10172000000E6721DA6E040EDE6E000EDD6E6E4B6B
:101730006F2B6CC060F06DC061F0000E636F320EF5
:10174000626F9EECC5F0000E0001666F020E676FBF
:1017500060516627615167236EC060F06FC061F011
:10176000000E636F0A0E626F9EECC5F000016051BF
:10177000662761516723040E6625D96E000E672126
:10178000DA6E010EDF6E6CC060F06DC061F0000EAD
:10179000636F320E626F9EECC5F0000E0001666F43
:1017A000020E676F60516627615167236EC060F05B
:1017B0006FC061F0000E636F0A0E626F9EECC5F0A1
:1017C00000016051662761516723050E6625D96EB9
:1017D000000E6721DA6E000EDF6E6CC060F06DC027
:1017E00061F0000E636F320E626F9EECC5F0000E6A
:1017F0000001666F020E676F6051662761516723B3
:101800006EC060F06FC061F0000E636F0A0E626F11
:101810009EECC5F000016051662761516723060EFA
:101820006625D96E000E6721DA6E010EDF6E6CC080
:1018300060F06DC061F0000E636F320E626F9EEC5F
:10184000C5F0000E0001666F020E676F60516627DB
:10185000615167236EC060F06FC061F0000E636F6E
:101860000A0E626F9EECC5F000016051662761515F
:101870006723070E6625D96E000E6721DA6E000E0B
:10188000DF6E6CC060F06DC061F0000E636F320EF1
:10189000626F9EECC5F0000E0001666F020E676F6E
:1018A00060516627615167236EC060F06FC061F0C0
:1018B000000E636F0A0E626F9EECC5F0000160516E
:1018C000662761516723080E6625D96E000E6721D1
:1018D000DA6E020EDE6E000EDD6E6E4B6F2B6CC08C
:1018E00060F06DC061F0000E636F320E626F9EECAF
:1018F000C5F0000E0001666F020E676F605166272B
:10190000615167236EC060F06FC061F0000E636FBD
:101910000A0E626F9EECC5F00001605166276151AE
:101920006723040E6625D96E000E6721DA6E010E5C
:10193000DF6E6CC060F06DC061F0000E636F320E40
:10194000626F9EECC5F0000E0001666F020E676FBD
:1019500060516627615167236EC060F06FC061F00F
:10196000000E636F0A0E626F9EECC5F000016051BD
:10197000662761516723050E6625D96E000E672123
:10198000DA6E010EDF6E6CC060F06DC061F0000EAB
:10199000636F320E626F9EECC5F0000E0001666F41
:1019A000020E676F60516627615167236EC060F059
:1019B0006FC061F0000E636F0A0E626F9EECC5F09F
:1019C00000016051662761516723060E6625D96EB6
:1019D000000E6721DA6E000EDF6E6CC060F06DC025
:1019E00061F0000E636F320E626F9EECC5F0000E68
:1019F0000001666F020E676F6051662761516723B1
:101A00006EC060F06FC061F0000E636F0A0E626F0F
:101A10009EECC5F000016051662761516723070EF7
:101A20006625D96E000E6721DA6E000EDF6E6CC07F
:101A300060F06DC061F0000E636F320E626F9EEC5D
:101A4000C5F0000E0001666F020E676F60516627D9
:101A5000615167236EC060F06FC061F0000E636F6C
:101A60000A0E626F9EECC5F000016051662761515D
:101A70006723080E6625D96E000E6721DA6E020E06
:101A8000DE6E000EDD6E6C4B6D2B000E6F6F000E68
:101A90006E6F6CC060F06DC061F0000E636F320E4F
:101AA000626F9EECC5F0000E0001666F020E676F5C
:101AB00060516627615167236EC060F06FC061F0AE
:101AC000000E636F0A0E626F9EECC5F0000160515C
:101AD000662761516723040E6625D96E000E6721C3
:101AE000DA6E000EDF6E6CC060F06DC061F0000E4B
:101AF000636F320E626F9EECC5F0000E0001666FE0
:101B0000020E676F60516627615167236EC060F0F7
:101B10006FC061F0000E636F0A0E626F9EECC5F03D
:101B200000016051662761516723050E6625D96E55
:101B3000000E6721DA6E000EDF6E6CC060F06DC0C3
:101B400061F0000E636F320E626F9EECC5F0000E06
:101B50000001666F020E676F60516627615167234F
:101B60006EC060F06FC061F0000E636F0A0E626FAE
:101B70009EECC5F000016051662761516723060E97
:101B80006625D96E000E6721DA6E010EDF6E6CC01D
:101B900060F06DC061F0000E636F320E626F9EECFC
:101BA000C5F0000E0001666F020E676F6051662778
:101BB000615167236EC060F06FC061F0000E636F0B
:101BC0000A0E626F9EECC5F00001605166276151FC
:101BD0006723070E6625D96E000E6721DA6E010EA7
:101BE000DF6E6CC060F06DC061F0000E636F320E8E
:101BF000626F9EECC5F0000E0001666F020E676F0B
:101C000060516627615167236EC060F06FC061F05C
:101C1000000E636F0A0E626F9EECC5F0000160510A
:101C2000662761516723080E6625D96E000E67216D
:101C3000DA6E020EDE6E000EDD6E6E4B6F2B6CC028
:101C400060F06DC061F0000E636F320E626F9EEC4B
:101C5000C5F0000E0001666F020E676F60516627C7
:101C6000615167236EC060F06FC061F0000E636F5A
:101C70000A0E626F9EECC5F000016051662761514B
:101C80006723040E6625D96E000E6721DA6E010EF9
:101C9000DF6E6CC060F06DC061F0000E636F320EDD
:101CA000626F9EECC5F0000E0001666F020E676F5A
:101CB00060516627615167236EC060F06FC061F0AC
:101CC000000E636F0A0E626F9EECC5F0000160515A
:101CD000662761516723050E6625D96E000E6721C0
:101CE000DA6E010EDF6E6CC060F06DC061F0000E48
:101CF000636F320E626F9EECC5F0000E0001666FDE
:101D0000020E676F60516627615167236EC060F0F5
:101D10006FC061F0000E636F0A0E626F9EECC5F03B
:101D200000016051662761516723060E6625D96E52
:101D3000000E6721DA6E010EDF6E6CC060F06DC0C0
:101D400061F0000E636F320E626F9EECC5F0000E04
:101D50000001666F020E676F60516627615167234D
:101D60006EC060F06FC061F0000E636F0A0E626FAC
:101D70009EECC5F000016051662761516723070E94
:101D80006625D96E000E6721DA6E000EDF6E6CC01C
:101D900060F06DC061F0000E636F320E626F9EECFA
:101DA000C5F0000E0001666F020E676F6051662776
:101DB000615167236EC060F06FC061F0000E636F09
:101DC0000A0E626F9EECC5F00001605166276151FA
:101DD0006723080E6625D96E000E6721DA6E010EA4
:101DE000DE6E000EDD6E6E4B6F2B6CC060F06DC052
:101DF00061F0000E636F320E626F9EECC5F0000E54
:101E00000001666F020E676F60516627615167239C
:101E10006EC060F06FC061F0000E636F0A0E626FFB
:101E20009EECC5F000016051662761516723040EE6
:101E30006625D96E000E6721DA6E000EDF6E6CC06B
:101E400060F06DC061F0000E636F320E626F9EEC49
:101E5000C5F0000E0001666F020E676F60516627C5
:101E6000615167236EC060F06FC061F0000E636F58
:101E70000A0E626F9EECC5F0000160516627615149
:101E80006723050E6625D96E000E6721DA6E010EF6
:101E9000DF6E6CC060F06DC061F0000E636F320EDB
:101EA000626F9EECC5F0000E0001666F020E676F58
:101EB00060516627615167236EC060F06FC061F0AA
:101EC000000E636F0A0E626F9EECC5F00001605158
:101ED000662761516723060E6625D96E000E6721BD
:101EE000DA6E010EDF6E6CC060F06DC061F0000E46
:101EF000636F320E626F9EECC5F0000E0001666FDC
:101F0000020E676F60516627615167236EC060F0F3
:101F10006FC061F0000E636F0A0E626F9EECC5F039
:101F200000016051662761516723070E6625D96E4F
:101F3000000E6721DA6E010EDF6E6CC060F06DC0BE
:101F400061F0000E636F320E626F9EECC5F0000E02
:101F50000001666F020E676F60516627615167234B
:101F60006EC060F06FC061F0000E636F0A0E626FAA
:101F70009EECC5F000016051662761516723080E91
:101F80006625D96E000E6721DA6E010EDE6E000E38
:101F9000DD6E6E4B6F2B6CC060F06DC061F0000E9B
:101FA000636F320E626F9EECC5F0000E0001666F2B
:101FB000020E676F60516627615167236EC060F043
:101FC0006FC061F0000E636F0A0E626F9EECC5F089
:101FD00000016051662761516723040E6625D96EA2
:101FE000000E6721DA6E010EDF6E6CC060F06DC00E
:101FF00061F0000E636F320E626F9EECC5F0000E52
:102000000001666F020E676F60516627615167239A
:102010006EC060F06FC061F0000E636F0A0E626FF9
:102020009EECC5F000016051662761516723050EE3
:102030006625D96E000E6721DA6E000EDF6E6CC069
:1020400060F06DC061F0000E636F320E626F9EEC47
:10205000C5F0000E0001666F020E676F60516627C3
:10206000615167236EC060F06FC061F0000E636F56
:102070000A0E626F9EECC5F0000160516627615147
:102080006723060E6625D96E000E6721DA6E010EF3
:10209000DF6E6CC060F06DC061F0000E636F320ED9
:1020A000626F9EECC5F0000E0001666F020E676F56
:1020B00060516627615167236EC060F06FC061F0A8
:1020C000000E636F0A0E626F9EECC5F00001605156
:1020D000662761516723070E6625D96E000E6721BA
:1020E000DA6E010EDF6E6CC060F06DC061F0000E44
:1020F000636F320E626F9EECC5F0000E0001666FDA
:10210000020E676F60516627615167236EC060F0F1
:102110006FC061F0000E636F0A0E626F9EECC5F037
:1021200000016051662761516723080E6625D96E4C
:10213000000E6721DA6E010EDE6E000EDD6E6E4B54
:102140006F2B6CC060F06DC061F0000E636F320EDB
:10215000626F9EECC5F0000E0001666F020E676FA5
:1021600060516627615167236EC060F06FC061F0F7
:10217000000E636F0A0E626F9EECC5F000016051A5
:10218000662761516723040E6625D96E000E67210C
:10219000DA6E000EDF6E6CC060F06DC061F0000E94
:1021A000636F320E626F9EECC5F0000E0001666F29
:1021B000020E676F60516627615167236EC060F041
:1021C0006FC061F0000E636F0A0E626F9EECC5F087
:1021D00000016051662761516723050E6625D96E9F
:1021E000000E6721DA6E010EDF6E6CC060F06DC00C
:1021F00061F0000E636F320E626F9EECC5F0000E50
:102200000001666F020E676F605166276151672398
:102210006EC060F06FC061F0000E636F0A0E626FF7
:102220009EECC5F000016051662761516723060EE0
:102230006625D96E000E6721DA6E010EDF6E6CC066
:1022400060F06DC061F0000E636F320E626F9EEC45
:10225000C5F0000E0001666F020E676F60516627C1
:10226000615167236EC060F06FC061F0000E636F54
:102270000A0E626F9EECC5F0000160516627615145
:102280006723070E6625D96E000E6721DA6E000EF1
:10229000DF6E6CC060F06DC061F0000E636F320ED7
:1022A000626F9EECC5F0000E0001666F020E676F54
:1022B00060516627615167236EC060F06FC061F0A6
:1022C000000E636F0A0E626F9EECC5F00001605154
:1022D000662761516723080E6625D96E000E6721B7
:1022E000DA6E020EDE6E000EDD6E1200BAC13AF03A
:1022F000000E0101C96F000EC86F000ECB6F000EFB
:10230000CA6FF651B21904E1F751B319D8B487D0A6
:10231000F6C1BCF1F7C1BDF1BC1FBD1FBC4BBD2B4D
:10232000B251BC25CA6FB351BD21CB6FCBAF36D0F4
:10233000CAC1BCF1CBC1BDF1BC1FBD1FBC4BBD2B85
:10234000BCC160F0BDC161F0000E0001636F530EAF
:10235000626F9EECC5F060C0CAF161C0CBF1000EA7
:102360000101C16F010EC06FCBBF46D0CB5104E15C
:10237000A70ECA5DD8A040D0CAC1BCF1CBC1BDF187
:10238000BC1FBD1FBC4BBD2B4C0EBC25CA6F010E24
:10239000BD21CB6F000EC16F000E2DD0CAC160F001
:1023A000CBC161F0000E0001636F530E626F9EECB3
:1023B000C5F060C0CAF161C0CBF1000E0101C16F70
:1023C000000EC06FCBBF18D0CB5104E1A70ECA5D81
:1023D000D8A012D0CAC1BCF1CBC1BDF1BC1FBD1F7A
:1023E000BC4BBD2B4C0EBC25CA6F010EBD21CB6F63
:1023F000000EC16F010EC06FCAC161F0CBC162F0A7
:10240000000E0001646FC80E636FC0C165F0C1C1EA
:1024100066F0D0ECBCF0B2C1F6F1B3C1F7F1010146
:10242000BA51BB11D8A406D038513911D8A402D062
:10243000000E14D0BA51BB11D8A411D038513911A3
:10244000D8B40DD06151D8B407D0FF0E0001AA6FE7
:10245000A60EA96FF3ECACF0000E0101616FBA0596
:10246000BB11D8A411D038513911D8B40DD06105A1
:10247000D8B407D0000E0001AA6F5A0EA96FF3EC72
:10248000ACF0010E0101616FB8C161F0B9C162F039
:10249000B8C163F0B9C164F075ECC2F0DCEC9DF03A
:1024A000000E01013D6F040E3C6F000EC36F000E65
:1024B000C26F000EC56F000EC46F71D1DCEC9DF0D1
:1024C0002CC0BCF12DC0BDF10101BC1FBD1FBC4B18
:1024D000BD2BF051BC25CC6FF151BD21CD6FCCC1CE
:1024E00060F0CDC161F03CC162F03DC163F09EEC93
:1024F000C5F060C0CCF161C0CDF12DBE06D02D502D
:1025000003E1510E2C5CD8B095D001013C51F0256F
:10251000BC6F3D51F121BD6FCC51BC1904E1CD51CF
:10252000BD19D8B413D03CC1BCF13DC1BDF1BC1F35
:10253000BD1FBC4BBD2BF051BC27F151BD23CC516D
:10254000BC190EE1CD51BD19D8A40AD0B8C161F0B3
:10255000B9C162F0B8C163F0B9C164F075ECC2F002
:102560000101CDBF2CD0CCC1BCF1CDC1BDF1BC1F90
:10257000BD1FBC4BBD2BB851BC25C26FB951BD218D
:10258000C36FBA51BB11D8A40BD0C2C161F0C3C193
:1025900062F0B8C163F0B9C164F075ECC2F00FD05D
:1025A0000101BA05BB11D8A40AD0B8C161F0B9C104
:1025B00062F0C2C163F0C3C164F075ECC2F0010106
:1025C000CDBF05D0CD5140E1CC05D8B03DD0CDAF89
:1025D00004D0CC6DCD1FD8B0CD2BCCC1BCF1CDC1BA
:1025E000BDF1BC1FBD1FBC4BBD2BB851BC25C46F7A
:1025F000B951BD21C56FBA51BB11D8A40BD0B8C118
:1026000061F0B9C162F0C4C163F0C5C164F075EC9A
:10261000C2F01AD00101BA05BB11D8A415D0C4C1AB
:1026200061F0C5C162F0B8C163F0B9C164F075EC86
:10263000C2F00AD0B8C161F0B9C162F0B8C163F0AC
:10264000B9C164F075ECC2F0F6ECBEF00001615166
:102650000101C827000162510101C923ECECC5F05A
:10266000000161516211D8B49AD094ECC1F000011C
:1026700061516211D8A493D040C160F041C161F0B2
:10268000000E636F320E626F9EECC5F0040E010106
:10269000B225BC6F000EB321BD6F000EBE6F020EDF
:1026A000BF6FBC51BE27BD51BF2300016051010166
:1026B000BE27000161510101BF233EC160F03FC14F
:1026C00061F0000E0001636F0A0E626F9EECC5F0B0
:1026D000000160510101BE25D96E00016151010167
:1026E000BF21DA6E010EDF6E000EC76F000EC66FDF
:1026F00030ECC6F08B0E0001756FFF0E766F3FEC6D
:10270000ACF063ECA8F0FF0E0001626F380E616F51
:10271000FF0E646F380E636F75ECC2F0F6ECBEF01E
:1027200028D0F6ECBEF0000161510101C62700017E
:1027300062510101C72363ECA8F0FB0E0001756F25
:10274000FF0E766F000E786F230E776F3FECACF0C4
:102750005C0E0001756FFF0E766FC6C177F0C7C1C2
:1027600078F0C8C179F0C9C17AF03FECACF063EC05
:10277000A8F0C8C1BCF1C9C1BDF10101BC1FBD1F9A
:10278000BC4BBD2BBC51C65DC751800ABE6FBD514D
:10279000800ABE59D8B0C5D730ECC6F0120001018E
:1027A000B451C85DC951800ABC6FB551800ABC598B
:1027B000D8A084D6B251B311D8A404D04007D8A071
:1027C000410717D0B205B311D8A403D03E4B3F2B1D
:1027D00010D0020EB219B311D8A403D0404B412B34
:1027E00008D0030EB219B311D8A403D03E07D8A065
:1027F0003F0730ECC6F040C1F1F041C1F2F03EC1FC
:10280000F3F03FC1F4F089ECA5F0B2C183F0B3C19D
:1028100084F04BECC3F040C160F041C161F0000EA8
:102820000001636F320E626F9EECC5F0000E010175
:10283000BC6F020EBD6F000160510101BC27000199
:1028400061510101BD233EC160F03FC161F0000E46
:102850000001636F0A0E626F9EECC5F000016051CB
:102860000101BC27000161510101BD23080EBC25F7
:10287000D96E000EBD21DA6EDE06000EDD5A30EC98
:10288000C6F01200970E0001756FFF0E766F40C103
:1028900077F041C178F03EC179F03FC17AF03FEC6A
:1028A000ACF063ECA8F040C160F041C161F0000EF3
:1028B0000001636F320E626F9EECC5F0000E0101E5
:1028C000D46F020ED56F000160510101D4270001C1
:1028D00061510101D5233EC160F03FC161F0000E9E
:1028E0000001636F0A0E626F9EECC5F0000160513B
:1028F0000101D427000161510101D523080ED4251F
:10290000D96E000ED521DA6E010EDBBE34D2010E77
:10291000DB5003E1DE04D8A02ED240C160F041C1FB
:1029200061F0000E0001636F320E626F9EECC5F025
:10293000000E0101D46F020ED56F0001605101013C
:10294000D427000161510101D5233EC160F03FC190
:1029500061F0000E0001636F0A0E626F9EECC5F01D
:10296000000160510101D427000161510101D5230B
:10297000050ED425D96E000ED521DA6EDF50D8A40D
:1029800042D040C160F041C161F0000E0001636FB0
:10299000320E626F9EECC5F0000E0101D46F020E84
:1029A000D56F000160510101D4270001615101017F
:1029B000D523010E3E250001606F000E01013F216D
:1029C0000001616F000E636F0A0E626F9EECC5F02E
:1029D000000160510101D427000161510101D5239B
:1029E000080ED425D96E000ED521DA6E010EDBBE9D
:1029F0000AD0010EDB5003E1DE04D8A004D0000EA3
:102A0000D96F010E61D140C160F041C161F0000E8B
:102A10000001636F320E626F9EECC5F0000E010183
:102A2000D46F020ED56F000160510101D42700015F
:102A300061510101D5233EC160F03FC161F0000E3C
:102A40000001636F0A0E626F9EECC5F000016051D9
:102A50000101D427000161510101D523060ED425BF
:102A6000D96E000ED521DA6EDF50D8A442D0010E07
:102A700040250001606F000E010141210001616FDE
:102A8000000E636F320E626F9EECC5F0000E010106
:102A9000D46F020ED56F000160510101D4270001EF
:102AA00061510101D5233EC160F03FC161F0000ECC
:102AB0000001636F0A0E626F9EECC5F00001605169
:102AC0000101D427000161510101D523080ED4254D
:102AD000D96E000ED521DA6E010EDBBE0AD0010ED2
:102AE000DB5003E1DE04D8A004D0000ED96F020E43
:102AF000EBD040C160F041C161F0000E0001636F96
:102B0000320E626F9EECC5F0000E0101D46F020E12
:102B1000D56F000160510101D4270001615101010D
:102B2000D5233EC160F03FC161F0000E0001636F2C
:102B30000A0E626F9EECC5F0000160510101D427BE
:102B4000000161510101D523070ED425D96E000E75
:102B5000D521DA6EDF50D8A442D040C160F041C127
:102B600061F0000E0001636F320E626F9EECC5F0E3
:102B7000000E0101D46F020ED56F000160510101FA
:102B8000D427000161510101D523FF0E3E2500012C
:102B9000606FFF0E01013F210001616F000E636F46
:102BA0000A0E626F9EECC5F0000160510101D4274E
:102BB000000161510101D523080ED425D96E000E04
:102BC000D521DA6E010EDBBE0AD0010EDB5003E127
:102BD000DE04D8A004D0000ED96F030E75D040C11A
:102BE00060F041C161F0000E0001636F320E626F50
:102BF0009EECC5F0000E0101D46F020ED56F0001EE
:102C000060510101D427000161510101D5233EC16A
:102C100060F03FC161F0000E0001636F0A0E626F49
:102C20009EECC5F0000160510101D4270001615103
:102C30000101D523040ED425D96E000ED521DA6EFC
:102C4000DF50D8A443D0FF0E40250001606FFF0E77
:102C5000010141210001616F000E636F320E626F4E
:102C60009EECC5F0000E0101D46F020ED56F00017D
:102C700060510101D427000161510101D5233EC1FA
:102C800060F03FC161F0000E0001636F0A0E626FD9
:102C90009EECC5F0000160510101D4270001615193
:102CA0000101D523080ED425D96E000ED521DA6E88
:102CB000010EDBBE0BD0010EDB5003E1DE04D8A019
:102CC00005D0000ED96F000ED86F0AD0F40E0001A7
:102CD000756FFF0E766F3FECACF063ECA8F0FFD79A
:102CE00040C160F041C161F0000E0001636F320E1F
:102CF000626F9EECC5F0000E0101D46F020ED56F1D
:102D0000000160510101D427000161510101D52367
:102D10003EC160F03FC161F0000E0001636F0A0E1A
:102D2000626F9EECC5F0000160510101D4270001E3
:102D300061510101D523080ED425D96E000ED5218D
:102D4000DA6EDE06000EDD5AD8C1B2F1D9C1B3F198
:102D5000030EB56FB60EB46F000EB76F000EB66FF0
:102D6000010EB96F900EB86F000EBB6F000EBA6FF8
:102D700076EC91F01AD0A30E0001756FFF0E766FFE
:102D80003FECACF063ECA8F006ECC2F083C0CEF1EF
:102D900084C0CFF1010E0101D16F900ED06F000EF3
:102DA000D36F000ED26F02ECB6F040C1F1F041C11A
:102DB000F2F03EC1F3F03FC1F4F089ECA5F012004F
:102DC000DBECB0F0ADECC6F050ECC6F0D1ECC6F0E8
:102DD0009FECC7F00BECBDF0BAECC1F0010E49EC72
:102DE000C0F000EC80F0010E60ECC4F00009D8B433
:102DF0000CD00DECAAF0F4ECAEF025ECBEF0DCEC5F
:102E0000C6F00009D8A4E5ECC4F0DCEC9DF02CC0C1
:102E100076F02DC077F0D9ECC5F07CECC4F05CEC1A
:102E2000BFF023EECDF001D80AD00500FA6EDE50D7
:102E3000FD6EDE50FE6EDE50FF6EFA501200030192
:102E4000EE6F23EEAFF001D80AD00500FA6EDE5027
:102E5000FD6EDE50FE6EDE50FF6EFA501200030172
:102E6000EF6F23EEC3F001D80AD00500FA6EDE50F2
:102E7000FD6EDE50FE6EDE50FF6EFA501200030152
:102E8000F06F23EEB9F001D80AD00500FA6EDE50DB
:102E9000FD6EDE50FE6EDE50FF6EFA501200030132
:102EA000F16FEE51D8B405D0000E01014D6F030E45
:102EB0004C6F0301EF51D8B405D0000E01014D6FE6
:102EC000010E4C6F0301F051D8B405D0000E010182
:102ED0004D6F020E4C6F0301F151D8B405D0000EB6
:102EE00001014D6F040E4C6F010E60ECC4F000093F
:102EF000D8B48BD701014C514D11D8A414D0FB0E7E
:102F00000001756FFF0E766F000E786F230E776FDE
:102F10003FECACF06C0E0001756FFF0E766F3FEC6E
:102F2000ACF063ECA8F0030E01014C194D11D8A4CC
:102F300016D1FB0E0001756FFF0E766F000E786FD5
:102F4000230E776F3FECACF03BECB0F07CECB7F0CD
:102F5000FF0E0001AA6FD30EA96FF3ECACF0A5D061
:102F6000DCEC9DF0FB0E0001756FFF0E766F000E1E
:102F7000786F230E776F3FECACF0D00E0001756FC9
:102F8000FF0E766F3FECACF0EC0E0001756FFF0E9C
:102F9000766F34C177F035C178F03FECACF0E60ED7
:102FA0000001756FFE0E766F40C177F041C178F079
:102FB0003EC179F03FC17AF03FECACF042EC94F0C6
:102FC00094ECC1F0000161056211D8A46CD040C13D
:102FD00060F041C161F0000E636F320E626F9EECD3
:102FE000C5F0000E0201FC6F020EFD6F0001605182
:102FF0000201FC27000161510201FD233EC160F086
:103000003FC161F0000E0001636F0A0E626F9EEC1B
:10301000C5F0000160510201FC270001615102016D
:10302000FD23020EFC25D96E000EFD21DA6EDE5066
:10303000DE10D8A438D040C160F041C161F0000E6C
:103040000001636F320E626F9EECC5F0000E02014C
:10305000FC6F020EFD6F000160510201FC270001B0
:1030600061510201FD233EC160F03FC161F0000EDD
:103070000001636F0A0E626F9EECC5F000016051A3
:103080000201FC27000161510201FD23020EFC2513
:10309000D96E000EFD21DA6E010EDE6E000EDD6EC1
:1030A0000101344B352B63ECA8F0010135BF58D733
:1030B000355131E1020E345DD8B02DD051D7FB0E21
:1030C0000001756FFF0E766F000E786F230E776F1D
:1030D0003FECACF0D00E0001756FFF0E766F3FEC49
:1030E000ACF0BB0E0001756FFF0E766F3FECACF0DD
:1030F00063ECA8F006ECC2F083C0CEF184C0CFF13F
:10310000010E0101D16F900ED06F000ED36F010E32
:10311000D26F02ECB6F0030E010140194111D8A4A0
:10312000CED73E053F11D8A4CAD7E30E0001756F74
:10313000FF0E766F3FECACF063ECA8F0000E0001E0
:10314000616FC80E606F1BECC0F023ECB5F0000E91
:103150000001616FC80E606F1BECC0F0FFD7020E5C
:1031600001014C194D11D8A403D023ECB5F0FFD7C1
:1031700063ECA8F0DCECC6F00009D8B446D6E5EC68
:10318000C4F043D60AD0C80E0001936F020E03D0DC
:10319000D30E936F020E946F08D000019151000A74
:1031A000D8B4F1D7010AD8B4F3D720EE02F0935186
:1031B000D9269451DA2291C0DFFF93D07C0E866F1E
:1031C000010E876F020E886F030E896F3EECA9F027
:1031D0007C0E0001866F010E876F030E886F030E51
:1031E000896F3EECA9F07C0E0001866F010E876F9F
:1031F000050E886F030E896F3EECA9F07C0E00016E
:10320000866F010E876F040E886F000E896F3EEC8B
:10321000A9F0000120EE03F09351D9269451DA224F
:10322000C70EDE6E0F0EDD6E20EE06F09351D9262E
:103230009451DA22C60EDE6E0F0EDD6E20EE09F01E
:103240009351D9269451DA22C90E47D0720E866F57
:10325000010E876F070E886F030E896F3EECA9F091
:10326000720E0001866F010E876F060E886F030EC7
:10327000896F3EECA9F0720E0001866F010E876F18
:10328000040E886F030E896F3EECA9F0720E0001E8
:10329000866F010E876F050E886F000E896F3EECFA
:1032A000A9F0000120EE03F09351D9269451DA22BF
:1032B0006D0EDE6E0F0EDD6E20EE06F09351D926F8
:1032C0009451DA226C0EDE6E0F0EDD6E20EE09F0E8
:1032D0009351D9269451DA226F0EDE6E0F0EDD6EF9
:1032E00008D09151000AD8B469D7010AD8A41200B5
:1032F000ADD720EE06F09351D9269451DA22DECFD5
:1033000060F0DDCF61F0050E626F000E636F1BECA5
:10331000C1F08CD0000120EE06F09351D9269451D3
:10332000DA22DECF60F0DDCF61F0040E626F000EB6
:10333000636F1BECC1F0000120EE03F09351D9261E
:103340009451DA22DECF60F0DDCF61F0060E626FBD
:10335000000E636F1BECC1F078D0000120EE06F088
:103360009351D9269451DA22DECF60F0DDCF61F09F
:10337000040E626F000E636F1BECC1F0000120EEC3
:1033800003F09351D9269451DA22DECF60F0DDCFDD
:1033900061F0060E626F010E636F1BECC1F055D039
:1033A000000120EE06F09351D9269451DA22DECFA7
:1033B00060F0DDCF61F0040E626F010E636F1BECF5
:1033C000C1F0000120EE03F09351D9269451DA2286
:1033D000DECF60F0DDCF61F0060E626F000E636F2E
:1033E0001BECC1F032D0000120EE06F09351D9263B
:1033F0009451DA22DECF60F0DDCF61F0040E626F0F
:10340000010E636F1BECC1F0000120EE03F093513D
:10341000D9269451DA22DECF60F0DDCF61F0060EBE
:10342000626F010E636F1BECC1F00FD0000192516F
:10343000000AD8B46FD7010AD8B48FD7030AD8B41A
:10344000AFD7010AD8A41200CED7000120EE06F0B3
:103450009351D9269451DA22DECF60F0DDCF61F0AE
:10346000070E626F000E636F1BECC1F0000120EECF
:1034700006F09351D9269451DA22DECF60F0DDCFE9
:1034800061F0060E626F000E636F1BECC1F08DC021
:103490006DF08EC06EF08FC06FF090C070F098EC41
:1034A000AFF093C060F094C061F08AECC5F004D036
:1034B0009F860BD0A58E09D000019151000AD8B487
:1034C000F7D7010AD8A41200F5D793C060F094C0D2
:1034D00061F0FDECC4F093C0D9FF94C0DAFF000E98
:1034E000DF6E000120EE06F09351D9269451DA22C6
:1034F000DECF6BF0DDCF6CF0000E6D6F030E6E6FE4
:1035000020ECC6F0000120EE06F09351D92694512C
:10351000DA22DECF60F0DDCF61F0050E626F010EC2
:10352000636F1BECC1F0120000017151800B7A6FC8
:1035300071517125806F70BF80818051D8B40DD0DA
:103540008029D8A408D0000E6E6F000E6F6F000E99
:10355000706F000E716F708F08D0000E6E6F000ECE
:103560006F6F000E706F000E716F7551800B7A1BBC
:10357000755175257B6F74BF7B817B51D8B40DD09D
:103580007B29D8A408D0000E726F000E736F000E56
:10359000746F000E756F748F08D0000E726F000E7E
:1035A000736F000E746F000E756F7B51D8B403D02B
:1035B0008051D8A409D0000E6E6F000E6F6F000E00
:1035C000706F000E716F120074516E03F3CF85F0AF
:1035D000F4CF86F085517C6F7D6B7E6B7F6B86515F
:1035E000816F826B836B846B73516F03F3CF85F0B4
:1035F000F4CF86F085517C27000E7D237E237F2328
:1036000086518127000E8223832384237251700305
:10361000F3CF85F0F4CF86F085517C27000E7D2313
:103620007E237F2386518127000E822383238423D8
:103630007EC07FF07DC07EF07CC07DF07C6B7251DF
:103640006F03F3CF85F0F4CF86F085517C27865148
:103650007D23000E7E23000E7F2373516E03F3CF74
:1036600085F0F4CF86F085517C2786517D23000EAE
:103670007E23000E7F237EC07FF07DC07EF07CC065
:103680007DF07C6B72516E03F3CF85F0F4CF86F042
:1036900085517C2786517D23000E7E23000E7F23DB
:1036A00074516F03F3CF85F0F4CF86F085518127F5
:1036B00086518223000E8323000E842373517003EE
:1036C000F3CF85F0F4CF86F0855181278651822390
:1036D000000E8323000E842374517003F3CF85F012
:1036E000F4CF86F08551766F8651776F786B796B62
:1036F00078C079F077C078F076C077F0766B765145
:1037000081277751822378518323795184237CC088
:1037100076F07DC077F07EC078F07FC079F0190E2A
:1037200005D0D8907933783377337633E82EF9D7CC
:1037300076518127775182237851832379518423CD
:103740007EC07FF07DC07EF07CC07DF07C6B7B51C5
:1037500080C076F0776B7627000E7723820E762571
:10376000856FFF0E7721866F0FD0D8908137823713
:10377000833784377FBF8181D8907C377D377E3710
:103780007F378507D8A0860783AFEFD7000E7B6F02
:103790007FAF16D0FF0E7C15766FFF0E7D15776F0D
:1037A000FF0E7E15786F7F0E7F15796F765177113A
:1037B00078117911D8A402D081A102D0010E7B6FBB
:1037C0007B51D8B41FD0010E8127000E82238323A2
:1037D000842384A117D081C076F082C077F083C0A3
:1037E00078F084C079F0793579337833773376336C
:1037F00076C081F077C082F078C083F079C084F021
:10380000854B862B86BF0DD0865103E18529D8A034
:1038100008D0000E816F000E826F800E836F7F0EC6
:1038200020D086BF05D086510EE18505D8B00BD0DB
:10383000000E816F000E826F000E836F000E846F8A
:10384000000E7A6F0FD085C080F0FF0E8117FF0E3B
:1038500082177F0E8317000E841780B1838FD89054
:103860008031846F7A51841381C06EF082C06FF012
:1038700083C070F084C071F0120000018E51800B83
:103880009B6F8E518E259D6F8DBF9D819D51D8B4AC
:103890000DD09D29D8A408D0000E8B6F000E8C6F20
:1038A000000E8D6F000E8E6F8D8F06D0000E8B6F09
:1038B000000E8C6F000E8D6F000E8E6F9251800B7C
:1038C0009C6F9B519C19D8A49B8D925192259C6F03
:1038D00091BF9C819C51D8B40DD09C29D8A408D00C
:1038E000000E8F6F000E906F000E916F000E926FA2
:1038F000918F06D0000E8F6F000E906F000E916FAB
:10390000000E926F9D519C5DD8B022D09BAD02D02D
:10391000800E9B1B9DC09EF09CC09DF09EC09CF0A5
:103920008BC09EF08FC08BF09EC08FF08CC09EF03D
:1039300090C08CF09EC090F08DC09EF091C08DF034
:103940009EC091F08EC09EF092C08EF09EC092F00C
:10395000000E9E6F9D51936F946B931F941F934B1A
:10396000942B9C51956F966B935195279451962368
:1039700096BF2CD0965104E11A0E955DD8A026D0A2
:103980008B518C118D118E11D8B402D0010E01D043
:10399000000E9E6F000E8B6F000E8C6F000E8D6FF1
:1039A000000E8E6F9CC09DF015D09EA105D0D890C2
:1039B0009E3101099E6F02D0D8909E338BB19E8FAD
:1039C0008E358E338D338C338B339D2B9C519D5D87
:1039D000D8A0EBD79BBD29D09D51D8A409D0000E0B
:1039E0008B6F000E8C6F000E8D6F000E8E6F1200AD
:1039F0008F518B2790518C2391518D2392518E237F
:103A00008EA183D09EA106D0D8909E339E510109ED
:103A10009E6F02D0D8909E338BB19E8F8E358E33A1
:103A20008D338C338B339D2B70D08F518B5D9051A8
:103A30008C5991518D598E51800A936F9251800A01
:103A40009359D8B036D08BC093F08CC094F08DC011
:103A500095F08EC096F0931F941F951F961F932B81
:103A6000000E9423952396238F519325976F9051A1
:103A70009421986F91519521996F925196219A6F47
:103A8000FF0E97258B6FFF0E98218C6FFF0E9921EB
:103A90008D6FFF0E9A218E6F800E9B1B9E6D9E5127
:103AA000D8A40FD0010E8B27000E8C238D238E23DC
:103AB00008D08F518B5F90518C5B91518D5B9251EF
:103AC0008E5B8B518C118D118E11D8A41CD09E5100
:103AD000D8A419D0000E8B6F000E8C6F000E8D6F66
:103AE000000E8E6F1200D8908B378C378D378E3743
:103AF0009EBF8B819EA102D0D88001D0D8909E37E6
:103B00009D51D8A49D078DAFEED7000E9C6F9EAF40
:103B10000AD09EC093F07F0E9317D8A402D08BA139
:103B200002D0010E9C6F9C51D8B420D0010E8B277F
:103B3000000E8C238D238E238EA118D08BC093F082
:103B40008CC094F08DC095F08EC096F0963596336B
:103B500095339433933393C08BF094C08CF095C01D
:103B60008DF096C08EF09D29D8A49D2B9D29D8B4A8
:103B700003D09D51D8A40DD0000E8B6F000E8C6F1A
:103B8000000E8D6F000E8E6F9D51D8A402D0000ED6
:103B90009B6F9DA102D08D8F01D08D9FD8909D31BC
:103BA0008E6F9BBF8E8F8BC08BF08CC08CF08DC0C6
:103BB0008DF08EC08EF01200D8902E34D96E2F3436
:103BC000DA6E460ED926030EDA22DECFD7F0DDCF2D
:103BD000D8F00001D71FD81FD74BD82B0101445173
:103BE0000001D7250101446F45510001D821010191
:103BF000456F000E0001616F000E606FEBECC3F0CB
:103C0000D8902E34D96E2F34DA6E460ED926030E94
:103C1000DA22000160C0DEFF61C0DDFFD8902E34E3
:103C2000D96E2F34DA6E460ED926030EDA22DECF95
:103C3000D7F0DDCFD8F0010144510001D7250101B3
:103C4000446F45510001D8210101456F2E4A2F2AAA
:103C5000F4512E5C2F50800A0001D76F0101F551FD
:103C6000800A0001D759D8A004D0000E2F6E000E94
:103C70002E6E44C160F045C161F0F4C162F0F5C13F
:103C800063F054ECBBF060C02CF061C02DF02CC090
:103C900060F02DC061F00001000E61BFFF0E626F89
:103CA000636F010EA2ECADF060C0D9F061C0DAF034
:103CB00062C0DBF063C0DCF0000E0001C66F000ED6
:103CC000C76F000EC86F400EC96FD9C0C2F0DAC00E
:103CD000C3F0DBC0C4F0DCC0C5F091ECA6F0C2C0FC
:103CE000DDF0C3C0DEF0C4C0DFF0C5C0E0F02CC022
:103CF00060F02DC061F00001000E61BFFF0E626F29
:103D0000636F010EA2ECADF060C0E1F061C0E2F0C3
:103D100062C0E3F063C0E4F0000E0001C66F000E65
:103D2000C76F400EC86F400EC96FE1C0C2F0E2C05D
:103D3000C3F0E3C0C4F0E4C0C5F091ECA6F0C2C08B
:103D4000E5F0C3C0E6F0C4C0E7F0C5C0E8F0A60ED9
:103D50000001726F9B0E736FC40E746F3A0E756F15
:103D6000DDC06EF0DEC06FF0DFC070F0E0C071F05B
:103D700094EC9AF06EC08FF06FC090F070C091F02C
:103D800071C092F0870E0001726F970E736F710E03
:103D9000746FB50E756FE5C06EF0E6C06FF0E7C0EA
:103DA00070F0E8C071F094EC9AF06EC08BF06FC0C8
:103DB0008CF070C08DF071C08EF03DEC9CF08BC02B
:103DC000E9F08CC0EAF08DC0EBF08EC0ECF08C0E08
:103DD0000001726FB90E736F6B0E746F3F0E756FCB
:103DE0002CC060F02DC061F0000E61BFFF0E626F4D
:103DF000636F010EA2ECADF060C06EF061C06FF0B9
:103E000062C070F063C071F094EC9AF06EC087F0FD
:103E10006FC088F070C089F071C08AF015ECC5F0F1
:103E200087C08FF088C090F089C091F08AC092F06E
:103E3000E9C08BF0EAC08CF0EBC08DF0ECC08EF0E6
:103E40003DEC9CF08BC0EDF08CC0EEF08DC0EFF03F
:103E50008EC0F0F07B0E00018F6F540E906F630EDA
:103E6000916F430E926FEDC08BF0EEC08CF0EFC0FF
:103E70008DF0F0C08EF03DEC9CF08BC09FF08CC0BC
:103E8000A0F08DC0A1F08EC0A2F093ECB5F09FC061
:103E90002CF0A0C02DF02CC076F02DC077F0D9EC1E
:103EA000C5F07CECC4F0120000016351800B6C6F14
:103EB00063516325776F62BF77817751D8B40DD096
:103EC0007729D8A408D0000E606F000E616F000E35
:103ED000626F000E636F628F06D0000E606F000E7F
:103EE000616F000E626F000E636F6751800B6C1B79
:103EF00067516725786F66BF78817851D8B40DD047
:103F00007829D8A408D0000E646F000E656F000EEB
:103F1000666F000E676F668F06D0000E646F000E2E
:103F2000656F000E666F000E676F64516511661154
:103F30006711D8A415D0000E606F000E616F000EDF
:103F4000626F000E636F800E62137F0E631360C09A
:103F500060F061C061F062C062F063C063F01200A3
:103F60007751D8A411D0000E606F000E616F000E63
:103F7000626F000E636F60C060F061C061F062C08C
:103F800062F063C063F012007851686F696B681F5C
:103F9000691F684B692B77516A6F6B6B68516A2791
:103FA00069516B237F0E6A25716F000E6B21726F52
:103FB00060C06DF061C06EF062C06FF063C070F001
:103FC000000E606F000E616F000E626F000E636F77
:103FD000000E736F000E746F000E756F000E766F1B
:103FE000000E786F28D07851D8B411D0D8906D37A2
:103FF0006E376F377037D890603761376237633705
:1040000076BF6081D89073377437753776376451CF
:104010006D5D65516E5966516F5967517059D8A0E1
:1040200009D0768D64516D5F65516E5B66516F5B33
:104030006751705B782B190E7865D5D76D516E116D
:104040006F117011D8B411D073810FD0D890603730
:1040500061376237633776BF6081D89073377437C2
:10406000753776377107D8A0720762AFEFD7000EA9
:10407000786F76AF16D0FF0E7315686FFF0E74154C
:10408000696FFF0E75156A6F7F0E76156B6F68513D
:1040900069116A116B11D8A402D060A102D0010E7F
:1040A000786F7851D8B41FD0010E6027000E6123BD
:1040B0006223632363A117D060C068F061C069F018
:1040C00062C06AF063C06BF06B356B336A3369337F
:1040D000683368C060F069C061F06AC062F06BC0AC
:1040E00063F0714B722B72BF10D0725103E17129D2
:1040F000D8A00BD0000E726F7169000E606F000EB9
:10410000616F000E626F000E636F72BF05D0725157
:1041100011E17105D8B00ED0000E726F000E716FF4
:10412000000E606F000E616F000E626F000E636F15
:10413000000E6C6F71C077F077A102D0628F01D052
:10414000629FD8907731636F6C51631360C060F0E9
:1041500061C061F062C062F063C063F01200080EDB
:1041600000016F256C6F000E70216D6F000E6E6F79
:10417000CCECC4F00001866F8651726F736B0E0E2B
:10418000D89072377337E82EFBD78651746F756BF2
:104190000C0ED89074377537E82EFBD78651766FA2
:1041A000776B0A0ED89076377737E82EFBD7865193
:1041B000796F786B86517A6F7B6B060ED8907A3761
:1041C0007B37E82EFBD786517C6F7D6B7C3B7D3B3C
:1041D000F00E7D177C510F0B7D13F00E7C1786516E
:1041E0007E6F7F6BD8907E377F37D8907E377F3752
:1041F0008651806F816B7E5180137F5181137C517A
:1042000080137D5181137A5180137B518113785132
:104210008013795181137651801377518113745132
:1042200080137551811372518011826F7351811106
:10423000836F86C084F0856B080E6F256C6F000E4F
:1042400070216D6F010E6E6FCCECC4F00001726FC7
:10425000736BD89072377337D89072377337725147
:10426000841373518513080E6F256C6F000E702137
:104270006D6F020E6E6FCCECC4F00001726F736B49
:10428000723B733BF00E731772510F0B7313F00EEA
:1042900072177251841373518513080E6F256C6F5A
:1042A000000E70216D6F030E6E6FCCECC4F0000138
:1042B000726F736B060ED89072377337E82EFBD788
:1042C0007251841373518513080E6F256C6F000EA5
:1042D00070216D6F040E6E6FCCECC4F00001726F34
:1042E0007251746F736B7351841374518513080E7C
:1042F0006F256C6F000E70216D6F050E6E6FCCEC2C
:10430000C4F00001726F736B0A0ED8907237733766
:10431000E82EFBD77251841373518513080E6F2555
:104320006C6F000E70216D6F060E6E6FCCECC4F0DA
:104330000001726F736B0C0ED89072377337E82ED2
:10434000FBD77251841373518513080E6F256C6F60
:10435000000E70216D6F070E6E6FCCECC4F0000183
:10436000726F736B0E0ED89072377337E82EFBD7CF
:1043700072518413735185138451821944E185511C
:104380008319D8A4120030D020EE02F06F51D92644
:104390007051DA22DECF60F0DDCF61F071C062F0E3
:1043A00070ECC7F012000001711F20EE02F06F5197
:1043B000D9267051DA22DECF60F0DDCF61F071C016
:1043C00062F070ECC7F01200000120EE04F06F51B3
:1043D000D9267051DA22DECF60F0DDCF61F071C0F6
:1043E00062F070ECC7F0120000018651000AD8B4E8
:1043F0001200010AD8B4C8D7030AD8B4D4D7010A26
:10440000D8A41200E1D712000001606F7ED03F0EE9
:104410001200060E12005B0E12004F0E1200660E06
:1044200012006D0E12007D0E1200070E12007F0E9C
:1044300012006F0E12005F0E12007C0E1200580E5A
:1044400012005E0E12007B0E1200710E12006F0E33
:104450001200740E1200040E12000E0E12007A0EDC
:104460001200060E1200140E1200540E12005C0E02
:104470001200730E1200670E1200500E12006D0E25
:104480001200780E12001C0E1200620E12002A0E8C
:104490001200640E12006E0E12005B0E1200770EF8
:1044A00012007F0E1200390E12003F0E1200790E1C
:1044B0001200710E12003D0E1200760E1200060E52
:1044C00012001E0E1200570E1200380E1200760E49
:1044D0001200760E12003F0E1200730E12003F0EF5
:1044E0001200770E12006D0E1200310E12003E0EF9
:1044F00012003E0E12007E0E1200760E1200660EA4
:1045000012005B0E1200800E1200000160512E0A94
:10451000D8B4F9D71E0AD8B47AD7010AD8B479D753
:10452000030AD8B478D7010AD8B477D7070AD8B421
:1045300076D7010AD8B475D7030AD8B474D7010A5C
:10454000D8B473D70F0AD8B472D7010AD8B471D7C8
:10455000780AD8B4A4D7030AD8B4A3D7010AD8B428
:10456000A2D7070AD8B4A1D7010AD8B4A0D7030AA2
:10457000D8B49FD7010AD8B49ED70F0AD8B49DD714
:10458000010AD8B49CD7030AD8B49BD7010AD8B47F
:104590009AD7070AD8B499D7010AD8B498D7030A8A
:1045A000D8B497D7010AD8B496D71F0AD8B495D7EC
:1045B000010AD8B494D7030AD8B493D7010AD8B45F
:1045C00092D7070AD8B491D7010AD8B490D7030A72
:1045D000D8B48FD7010AD8B48ED70F0AD8B48DD7E4
:1045E000010AD8B48CD7030AD8B48BD73B0AD8B405
:1045F00022D7030AD8B421D7010AD8B420D7070A92
:10460000D8B41FD7010AD8B41ED7030AD8B41DD70F
:10461000010AD8B41CD70F0AD8B41BD7010AD8B4E2
:104620001AD7030AD8B419D7010AD8B418D7070A79
:10463000D8B417D7010AD8B416D7030AD8B415D7F7
:10464000010AD8B414D71F0AD8B413D7010AD8B4B2
:1046500012D7030AD8B411D7010AD8B410D7070A61
:10466000D8B40FD7010AD8B40ED7030AD8B40DD7DF
:10467000010AD8B40CD70F0AD8B40BD7010AD8B4A2
:104680000AD7030AD8B409D7000E12000001B751A7
:10469000B811B911BA11D8A409D0000EB76F000E25
:1046A000B86F800EB96F3F0EBA6F1200180E606FB0
:1046B000720E616F310E626F440E636FB7C064F0AB
:1046C000B8C065F0B9C066F0BAC067F010ECB2F0DF
:1046D0000001D8B00FD0000E01011B6F220E1A6F1F
:1046E000FF0E0001B76FFF0EB86F7F0EB96F7F0E20
:1046F000BA6F1200B7C060F0B8C061F0B9C062F024
:10470000BAC063F0870E646F480E656F3A0E666F2D
:10471000C40E676F10ECB2F00001D8B00FD0000EDD
:1047200001011B6F220E1A6F000E0001B76F000E01
:10473000B86F000EB96F000EBA6F1200BAAF02D098
:10474000010E01D0000EC16FC151D8B412D0B7C054
:1047500087F0B8C088F0B9C089F0BAC08AF015EC0B
:10476000C5F087C0B7F088C0B8F089C0B9F08AC07A
:10477000BAF0B7C06EF0B8C06FF0B9C070F0BAC090
:1047800071F03B0E0001726FAA0E736FB80E746F5A
:104790003F0E756F94EC9AF06EC0B7F06FC0B8F032
:1047A00070C0B9F071C0BAF0B7C0A9F0B8C0AAF033
:1047B000B9C0ABF0BAC0ACF0A1ECB2F0A9C0BBF08C
:1047C000AAC0BCF0ABC0BDF0ACC0BEF0BBC09FF097
:1047D000BCC0A0F0BDC0A1F0BEC0A2F093ECB5F08B
:1047E0009FC0BFF0A0C0C0F0B7C09FF0B8C0A0F09D
:1047F000B9C0A1F0BAC0A2F0BFC060F0C0C061F003
:104800000001000E61BFFF0E626F636F010EA2EC2C
:10481000ADF060C0A3F061C0A4F062C0A5F063C0B9
:10482000A6F0E2ECC2F09FC0B7F0A0C0B8F0A1C003
:10483000B9F0A2C0BAF0B7C09FF0B8C0A0F0B9C03C
:10484000A1F0BAC0A2F0070E0001A36FFE0EA46F84
:10485000000EA66F090EA56FB2ECB3F09FC0AFF0CB
:10486000A0C0B0F0A1C0B1F0A2C0B2F0BFC0B3F020
:10487000C0C0B4F0B1ECB4F0AFC0B7F0B0C0B8F0A5
:10488000B1C0B9F0B2C0BAF00001C151D8B42FD054
:10489000B72912E1B82910E17F0EB9190DE17F0E99
:1048A000BA19D8A409D0000EB76F000EB86F000E69
:1048B000B96F000EBA6F1200000E606F000E616FCC
:1048C000800E626F3F0E636FB7C064F0B8C065F0D2
:1048D000B9C066F0BAC067F054EC9FF060C0B7F0A2
:1048E00061C0B8F062C0B9F063C0BAF01200B7C0DE
:1048F000B7F0B8C0B8F0B9C0B9F0BAC0BAF0120099
:10490000050E00019A6FB8D020EE02F09651D9261C
:104910009751DA22DECF6BF0DDCF6CF098C06DF0EE
:104920000F0E6E6F20ECC6F0000120EE04F09651E1
:10493000D9269751DA22DECF6BF0DDCF6CF098C02C
:104940006DF0000E6E6F20ECC6F0A4D096C08FF014
:1049500097C090F098C091F0030E0001926F6CEC3C
:10496000C1F000019A6F9A51D8A4120020EE02F013
:104970009651D9269751DA22DECF6BF0DDCF6CF05D
:1049800098C06DF0000E6E6F20ECC6F0000120EEB6
:1049900004F09651D9269751DA22DECF6BF0DDCFA5
:1049A0006CF098C06DF0000E6E6F20ECC6F072D007
:1049B00096C08FF097C090F098C091F0030E000160
:1049C000926F6CECC1F000019A6F9A51D8A412005A
:1049D00020EE02F09651D9269751DA22DECF6BF005
:1049E000DDCF6CF098C06DF00F0E6E6F20ECC6F04E
:1049F000000120EE04F09651D9269751DA22DECF3D
:104A00006BF0DDCF6CF098C06DF00F0E6E6F20EC88
:104A1000C6F040D096C08FF097C090F098C091F04B
:104A2000030E0001926F6CECC1F000019A6F9A5175
:104A3000D8A4120020EE02F09651D9269751DA221E
:104A4000DECF6BF0DDCF6CF098C06DF0000E6E6FB6
:104A500020ECC6F0000120EE04F09651D9269751C3
:104A6000DA22DECF6BF0DDCF6CF098C06DF0000E77
:104A70006E6F20ECC6F00ED000019951000AD8B438
:104A800043D7010AD8B462D7030AD8B491D7010A30
:104A9000D8B4C0D7080E000196256F6F000E97217D
:104AA000706F9851040DF3CF71F099C072F043EC20
:104AB000C4F0080E000196256F6F000E9721706FED
:104AC0009851040DF328716F99C072F043ECC4F053
:104AD000080E000196256F6F000E9721706F985198
:104AE000040DF350020F716F99C072F043ECC4F0E3
:104AF000080E000196256F6F000E9721706F985178
:104B0000040DF350030F716F99C072F043ECC4F0C1
:104B10001200000E0001FB6F260EFA6F000EFD6FF3
:104B20002D0EFC6FF151F211D8A40AD0030EF31927
:104B3000F411D8A405D00101F605F711D8B413D0AB
:104B4000030E0001F119F211D8A405D0030EF319D8
:104B5000F411D8B408D0F151F211D8A41200F351D5
:104B6000F411D8A412003A50D8A46CD0000E000161
:104B7000AA6F2D0EA96FF3ECACF0000E0001F76FD9
:104B8000000EF66FF7BF06D0F7510AE10A0EF65D88
:104B9000D8B006D0DCEC9DF00001F64BF72BF2D735
:104BA000FA512C5C2D50800AF56FFB51800AF559A3
:104BB000D8B01BD0FF0E626F9C0E616FFF0E646F4A
:104BC0009C0E636F75ECC2F002D0DCEC9DF000012E
:104BD000FA512C5C2D50800AF56FFB51800AF55973
:104BE000D8A0F3D730ECC6F025D02C500001FC5DE6
:104BF000FD51800AF56F2D50800AF559D8B01AD0B2
:104C0000000E626F320E616F000E646F320E636FC2
:104C100075ECC2F002D0DCEC9DF02C500001FC5D84
:104C2000FD51800AF56F2D50800AF559D8A0F3D7B1
:104C300030ECC6F0FF0E0001AA6FD30EA96FF3ECA3
:104C4000ACF012003A04D8A41200FF0E0001AA6FC3
:104C5000D30EA96FF3ECACF0000E0001F96F000E5B
:104C6000F86FF9BF06D0F9510AE10A0EF85DD8B025
:104C700006D0DCEC9DF00001F84BF92BF2D7FA518D
:104C80002C5C2D50800AF56FFB51800AF559D8B085
:104C90001BD0FF0E626F9C0E616FFF0E646F9C0E47
:104CA000636F75ECC2F002D0DCEC9DF00001FA51AC
:104CB0002C5C2D50800AF56FFB51800AF559D8A065
:104CC000F3D730ECC6F025D02C500001FC5DFD512F
:104CD000800AF56F2D50800AF559D8B01AD0000E11
:104CE000626F320E616F000E646F320E636F75EC8F
:104CF000C2F002D0DCEC9DF02C500001FC5DFD51B7
:104D0000800AF56F2D50800AF559D8A0F3D730EC02
:104D1000C6F0000E0001AA6F2D0EA96FF3ECACF0E7
:104D20001200000E0001D26FC251C311C411C5118F
:104D3000D8A424D0000E606F000E616F000E626F69
:104D4000000E636FC6C064F0C7C065F0C8C066F0EF
:104D5000C9C067F010ECB2F00001D8A005D0000E79
:104D600001011B6F210E1A6F000E0001C26F000EB1
:104D7000C36F000EC46F000EC56F1200C651C7117D
:104D8000C811C911D8A409D0000EC26F000EC36F9C
:104D9000800EC46F3F0EC56F1200C5AF4FD0C6C0A6
:104DA0009FF0C7C0A0F0C8C0A1F0C9C0A2F093ECAA
:104DB000B5F09FC0D3F0A0C0D4F0A1C0D5F0A2C080
:104DC000D6F0D3C060F0D4C061F0D5C062F0D6C0D8
:104DD00063F0000EA2ECADF00001C65160190AE1CB
:104DE000C751611907E1C851621904E1C95163193A
:104DF000D8B40FD0000E01011B6F210E1A6F000EE8
:104E00000001C26F000EC36F000EC46F000EC56FAD
:104E10001200D351010BD26FC2C087F0C3C088F01B
:104E2000C4C089F0C5C08AF015ECC5F087C0C2F0D7
:104E300088C0C3F089C0C4F08AC0C5F0C2C0AFF05A
:104E4000C3C0B0F0C4C0B1F0C5C0B2F085ECABF0E7
:104E5000AFC0CAF0B0C0CBF0B1C0CCF0B2C0CDF0A2
:104E6000CAC06EF0CBC06FF0CCC070F0CDC071F096
:104E7000C6C072F0C7C073F0C8C074F0C9C075F086
:104E800094EC9AF06EC0CEF06FC0CFF070C0D0F04E
:104E900071C0D1F0CEC0B7F0CFC0B8F0D0C0B9F07B
:104EA000D1C0BAF046ECA3F0B7C0C2F0B8C0C3F0AE
:104EB000B9C0C4F0BAC0C5F00001D251D8B413D003
:104EC000C2C087F0C3C088F0C4C089F0C5C08AF0F2
:104ED00015ECC5F087C0C2F088C0C3F089C0C4F02B
:104EE0008AC0C5F01200C2C0C2F0C3C0C3F0C4C0C3
:104EF000C4F0C5C0C5F01200050E00019F6F6ED052
:104F000020EE02F09A51D9269B51DA22DECF9DF095
:104F1000DDCF9EF09DC0D9FF9EC0DAFFFF0E5CD0B2
:104F20009AC096F09BC097F0010E986F6CECC3F09E
:104F300000019F6F9F51D8A4120020EE02F09A51F9
:104F4000D9269B51DA22DECF9DF0DDCF9EF09DC0A9
:104F5000D9FF9EC0DAFF000EDF6E20EE04F02FD0E6
:104F60009AC096F09BC097F0020E986F6CECC3F05D
:104F700000019F6F9F51D8A4120020EE02F09A51B9
:104F8000D9269B51DA22DECF9DF0DDCF9EF09DC069
:104F9000D9FF9EC0DAFFFF0EDF6E20EE04F0B2D71D
:104FA0009AC096F09BC097F0000E986F6CECC3F01F
:104FB00000019F6F9F51D8A4120020EE02F09A5179
:104FC000D9269B51DA22DECF9DF0DDCF9EF09DC029
:104FD000D9FF9EC0DAFF000EDF6E0DD09C51000A93
:104FE000D8B48ED7010AD8B49BD7030AD8B4B8D79F
:104FF000010AD8B4D5D7080E9A256F6F000E9B21F1
:10500000706F000E716F9CC072F043ECC4F0080E1C
:1050100000019A256F6F000E9B21706F010E716F5A
:105020009CC072F043ECC4F0080E00019A256F6F2B
:10503000000E9B21706F020E716F9CC072F043ECEA
:10504000C4F0080E00019A256F6F000E9B21706F4F
:10505000030E716F9CC072F043ECC4F0080E0001A7
:105060009A256F6F000E9B21706F040E716F9CC0AC
:1050700072F043ECC4F0080E00019A256F6F000E29
:105080009B21706F050E716F9CC072F043ECC4F0F1
:10509000080E00019A256F6F000E9B21706F060E9F
:1050A000716F9CC072F043ECC4F0080E00019A25A9
:1050B0006F6F000E9B21706F070E716F9CC072F0B6
:1050C00043ECC4F012004E50D8B41200DAC186F09E
:1050D000DBC187F0DCC188F0DDC189F04450D8B471
:1050E00004D042C085F00F0E426E000E00018B6F9F
:1050F000B9D08B51020D280EF324D96E030EF42083
:10510000DA6EDECFF8F1DDCFF9F1000E8A6F130E03
:105110008A6501D09ED08B51140DF20E836F030E61
:10512000846FF3508327F45084238A51010DF35088
:105130008325D96EF4508421DA6EDFAE83D08B5193
:10514000140DF20E836F030E846FF3508327F45017
:1051500084238A51010DF3508325D96EF4508421A4
:10516000DA6E7F0EDF168B51140DF20E836F030E75
:10517000846FF3508327F45084238A51010DF35038
:105180008325D96EF4508421DA6EDF50D8B443D031
:1051900058C169F059C16AF086C06BF087C06CF0E5
:1051A00088C06DF089C06EF0E2C16FF0E3C170F0AD
:1051B000E4C171F0E5C172F0F1ECC0F000018B5177
:1051C000140DF20E836F030E846FF3508327F45097
:1051D00084238A51010DF3508325D96EF450842124
:1051E000DA6EDF5026ECB8F065C072F066C073F07E
:1051F00086C074F087C075F088C076F089C077F0FB
:10520000E2C178F0E3C179F0E4C17AF0E5C17BF066
:10521000D9ECBBF017D0000E00016A6F000E696F69
:1052200086C06BF087C06CF088C06DF089C06EF0EE
:10523000E2C16FF0E3C170F0E4C171F0E5C172F05A
:10524000F1ECC0F0060E00018627000E87238A2BA2
:105250005ED7080E8827000E8923000E876F060E82
:10526000866F8B2B8B51425CD8B043D74450D8B457
:105270001200000E446E85C042F0120086C0D9FFB5
:1052800087C0DAFFDECF8BF0DDCF8CF0050E00019A
:105290008A6FA7D020EE02F08651D9268751DA22F4
:1052A000DECF60F0DDCF61F088C062F0010E636F89
:1052B0001BECC1F0A4D08BC06FF08CC070F0010E5D
:1052C0000001716F88C072F0C2ECBEF000018A6FFD
:1052D0008A51D8A4120020EE02F08651D9268751B7
:1052E000DA22DECF60F0DDCF61F088C062F0000E20
:1052F000636F1BECC1F0000120EE04F08651D9264B
:105300008751DA22DECF60F0DDCF61F088C062F035
:10531000000E636F1BECC1F072D08BC06FF08CC0BD
:1053200070F0020E0001716F88C072F0C2ECBEF026
:1053300000018A6F8A51D8A4120020EE02F0865133
:10534000D9268751DA22DECF60F0DDCF61F088C048
:1053500062F0010E636F1BECC1F0000120EE04F05F
:105360008651D9268751DA22DECF60F0DDCF61F099
:1053700088C062F0010E636F1BECC1F040D08BC09F
:105380006FF08CC070F0000E0001716F88C072F079
:10539000C2ECBEF000018A6F8A51D8A4120020EE40
:1053A00002F08651D9268751DA22DECF60F0DDCFB8
:1053B00061F088C062F0000E636F1BECC1F0000169
:1053C00020EE04F08651D9268751DA22DECF60F034
:1053D000DDCF61F088C062F0000E636F1BECC1F09E
:1053E0000ED000018951000AD8B454D7010AD8B4AC
:1053F00062D7030AD8B491D7010AD8B4C0D7080E2F
:10540000000186256F6F000E8721706F88C071F0D4
:1054100089C072F043ECC4F01200D00E00019B6F03
:10542000030E9C6F000E9E6F020E9D6F740E9F6F99
:105430008F0EA06F010EA16FE20EA26F8D0EA36FF3
:10544000010EA46F040EA56F140EA66F000EA76FB9
:1054500024ECB7F0B20E00019B6F030E9C6F000EA0
:105460009E6F020E9D6F740E9F6F8F0EA06F010EC8
:10547000A16F320EA26F8E0EA36F010EA46F040EE9
:10548000A56F140EA66F000EA76F24ECB7F0A80E40
:1054900000019B6F030E9C6F000E9E6F020E9D6FAE
:1054A000740E9F6F8F0EA06F010EA16F1E0EA26F64
:1054B0008E0EA36F010EA46F040EA56F140EA66FBF
:1054C000000EA76F24ECB7F0BC0E00019B6F030E1B
:1054D0009C6F000E9E6F020E9D6F740E9F6F8F0E5D
:1054E000A06F010EA16F0A0EA26F8E0EA36F010EA8
:1054F000A46F040EA56F140EA66F000EA76F24EC08
:10550000B7F0C60E00019B6F030E9C6F000E9E6FDE
:10551000020E9D6F740E9F6F8F0EA06F010EA16F14
:10552000F60EA26F8D0EA36F010EA46F040EA56F71
:10553000140EA66F000EA76F24ECB7F0A00E0001AA
:105540008D6F860E8E6F010E8F6F000E906F000EA6
:10555000916F020E926FC2EC98F0C80E00016F6F4F
