:0614000055EF0AF0120096
:101408005182FACF17F0FBCF18F0E9CF19F0EACFE5
:101418001AF0E1CF1BF0E2CF1CF0D9CF1DF0DACFE4
:101428001EF0F3CF1FF0F4CF20F0F6CF21F0F7CF66
:1014380022F0F8CF23F0F5CF24F051C025F052C0A8
:1014480026F053C027F054C028F0F292F2B4F2AA62
:1014580002D0FEECABF028C054F027C053F026C0F1
:1014680052F025C051F024C0F5FF23C0F8FF22C078
:10147800F7FF21C0F6FF20C0F4FF1FC0F3FF1EC016
:10148800DAFF1DC0D9FF1CC0E2FF1BC0E1FF1AC074
:10149800EAFF19C0E9FF18C0FBFF17C0FAFF519215
:0614A8001100A1EFA0F00D
:10FB180000001180002C0100B10200350036000001
:10FB2800B202003500360000B3020035003600028C
:10FB3800003500360000B4000000C0A200020084B6
:10FB48000000C1C50000C20D00000000C38D002ADE
:10FB58000000C48D00EE0000C50A000036C8000091
:10FB6800E012001C001000180033002C00250028AB
:10FB780000280027002F003C0000000300030010AD
:10FB8800008000780000E112001C00100018002D11
:10FB980000280023002800280026002F003B000032
:10FBA80000030003001000003A0500002A000002CC
:10FBB8000000008100002B000003000000A20000EC
:10FBC80029002C02000400080010002000400080DA
:10FBD8000000010001020001000100020200000310
:10FBE80003030001000A006400E803102700010372
:10FBF800070F1F3F7FFF00020103010410000000F0
:10FC0800000000005F00000007000700147F147F59
:10FC180014242A7F2A122313086462364955225075
:10FC28000005030000001C2241000041221C0008BE
:10FC38002A1C2A0808083E08080050300000080856
:10FC4800080808006060000020100804023E5149BE
:10FC5800453E00427F400042615149462141454BA3
:10FC6800311814127F1027454545393C4A49493017
:10FC780001710905033649494936064949291E00D3
:10FC880036360000005636000000081422411414CD
:10FC9800141414412214080002015109063249794A
:10FCA800413E7E1111117E7F494949363E4141410D
:10FCB800227F4141221C7F494949417F09090101AD
:10FCC8003E414151327F0808087F00417F410020B2
:10FCD80040413F017F081422417F404040407F025D
:10FCE80004027F7F0408107F3E4141413E7F09099D
:10FCF80009063E4151215E7F09192946464949496D
:10FD08003101017F01013F4040403F1F2040201F3B
:10FD18007F2018207F6314081463030478040361A8
:10FD28005149454300007F414102040810204141E8
:10FD38007F000004020102044040404040000102EC
:10FD4800040020545454787F484444383844444488
:10FD580020384444487F3854545418087E09010216
:10FD6800081454543C7F0804047800447D40002063
:10FD780040443D00007F10284400417F40007C043F
:10FD88001804787C0804047838444444387C1414F3
:10FD98001408081414187C7C0804040848545454A3
:10FDA80020043F4440203C4040207C1C2040201C34
:10FDB8003C4030403C44281028440C5050503C44AF
:10FDC80064544C44000836410000007F00000041A4
:10FDD80036080008082A1C08081C2A0808000080A1
:10FDE8003F1872313FF0FD753E4758633D58951DE9
:10FDF8003C82C4AE3AA8782139EF938037A092A705
:10FE0800354656153400000000C4FF7F3F80EFFFE1
:10FE1800BE90E1A93EEC8276BE82AD2B3E0E3CC37D
:10FE2800BD87D1133D4178D3BB00FCFF0F0000FF15
:10FE3800FFF0FF00FFFF00436F756C64206E6F7466
:10FE480020726574726965766520646174612C201E
:10FE5800537461636B20697320656D7074792E0A21
:10FE680000436F756C64206E6F7420696E736572E1
:10FE78007420646174612C20537461636B2069730E
:10FE88002066756C6C2E0A000A54686520436C6FF6
:10FE9800736573206F626A65637420286D6D293AF3
:10FEA800202564000A537465707320547261766566
:10FEB8006C6C65643A202564200A0A000A5374654C
:10FEC80070732054726176656C6C65643A202564A1
:10FED80000486F6D655F426173655F537461746557
:10FEE8003A20256400537465707065642033363099
:10FEF8002064656772656573000A486F6D65204206
:10FF080061736520666F756E640A200053656E73B1
:10FF18006F72204D6F76696E67212020200A000AD3
:10FF2800476F696E67206261636B20746F3A2025A2
:10FF380064000A20466F756E6420466C61673A203B
:10FF48002564007265763A2564205461723A20254A
:10FF5800640A00526F626F742052656164792120CF
:10FF68000A0A000A446573697265643A20256400C8
:10FF780057414C4C20464F554E440A000A4E4F54A8
:10FF880048494E4721212100506F733A2025642C9F
:10FF9800202564000A4144433A202564200A0A00C7
:10FFA8000A53706565643A202564000A4572726FC9
:10FFB800723A202564000A53746570732025640022
:10FFC8000A73706431202564000A73706432202536
:10FFD80064000A466C6167202564000A4144432096
:10FFE80025640064726976696E67002564200A00DA
:08FFF8002564090025630000E7
:020000040001F9
:10000000000E0201E36F000EE26F000EE56F000EBE
:10001000E46F0101F3510001F1191AE10101F451FA
:100020000001F219D8A414D0990E756FFF0E766FE7
:10003000F7C077F0F8C078F0F8EC95F0EB0E00011F
:10004000756FFF0E766FF8EC95F01BEC92F093D085
:10005000F3C1F9F0F4C1FAF00001F91FFA1FF94BEE
:10006000FA2BF151F9250201E46F0001F251FA2156
:100070000201E56FE5AF3AD0E4C2F9F0E5C2FAF06B
:100080000001F91FFA1FF94BFA2BF9C060F0FAC012
:1000900061F0000E636F530E626FD6ECABF060C080
:1000A000E4F261C0E5F2000E0201DB6F010EDA6FCF
:1000B000E5BF4ED0E55104E1A70EE45DD8A048D0DD
:1000C000E4C2F9F0E5C2FAF00001F91FFA1FF94B9A
:1000D000FA2B4C0EF9250201E46F010E0001FA2102
:1000E0000201E56F000EDB6F000E31D0E4C260F05C
:1000F000E5C261F0000E0001636F530E626FD6EC33
:10010000ABF060C0E4F261C0E5F2000E0201DB6F0B
:10011000000EDA6FE5BF1CD0E55104E1A70EE45DE7
:10012000D8A016D0E4C2F9F0E5C2FAF00001F91F38
:10013000FA1FF94BFA2B4C0EF9250201E46F010E60
:100140000001FA210201E56F000EDB6F010EDA6F8C
:10015000E4C261F0E5C262F0000E0001646FC80EF7
:10016000636FDAC265F0DBC266F00EECA4F0F1C09A
:10017000F3F1F2C0F4F1F7C061F0F8C062F0F7C03B
:1001800063F0F8C064F0E2ECA8F0000E01013B6FF0
:10019000020E3A6F000E0201DD6F000EDC6F000EE2
:1001A000DF6F000EDE6F8CD1A9EC87F03EC1F9F055
:1001B0003FC1FAF00001F91FFA1FF94BFA2B2C503E
:1001C000F9250201E66F2D500001FA210201E76FC7
:1001D000E6C260F0E7C261F03AC162F03BC163F091
:1001E000D6ECABF060C0E6F261C0E7F20201E7BF17
:1001F0000AD0E75104E1BF0EE65DD8A004D0000E9E
:10020000E76FBE0EE66FE7AF0AD0420EE65DFF0E67
:10021000E759D8B004D0FF0EE76F420EE66F040E28
:100220002C240001F96F000E2D20FA6F0201E65117
:100230000001F91906E10201E7510001FA19D8B4E9
:1002400017D0FC0EF96FFF0EFA6F2CC0FBF02DC01B
:10025000FCF0F951FB27FA51FC230201E6510001A1
:10026000FB1910E10201E7510001FC19D8A40AD0E2
:10027000F7C061F0F8C062F0F7C063F0F8C064F056
:10028000E2ECA8F00201E7BF1CD0E6C2F9F0E7C239
:10029000FAF00001F91FFA1FF94BFA2BF751F92573
:1002A0000201DC6F0001F851FA210201DD6FDCC2AE
:1002B00061F0DDC262F0F7C063F0F8C064F0E2EC18
:1002C000A8F00201E7BF05D0E75125E1E605D8B067
:1002D00022D0E7AF04D0E66DE71FD8B0E72BE6C227
:1002E000F9F0E7C2FAF00001F91FFA1FF94BFA2BF7
:1002F000F751F9250201DE6F0001F851FA210201E0
:10030000DF6FF7C061F0F8C062F0DEC263F0DFC2F9
:1003100064F0E2ECA8F0FC0E0001756FFF0E766F42
:10032000000E786F230E776FF8EC95F033ECA6F0A3
:10033000000161510201E227000162510201E32341
:10034000F30E0001756FFF0E766FE2C277F0E3C225
:1003500078F0F8EC95F0C80E0001756FFF0E766F1F
:10036000DCC277F0DDC278F0F8EC95F0D10E000138
:10037000756FFF0E766FDEC277F0DFC278F0F8ECB3
:1003800095F0E30E0001756FFF0E766F3EC177F0BA
:100390003FC178F0F8EC95F06B0E0001756FFF0E21
:1003A000766F2CC077F02DC078F0F8EC95F0A80EA1
:1003B0000001756FFF0E766FF7C077F0F8C078F028
:1003C000F8EC95F0B30E0001756FFF0E766FE6C284
:1003D00077F0E7C278F0F8EC95F01BEC92F038EC8F
:1003E000ACF0000161516211D8B46AD0000E020174
:1003F000E16F000EE06F780E0001756FFF0E766FF3
:10040000F8EC95F01BEC92F0F7C0F9F0F8C0FAF0B8
:100410000001F91FFA1FF94BFA2BF9C061F0FAC07D
:1004200062F0F7C0FBF0F8C0FCF0FB1FFC1FFB4BB9
:10043000FC2BFBC063F0FCC064F0E2ECA8F033ECF2
:10044000A6F028D033ECA6F0000161510201E027AC
:10045000000162510201E1231BEC92F0FC0E00014D
:10046000756FFF0E766F000E786F230E776FF8ECC6
:1004700095F04B0E0001756FFF0E766FE0C277F0BE
:10048000E1C278F0E2C279F0E3C27AF0F8EC95F0DC
:100490001BEC92F0E2C2F9F0E3C2FAF00001F91F9E
:1004A000FA1FF94BFA2BF9510201E05DE151800A84
:1004B0000001FB6FFA51800AFB59D8A01200C2D785
:1004C0000001F3510201E25DE351800A0001F96F7E
:1004D000F451800AF959D8A067D6F151F211D8A485
:1004E00004D03006D8A0310617D0F105F211D8A4F7
:1004F00003D02E4A2F2A10D0020EF119F211D8A4DF
:1005000003D0304A312A08D0030EF119F211D8A4D1
:1005100003D02E06D8A02F064AECACF012000AD069
:10052000610E0001936F010E03D06C0E936F010EEC
:10053000946F08D000019151000AD8B4F1D7010A94
:10054000D8B4F3D720EE02F09351D9269451DA2291
:1005500091C0DFFF93D09F0E866F010E876F020E52
:10056000886F030E896FF7EC92F09F0E0001866F83
:10057000010E876F030E886F030E896FF7EC92F000
:100580009F0E0001866F010E876F050E886F030EA8
:10059000896FF7EC92F09F0E0001866F010E876F56
:1005A000040E886F000E896FF7EC92F0000120EEC8
:1005B00003F09351D9269451DA22C70EDE6E0F0E46
:1005C000DD6E20EE06F09351D9269451DA22C60E44
:1005D000DE6E0F0EDD6E20EE09F09351D926945198
:1005E000DA22C90E47D08B0E866F010E876F070E79
:1005F000886F030E896FF7EC92F08B0E0001866F07
:10060000010E876F060E886F030E896FF7EC92F06C
:100610008B0E0001866F010E876F040E886F030E2C
:10062000896FF7EC92F08B0E0001866F010E876FD9
:10063000050E886F000E896FF7EC92F0000120EE36
:1006400003F09351D9269451DA226D0EDE6E0F0E0F
:10065000DD6E20EE06F09351D9269451DA226C0E0D
:10066000DE6E0F0EDD6E20EE09F09351D926945107
:10067000DA226F0EDE6E0F0EDD6E08D09151000A89
:10068000D8B469D7010AD8A41200ADD720EE06F07D
:100690009351D9269451DA22DECF60F0DDCF61F09C
:1006A000050E626F000E636FF5ECA7F08CD00001B1
:1006B00020EE06F09351D9269451DA22DECF60F075
:1006C000DDCF61F0040E626F000E636FF5ECA7F0F2
:1006D000000120EE03F09351D9269451DA22DECFA7
:1006E00060F0DDCF61F0060E626F000E636FF5EC17
:1006F000A7F078D0000120EE06F09351D92694514E
:10070000DA22DECF60F0DDCF61F0040E626F000E02
:10071000636FF5ECA7F0000120EE03F09351D926AA
:100720009451DA22DECF60F0DDCF61F0060E626F09
:10073000010E636FF5ECA7F055D0000120EE06F036
:100740009351D9269451DA22DECF60F0DDCF61F0EB
:10075000040E626F010E636FF5ECA7F0000120EE4E
:1007600003F09351D9269451DA22DECF60F0DDCF29
:1007700061F0060E626F000E636FF5ECA7F032D0E9
:10078000000120EE06F09351D9269451DA22DECFF3
:1007900060F0DDCF61F0040E626F010E636FF5EC67
:1007A000A7F0000120EE03F09351D9269451DA22EC
:1007B000DECF60F0DDCF61F0060E626F010E636F79
:1007C000F5ECA7F00FD000019251000AD8B46FD712
:1007D000010AD8B48FD7030AD8B4AFD7010AD8A476
:1007E0001200CED7000120EE06F09351D926945185
:1007F000DA22DECF60F0DDCF61F0070E626F000E0F
:10080000636FF5ECA7F0000120EE06F09351D926B6
:100810009451DA22DECF60F0DDCF61F0060E626F18
:10082000000E636FF5ECA7F08DC06DF08EC06EF01A
:100830008FC06FF090C070F0A2EC98F093C060F0A1
:1008400094C061F0EAECABF004D09F860BD0A58E8B
:1008500009D000019151000AD8B4F7D7010AD8A4F1
:100860001200F5D793C060F094C061F079ECABF062
:1008700093C0D9FF94C0DAFF000EDF6E000120EEB6
:1008800006F09351D9269451DA22DECF6BF0DDCFFA
:100890006CF0000E6D6F030E6E6F7AECACF0000121
:1008A00020EE06F09351D9269451DA22DECF60F083
:1008B000DDCF61F0050E626F010E636FF5ECA7F0FE
:1008C000120000017151800B7A6F71517125806F98
:1008D00070BF80818051D8B40DD08029D8A408D0B1
:1008E000000E6E6F000E6F6F000E706F000E716F56
:1008F000708F08D0000E6E6F000E6F6F000E706F5D
:10090000000E716F7551800B7A1B755175257B6FC9
:1009100074BF7B817B51D8B40DD07B29D8A408D07B
:10092000000E726F000E736F000E746F000E756F05
:10093000748F08D0000E726F000E736F000E746F0C
:10094000000E756F7B51D8B403D08051D8A409D064
:10095000000E6E6F000E6F6F000E706F000E716FE5
:10096000120074516E03F3CF85F0F4CF86F08551F9
:100970007C6F7D6B7E6B7F6B8651816F826B836B2F
:10098000846B73516F03F3CF85F0F4CF86F08551FC
:100990007C27000E7D237E237F2386518127000E36
:1009A00082238323842372517003F3CF85F0F4CF25
:1009B00086F085517C27000E7D237E237F23865180
:1009C0008127000E8223832384237EC07FF07DC095
:1009D0007EF07CC07DF07C6B72516F03F3CF85F0AD
:1009E000F4CF86F085517C2786517D23000E7E232F
:1009F000000E7F2373516E03F3CF85F0F4CF86F0A2
:100A000085517C2786517D23000E7E23000E7F2397
:100A10007EC07FF07DC07EF07CC07DF07C6B72512B
:100A20006E03F3CF85F0F4CF86F085517C27865195
:100A30007D23000E7E23000E7F2374516F03F3CFBE
:100A400085F0F4CF86F08551812786518223000EF0
:100A50008323000E842373517003F3CF85F0F4CF0A
:100A600086F08551812786518223000E8323000E54
:100A7000842374517003F3CF85F0F4CF86F0855151
:100A8000766F8651776F786B796B78C079F077C025
:100A900078F076C077F0766B765181277751822394
:100AA00078518323795184237CC076F07DC077F020
:100AB0007EC078F07FC079F0190E05D0D8907933D8
:100AC000783377337633E82EF9D77651812777510B
:100AD000822378518323795184237EC07FF07DC0A7
:100AE0007EF07CC07DF07C6B7B5180C076F0776BB4
:100AF0007627000E7723820E7625856FFF0E7721ED
:100B0000866F0FD0D89081378237833784377FBF85
:100B10008181D8907C377D377E377F378507D8A095
:100B2000860783AFEFD7000E7B6F7FAF16D0FF0E27
:100B30007C15766FFF0E7D15776FFF0E7E15786F33
:100B40007F0E7F15796F7651771178117911D8A4BE
:100B500002D081A102D0010E7B6F7B51D8B41FD08F
:100B6000010E8127000E82238323842384A117D0C2
:100B700081C076F082C077F083C078F084C079F0CD
:100B80007935793378337733763376C081F077C02F
:100B900082F078C083F079C084F0854B862B86BFC5
:100BA0000DD0865103E18529D8A008D0000E816FB1
:100BB000000E826F800E836F7F0E20D086BF05D01F
:100BC00086510EE18505D8B00BD0000E816F000E66
:100BD000826F000E836F000E846F000E7A6F0FD04D
:100BE00085C080F0FF0E8117FF0E82177F0E8317DE
:100BF000000E841780B1838FD8908031846F7A5132
:100C0000841381C06EF082C06FF083C070F084C026
:100C100071F0120000018E51800B9B6F8E518E255A
:100C20009D6F8DBF9D819D51D8B40DD09D29D8A4B5
:100C300008D0000E8B6F000E8C6F000E8D6F000EB3
:100C40008E6F8D8F06D0000E8B6F000E8C6F000E96
:100C50008D6F000E8E6F9251800B9C6F9B519C1973
:100C6000D8A49B8D925192259C6F91BF9C819C51E1
:100C7000D8B40DD09C29D8A408D0000E8F6F000ED8
:100C8000906F000E916F000E926F918F06D0000E44
:100C90008F6F000E906F000E916F000E926F9D513E
:100CA0009C5DD8B022D09BAD02D0800E9B1B9DC016
:100CB0009EF09CC09DF09EC09CF08BC09EF08FC0AB
:100CC0008BF09EC08FF08CC09EF090C08CF09EC0C8
:100CD00090F08DC09EF091C08DF09EC091F08EC0BE
:100CE0009EF092C08EF09EC092F0000E9E6F9D51BD
:100CF000936F946B931F941F934B942B9C51956F00
:100D0000966B935195279451962396BF2CD096516C
:100D100004E11A0E955DD8A026D08B518C118D114F
:100D20008E11D8B402D0010E01D0000E9E6F000EBD
:100D30008B6F000E8C6F000E8D6F000E8E6F9CC03F
:100D40009DF015D09EA105D0D8909E3101099E6FCF
:100D500002D0D8909E338BB19E8F8E358E338D33DB
:100D60008C338B339D2B9C519D5DD8A0EBD79BBDC5
:100D700029D09D51D8A409D0000E8B6F000E8C6F26
:100D8000000E8D6F000E8E6F12008F518B279051C9
:100D90008C2391518D2392518E238EA183D09EA1BD
:100DA00006D0D8909E339E5101099E6F02D0D890F4
:100DB0009E338BB19E8F8E358E338D338C338B3338
:100DC0009D2B70D08F518B5D90518C5991518D59C5
:100DD0008E51800A936F9251800A9359D8B036D0C1
:100DE0008BC093F08CC094F08DC095F08EC096F0BF
:100DF000931F941F951F961F932B000E94239523EA
:100E000096238F519325976F90519421986F91510C
:100E10009521996F925196219A6FFF0E97258B6FAE
:100E2000FF0E98218C6FFF0E99218D6FFF0E9A2176
:100E30008E6F800E9B1B9E6D9E51D8A40FD0010E0D
:100E40008B27000E8C238D238E2308D08F518B5F30
:100E500090518C5B91518D5B92518E5B8B518C11BB
:100E60008D118E11D8A41CD09E51D8A419D0000E7B
:100E70008B6F000E8C6F000E8D6F000E8E6F120048
:100E8000D8908B378C378D378E379EBF8B819EA144
:100E900002D0D88001D0D8909E379D51D8A49D070C
:100EA0008DAFEED7000E9C6F9EAF0AD09EC093F020
:100EB0007F0E9317D8A402D08BA102D0010E9C6F95
:100EC0009C51D8B420D0010E8B27000E8C238D238B
:100ED0008E238EA118D08BC093F08CC094F08DC05F
:100EE00095F08EC096F096359633953394339333C0
:100EF00093C08BF094C08CF095C08DF096C08EF0AE
:100F00009D29D8A49D2B9D29D8B403D09D51D8A448
:100F10000DD0000E8B6F000E8C6F000E8D6F000ECB
:100F20008E6F9D51D8A402D0000E9B6F9DA102D060
:100F30008D8F01D08D9FD8909D318E6F9BBF8E8FEE
:100F40008BC08BF08CC08CF08DC08DF08EC08EF07D
:100F50001200D8903234D96E3334DA6E6E0ED92640
:100F6000020EDA22DECFD7F0DDCFD8F00001D71F96
:100F7000D81FD74BD82B010140510001D7250101C3
:100F8000406F41510001D8210101416F000E000165
:100F9000616F000E606F37ECAAF0D8903234D96ED2
:100FA0003334DA6E6E0ED926020EDA22000160C0EA
:100FB000DEFF61C0DDFFD8903234D96E3334DA6E93
:100FC0006E0ED926020EDA22DECFD7F0DDCFD8F0B2
:100FD000010140510001D7250101406F415100013D
:100FE000D8210101416F324A332AF151325C33502A
:100FF000800A0001D76F0101F251800A0001D75920
:10100000D8A004D0000E336E000E326E40C160F0E6
:1010100041C161F0F1C162F0F2C163F092ECA2F063
:1010200060C03EF161C03FF13EC160F03FC161F080
:101030000001000E61BFFF0E626F636F010EACEC2A
:1010400096F060C0D9F061C0DAF062C0DBF063C036
:10105000DCF0000E0001C66F000EC76F000EC86FF7
:10106000400EC96FD9C0C2F0DAC0C3F0DBC0C4F013
:10107000DCC0C5F049EC90F0C2C0DDF0C3C0DEF0CA
:10108000C4C0DFF0C5C0E0F03EC160F03FC161F018
:101090000001000E61BFFF0E626F636F010EACECCA
:1010A00096F060C0E1F061C0E2F062C0E3F063C0BE
:1010B000E4F0000E0001C66F000EC76F400EC86F4F
:1010C000400EC96FE1C0C2F0E2C0C3F0E3C0C4F09B
:1010D000E4C0C5F049EC90F0C2C0E5F0C3C0E6F052
:1010E000C4C0E7F0C5C0E8F0A60E0001726F9B0E09
:1010F000736FC40E746F3A0E756FDDC06EF0DEC094
:101100006FF0DFC070F0E0C071F061EC84F06EC091
:101110008FF06FC090F070C091F071C092F0870EA8
:101120000001726F970E736F710E746FB50E756F4D
:10113000E5C06EF0E6C06FF0E7C070F0E8C071F097
:1011400061EC84F06EC08BF06FC08CF070C08DF0DD
:1011500071C08EF00AEC86F08BC0E9F08CC0EAF02A
:101160008DC0EBF08EC0ECF08C0E0001726FB90EEA
:10117000736F6B0E746F3F0E756F3EC160F03FC1B1
:1011800061F0000E61BFFF0E626F636F010EACEC89
:1011900096F060C06EF061C06FF062C070F063C026
:1011A00071F061EC84F06EC087F06FC088F070C0A1
:1011B00089F071C08AF049ECABF087C08FF088C02D
:1011C00090F089C091F08AC092F0E9C08BF0EAC03B
:1011D0008CF0EBC08DF0ECC08EF00AEC86F08BC08A
:1011E000EDF08CC0EEF08DC0EFF08EC0F0F07B0E15
:1011F00000018F6F540E906F630E916F430E926FCC
:10120000EDC08BF0EEC08CF0EFC08DF0F0C08EF032
:101210000AEC86F08BC09FF08CC0A0F08DC0A1F0CE
:101220008EC0A2F08FEC9DF09FC03EF1A0C03FF1B8
:101230003EC176F03FC177F025ECACF0C8ECAAF0E7
:10124000120000016351800B6C6F63516325776F4F
:1012500062BF77817751D8B40DD07729D8A408D050
:10126000000E606F000E616F000E626F000E636F04
:10127000628F06D0000E606F000E616F000E626F0D
:10128000000E636F6751800B6C1B67516725786F89
:1012900066BF78817851D8B40DD07829D8A408D009
:1012A000000E646F000E656F000E666F000E676FB4
:1012B000668F06D0000E646F000E656F000E666FBD
:1012C000000E676F6451651166116711D8A415D0BF
:1012D000000E606F000E616F000E626F000E636F94
:1012E000800E62137F0E631360C060F061C061F016
:1012F00062C062F063C063F012007751D8A411D0CD
:10130000000E606F000E616F000E626F000E636F63
:1013100060C060F061C061F062C062F063C063F001
:1013200012007851686F696B681F691F684B692BE1
:1013300077516A6F6B6B68516A2769516B237F0E17
:101340006A25716F000E6B21726F60C06DF061C015
:101350006EF062C06FF063C070F0000E606F000E40
:10136000616F000E626F000E636F000E736F000EF0
:10137000746F000E756F000E766F000E786F28D0B8
:101380007851D8B411D0D8906D376E376F37703729
:10139000D890603761376237633776BF6081D89005
:1013A000733774377537763764516D5D65516E5993
:1013B00066516F5967517059D8A009D0768D645124
:1013C0006D5F65516E5B66516F5B6751705B782B2B
:1013D000190E7865D5D76D516E116F117011D8B493
:1013E00011D073810FD0D89060376137623763377F
:1013F00076BF6081D8907337743775377637710749
:10140000D8A0720762AFEFD7000E786F76AF16D014
:10141000FF0E7315686FFF0E7415696FFF0E75155B
:101420006A6F7F0E76156B6F685169116A116B11C7
:10143000D8A402D060A102D0010E786F7851D8B440
:101440001FD0010E6027000E61236223632363A176
:1014500017D060C068F061C069F062C06AF063C014
:101460006BF06B356B336A336933683368C060F097
:1014700069C061F06AC062F06BC063F0714B722B9F
:1014800072BF10D0725103E17129D8A00BD0000EA9
:10149000726F7169000E606F000E616F000E626FF7
:1014A000000E636F72BF05D0725111E17105D8B0A3
:1014B0000ED0000E726F000E716F000E606F000E86
:1014C000616F000E626F000E636F000E6C6F71C073
:1014D00077F077A102D0628F01D0629FD8907731E8
:1014E000636F6C51631360C060F061C061F062C0F3
:1014F00062F063C063F01200080E00016F256C6F8C
:10150000000E70216D6F000E6E6F18ECABF00001D5
:10151000866F8651726F736B0E0ED8907237733769
:10152000E82EFBD78651746F756B0C0ED89074370C
:101530007537E82EFBD78651766F776B0A0ED890F9
:1015400076377737E82EFBD78651796F786B8651DF
:101550007A6F7B6B060ED8907A377B37E82EFBD7F5
:1015600086517C6F7D6B7C3B7D3BF00E7D177C5103
:101570000F0B7D13F00E7C1786517E6F7F6BD8901A
:101580007E377F37D8907E377F378651806F816B6B
:101590007E5180137F5181137C5180137D518113C3
:1015A0007A5180137B5181137851801379518113C3
:1015B00076518013775181137451801375518113C3
:1015C00072518011826F73518111836F86C084F0D4
:1015D000856B080E6F256C6F000E70216D6F010E0C
:1015E0006E6F18ECABF00001726F736BD8907237AE
:1015F0007337D890723773377251841373518513D0
:10160000080E6F256C6F000E70216D6F020E6E6FED
:1016100018ECABF00001726F736B723B733BF00E12
:10162000731772510F0B7313F00E721772518413EC
:1016300073518513080E6F256C6F000E70216D6F4E
:10164000030E6E6F18ECABF00001726F736B060E39
:10165000D89072377337E82EFBD7725184137351C9
:101660008513080E6F256C6F000E70216D6F040ED0
:101670006E6F18ECABF00001726F7251746F736B88
:101680007351841374518513080E6F256C6F000E0F
:1016900070216D6F050E6E6F18ECABF00001726F6C
:1016A000736B0A0ED89072377337E82EFBD77251DE
:1016B000841373518513080E6F256C6F000E702113
:1016C0006D6F060E6E6F18ECABF00001726F736BEE
:1016D0000C0ED89072377337E82EFBD772518413F3
:1016E00073518513080E6F256C6F000E70216D6F9E
:1016F000070E6E6F18ECABF00001726F736B0E0E7D
:10170000D89072377337E82EFBD772518413735118
:1017100085138451821944E185518319D8A412009C
:1017200030D020EE02F06F51D9267051DA22DECF90
:1017300060F0DDCF61F071C062F08DECADF01200B1
:101740000001711F20EE02F06F51D9267051DA228C
:10175000DECF60F0DDCF61F071C062F08DECADF0F6
:101760001200000120EE04F06F51D9267051DA22E8
:10177000DECF60F0DDCF61F071C062F08DECADF0D6
:10178000120000018651000AD8B41200010AD8B430
:10179000C8D7030AD8B4D4D7010AD8A41200E1D715
:1017A00012000001606F7ED03F0E1200060E120084
:1017B0005B0E12004F0E1200660E12006D0E12002C
:1017C0007D0E1200070E12007F0E12006F0E120027
:1017D0005F0E12007C0E1200580E12005E0E1200F8
:1017E0007B0E1200710E12006F0E1200740E1200AA
:1017F000040E12000E0E12007A0E1200060E1200D7
:10180000140E1200540E12005C0E1200730E120021
:10181000670E1200500E12006D0E1200780E1200AC
:101820001C0E1200620E12002A0E1200640E12002C
:101830006E0E12005B0E1200770E12007F0E120069
:10184000390E12003F0E1200790E1200710E1200B6
:101850003D0E1200760E1200060E12001E0E120031
:10186000570E1200380E1200760E1200760E12007D
:101870003F0E1200730E12003F0E1200770E120080
:101880006D0E1200310E12003E0E12003E0E1200BE
:101890007E0E1200760E1200660E12005B0E120013
:1018A000800E1200000160512E0AD8B4F9D71E0A2A
:1018B000D8B47AD7010AD8B479D7030AD8B478D77C
:1018C000010AD8B477D7070AD8B476D7010AD8B4B2
:1018D00075D7030AD8B474D7010AD8B473D70F0ADE
:1018E000D8B472D7010AD8B471D7780AD8B4A4D7BB
:1018F000030AD8B4A3D7010AD8B4A2D7070AD8B428
:10190000A1D7010AD8B4A0D7030AD8B49FD7010A37
:10191000D8B49ED70F0AD8B49DD7010AD8B49CD7A3
:10192000030AD8B49BD7010AD8B49AD7070AD8B407
:1019300099D7010AD8B498D7030AD8B497D7010A1F
:10194000D8B496D71F0AD8B495D7010AD8B494D77B
:10195000030AD8B493D7010AD8B492D7070AD8B4E7
:1019600091D7010AD8B490D7030AD8B48FD7010A07
:10197000D8B48ED70F0AD8B48DD7010AD8B48CD773
:10198000030AD8B48BD73B0AD8B422D7030AD8B4F9
:1019900021D7010AD8B420D7070AD8B41FD7010A23
:1019A000D8B41ED7030AD8B41DD7010AD8B41CD79F
:1019B0000F0AD8B41BD7010AD8B41AD7030AD8B46F
:1019C00019D7010AD8B418D7070AD8B417D7010A0B
:1019D000D8B416D7030AD8B415D7010AD8B414D787
:1019E0001F0AD8B413D7010AD8B412D7030AD8B43F
:1019F00011D7010AD8B410D7070AD8B40FD7010AF3
:101A0000D8B40ED7030AD8B40DD7010AD8B40CD76E
:101A10000F0AD8B40BD7010AD8B40AD7030AD8B42E
:101A200009D7000E12000001B751B811B911BA114F
:101A3000D8A409D0000EB76F000EB86F800EB96F32
:101A40003F0EBA6F1200180E606F720E616F310E8A
:101A5000626F440E636FB7C064F0B8C065F0B9C080
:101A600066F0BAC067F07AEC9AF00001D8B00FD0F7
:101A7000000E01011B6F220E1A6FFF0E0001B76FDF
:101A8000FF0EB86F7F0EB96F7F0EBA6F1200B7C02E
:101A900060F0B8C061F0B9C062F0BAC063F0870E00
:101AA000646F480E656F3A0E666FC40E676F7AEC0E
:101AB0009AF00001D8B00FD0000E01011B6F220E6A
:101AC0001A6F000E0001B76F000EB86F000EB96FED
:101AD000000EBA6F1200BAAF02D0010E01D0000E94
:101AE000C16FC151D8B412D0B7C087F0B8C088F068
:101AF000B9C089F0BAC08AF049ECABF087C0B7F042
:101B000088C0B8F089C0B9F08AC0BAF0B7C06EF02A
:101B1000B8C06FF0B9C070F0BAC071F03B0E0001F0
:101B2000726FAA0E736FB80E746F3F0E756F61EC13
:101B300084F06EC0B7F06FC0B8F070C0B9F071C07B
:101B4000BAF0B7C0A9F0B8C0AAF0B9C0ABF0BAC03B
:101B5000ACF00BEC9BF0A9C0BBF0AAC0BCF0ABC0D2
:101B6000BDF0ACC0BEF0BBC09FF0BCC0A0F0BDC01B
:101B7000A1F0BEC0A2F08FEC9DF09FC0BFF0A0C04E
:101B8000C0F0B7C09FF0B8C0A0F0B9C0A1F0BAC013
:101B9000A2F0BFC060F0C0C061F00001000E61BFE4
:101BA000FF0E626F636F010EACEC96F060C0A3F0A5
:101BB00061C0A4F062C0A5F063C0A6F007ECA9F074
:101BC0009FC0B7F0A0C0B8F0A1C0B9F0A2C0BAF0F1
:101BD000B7C09FF0B8C0A0F0B9C0A1F0BAC0A2F0E1
:101BE000E50E0001A36FFD0EA46F000EA66F090E97
:101BF000A56F1DEC9CF09FC0AFF0A0C0B0F0A1C0DD
:101C0000B1F0A2C0B2F0BFC0B3F0C0C0B4F01DECE0
:101C10009DF0AFC0B7F0B0C0B8F0B1C0B9F0B2C07D
:101C2000BAF00001C151D8B42FD0B72912E1B829B8
:101C300010E17F0EB9190DE17F0EBA19D8A409D0B1
:101C4000000EB76F000EB86F000EB96F000EBA6FBE
:101C50001200000E606F000E616F800E626F3F0E0B
:101C6000636FB7C064F0B8C065F0B9C066F0BAC0C1
:101C700067F021EC89F060C0B7F061C0B8F062C0D5
:101C8000B9F063C0BAF01200B7C0B7F0B8C0B8F08E
:101C9000B9C0B9F0BAC0BAF01200050E00019A6FCF
:101CA000B8D020EE02F09651D9269751DA22DECF35
:101CB0006BF0DDCF6CF098C06DF00F0E6E6F7AECAC
:101CC000ACF0000120EE04F09651D9269751DA22AB
:101CD000DECF6BF0DDCF6CF098C06DF0000E6E6F54
:101CE0007AECACF0A4D096C08FF097C090F098C07A
:101CF00091F0030E0001926F6EECA8F000019A6F54
:101D00009A51D8A4120020EE02F09651D92697518C
:101D1000DA22DECF6BF0DDCF6CF098C06DF0000EF4
:101D20006E6F7AECACF0000120EE04F09651D926EB
:101D30009751DA22DECF6BF0DDCF6CF098C06DF0FA
:101D4000000E6E6F7AECACF072D096C08FF097C038
:101D500090F098C091F0030E0001926F6EECA8F025
:101D600000019A6F9A51D8A4120020EE02F0965109
:101D7000D9269751DA22DECF6BF0DDCF6CF098C018
:101D80006DF00F0E6E6F7AECACF0000120EE04F0F7
:101D90009651D9269751DA22DECF6BF0DDCF6CF069
:101DA00098C06DF00F0E6E6F7AECACF040D096C01C
:101DB0008FF097C090F098C091F0030E0001926FE1
:101DC0006EECA8F000019A6F9A51D8A4120020EE90
:101DD00002F09651D9269751DA22DECF6BF0DDCF93
:101DE0006CF098C06DF0000E6E6F7AECACF00001F4
:101DF00020EE04F09651D9269751DA22DECF6BF00F
:101E0000DDCF6CF098C06DF0000E6E6F7AECACF028
:101E10000ED000019951000AD8B443D7010AD8B4B2
:101E200062D7030AD8B491D7010AD8B4C0D7080E34
:101E3000000196256F6F000E9721706F9851040D69
:101E4000F3CF71F099C072F08FECAAF0080E000188
:101E500096256F6F000E9721706F9851040DF3282F
:101E6000716F99C072F08FECAAF0080E00019625F0
:101E70006F6F000E9721706F9851040DF350020F91
:101E8000716F99C072F08FECAAF0080E00019625D0
:101E90006F6F000E9721706F9851040DF350030F70
:101EA000716F99C072F08FECAAF0120045EC99F0B6
:101EB000F6ECACF08AECACF01AECADF0B3ECADF0B3
:101EC00049ECA4F096ECA8F0010E77ECA7F0010E17
:101ED000ACECAAF00009D8B40CD0C6EC93F0FEEC40
:101EE00097F062ECA5F025ECADF00009D8A461EC08
:101EF000ABF0A9EC87F03EC176F03FC177F025EC5E
:101F0000ACF0C8ECAAF066ECA6F022EEAFF001D877
:101F10000AD00500FA6EDE50FD6EDE50FE6EDE5019
:101F2000FF6EFA5012000101FA6F22EE91F001D813
:101F30000AD00500FA6EDE50FD6EDE50FE6EDE50F9
:101F4000FF6EFA5012000101FB6F22EEA5F001D8DE
:101F50000AD00500FA6EDE50FD6EDE50FE6EDE50D9
:101F6000FF6EFA5012000101FC6F22EE9BF001D8C7
:101F70000AD00500FA6EDE50FD6EDE50FE6EDE50B9
:101F8000FF6EFA5012000101FD6FFA51D8B404D06F
:101F9000000E496F030E486FFB51D8B404D0000EF9
:101FA000496F010E486FFC51D8B404D0000E496F40
:101FB000020E486FFD51D8B404D0000E496F040ED4
:101FC000486F010EACECAAF00009D8B492D7010119
:101FD00048514911D8A414D0FC0E0001756FFF0EB2
:101FE000766F000E786F230E776FF8EC95F05B0E2E
:101FF0000001756FFF0E766FF8EC95F01BEC92F018
:10200000030E010148194911D8A439D01BEC92F0F4
:10201000000E0101FF6F000EFE6FFFBF03D0FF51E6
:102020000EE109D0A9EC87F00101FE4BFF2BFFBFA9
:10203000F9D7FF5104E10A0EFE5DD8A0F3D73EC1E7
:102040002CF03FC12DF0000E0001F26F030EF16F76
:10205000070EF46FD00EF36F000EF66F000EF56FE3
:10206000000EF86FC80EF76F00EC80F01BEC92F0DA
:10207000000E0101496F000E486F1BEC92F01BEC43
:1020800092F025ECADF00009D8B433D761ECABF099
:1020900030D7000E0001D26FC251C311C411C51157
:1020A000D8A424D0000E606F000E616F000E626F26
:1020B000000E636FC6C064F0C7C065F0C8C066F0AC
:1020C000C9C067F07AEC9AF00001D8A005D0000EE4
:1020D00001011B6F210E1A6F000E0001C26F000E6E
:1020E000C36F000EC46F000EC56F1200C651C7113A
:1020F000C811C911D8A409D0000EC26F000EC36F59
:10210000800EC46F3F0EC56F1200C5AF4FD0C6C062
:102110009FF0C7C0A0F0C8C0A1F0C9C0A2F08FEC6A
:102120009DF09FC0D3F0A0C0D4F0A1C0D5F0A2C054
:10213000D6F0D3C060F0D4C061F0D5C062F0D6C094
:1021400063F0000EACEC96F00001C65160190AE194
:10215000C751611907E1C851621904E1C9516319F6
:10216000D8B40FD0000E01011B6F210E1A6F000EA4
:102170000001C26F000EC36F000EC46F000EC56F6A
:102180001200D351010BD26FC2C087F0C3C088F0D8
:10219000C4C089F0C5C08AF049ECABF087C0C2F07A
:1021A00088C0C3F089C0C4F08AC0C5F0C2C0AFF017
:1021B000C3C0B0F0C4C0B1F0C5C0B2F084EC94F0BC
:1021C000AFC0CAF0B0C0CBF0B1C0CCF0B2C0CDF05F
:1021D000CAC06EF0CBC06FF0CCC070F0CDC071F053
:1021E000C6C072F0C7C073F0C8C074F0C9C075F043
:1021F00061EC84F06EC0CEF06FC0CFF070C0D0F054
:1022000071C0D1F0CEC0B7F0CFC0B8F0D0C0B9F037
:10221000D1C0BAF013EC8DF0B7C0C2F0B8C0C3F0B3
:10222000B9C0C4F0BAC0C5F00001D251D8B413D0BF
:10223000C2C087F0C3C088F0C4C089F0C5C08AF0AE
:1022400049ECABF087C0C2F088C0C3F089C0C4F0CD
:102250008AC0C5F01200C2C0C2F0C3C0C3F0C4C07F
:10226000C4F0C5C0C5F01200050E00019F6F6ED00E
:1022700020EE02F09A51D9269B51DA22DECF9DF052
:10228000DDCF9EF09DC0D9FF9EC0DAFFFF0E5CD06F
:102290009AC096F09BC097F0010E986FB8ECA9F029
:1022A00000019F6F9F51D8A4120020EE02F09A51B6
:1022B000D9269B51DA22DECF9DF0DDCF9EF09DC066
:1022C000D9FF9EC0DAFF000EDF6E20EE04F02FD0A3
:1022D0009AC096F09BC097F0020E986FB8ECA9F0E8
:1022E00000019F6F9F51D8A4120020EE02F09A5176
:1022F000D9269B51DA22DECF9DF0DDCF9EF09DC026
:10230000D9FF9EC0DAFFFF0EDF6E20EE04F0B2D7D9
:102310009AC096F09BC097F0000E986FB8ECA9F0A9
:1023200000019F6F9F51D8A4120020EE02F09A5135
:10233000D9269B51DA22DECF9DF0DDCF9EF09DC0E5
:10234000D9FF9EC0DAFF000EDF6E0DD09C51000A4F
:10235000D8B48ED7010AD8B49BD7030AD8B4B8D75B
:10236000010AD8B4D5D7080E9A256F6F000E9B21AD
:10237000706F000E716F9CC072F08FECAAF0080EA7
:1023800000019A256F6F000E9B21706F010E716F17
:102390009CC072F08FECAAF0080E00019A256F6FB6
:1023A000000E9B21706F020E716F9CC072F08FEC5B
:1023B000AAF0080E00019A256F6F000E9B21706F26
:1023C000030E716F9CC072F08FECAAF0080E000132
:1023D0009A256F6F000E9B21706F040E716F9CC069
:1023E00072F08FECAAF0080E00019A256F6F000EB4
:1023F0009B21706F050E716F9CC072F08FECAAF07C
:10240000080E00019A256F6F000E9B21706F060E5B
:10241000716F9CC072F08FECAAF0080E00019A2533
:102420006F6F000E9B21706F070E716F9CC072F072
:102430008FECAAF012004E50D8B41200DDC186F025
:10244000DEC187F0DFC188F0E0C189F04650D8B422
:1024500005D0FFC085F00F0E0001FF6F000E0001D8
:102460008B6FB9D08B51020D500EF324D96E020E32
:10247000F420DA6EDECFF5F1DDCFF6F1000E8A6FD3
:10248000130E8A6501D09ED08B51140D460E836FBA
:10249000030E846FF3508327F45084238A51010D77
:1024A000F3508325D96EF4508421DA6EDFAE83D0E9
:1024B0008B51140D460E836F030E846FF3508327E8
:1024C000F45084238A51010DF3508325D96EF450C2
:1024D0008421DA6E7F0EDF168B51140D460E836F4A
:1024E000030E846FF3508327F45084238A51010D27
:1024F000F3508325D96EF4508421DA6EDF50D8B4BE
:1025000043D054C169F055C16AF086C06BF087C0F2
:102510006CF088C06DF089C06EF0E5C16FF0E6C167
:1025200070F0E7C171F0E8C172F04DECA7F0000166
:102530008B51140D460E836F030E846FF350832767
:10254000F45084238A51010DF3508325D96EF45041
:102550008421DA6EDF5064EC9FF065C072F066C0D3
:1025600073F086C074F087C075F088C076F089C0BB
:1025700077F0E5C178F0E6C179F0E7C17AF0E8C11B
:102580007BF017ECA3F017D0000E00016A6F000E6D
:10259000696F86C06BF087C06CF088C06DF089C031
:1025A0006EF0E5C16FF0E6C170F0E7C171F0E8C10F
:1025B00072F04DECA7F0060E00018627000E87236F
:1025C0008A2B5ED7080E8827000E8923000E876F9E
:1025D000060E866F8B2B8B51FF5DD8B043D74650CC
:1025E000D8B41200000E466E85C0FFF0120086C0FF
:1025F000D9FF87C0DAFFDECF8BF0DDCF8CF0050E80
:1026000000018A6FA7D020EE02F08651D9268751AB
:10261000DA22DECF60F0DDCF61F088C062F0010E1B
:10262000636FF5ECA7F0A4D08BC06FF08CC070F096
:10263000010E0001716F88C072F0FFECA5F000017F
:102640008A6F8A51D8A4120020EE02F08651D92652
:102650008751DA22DECF60F0DDCF61F088C062F012
:10266000000E636FF5ECA7F0000120EE04F0865138
:10267000D9268751DA22DECF60F0DDCF61F088C045
:1026800062F0000E636FF5ECA7F072D08BC06FF0B4
:102690008CC070F0020E0001716F88C072F0FFEC08
:1026A000A5F000018A6F8A51D8A4120020EE02F032
:1026B0008651D9268751DA22DECF60F0DDCF61F076
:1026C00088C062F0010E636FF5ECA7F0000120EE08
:1026D00004F08651D9268751DA22DECF60F0DDCFB3
:1026E00061F088C062F0010E636FF5ECA7F040D096
:1026F0008BC06FF08CC070F0000E0001716F88C04D
:1027000072F0FFECA5F000018A6F8A51D8A4120084
:1027100020EE02F08651D9268751DA22DECF60F012
:10272000DDCF61F088C062F0000E636FF5ECA7F0BA
:10273000000120EE04F08651D9268751DA22DECF3F
:1027400060F0DDCF61F088C062F0000E636FF5ECE1
:10275000A7F00ED000018951000AD8B454D7010A5D
:10276000D8B462D7030AD8B491D7010AD8B4C0D775
:10277000080E000186256F6F000E8721706F88C0DC
:1027800071F089C072F08FECAAF01200B20E000155
:102790009B6F020E9C6F000E9E6F020E9D6F960E39
:1027A0009F6F5B0EA06F010EA16F740EA26F5A0E89
:1027B000A36F010EA46F040EA56F140EA66F000E7A
:1027C000A76FB7EC9EF0940E00019B6F020E9C6FFA
:1027D000000E9E6F020E9D6F960E9F6F5B0EA06F98
:1027E000010EA16FC40EA26F5A0EA36F010EA46F4B
:1027F000040EA56F140EA66F000EA76FB7EC9EF027
:102800008A0E00019B6F020E9C6F000E9E6F020EDF
:102810009D6F960E9F6F5B0EA06F010EA16FB00EA5
:10282000A26F5A0EA36F010EA46F040EA56F140EB3
:10283000A66F000EA76FB7EC9EF09E0E00019B6F77
:10284000020E9C6F000E9E6F020E9D6F960E9F6F84
:102850005B0EA06F010EA16F9C0EA26F5A0EA36FAC
:10286000010EA46F040EA56F140EA66F000EA76FC5
:10287000B7EC9EF0A80E00019B6F020E9C6F000E3D
:102880009E6F020E9D6F960E9F6F5B0EA06F010EE6
:10289000A16F880EA26F5A0EA36F010EA46F040ED3
:1028A000A56F140EA66F000EA76FB7EC9EF0A00EDA
:1028B00000018D6F860E8E6F010E8F6F000E906F70
:1028C000000E916F020E926F8FEC82F0610E00018C
:1028D0006F6F010E706FCBECA5F0000E0001A96FB9
:1028E000000EA86FA9510FE1080EA85DD8B0120024
:1028F000820EA825D96E020EA921DA6E000EDF6EB7
:10290000A84BA92BEFD712000001B2AF0FD0000ED9
:1029100001011B6F210E1A6F000E0001AF6F000E38
:10292000B06F000EB16F000EB26F1200AF51B01158
:10293000B111B211D8A40FD0000E01011B6F220EED
:102940001A6F000E0001AF6F000EB06F000EB16F76
:10295000000EB26F1200000E726F000E736F000E49
:10296000746F400E756FB30E646F000E656FAFC06D
:1029700060F0B0C061F0B1C062F0B2C063F0B7EC1B
:102980009FF060C06EF061C06FF062C070F063C015
:1029900071F061EC84F06EC08BF06FC08CF070C091
:1029A0008DF071C08EF0000E00018F6F000E906FE1
:1029B000800E916FBF0E926F0AEC86F08BC0AFF065
:1029C0008CC0B0F08DC0B1F08EC0B2F00001B30782
:1029D000D8A0B407AFC09FF0B0C0A0F0B1C0A1F0C4
:1029E000B2C0A2F00D0EA36FFE0EA46F000EA66F74
:1029F000080EA56F1DEC9CF09FC0AFF0A0C0B0F01A
:102A0000A1C0B1F0A2C0B2F0180E0001726F720E38
:102A1000736F310E746F3F0E756FB3C060F0B4C04A
:102A200061F0000E61BFFF0E626F636F010EACECD0
:102A300096F060C06EF061C06FF062C070F063C06D
:102A400071F061EC84F06EC08BF06FC08CF070C0E0
:102A50008DF071C08EF0AFC08FF0B0C090F0B1C0FB
:102A600091F0B2C092F00AEC86F08BC0AFF08CC04F
:102A7000B0F08DC0B1F08EC0B2F012000001A251D2
:102A80000AECA2F0A0C0D9FFA1C0DAFF000160C02B
:102A9000DEFF61C0DDFFA2514EECA2F0000120EE8E
:102AA00006F0A051D926A151DA2260C0DEFF61C034
:102AB000DDFFA2514EECA2F0000120EE04F0A05187
:102AC000D926A151DA2260C0DEFF61C0DDFFA2512C
:102AD000C6ECA1F0000120EE02F0A051D926A151D0
:102AE000DA2260C0DEFF61C0DDFF20EE04F0A051FD
:102AF000D926A151DA22DECFA3F0DDCFA4F0A3C006
:102B0000D9FFA4C0DAFF000EDF6E20EE02F0A05164
:102B1000D926A151DA22DECFA3F0DDCFA4F0A3C0E5
:102B2000D9FFA4C0DAFFFF0EDF6EA0C09AF0A1C0EB
:102B30009BF0000E9C6F34EC91F0000E0001A56F2D
:102B4000070EA56531D04BD0A0C086F0A1C087F09C
:102B5000A5C088F0030E0001896FF7EC92F03CD01D
:102B6000A0C086F0A1C087F0A5C088F0020E0001C9
:102B7000896FF7EC92F030D0A0C086F0A1C087F04A
:102B8000A5C088F0010E0001896FF7EC92F024D007
:102B9000A0C086F0A1C087F0A5C088F0000E00019B
:102BA000896FF7EC92F018D0A0C0D9FFA1C0DAFF6E
:102BB000DECF6CF0DDCF6DF0A5C06EF018ECABF0A1
:102BC000000AD8B4C1D7010AD8B4D6D7030AD8B4FA
:102BD000C7D7010AD8B4DCD70001A52BB1D7A0C054
:102BE0006FF0A1C070F0000E716F7CEC8AF01200E3
:102BF000770E00017E6F000E7F6F9ED0250E82192A
:102C0000D8B404D082517FECADF096D0000E000114
:102C10007C6F0ED07EC0D9FF7FC0DAFFDF50826F9D
:102C2000020E7E27000E7F2382517FECADF084D010
:102C300075C0F6FF76C0F7FF0001754B762B000ECE
:102C4000F86E0800F5CF82F08251000AD8B4120065
:102C5000630AD8B4DFD7070AD8B403D00D0AD8A4C2
:102C6000E3D77EC0D9FF7FC0DAFFDECF80F0DDCFB3
:102C700081F0020E00017E27000E7F2381AF06D077
:102C8000030E7C13806D811FD8B0812B010E826FE3
:102C9000050E8219D8B415D08251020DEB0EF32423
:102CA000F66EFB0EF420F76EF86A000EF8220900AB
:102CB000F550805D0900F5508159D8A002D0822BD3
:102CC000E7D77CC07BF0030E7B17D8B403D02D0E62
:102CD0007FECADF082C07DF02AD000017D51020D65
:102CE000EB0EF324F66EFB0EF420F76EF86A000E7E
:102CF000F8220900F5CF62F00A00F5CF63F080C03A
:102D000060F081C061F0CBECA7F060C067F061C0FB
:102D100068F0000E00016A6F0A0E696F96ECA9F068
:102D200000016751300F826F82517FECADF00001DE
:102D30007D077D29D8A4D1D775C0F6FF76C0F7FFEF
:102D40000001754B762B000EF86E0800F5CF82F06F
:102D50008251D8B4120052D70001686F0001685147
:102D6000D8A463AF1AD060C064F061C065F062C0DF
:102D700066F063C067F0641F651F661F671F642BE2
:102D8000000E65236623672364C06AF065C06BF09C
:102D900066C06CF067C06DF008D060C06AF061C0BA
:102DA0006BF062C06CF063C06DF060516111621134
:102DB0006311D8A409D0000E606F000E616F000E81
:102DC000626F000E636F1200960E696F06D0692B5A
:102DD000D8906D336C336B336A33000E6A15646FB1
:102DE000000E6B15656F000E6C15666FFE0E6D158F
:102DF000676F6451651166116711D8B40DD0E7D7BC
:102E0000692B010E6A27000E6B236C236D23D8906B
:102E10006D336C336B336A33000E6A15646F000ECA
:102E20006B15656F000E6C15666FFF0E6D15676F85
:102E30006451651166116711D8B407D0E1D76907ED
:102E4000D8906A376B376C376D376CBF03D0020E82
:102E50006961F5D769B108D0FF0E6A17FF0E6B17CD
:102E60007F0E6C17FF0E6D17D890693369C064F040
:102E7000656B666B676B64C067F0666B656B646BF4
:102E800064516A1365516B1366516C1367516D136E
:102E90006851D8A463AF01D06D8F6AC060F06BC079
:102EA00061F06CC062F06DC063F012000001736FDE
:102EB0008AD056ECA3F012001EECA8F01200F6EC3B
:102EC000A4F01200ECECA0F0120023ECA7F012002A
:102ED000A8ECACF0120073C070F07F0E0001701708
:102EE000FF51140D460E716F030E726FF350712770
:102EF000F45072234550010DF3507125D96EF450F2
:102F00007221DA6EDF507F0B7019D8B423D0010E16
:102F10004E6EFF51140D460E706F030E716FF3501D
:102F20007027F45071234550010DF3507025D96E70
:102F3000F4507121DA6E73518009DF6EFF51020D7A
:102F4000500EF324D96E020EF420DA6EF5C1DEFFC6
:102F5000F6C1DDFF23ECA7F00009D8B4120073C05E
:102F600070F07F0E00017017FF51140D460E716F47
:102F7000030E726FF3507127F45072234550010D08
:102F8000F3507125D96EF4507221DA6EDF507F0B49
:102F90007019D8B41200010E4E6EFF51140D460E7A
:102FA000706F030E716FF3507027F450712345500A
:102FB000010DF3507025D96EF4507121DA6E735102
:102FC0008009DF6E120000017351070AD8B47DD763
:102FD0000F0AD8B471D7010AD8B474D7030AD8B489
:102FE00068D7060AD8B46BD7010AD8B462D72D0ABD
:102FF000D8B471D7030AD8B46BD76DD7C6ECA6F096
:10300000000E0001986F000E976F98517DE1590EE8
:10301000975DD8B079D0D8909735F66E9835F76E21
:10302000190EF626FB0EF722F86A000EF8220900A8
:10303000800EF5180900F510D8A41DD098511BE199
:10304000580E975DD8B017D0974B982BD8909735DE
:10305000F66E9835F76E190EF626FB0EF722F86A13
:10306000000EF8220900F5CF60F00A00F5CF61F0FC
:10307000F5ECA6F043D0D89000019735F66E983560
:10308000F76E190EF626FB0EF722F86A000EF822EC
:103090000900000EF55E0900010EF55AD8A01BD0FC
:1030A000000E636FD8909735F66E9835F76E190E4F
:1030B000F626FB0EF722F86A000EF8220900F5CF7B
:1030C00095F00900F5CF96F096C095F0966B955166
:1030D0005AECACF013D0010E0001636FD890973515
:1030E000F66E9835F76E190EF626FB0EF722F86A83
:1030F000000EF8220800F5505AECACF00001974B96
:10310000982B985101E183D7000E616F640E606FB8
:10311000F5ECA6F0000E0001636F290E5AECACF03E
:10312000010E36ECA1F0000E0001616F640E606FBD
:10313000F5ECA6F0000E00016A6F000E696F4FEC0F
:10314000A9F01200000E0001766F6C0E776FDC0E96
:10315000786F020E796FD8906D376E376F37703792
:10316000020E716FD8907933783377337633712FBD
:10317000F9D776C060F077C061F078C062F079C0AE
:1031800063F06DC064F06EC065F06FC066F070C033
:1031900067F0D5ECA2F060C07AF061C07BF062C04D
:1031A0007CF063C07DF00ED0000E0001726F000E47
:1031B000736F000E746F000E756F3E2A020E3E6430
:1031C00001D023D07AC060F07BC061F07CC062F097
:1031D0007DC063F03E50010D020EF324F66EFC0E2E
:1031E000F420F76EF86A000EF8220800F55000018E
:1031F000646F656B666B676BD5ECA2F00001635181
:103200006211D2E16105D8B0CFD7CA503E18FC0B8D
:103210003E18CA6ECA84C1ECADF03E50010D020EDC
:10322000F324F66EFC0EF420F76EF86A000EF82216
:103230000800F5CF3DF0FF0E00017A250101006F77
:10324000FF0E00017B210101016FFF0E00017C21B7
:103250000101026FFF0E00017D210101036F00C11A
:1032600060F001C161F002C162F003C163F03D5042
:103270000001646F656B666B676BD5ECA2F00001B3
:1032800060513E6E3EC0CBFF1200010E4D6E000E2F
:10329000296E000E2A6E000E2B6ED00E0001A06F5C
:1032A000020EA16F000EA26F3EEC95F0950E00018C
:1032B000A06F010EA16F010EA26F3EEC95F09F0E64
:1032C0000001A06F010EA16F020EA26F3EEC95F0FF
:1032D0008B0E0001A06F010EA16F030EA26F3EECDA
:1032E00095F0810E0001A06F010EA16F040EA26F78
:1032F0003EEC95F0A90E0001A06F010EA16F050E26
:10330000A26F3EEC95F0770E0001A06F010EA16F49
:10331000060EA26F3EEC95F0A90E0001866F010E1D
:10332000876F050E886F000E896FF7EC92F0950E8F
:103330000001966F010E976F000E986F000E996F47
:103340004DEC8EF0A90E0001866F010E876F060E00
:10335000886F030E896FF7EC92F0770E00019A6F79
:10336000010E9B6F030E9C6F34EC91F0770E000101
:103370006F6F010E706F040E716F000E726F5DEC57
:103380009EF0A90E00016F6F010E706F060E716F37
:10339000010E726F5DEC9EF0000E77ECA7F0010E4F
:1033A00077ECA7F0000E9E6E000EA16E000EA46ECC
:1033B0009B8E9B8C000E0001616F640E606FF5ECBC
:1033C000A6F0D08E1200000120EE07F07B51D92626
:1033D0007C51DA2201D80AD00500FA6EDE50FD6E6B
:1033E000DE50FE6EDE50FF6EFA5012000001836F59
:1033F0007BC0D9FF7CC0DAFF8351DE18D8A41CD073
:1034000020EE01F07B51D9267C51DA227D51DE5C21
:10341000D8B009D020EE01F07B51D9267C51DA22B8
:10342000000EDF6E120020EE01F07B51D9267C5198
:10343000DA227D51DF5E120020EE01F07B51D926A9
:103440007C51DA22DF507E6F7F6B7D517E27000E2C
:103450007F2320EE01F07B51D9267C51DA22DF5008
:10346000806F816B7E51805D8151800A826F7F51B8
:10347000800A8259D8B0120020EE01F07B51D92683
:103480007C51DA227D51DF2620EE02F07B51D926D5
:103490007C51DA2210EE01F07B51E1267C51E222D0
:1034A000E750806F816BDE50805DDE508159D8A07F
:1034B00012007BC0D9FF7CC0DAFF83C0DFFF20EEA3
:1034C00001F07B51D9267C51DA22000EDF6E20EE0E
:1034D00004F07B51D9267C51DA2201D81200050074
:1034E000FA6EDE50FD6EDE50FE6EDE50FF6EFA505C
:1034F00083511200000E00016015686F000E611507
:10350000696F800E62156A6F7F0E63156B6F68516D
:1035100069116A116B11D8A408D0000E606F000EFB
:10352000616F000E626F000E636F000E6415686FAE
:10353000000E6515696F800E66156A6F7F0E671540
:103540006B6F685169116A116B11D8A408D0000E15
:10355000646F000E656F000E666F000E676F63AFDD
:103560001DD060C068F061C069F062C06AF063C0DD
:103570006BF0681F691F6A1F6B1F682B000E6923A1
:103580006A236B23000E6825606F000E6921616F4E
:10359000000E6A21626F800E6B21636F67AF1DD0D2
:1035A00064C068F065C069F066C06AF067C06BF01F
:1035B000681F691F6A1F6B1F682B000E69236A232F
:1035C0006B23000E6825646F000E6921656F000E85
:1035D0006A21666F800E6B21676F000E601B000E04
:1035E000611B000E621B800E631B000E641B000E2D
:1035F000651B000E661B800E671B6451605D655184
:1036000061596651625967516359D8B002D0D89058
:103610001200D8801200A9C060F0AAC061F0ABC04F
:1036200062F0ACC063F0B10E0001646F000E656F14
:10363000B7EC9FF00001B2AF14D0ACAF09D0000ED0
:10364000A96F000EAA6F800EAB6FBF0EAC6F120099
:10365000000EA96F000EAA6F000EAB6F000EAC6FCC
:103660001200B25104E11D0EB15DD8A009D0A9C06D
:10367000A9F0AAC0AAF0ABC0ABF0ACC0ACF012008D
:10368000A9C09FF0AAC0A0F0ABC0A1F0ACC0A2F04E
:103690008FEC9DF09FC060F0A0C061F0A1C062F00F
:1036A000A2C063F0010EACEC96F060C0ADF061C05A
:1036B000AEF062C0AFF063C0B0F0A9C060F0AAC0C5
:1036C00061F0ABC062F0ACC063F0ADC064F0AEC0FE
:1036D00065F0AFC066F0B0C067F07AEC9AF0000118
:1036E000D8B01BD0ADC08BF0AEC08CF0AFC08DF0A9
:1036F000B0C08EF0000E8F6F000E906F800E916F35
:10370000BF0E926F0AEC86F08BC0A9F08CC0AAF0B5
:103710008DC0ABF08EC0ACF01200ADC0A9F0AEC051
:10372000AAF0AFC0ABF0B0C0ACF0120051B29DEF48
:103730009CF0000120EE04F0FD51D926FE51DA2262
:10374000DF5055ECAAF00009D8B46ED0FDC0D9FF07
:10375000FEC0DAFFDE50DE10D8B461D0FDC0D9FF64
:10376000FEC0DAFF010EDBBE23D0010EDB5003E109
:10377000DE04D8A01DD0FDC0D9FFFEC0DAFFDE28D0
:1037800004E17F0EDE18D8B407D0FDC0D9FFFEC01B
:10379000DAFFDE06000EDD5A810E00016F6F010EAA
:1037A000706F000E716F010E726F5DEC9EF01CD099
:1037B000FDC0D9FFFEC0DAFFDE0404E1800EDE1892
:1037C000D8B407D0FDC0D9FFFEC0DAFFDE2A000E54
:1037D000DD22810E00016F6F010E706F000E716FA0
:1037E000000E726F5DEC9EF0810E00016F6F010E96
:1037F000706F010E716F010E726F5DEC9EF0810EA5
:1038000000016F6F010E706F010E716F000E726F0D
:103810005DEC9EF025ECADF0A2ECADF0120025ECD5
:10382000ADF0C5ECADF012000BC160F00CC161F061
:103830000DC162F094ECADF01200A5C0A7F0A6C0D7
:10384000A8F00001D890A737A837D890A737A83795
:10385000A3C0A9F0A4C0AAF0A751A927A851AA23E0
:10386000A9C0F6FFAAC0F7FF000EF86E0900F5CF59
:10387000ABF00900F5CFACF00900F5CFADF00A00D0
:10388000F5CFAEF04CD0ABC072F0ACC073F0ADC0B1
:1038900074F0AEC075F09FC06EF0A0C06FF0A1C014
:1038A00070F0A2C071F061EC84F06EC08BF06FC05C
:1038B0008CF070C08DF071C08EF00001A507D8A00B
:1038C000A607A5C0A7F0A6C0A8F0D890A737A8372C
:1038D000D890A737A837A3C0A9F0A4C0AAF0A751D1
:1038E000A927A851AA23A9C0F6FFAAC0F7FF000E76
:1038F000F86E0900F5CF8FF00900F5CF90F00900C0
:10390000F5CF91F00A00F5CF92F00AEC86F08BC06B
:10391000ABF08CC0ACF08DC0ADF08EC0AEF000014D
:10392000A551A611D8A4AFD7ABC09FF0ACC0A0F0F2
:10393000ADC0A1F0AEC0A2F01200000120EE04F074
:10394000FD51D926FE51DA22DF50E3ECAAF000093E
:10395000D8B46AD0FDC0D9FFFEC0DAFFDE50DE1059
:10396000D8B45DD0FDC0D9FFFEC0DAFF010EDBBECA
:1039700022D0010EDB5003E1DE04D8A01CD0FDC034
:10398000D9FFFEC0DAFFDE2804E17F0EDE18D8B4CE
:1039900007D0FDC0D9FFFEC0DAFFDE06000EDD5AFB
:1039A000810E106E010E116E000E126E010E136E5E
:1039B0000FEC9FF01BD0FDC0D9FFFEC0DAFFDE0484
:1039C00004E1800EDE18D8B407D0FDC0D9FFFEC0D8
:1039D000DAFFDE2A000EDD22810E106E010E116E5E
:1039E000000E126E000E136E0FEC9FF0810E106E23
:1039F000010E116E010E126E010E136E0FEC9FF090
:103A0000810E106E010E116E010E126E000E136EFD
:103A10000FEC9FF0D1ECADF0A8ECADF01200D1ECC2
:103A2000ADF0CEECADF012000BC101F00CC102F014
:103A30000DC103F09BECADF012000001AF51B011CD
:103A4000B111B211D8A409D0000EAF6F000EB06F43
:103A5000000EB16F000EB26F1200B2517F0BB56F46
:103A6000B66BD890B537B637B551B327B651B42336
:103A7000B1AF03D0B56BB52B02D00001B56BB5511A
:103A8000B327000EB423B4AF0FD0000E01011B6F9B
:103A9000220E1A6F000E0001AF6F000EB06F000E05
:103AA000B16F000EB26F1200B4BF1BD0B405D8A026
:103AB00018D0000E01011B6F220E1A6F0001B2AF69
:103AC00008D0FF0EAF6FFF0EB06F7F0EB16FFF0E0D
:103AD000E9D7FF0EAF6FFF0EB06F7F0EB16F7F0E95
:103AE000E1D7B435B431B66FB331B56FB251B51952
:103AF000800BB519B26FB3C0B5F0010EB517B53371
:103B0000B533B151B5197F0BB519B16FAFC0AFF077
:103B1000B0C0B0F0B1C0B1F0B2C0B2F0120000015C
:103B2000A135A235A86FA851D8A409D0000E9F6F67
:103B3000000EA06F000EA16F000EA26F12009FC0BA
:103B4000A3F0A0C0A4F0A1C0A5F0A2C0A6F0200ED2
:103B500005D0D890A633A533A433A333E82EF9D7E4
:103B6000A351A76FA18FFF0E9F17FF0EA017FF0E87
:103B7000A117000EA217960EA85FA8AF16D0A851E5
:103B8000800A970FD8B009D0000E9F6F000EA06F6B
:103B9000000EA16F000EA26F1200D890A233A133C5
:103BA000A0339F33A83FF9D715D01F0EA8650FD0BB
:103BB000000E9F6F000EA06F000EA16F000EA26F8F
:103BC0001200D8909F37A037A137A237A807A85175
:103BD000D8A4F7D7A751D8B408D0A21FA11FA01FFF
:103BE0009F6D000EA023A123A2239FC09FF0A0C021
:103BF000A0F0A1C0A1F0A2C0A2F012006CC074F0AD
:103C00006DC075F0000E0001736F000E726F6EC014
:103C100070F06FC071F074517511D8A430D070C0BD
:103C2000D9FF71C0DAFF300EDF6E000E736F010E28
:103C3000726F39D074C067F075C068F0000E6A6F9B
:103C40000A0E696F96ECA9F000016751300F70C041
:103C5000D9FF71C0DAFFDF6E74C060F075C061F02B
:103C6000000E636F0A0E626FCBECA7F060C074F0B9
:103C700061C075F00001724B732B704B712B745146
:103C80007511D8B406D0735104E1060E725DD8A048
:103C9000D1D76EC060F06FC061F072C062F073C0C7
:103CA00063F0A1ECA7F0000172516E25D96E73513B
:103CB0006F21DA6E000EDF6E1200080E00016F2514
:103CC0006C6F000E70216D6F71C06EF018ECABF070
:103CD0000001736F3DD0010E721720EE02F06F519C
:103CE000D9267051DA22DECF60F0DDCF61F071C0ED
:103CF00062F072C063F0F5ECA7F01200010E000153
:103D00007217010E721B20EE02F06F51D92670510E
:103D1000DA22DECF60F0DDCF61F071C062F072C0F8
:103D200063F0F5ECA7F01200010E0001721720EE0F
:103D300004F06F51D9267051DA22DECF60F0DDCF6A
:103D400061F071C062F072C063F0F5ECA7F0120090
:103D500000017351000AD8B41200010AD8B4BBD7CD
:103D6000030AD8B4CBD7010AD8A41200DDD70001CA
:103D70009B519C11D8B412009F51A011A111D8B42D
:103D80001200A251A311A411D8B41200A551A6117A
:103D9000A711D8B412009D519E11D8A404D0000ED2
:103DA0009E6F010E9D6F9BC0D9FF9CC0DAFF000E75
:103DB000DF6E20EE01F09B51D9269C51DA22000ED5
:103DC000DF6E20EE02F09B51D9269C51DA229DC075
:103DD000DEFF9EC0DDFF20EE04F09B51D9269C51F2
:103DE000DA22A5C0DEFFA6C0DEFFA7C0DEFF20EE00
:103DF00007F09B51D9269C51DA22A2C0DEFFA3C056
:103E0000DEFFA4C0DEFF01D812000500FA6E9F514C
:103E1000FD6EA051FE6EA151FF6EFA501200080E09
:103E200010240D6E000E11200E6E12C00FF091ECDA
:103E3000ABF0146E3BD0010E131620EE02F01050C2
:103E4000D9261150DA22DECF01F0DDCF02F012C008
:103E500003F013C004F0BCECA8F01200010E13161E
:103E6000010E131A20EE02F01050D9261150DA225A
:103E7000DECF01F0DDCF02F012C003F013C004F07A
:103E8000BCECA8F01200010E131620EE04F0105046
:103E9000D9261150DA22DECF01F0DDCF02F012C0B8
:103EA00003F013C004F0BCECA8F012001450000A98
:103EB000D8B41200010AD8B4BED7030AD8B4CED7FA
:103EC000010AD8A41200DFD700016B6F200E000199
:103ED0006B5F6B51050DF3CF69F0F4CF6AF0050EFF
:103EE00069256C6FFC0E6A216D6F000E706F040EF9
:103EF000706501D037D0000E716F060E716501D06C
:103F00002DD06CC060F06DC061F071C062F0C0EC8B
:103F1000ABF00009D8A405D054C16EF055C16FF0C4
:103F200004D0F5C16EF0F6C16FF0000171510A0DB9
:103F3000000E676F030E686FF3506727F450682315
:103F40007051020DF3506725D96EF4506821DA6E76
:103F50006EC0DEFF6FC0DDFF712BCFD76C4B6D2BBA
:103F6000702BC5D7000E656F030E666F120000013F
:103F70006051611162116311D8A411D064C0D9FFDE
:103F800065C0DAFF000EDE6E000EDD6E000E606FA3
:103F9000000E616F000E626F000E636F12006351BE
:103FA0007F0B666F676BD8906637673764C0D9FF41
:103FB00065C0DAFF66C0DEFF67C0DDFF62AF03D019
:103FC000666B662B02D00001666B665164C0D9FF38
:103FD00065C0DAFFDE12000EDD1264C0D9FF65C0D5
:103FE000DAFF820EDE26FF0EDD22638163836385A6
:103FF00063876389638B639D629F60C060F061C06B
:1040000061F062C062F063C063F01200000E000154
:10401000656F000E646F2ED0820E6425D96E020E7D
:104020006521DA6E61C0E1FF62C0E2FFE750D1ECCA
:104030008BF0DF6E820E00016425D96E020E6521C1
:10404000DA6E800EDE18D8A40BD06407D8A06507FE
:10405000820E6425D96E020E6521DA6E000EDB8EAB
:10406000614B622B644B652B655116E1060E645D56
:10407000D8B012D061C0D9FF62C0DAFFDF50D8B427
:104080000BD0CAD7820E6425D96E020E6521DA6E76
:10409000000EDF6E644B652B655105E1060E645D15
:1040A000D8B01200EFD712000001686F020E0001B5
:1040B0006527020E6727030E6827030E6627000E8A
:1040C000636F2A0E5AECACF0010E0001636F000E14
:1040D0005AECACF0010E0001636F68515AECACF081
:1040E000010E0001636F000E5AECACF0010E0001EE
:1040F000636F66515AECACF0000E0001636F2B0E3B
:104100005AECACF0010E0001636F000E5AECACF0FB
:10411000010E0001636F65515AECACF0010E000115
:10412000636F000E5AECACF0010E0001636F675133
:104130005AECACF0000E0001636F2C0E5AECACF0A0
:104140001200320EF66E590EF76E010EF86E01EE89
:10415000DDF010EE1DF00900F5CFEEFFE550E15067
:10416000FAE15C0EF66E5B0EF76E010EF86E00EE75
:1041700047F010EE0AF00900F5CFEEFFE550E150F0
:10418000FAE103EE46F011EE2CF0EE6AE550E15054
:10419000FCE1E250FAE103EE00F0460EEE6AE806BA
:1041A000FDE102EE00F0DA0EEE6AE806FDE101EE56
:1041B00000F0DD0EEE6AE806FDE10001FF6BFE6B2C
:1041C000FD6B00EE29F01E0EEE6AE806FDE151904F
:1041D0005192000156EF8FF0000E00016E6FFA0E43
:1041E0004724606FFF0E4820616F000E636F060E5C
:1041F000626F92ECA2F0000160516F6F6FC060F0CF
:10420000616B000E636F040E626F92ECA2F000010E
:1042100060516D6F000E6E6F06D031ECABF023EC89
:10422000A7F000016E2B6D51040DF31EF41EF34A2E
:10423000F42A6F51686F696BF3506827F450692353
:10424000681F691F684B692B040E6827000E6923DD
:104250006E516A6F6B6B68516A5D6B51800A6C6F4F
:104260006951800A6C59D8B01200D7D70001656F28
:10427000000E0001666F000E636F360E5AECACF054
:1042800000016551030B666F2BD0010E636FC80EE2
:104290005AECACF0800E506E800E4F6E1200010E84
:1042A0000001636FA80E5AECACF0800E506E800EC9
:1042B0004F6E1200010E0001636F080E5AECACF055
:1042C000800E506E800E4F6E1200010E0001636F63
:1042D000680E5AECACF0800E506E800E4F6E1200DD
:1042E00000016651000AD8B4D0D7010AD8B4D7D794
:1042F000030AD8B4DFD7010AD8A41200E6D7000118
:104300006451010DF50EF324F66EFB0EF420F76EEA
:10431000F86A000EF8220800F5CF6AF0000E696F07
:1043200003D06251635F692B6251635DD8B0F9D7E6
:1043300064516303F350636F695163276A516517D2
:1043400063C066F06AC067F0662B02D0D89067370A
:10435000662FFCD700016751FF0A686F60C0D9FF64
:1043600061C0DAFF6851DF1663C066F065C067F0B0
:10437000662B02D0D8906737662FFCD760C0D9FF74
:1043800061C0DAFF00016751DF1212000001626FA5
:1043900029D0920E0001606F0F0E616F1200930E14
:1043A000606F0F0E616F1200940E606F0F0E616FE1
:1043B0001200950E606F0F0E616F1200960E606F07
:1043C0000F0E616F1200970E606F0F0E616F12007B
:1043D000980E606F0F0E616F1200000E606F000E7E
:1043E000616F120000016251000AD8B4D2D7010AED
:1043F000D8B4D5D7030AD8B4D7D7010AD8B4D9D7F7
:10440000070AD8B4DBD7010AD8B4DDD7030AD8B479
:10441000DFD7E3D70001626F29D03D0E0001606F46
:10442000FE0E616F12003B0E606FFE0E616F120098
:10443000390E606FFE0E616F1200370E606FFE0E58
:10444000616F1200350E606FFE0E616F1200330E49
:10445000606FFE0E616F1200310E606FFE0E616FB5
:104460001200000E606F000E616F120000016251B9
:10447000000AD8B4D2D7010AD8B4D5D7030AD8B421
:10448000D7D7010AD8B4D9D7070AD8B4DBD7010ADD
:10449000D8B4DDD7030AD8B4DFD7E3D70001626F01
:1044A00029D0800E0001606F0F0E616F1200810E27
:1044B000606F0F0E616F1200820E606F0F0E616FE2
:1044C0001200830E606F0F0E616F1200840E606F1A
:1044D0000F0E616F1200850E606F0F0E616F12007C
:1044E000860E606F0F0E616F1200000E606F000E7F
:1044F000616F120000016251000AD8B4D2D7010ADC
:10450000D8B4D5D7030AD8B4D7D7010AD8B4D9D7E5
:10451000070AD8B4DBD7010AD8B4DDD7030AD8B468
:10452000DFD7E3D7000E0001656F63AF06D0626D81
:10453000631FD8B0632B010E656F61AF06D0606D4D
:10454000611FD8B0612B010E651B000E676F000E56
:10455000666F62516311D8B41CD0010E646F04D031
:10456000D89062376337642B63AFFAD7D890663739
:1045700067376251605D63516159D8A005D06251BF
:10458000605F6351615B6681D89063336233642FEF
:10459000EDD76551D8B404D0666D671FD8B0672BCE
:1045A00066C060F067C061F01200000E0001686F25
:1045B000000E696F000E6A6F000E6B6F645165111B
:1045C00066116711D8B42AD0010E6C6F06D0D8904E
:1045D00064376537663767376C2B67AFF8D7D89085
:1045E000683769376A376B376451605D6551615967
:1045F0006651625967516359D8A009D06451605F10
:104600006551615B6651625B6751635B6881D890FD
:1046100067336633653364336C2FE1D768C060F06D
:1046200069C061F06AC062F06BC063F01200000EF6
:104630000001826F74517825806F76517A25816FE1
:104640007AC060F07BC061F078C062F079C063F03E
:10465000D6ECABF060C07EF061C07FF076C065F054
:1046600000018005666F8105676F745154ECA0F0FE
:10467000000E0001826F10D08251020DF35072259E
:10468000D96EF4507321DA6EDECF65F0DDCF66F0BF
:10469000C4ECACF00001822B82517C6F7D6B7E51AB
:1046A0007C5D7F517D59D8B01200E6D72DD0000136
:1046B000FF51140D460E606F030E616FF3506027BB
:1046C000F45061234550010DF3506025D96EF4502C
:1046D0006121DA6EDF50D8B416D0010E4E6EFF5154
:1046E000140D460E606F030E616FF3506027F45097
:1046F00061234550010DF3506025D96EF4506121BE
:10470000DA6E800EDF6E452A130E4564D0D7000E98
:10471000456E0001FF2B080E4926000E4A22000EAE
:10472000486E060E476E12000001666FFE0EF66EB2
:10473000FB0EF76E000EF86E0900F5CF62F009006F
:10474000F5CF63F00900F5CF64F00A00F5CF65F00E
:10475000110E0001676F030E66176651010D620EA0
:10476000F324D96E000EF420DA6EDF50606F67C05C
:1047700061F0602B02D0D8906137602FFCD7000128
:104780006151676F67390F0B676F67510F0B676F69
:104790000201885100016719F00B67190201886F47
:1047A000120060C0F6FF61C0F7FF000EF86E0F0E3A
:1047B000F76403D00800F55005D0F6CFE9FFF7CF36
:1047C000EAFFEF500001686F6451010DF50EF3240C
:1047D000F66EFB0EF420F76EF86A000EF822080061
:1047E000F5CF66F0000E676F03D06251635F672BF1
:1047F0006251635DD8B0F9D764516303F350636FBE
:10480000675163276329656F02D0D8906833652F9D
:10481000FCD700016651681768511200000E0001B4
:104820006A6F010E696F65516611D8A404D0696979
:104830006A69611F621F890E86ECADF00001645148
:1048400086ECADF00001635186ECADF000016A51D9
:1048500086ECADF00001695186ECADF0000E000170
:10486000686F000E676F9D0E86ECADF0000162511F
:1048700086ECADF00001615186ECADF04AECACF095
:104880008E0E86ECADF0070E86ECADF0BDECADF013
:104890001200C60E00019B6F020E9C6F000E9E6FF1
:1048A000020E9D6F1C0E9F6F5A0EA06F010EA16F1E
:1048B000D80EA26F5A0EA36F010EA46FFC0EA56F47
:1048C000550EA66F010EA76FB7EC9EF0BC0E00014F
:1048D0009B6F020E9C6F000E9E6F020E9D6F040E6A
:1048E0009F6F5A0EA06F010EA16F600EA26F5A0E3D
:1048F000A36F010EA46F240EA56F580EA66F010EB4
:10490000A76FB7EC9EF0120001C0F6FF02C0F7FFE0
:10491000000EF86E0F0EF76403D00800F55005D0B6
:10492000F6CFE9FFF7CFEAFFEF50096E0550010D12
:10493000F50EF324F66EFB0EF420F76EF86A000E07
:10494000F8220800F5CF07F0000E086E03D00350E0
:10495000045E082A0350045CD8B0F9D7055004025D
:10496000F350046E085004260428066E02D0D89036
:104970000932062EFCD70750091609501200000113
:10498000666F090E00016361120066C044F0000EFC
:10499000426E070E426401D01FD044C064F0010E85
:1049A00000016417060E656FD8906437652FFCD739
:1049B0006451436E6339E842F80B42104310676F4D
:1049C000D8904432610E606F010E616F67C062F073
:1049D0002CECA5F0422ADDD7610E0001606F010EBC
:1049E000616F000E626F2CECA5F01200000E456E98
:1049F000000E0001FF6F000E636F0E0E636501D0A5
:104A000020D0000E626F130E626501D018D0010E27
:104A10004E6E6351140D460E606F030E616FF350BE
:104A20006027F45061236251010DF3506025D96E67
:104A3000F4506121DA6E800EDF6E622BE4D7632BB7
:104A4000DCD7010E466E000E486E060E476E000E55
:104A50004A6E060E496E120026D0A3C1D9FFA4C12A
:104A6000DAFF0101DF9462C0C9FFC7A0FED7C9CF3A
:104A700062F0A3C1D9FFA4C1DAFF0101DF841200F3
:104A80008FC1D9FF90C1DAFF0101DF9E62C06FFFC5
:104A90006DA0FED76FCF62F08FC1D9FF90C1DAFF52
:104AA0000101DF8E1200000120EE02F06051D926D4
:104AB0006151DA22DF50000AD8B4CFD7010AD8A456
:104AC0001200DED7000E456E000E0001FF6F000ED3
:104AD000626F130E626501D01200000E636F0E0E3E
:104AE000636501D022D06351140D460E606F030E32
:104AF000616FF3506027F45061236251010DF35050
:104B00006025D96EF4506121DA6E000EDF6E6351BC
:104B1000020D500EF324D96E020EF420DA6EFF0E51
:104B2000DE6EFF0EDD6E632BDAD7622BD2D700016B
:104B300020EE06F06F51D9267051DA22DECF60F0F8
:104B4000DDCF61F0050E626F000E636FF5ECA7F02C
:104B5000000120EE06F06F51D9267051DA22DECF27
:104B60006BF0DDCF6CF0000E6D6F000E6E6F7AECA7
:104B7000ACF0000120EE06F06F51D9267051DA2218
:104B8000DECF60F0DDCF61F0050E626F010E636F66
:104B9000F5ECA7F01200000120EE06F06F51D926C7
:104BA0007051DA22DECF60F0DDCF61F0050E626F6A
:104BB000000E636FF5ECA7F0000120EE06F06F51D8
:104BC000D9267051DA22DECF6BF0DDCF6CF0000E0B
:104BD0006D6F020E6E6F7AECACF0000120EE06F005
:104BE0006F51D9267051DA22DECF60F0DDCF61F04F
:104BF000050E626F010E636FF5ECA7F01200DB0E7D
:104C0000F66EFB0EF76E000EF86E20EE75F00F0ECE
:104C10000900F5CFDEFFE806FBE26FC06CF070C064
:104C20006DF072C06EF018ECABF00001856F040EF1
:104C3000716117D0040E856114D07151040D750E89
:104C4000736F000E746FF3507327F4507423855103
:104C5000010DF3507325D96EF4507421DA6EDF50D4
:104C60001200050E12008E0E86ECADF0130E86ECCF
:104C7000ADF0BDECADF00001636F635101014C6F0D
:104C80004D6BBDECADF00001636F635101014A6FE4
:104C90004B6B000E0001636FFF0E646F01014C51FE
:104CA0000001666F656B63516517645166170101FA
:104CB0004A510001651101014E6F00016651010169
:104CC0004F6F4EC161F04FC162F01200FC0E966E44
:104CD000B20E00017B6F020E7C6F010E7D6FE3EC64
:104CE00099F0940E00017B6F020E7C6F010E7D6FB8
:104CF000E3EC99F08A0E00017B6F020E7C6F010ECF
:104D00007D6FE3EC99F09E0E00017B6F020E7C6FCD
:104D1000010E7D6FE3EC99F0A80E00017B6F020E8F
:104D20007C6F010E7D6FE3EC99F01200050E00011F
:104D30008C6F86C0D9FF87C0DAFFDECF8DF0DDCF64
:104D40008EF08851020DF3CF8AF08851020DF328BE
:104D50008B6F8DC06FF08EC070F089C071F08AC00B
:104D600072F0FFECA5F000018C6F8C51D8A40CD030
:104D70008DC06FF08EC070F089C071F08BC072F082
:104D8000FFECA5F000018C6F8C511200A90E000100
:104D9000866F010E876F070E886F030E896FF7EC21
:104DA00092F0A90E0001866F010E876F060E886FC4
:104DB000030E896FF7EC92F046ECA8F0C00E0001EC
:104DC0008D6FC60E8E6F2D0E8F6F000E906F010EC1
:104DD000916F010E926F8FEC82F06C0E00016F6F7D
:104DE000010E706F97ECA5F012001BD0000E0001B1
:104DF000626F000E636F000E646F000E656F655189
:104E000064110FE1B00E625D040E6359D8B009D091
:104E100000F0010E00016227000E63236423652366
:104E2000EED700016007D8A061076029DFE16129A2
:104E3000D8A4DCD7080E626F800E636F000E646F1B
:104E4000000E656F1200452A060E4726000E482206
:104E5000060E47240001646F000E4820656F65BF91
:104E600007D0655103E1800E645DD8B056ECA3F025
:104E7000080E49240001646F000E4A20656F65BF6B
:104E80000AD0655104E1800E645DD8A004D0F6EC30
:104E9000A4F0010E1200000E1200000E0001756F4A
:104EA000000E766F6DC065F06B516F25736F7305E3
:104EB000666F6D517125746F7405676F6B5154EC9B
:104EC000A0F071C076F000017651D8B412006FC026
:104ED00075F07551D8B409D069C065F06AC066F044
:104EE000C4ECACF000017507F4D77607EDD70001EC
:104EF0008D6F18D09F0E0001866F010E876F000E18
:104F0000886F030E896FF7EC92F014D09F0E0001AA
:104F1000866F010E876F010E886F030E896FF7ECA5
:104F200092F008D000018D51000AD8B4E3D7010AED
:104F3000D8B4ECD7000E0001746F8D512BECA9F0A2
:104F40001200000162516025656F63516121666F37
:104F500018D060C0D9FF61C0DAFFDF50646F65C050
:104F6000D9FF66C0DAFF60C0E1FF61C0E2FFDFCFBA
:104F7000E7FF604B612B65C0D9FF66C0DAFF64C0F4
:104F8000DFFF6507D8A066076551605D665161590E
:104F9000D8B01200DED7000E0001666F000E656FFC
:104FA00062516311D8B41CD0010E646F04D0D89044
:104FB00062376337642B63AFFAD7D89065376637AB
:104FC0006251605D63516159D8A005D06251605F44
:104FD0006351615B6581D89063336233642FEDD791
:104FE00065C060F066C061F01200010E0001631739
:104FF00062C064F0010E656F642B02D0D8906537F3
:10500000642FFCD700016551FF0A666F60C0D9FFAD
:1050100061C0DAFF6651DF1662C064F063C065F0FC
:10502000642B02D0D8906537642FFCD760C0D9FFBD
:1050300061C0DAFF00016551DF1212004550D8B49B
:1050400006D0FA0E4726FF0E482245061CD0000166
:10505000FF51D8B40CD0000E486E720E476EF80E99
:105060004926FF0E4A22130E456EFF070CD0000E94
:10507000486E060E476E000E4A6E060E496E000E12
:10508000456E000EFF6F31ECABF01200EAECACF0B5
:10509000010ED8ECA9F0000E0001616F800E606F68
:1050A000F5ECA6F0010ED8ECA9F0DEECACF0000EA9
:1050B0000001616F800E606FF5ECA6F0010ED8EC78
:1050C000A9F0EAECACF0000E0001616F800E606F99
:1050D000F5ECA6F0010ED8ECA9F01200050E0001C7
:1050E000956F9151020DF3CF93F09151020DF3287A
:1050F000946F8FC086F090C087F093C088F092C004
:1051000089F096ECA6F00001956F9551D8A40CD0CB
:105110008FC086F090C087F094C088F092C089F06C
:1051200096ECA6F00001956F95511200AD0EC16E80
:10513000000E0101436F000E426F10D0D8900101A4
:105140004235D96E4335DA6E6E0ED926020EDA225A
:10515000000EDE6E000EDD6E424B432BF151425DC0
:105160004351800A0001606F0101F251800A000181
:105170006059D8B01200E2D7010E041603C005F042
:10518000010E066E052A02D0D8900636052EFCD7F1
:105190000650FF0A076E01C0D9FF02C0DAFF0750B0
:1051A000DF1603C005F004C006F0052A02D0D8902F
:1051B0000636052EFCD701C0D9FF02C0DAFF065023
:1051C000DF121200000162AF06D0616D621FD8B01D
:1051D000622B611F621F64AF06D0636D641FD8B07D
:1051E000642B631F641F910E86ECADF000016251C9
:1051F00086ECADF00001615186ECADF00001645128
:1052000086ECADF00001635186ECADF01200000EAB
:105210000001A31B000EA41B000EA51B800EA61BE5
:105220009FC08BF0A0C08CF0A1C08DF0A2C08EF00A
:10523000A3C08FF0A4C090F0A5C091F0A6C092F0DA
:105240000AEC86F08BC09FF08CC0A0F08DC0A1F05E
:105250008EC0A2F012000001756F18D09F0E0001E1
:105260006F6F010E706F000E716F74C072F05DECA5
:105270009EF012009F0E00016F6F010E706F010E05
:10528000716F74C072F05DEC9EF0120000017551F8
:10529000000AD8B4E3D7010AD8A41200EBD7000E55
:1052A00000016B6F000E6C6F000E656F5004666F2F
:1052B0004F04676F000E54ECA0F04FC06CF000017B
:1052C0006C51D8B4120050C06BF06B51D8B409D0F7
:1052D00069C065F06AC066F0C4ECACF000016B0711
:1052E000F4D76C07EDD718D0000E0001626F000EE6
:1052F000636F000E646F000E656F6251631164117D
:105300006511D8A409D000F0010E00016227000E3B
:10531000632364236523F1D700016007D8A06107E8
:105320006029E2E16129D8B41200DED70001695199
:105330006A11D8B418D0010E6B6F04D0D8906937B9
:105340006A376B2B6AAFFAD76951675D6A51685942
:10535000D8A004D06951675F6A51685BD8906A33FE
:1053600069336B2FF1D767C067F068C068F012002F
:10537000050E0001996F96C08FF097C090F0000E57
:10538000916F98C092F06EECA8F00001996F99515E
:10539000D8A40CD096C08FF097C090F0010E916FFA
:1053A00098C092F06EECA8F00001996F995112002C
:1053B0000001786F14D09F0E0001746F010E756F9D
:1053C000000E766FA9ECABF012009F0E0001746F17
:1053D000010E756F010E766FA9ECABF012000001A3
:1053E0007851000AD8B4E7D7010AD8A41200EDD743
:1053F00016D0000E036E000E046E000E056E000E39
:10540000066E0350041005100610D8A408D000F052
:10541000010E0326000E042205220622F2D7010601
:10542000D8A002060128E5E10228D8B41200E1D78D
:10543000000120EE06F06051D9266151DA22DECF5C
:1054400063F0DDCF64F063C0D9FF64C0DAFFDF50E2
:10545000656F6251040DF328636F02D0D8906533F5
:10546000632FFCD70F0E0001651765511200000174
:1054700061BF0BD0615104E1050E605DD8A005D07D
:10548000000E616F000E606F1200000EC26E60456C
:10549000E846FC0BC26EC280C282C2B2FED7C29086
:1054A000C3CF60F0C4CF61F012000001676F865077
:1054B0000F0B0001666F4D50D8A402D0000E1200F1
:1054C000000E4D6E67516619D8B40AD0F00E8616DC
:1054D00067518612000E616F0A0E606F73ECA9F0BF
:1054E000010E1200000120EE06F06051D926615134
:1054F000DA22DECF63F0DDCF64F063C0D9FF64C091
:10550000DAFFDF50656F6229636F02D0D890653390
:10551000632FFCD7010E0001651765511200030EC1
:10552000000171650ED0010E6F256B6F000E7021AA
:105530006C6F7151FC0F6D6F72C06EF06AECACF065
