:0614000055EF0AF0120096
:101408005182FACF17F0FBCF18F0E9CF19F0EACFE5
:101418001AF0E1CF1BF0E2CF1CF0D9CF1DF0DACFE4
:101428001EF0F3CF1FF0F4CF20F0F6CF21F0F7CF66
:1014380022F0F8CF23F0F5CF24F051C025F052C0A8
:1014480026F053C027F054C028F0F292F2B4F2AA62
:1014580002D0F8ECC5F028C054F027C053F026C0DD
:1014680052F025C051F024C0F5FF23C0F8FF22C078
:10147800F7FF21C0F6FF20C0F4FF1FC0F3FF1EC016
:10148800DAFF1DC0D9FF1CC0E2FF1BC0E1FF1AC074
:10149800EAFF19C0E9FF18C0FBFF17C0FAFF519215
:0614A8001100FEEFB9F097
:10FB3A0000001180002C0100B102003500360000DF
:10FB4A00B202003500360000B3020035003600026A
:10FB5A00003500360000B4000000C0A20002008494
:10FB6A000000C1C50000C20D00000000C38D002ABC
:10FB7A000000C48D00EE0000C50A000036C800006F
:10FB8A00E012001C001000180033002C0025002889
:10FB9A0000280027002F003C00000003000300108B
:10FBAA00008000780000E112001C00100018002DEF
:10FBBA0000280023002800280026002F003B000010
:10FBCA0000030003001000003A0500002A000002AA
:10FBDA000000008100002B000003000000A20000CA
:10FBEA0029002C02000400080010002000400080B8
:10FBFA0000000100010200010001000202000003EE
:10FC0A0003030001000A006400E80310270001034F
:10FC1A00070F1F3F7FFF00020103010410000000CD
:10FC2A00000000005F00000007000700147F147F37
:10FC3A0014242A7F2A122313086462364955225053
:10FC4A000005030000001C2241000041221C00089C
:10FC5A002A1C2A0808083E08080050300000080834
:10FC6A00080808006060000020100804023E51499C
:10FC7A00453E00427F400042615149462141454B81
:10FC8A00311814127F1027454545393C4A494930F5
:10FC9A0001710905033649494936064949291E00B1
:10FCAA0036360000005636000000081422411414AB
:10FCBA001414144122140800020151090632497928
:10FCCA00413E7E1111117E7F494949363E414141EB
:10FCDA00227F4141221C7F494949417F090901018B
:10FCEA003E414151327F0808087F00417F41002090
:10FCFA0040413F017F081422417F404040407F023B
:10FD0A0004027F7F0408107F3E4141413E7F09097A
:10FD1A0009063E4151215E7F09192946464949494A
:10FD2A003101017F01013F4040403F1F2040201F19
:10FD3A007F2018207F631408146303047804036186
:10FD4A005149454300007F414102040810204141C6
:10FD5A007F000004020102044040404040000102CA
:10FD6A00040020545454787F484444383844444466
:10FD7A0020384444487F3854545418087E090102F4
:10FD8A00081454543C7F0804047800447D40002041
:10FD9A0040443D00007F10284400417F40007C041D
:10FDAA001804787C0804047838444444387C1414D1
:10FDBA001408081414187C7C080404084854545481
:10FDCA0020043F4440203C4040207C1C2040201C12
:10FDDA003C4030403C44281028440C5050503C448D
:10FDEA0064544C44000836410000007F0000004182
:10FDFA0036080008082A1C08081C2A08080000807F
:10FE0A003F1872313FF0FD753E4758633D58951DC6
:10FE1A003C82C4AE3AA8782139EF938037A092A7E2
:10FE2A00354656153400000000C4FF7F3F80EFFFBF
:10FE3A00BE90E1A93EEC8276BE82AD2B3E0E3CC35B
:10FE4A00BD87D1133D4178D3BB00FCFF0F0000FFF3
:10FE5A00FFF0FF00FFFF00436F756C64206E6F7444
:10FE6A0020726574726965766520646174612C20FC
:10FE7A00537461636B20697320656D7074792E0AFF
:10FE8A0000436F756C64206E6F7420696E736572BF
:10FE9A007420646174612C20537461636B206973EC
:10FEAA002066756C6C2E0A000A54686520436C6FD4
:10FEBA00736573206F626A65637420286D6D293AD1
:10FECA00202564000A537465707320547261766544
:10FEDA006C6C65643A202564200A0A000A0A436F9A
:10FEEA002D6F7264696E6174652025642020256413
:10FEFA000A000A53746570732054726176656C6CDB
:10FF0A0065643A2025640053746570706564203313
:10FF1A00363020646567726565730053656E736F6A
:10FF2A0072204D6F76696E67212020200A000A47E9
:10FF3A006F696E67206261636B20746F3A20256473
:10FF4A00000A20466F756E6420466C61673A202568
:10FF5A0064007265763A2564205461723A202564F9
:10FF6A000A00526F626F7420526561647921200A17
:10FF7A000A000A0A7265763A2564205461723A0ABE
:10FF8A000057414C4C20464F554E440A00583D25D7
:10FF9A00642C20593D25640A006E6F206F707469C5
:10FFAA006F6E730A000A4144433A202564200A0A04
:10FFBA0000476F696E6720486F6D65000A53746564
:10FFCA007073202564000A202020202020200A00A7
:10FFDA000A466C616720256400484F4D452121215E
:10FFEA00400076633A2025640A0026262626260A39
:05FFFA0000256300007A
:020000040001F9
:10000000000E0001696F000E686F000E6D6F000E2C
:100010006C6F000E6F6F000E6E6F000E6B6F000E38
:100020006A6F6BBF06D06B5114E1140E6A5DD8B0D5
:1000300010D0D8906A35D96E6B35DA6E000ED9269D
:10004000030EDA22640EDE6E000EDD6E6A4B6B2B41
:10005000E8D7000E6D6F000E6C6F6DBF06D06D514E
:1000600070E1040E6C5DD8B06CD0000E6F6F000EA6
:100070006E6F6FBF06D06F515DE1050E6E5DD8B03B
:1000800059D06CC060F06DC061F0000E636F320E2D
:10009000626FE4ECC5F0000E0001666F020E676F40
:1000A00060516627615167236EC060F06FC061F0D8
:1000B000000E636F0A0E626FE4ECC5F00001605140
:1000C0006625D96E61516721DA6E68C0DEFF69C0AE
:1000D000DDFF6CC060F06DC061F0000E636F320E2A
:1000E000626FE4ECC5F0000E0001666F020E676FF0
:1000F00060516627615167236EC060F06FC061F088
:10010000000E636F0A0E626FE4ECC5F000016051EF
:10011000662761516723020E6625D96E000E67219E
:10012000DA6E000EDE6E000EDD6E684B692B6E4BD4
:100130006F2B9FD76C4B6D2B6DBF97D76D5101E126
:1001400090D7000E6D6F000E6C6F000E6F6F000E7B
:100150006E6F000E0101416F030E406F000E3F6F86
:10016000010E3E6F6CC060F06DC061F0000E0001CA
:10017000636F320E626FE4ECC5F0000E0001666F33
:10018000020E676F60516627615167236EC060F091
:100190006FC061F0000E636F0A0E626FE4ECC5F091
:1001A00000016051662761516723040E6625D96EF0
:1001B000000E6721DA6E010EDF6E6CC060F06DC05C
:1001C00061F0000E636F320E626FE4ECC5F0000E5A
:1001D0000001666F020E676F6051662761516723E9
:1001E0006EC060F06FC061F0000E636F0A0E626F48
:1001F000E4ECC5F000016051662761516723050EEC
:100200006625D96E000E6721DA6E000EDF6E6CC0B7
:1002100060F06DC061F0000E636F320E626FE4EC4F
:10022000C5F0000E0001666F020E676F6051662711
:10023000615167236EC060F06FC061F0000E636FA4
:100240000A0E626FE4ECC5F000016051662761514F
:100250006723060E6625D96E000E6721DA6E000E42
:10026000DF6E6CC060F06DC061F0000E636F320E27
:10027000626FE4ECC5F0000E0001666F020E676F5E
:1002800060516627615167236EC060F06FC061F0F6
:10029000000E636F0A0E626FE4ECC5F0000160515E
:1002A000662761516723070E6625D96E000E672108
:1002B000DA6E010EDF6E6CC060F06DC061F0000E92
:1002C000636F320E626FE4ECC5F0000E0001666FE2
:1002D000020E676F60516627615167236EC060F040
:1002E0006FC061F0000E636F0A0E626FE4ECC5F040
:1002F00000016051662761516723080E6625D96E9B
:10030000000E6721DA6E020EDE6E000EDD6E6E4BA1
:100310006F2B6CC060F06DC061F0000E636F320E29
:10032000626FE4ECC5F0000E0001666F020E676FAD
:1003300060516627615167236EC060F06FC061F045
:10034000000E636F0A0E626FE4ECC5F000016051AD
:10035000662761516723040E6625D96E000E67215A
:10036000DA6E010EDF6E6CC060F06DC061F0000EE1
:10037000636F320E626FE4ECC5F0000E0001666F31
:10038000020E676F60516627615167236EC060F08F
:100390006FC061F0000E636F0A0E626FE4ECC5F08F
:1003A00000016051662761516723050E6625D96EED
:1003B000000E6721DA6E000EDF6E6CC060F06DC05B
:1003C00061F0000E636F320E626FE4ECC5F0000E58
:1003D0000001666F020E676F6051662761516723E7
:1003E0006EC060F06FC061F0000E636F0A0E626F46
:1003F000E4ECC5F000016051662761516723060EE9
:100400006625D96E000E6721DA6E010EDF6E6CC0B4
:1004100060F06DC061F0000E636F320E626FE4EC4D
:10042000C5F0000E0001666F020E676F605166270F
:10043000615167236EC060F06FC061F0000E636FA2
:100440000A0E626FE4ECC5F000016051662761514D
:100450006723070E6625D96E000E6721DA6E000E3F
:10046000DF6E6CC060F06DC061F0000E636F320E25
:10047000626FE4ECC5F0000E0001666F020E676F5C
:1004800060516627615167236EC060F06FC061F0F4
:10049000000E636F0A0E626FE4ECC5F0000160515C
:1004A000662761516723080E6625D96E000E672105
:1004B000DA6E020EDE6E000EDD6E6E4B6F2B6CC0C0
:1004C00060F06DC061F0000E636F320E626FE4EC9D
:1004D000C5F0000E0001666F020E676F605166275F
:1004E000615167236EC060F06FC061F0000E636FF2
:1004F0000A0E626FE4ECC5F000016051662761519D
:100500006723040E6625D96E000E6721DA6E010E90
:10051000DF6E6CC060F06DC061F0000E636F320E74
:10052000626FE4ECC5F0000E0001666F020E676FAB
:1005300060516627615167236EC060F06FC061F043
:10054000000E636F0A0E626FE4ECC5F000016051AB
:10055000662761516723050E6625D96E000E672157
:10056000DA6E000EDF6E6CC060F06DC061F0000EE0
:10057000636F320E626FE4ECC5F0000E0001666F2F
:10058000020E676F60516627615167236EC060F08D
:100590006FC061F0000E636F0A0E626FE4ECC5F08D
:1005A00000016051662761516723060E6625D96EEA
:1005B000000E6721DA6E000EDF6E6CC060F06DC059
:1005C00061F0000E636F320E626FE4ECC5F0000E56
:1005D0000001666F020E676F6051662761516723E5
:1005E0006EC060F06FC061F0000E636F0A0E626F44
:1005F000E4ECC5F000016051662761516723070EE6
:100600006625D96E000E6721DA6E000EDF6E6CC0B3
:1006100060F06DC061F0000E636F320E626FE4EC4B
:10062000C5F0000E0001666F020E676F605166270D
:10063000615167236EC060F06FC061F0000E636FA0
:100640000A0E626FE4ECC5F000016051662761514B
:100650006723080E6625D96E000E6721DA6E030E39
:10066000DE6E000EDD6E6E4B6F2B6CC060F06DC0E9
:1006700061F0000E636F320E626FE4ECC5F0000EA5
:100680000001666F020E676F605166276151672334
:100690006EC060F06FC061F0000E636F0A0E626F93
:1006A000E4ECC5F000016051662761516723040E38
:1006B0006625D96E000E6721DA6E010EDF6E6CC002
:1006C00060F06DC061F0000E636F320E626FE4EC9B
:1006D000C5F0000E0001666F020E676F605166275D
:1006E000615167236EC060F06FC061F0000E636FF0
:1006F0000A0E626FE4ECC5F000016051662761519B
:100700006723050E6625D96E000E6721DA6E010E8D
:10071000DF6E6CC060F06DC061F0000E636F320E72
:10072000626FE4ECC5F0000E0001666F020E676FA9
:1007300060516627615167236EC060F06FC061F041
:10074000000E636F0A0E626FE4ECC5F000016051A9
:10075000662761516723060E6625D96E000E672154
:10076000DA6E000EDF6E6CC060F06DC061F0000EDE
:10077000636F320E626FE4ECC5F0000E0001666F2D
:10078000020E676F60516627615167236EC060F08B
:100790006FC061F0000E636F0A0E626FE4ECC5F08B
:1007A00000016051662761516723070E6625D96EE7
:1007B000000E6721DA6E000EDF6E6CC060F06DC057
:1007C00061F0000E636F320E626FE4ECC5F0000E54
:1007D0000001666F020E676F6051662761516723E3
:1007E0006EC060F06FC061F0000E636F0A0E626F42
:1007F000E4ECC5F000016051662761516723080EE3
:100800006625D96E000E6721DA6E020EDE6E000ECE
:10081000DD6E6E4B6F2B6CC060F06DC061F0000E32
:10082000636F320E626FE4ECC5F0000E0001666F7C
:10083000020E676F60516627615167236EC060F0DA
:100840006FC061F0000E636F0A0E626FE4ECC5F0DA
:1008500000016051662761516723040E6625D96E39
:10086000000E6721DA6E010EDF6E6CC060F06DC0A5
:1008700061F0000E636F320E626FE4ECC5F0000EA3
:100880000001666F020E676F605166276151672332
:100890006EC060F06FC061F0000E636F0A0E626F91
:1008A000E4ECC5F000016051662761516723050E35
:1008B0006625D96E000E6721DA6E010EDF6E6CC000
:1008C00060F06DC061F0000E636F320E626FE4EC99
:1008D000C5F0000E0001666F020E676F605166275B
:1008E000615167236EC060F06FC061F0000E636FEE
:1008F0000A0E626FE4ECC5F0000160516627615199
:100900006723060E6625D96E000E6721DA6E000E8B
:10091000DF6E6CC060F06DC061F0000E636F320E70
:10092000626FE4ECC5F0000E0001666F020E676FA7
:1009300060516627615167236EC060F06FC061F03F
:10094000000E636F0A0E626FE4ECC5F000016051A7
:10095000662761516723070E6625D96E000E672151
:10096000DA6E010EDF6E6CC060F06DC061F0000EDB
:10097000636F320E626FE4ECC5F0000E0001666F2B
:10098000020E676F60516627615167236EC060F089
:100990006FC061F0000E636F0A0E626FE4ECC5F089
:1009A00000016051662761516723080E6625D96EE4
:1009B000000E6721DA6E010EDE6E000EDD6E6C4BEE
:1009C0006D2B000E6F6F000E6E6F6CC060F06DC00F
:1009D00061F0000E636F320E626FE4ECC5F0000E42
:1009E0000001666F020E676F6051662761516723D1
:1009F0006EC060F06FC061F0000E636F0A0E626F30
:100A0000E4ECC5F000016051662761516723040ED4
:100A10006625D96E000E6721DA6E000EDF6E6CC09F
:100A200060F06DC061F0000E636F320E626FE4EC37
:100A3000C5F0000E0001666F020E676F60516627F9
:100A4000615167236EC060F06FC061F0000E636F8C
:100A50000A0E626FE4ECC5F0000160516627615137
:100A60006723050E6625D96E000E6721DA6E000E2B
:100A7000DF6E6CC060F06DC061F0000E636F320E0F
:100A8000626FE4ECC5F0000E0001666F020E676F46
:100A900060516627615167236EC060F06FC061F0DE
:100AA000000E636F0A0E626FE4ECC5F00001605146
:100AB000662761516723060E6625D96E000E6721F1
:100AC000DA6E000EDF6E6CC060F06DC061F0000E7B
:100AD000636F320E626FE4ECC5F0000E0001666FCA
:100AE000020E676F60516627615167236EC060F028
:100AF0006FC061F0000E636F0A0E626FE4ECC5F028
:100B000000016051662761516723070E6625D96E83
:100B1000000E6721DA6E010EDF6E6CC060F06DC0F2
:100B200061F0000E636F320E626FE4ECC5F0000EF0
:100B30000001666F020E676F60516627615167237F
:100B40006EC060F06FC061F0000E636F0A0E626FDE
:100B5000E4ECC5F000016051662761516723080E7F
:100B60006625D96E000E6721DA6E030EDE6E000E6A
:100B7000DD6E6E4B6F2B6CC060F06DC061F0000ECF
:100B8000636F320E626FE4ECC5F0000E0001666F19
:100B9000020E676F60516627615167236EC060F077
:100BA0006FC061F0000E636F0A0E626FE4ECC5F077
:100BB00000016051662761516723040E6625D96ED6
:100BC000000E6721DA6E010EDF6E6CC060F06DC042
:100BD00061F0000E636F320E626FE4ECC5F0000E40
:100BE0000001666F020E676F6051662761516723CF
:100BF0006EC060F06FC061F0000E636F0A0E626F2E
:100C0000E4ECC5F000016051662761516723050ED1
:100C10006625D96E000E6721DA6E010EDF6E6CC09C
:100C200060F06DC061F0000E636F320E626FE4EC35
:100C3000C5F0000E0001666F020E676F60516627F7
:100C4000615167236EC060F06FC061F0000E636F8A
:100C50000A0E626FE4ECC5F0000160516627615135
:100C60006723060E6625D96E000E6721DA6E010E27
:100C7000DF6E6CC060F06DC061F0000E636F320E0D
:100C8000626FE4ECC5F0000E0001666F020E676F44
:100C900060516627615167236EC060F06FC061F0DC
:100CA000000E636F0A0E626FE4ECC5F00001605144
:100CB000662761516723070E6625D96E000E6721EE
:100CC000DA6E000EDF6E6CC060F06DC061F0000E79
:100CD000636F320E626FE4ECC5F0000E0001666FC8
:100CE000020E676F60516627615167236EC060F026
:100CF0006FC061F0000E636F0A0E626FE4ECC5F026
:100D000000016051662761516723080E6625D96E80
:100D1000000E6721DA6E010EDE6E000EDD6E6E4B88
:100D20006F2B6CC060F06DC061F0000E636F320E0F
:100D3000626FE4ECC5F0000E0001666F020E676F93
:100D400060516627615167236EC060F06FC061F02B
:100D5000000E636F0A0E626FE4ECC5F00001605193
:100D6000662761516723040E6625D96E000E672140
:100D7000DA6E000EDF6E6CC060F06DC061F0000EC8
:100D8000636F320E626FE4ECC5F0000E0001666F17
:100D9000020E676F60516627615167236EC060F075
:100DA0006FC061F0000E636F0A0E626FE4ECC5F075
:100DB00000016051662761516723050E6625D96ED3
:100DC000000E6721DA6E010EDF6E6CC060F06DC040
:100DD00061F0000E636F320E626FE4ECC5F0000E3E
:100DE0000001666F020E676F6051662761516723CD
:100DF0006EC060F06FC061F0000E636F0A0E626F2C
:100E0000E4ECC5F000016051662761516723060ECE
:100E10006625D96E000E6721DA6E000EDF6E6CC09B
:100E200060F06DC061F0000E636F320E626FE4EC33
:100E3000C5F0000E0001666F020E676F60516627F5
:100E4000615167236EC060F06FC061F0000E636F88
:100E50000A0E626FE4ECC5F0000160516627615133
:100E60006723070E6625D96E000E6721DA6E010E24
:100E7000DF6E6CC060F06DC061F0000E636F320E0B
:100E8000626FE4ECC5F0000E0001666F020E676F42
:100E900060516627615167236EC060F06FC061F0DA
:100EA000000E636F0A0E626FE4ECC5F00001605142
:100EB000662761516723080E6625D96E000E6721EB
:100EC000DA6E020EDE6E000EDD6E6E4B6F2B6CC0A6
:100ED00060F06DC061F0000E636F320E626FE4EC83
:100EE000C5F0000E0001666F020E676F6051662745
:100EF000615167236EC060F06FC061F0000E636FD8
:100F00000A0E626FE4ECC5F0000160516627615182
:100F10006723040E6625D96E000E6721DA6E000E77
:100F2000DF6E6CC060F06DC061F0000E636F320E5A
:100F3000626FE4ECC5F0000E0001666F020E676F91
:100F400060516627615167236EC060F06FC061F029
:100F5000000E636F0A0E626FE4ECC5F00001605191
:100F6000662761516723050E6625D96E000E67213D
:100F7000DA6E000EDF6E6CC060F06DC061F0000EC6
:100F8000636F320E626FE4ECC5F0000E0001666F15
:100F9000020E676F60516627615167236EC060F073
:100FA0006FC061F0000E636F0A0E626FE4ECC5F073
:100FB00000016051662761516723060E6625D96ED0
:100FC000000E6721DA6E010EDF6E6CC060F06DC03E
:100FD00061F0000E636F320E626FE4ECC5F0000E3C
:100FE0000001666F020E676F6051662761516723CB
:100FF0006EC060F06FC061F0000E636F0A0E626F2A
:10100000E4ECC5F000016051662761516723070ECB
:101010006625D96E000E6721DA6E010EDF6E6CC098
:1010200060F06DC061F0000E636F320E626FE4EC31
:10103000C5F0000E0001666F020E676F60516627F3
:10104000615167236EC060F06FC061F0000E636F86
:101050000A0E626FE4ECC5F0000160516627615131
:101060006723080E6625D96E000E6721DA6E020E20
:10107000DE6E000EDD6E6E4B6F2B6CC060F06DC0CF
:1010800061F0000E636F320E626FE4ECC5F0000E8B
:101090000001666F020E676F60516627615167231A
:1010A0006EC060F06FC061F0000E636F0A0E626F79
:1010B000E4ECC5F000016051662761516723040E1E
:1010C0006625D96E000E6721DA6E000EDF6E6CC0E9
:1010D00060F06DC061F0000E636F320E626FE4EC81
:1010E000C5F0000E0001666F020E676F6051662743
:1010F000615167236EC060F06FC061F0000E636FD6
:101100000A0E626FE4ECC5F0000160516627615180
:101110006723050E6625D96E000E6721DA6E010E73
:10112000DF6E6CC060F06DC061F0000E636F320E58
:10113000626FE4ECC5F0000E0001666F020E676F8F
:1011400060516627615167236EC060F06FC061F027
:10115000000E636F0A0E626FE4ECC5F0000160518F
:10116000662761516723060E6625D96E000E67213A
:10117000DA6E010EDF6E6CC060F06DC061F0000EC3
:10118000636F320E626FE4ECC5F0000E0001666F13
:10119000020E676F60516627615167236EC060F071
:1011A0006FC061F0000E636F0A0E626FE4ECC5F071
:1011B00000016051662761516723070E6625D96ECD
:1011C000000E6721DA6E000EDF6E6CC060F06DC03D
:1011D00061F0000E636F320E626FE4ECC5F0000E3A
:1011E0000001666F020E676F6051662761516723C9
:1011F0006EC060F06FC061F0000E636F0A0E626F28
:10120000E4ECC5F000016051662761516723080EC8
:101210006625D96E000E6721DA6E020EDE6E000EB4
:10122000DD6E6C4B6D2B000E6F6F000E6E6F6CC021
:1012300060F06DC061F0000E636F320E626FE4EC1F
:10124000C5F0000E0001666F020E676F60516627E1
:10125000615167236EC060F06FC061F0000E636F74
:101260000A0E626FE4ECC5F000016051662761511F
:101270006723040E6625D96E000E6721DA6E000E14
:10128000DF6E6CC060F06DC061F0000E636F320EF7
:10129000626FE4ECC5F0000E0001666F020E676F2E
:1012A00060516627615167236EC060F06FC061F0C6
:1012B000000E636F0A0E626FE4ECC5F0000160512E
:1012C000662761516723050E6625D96E000E6721DA
:1012D000DA6E000EDF6E6CC060F06DC061F0000E63
:1012E000636F320E626FE4ECC5F0000E0001666FB2
:1012F000020E676F60516627615167236EC060F010
:101300006FC061F0000E636F0A0E626FE4ECC5F00F
:1013100000016051662761516723060E6625D96E6C
:10132000000E6721DA6E000EDF6E6CC060F06DC0DB
:1013300061F0000E636F320E626FE4ECC5F0000ED8
:101340000001666F020E676F605166276151672367
:101350006EC060F06FC061F0000E636F0A0E626FC6
:10136000E4ECC5F000016051662761516723070E68
:101370006625D96E000E6721DA6E010EDF6E6CC035
:1013800060F06DC061F0000E636F320E626FE4ECCE
:10139000C5F0000E0001666F020E676F6051662790
:1013A000615167236EC060F06FC061F0000E636F23
:1013B0000A0E626FE4ECC5F00001605166276151CE
:1013C0006723080E6625D96E000E6721DA6E030EBC
:1013D000DE6E000EDD6E6E4B6F2B6CC060F06DC06C
:1013E00061F0000E636F320E626FE4ECC5F0000E28
:1013F0000001666F020E676F6051662761516723B7
:101400006EC060F06FC061F0000E636F0A0E626F15
:10141000E4ECC5F000016051662761516723040EBA
:101420006625D96E000E6721DA6E010EDF6E6CC084
:1014300060F06DC061F0000E636F320E626FE4EC1D
:10144000C5F0000E0001666F020E676F60516627DF
:10145000615167236EC060F06FC061F0000E636F72
:101460000A0E626FE4ECC5F000016051662761511D
:101470006723050E6625D96E000E6721DA6E000E11
:10148000DF6E6CC060F06DC061F0000E636F320EF5
:10149000626FE4ECC5F0000E0001666F020E676F2C
:1014A00060516627615167236EC060F06FC061F0C4
:1014B000000E636F0A0E626FE4ECC5F0000160512C
:1014C000662761516723060E6625D96E000E6721D7
:1014D000DA6E010EDF6E6CC060F06DC061F0000E60
:1014E000636F320E626FE4ECC5F0000E0001666FB0
:1014F000020E676F60516627615167236EC060F00E
:101500006FC061F0000E636F0A0E626FE4ECC5F00D
:1015100000016051662761516723070E6625D96E69
:10152000000E6721DA6E000EDF6E6CC060F06DC0D9
:1015300061F0000E636F320E626FE4ECC5F0000ED6
:101540000001666F020E676F605166276151672365
:101550006EC060F06FC061F0000E636F0A0E626FC4
:10156000E4ECC5F000016051662761516723080E65
:101570006625D96E000E6721DA6E020EDE6E000E51
:10158000DD6E6E4B6F2B6CC060F06DC061F0000EB5
:10159000636F320E626FE4ECC5F0000E0001666FFF
:1015A000020E676F60516627615167236EC060F05D
:1015B0006FC061F0000E636F0A0E626FE4ECC5F05D
:1015C00000016051662761516723040E6625D96EBC
:1015D000000E6721DA6E000EDF6E6CC060F06DC029
:1015E00061F0000E636F320E626FE4ECC5F0000E26
:1015F0000001666F020E676F6051662761516723B5
:101600006EC060F06FC061F0000E636F0A0E626F13
:10161000E4ECC5F000016051662761516723050EB7
:101620006625D96E000E6721DA6E000EDF6E6CC083
:1016300060F06DC061F0000E636F320E626FE4EC1B
:10164000C5F0000E0001666F020E676F60516627DD
:10165000615167236EC060F06FC061F0000E636F70
:101660000A0E626FE4ECC5F000016051662761511B
:101670006723060E6625D96E000E6721DA6E000E0E
:10168000DF6E6CC060F06DC061F0000E636F320EF3
:10169000626FE4ECC5F0000E0001666F020E676F2A
:1016A00060516627615167236EC060F06FC061F0C2
:1016B000000E636F0A0E626FE4ECC5F0000160512A
:1016C000662761516723070E6625D96E000E6721D4
:1016D000DA6E000EDF6E6CC060F06DC061F0000E5F
:1016E000636F320E626FE4ECC5F0000E0001666FAE
:1016F000020E676F60516627615167236EC060F00C
:101700006FC061F0000E636F0A0E626FE4ECC5F00B
:1017100000016051662761516723080E6625D96E66
:10172000000E6721DA6E040EDE6E000EDD6E6E4B6B
:101730006F2B6CC060F06DC061F0000E636F320EF5
:10174000626FE4ECC5F0000E0001666F020E676F79
:1017500060516627615167236EC060F06FC061F011
:10176000000E636F0A0E626FE4ECC5F00001605179
:10177000662761516723040E6625D96E000E672126
:10178000DA6E010EDF6E6CC060F06DC061F0000EAD
:10179000636F320E626FE4ECC5F0000E0001666FFD
:1017A000020E676F60516627615167236EC060F05B
:1017B0006FC061F0000E636F0A0E626FE4ECC5F05B
:1017C00000016051662761516723050E6625D96EB9
:1017D000000E6721DA6E000EDF6E6CC060F06DC027
:1017E00061F0000E636F320E626FE4ECC5F0000E24
:1017F0000001666F020E676F6051662761516723B3
:101800006EC060F06FC061F0000E636F0A0E626F11
:10181000E4ECC5F000016051662761516723060EB4
:101820006625D96E000E6721DA6E010EDF6E6CC080
:1018300060F06DC061F0000E636F320E626FE4EC19
:10184000C5F0000E0001666F020E676F60516627DB
:10185000615167236EC060F06FC061F0000E636F6E
:101860000A0E626FE4ECC5F0000160516627615119
:101870006723070E6625D96E000E6721DA6E000E0B
:10188000DF6E6CC060F06DC061F0000E636F320EF1
:10189000626FE4ECC5F0000E0001666F020E676F28
:1018A00060516627615167236EC060F06FC061F0C0
:1018B000000E636F0A0E626FE4ECC5F00001605128
:1018C000662761516723080E6625D96E000E6721D1
:1018D000DA6E020EDE6E000EDD6E6E4B6F2B6CC08C
:1018E00060F06DC061F0000E636F320E626FE4EC69
:1018F000C5F0000E0001666F020E676F605166272B
:10190000615167236EC060F06FC061F0000E636FBD
:101910000A0E626FE4ECC5F0000160516627615168
:101920006723040E6625D96E000E6721DA6E010E5C
:10193000DF6E6CC060F06DC061F0000E636F320E40
:10194000626FE4ECC5F0000E0001666F020E676F77
:1019500060516627615167236EC060F06FC061F00F
:10196000000E636F0A0E626FE4ECC5F00001605177
:10197000662761516723050E6625D96E000E672123
:10198000DA6E010EDF6E6CC060F06DC061F0000EAB
:10199000636F320E626FE4ECC5F0000E0001666FFB
:1019A000020E676F60516627615167236EC060F059
:1019B0006FC061F0000E636F0A0E626FE4ECC5F059
:1019C00000016051662761516723060E6625D96EB6
:1019D000000E6721DA6E000EDF6E6CC060F06DC025
:1019E00061F0000E636F320E626FE4ECC5F0000E22
:1019F0000001666F020E676F6051662761516723B1
:101A00006EC060F06FC061F0000E636F0A0E626F0F
:101A1000E4ECC5F000016051662761516723070EB1
:101A20006625D96E000E6721DA6E000EDF6E6CC07F
:101A300060F06DC061F0000E636F320E626FE4EC17
:101A4000C5F0000E0001666F020E676F60516627D9
:101A5000615167236EC060F06FC061F0000E636F6C
:101A60000A0E626FE4ECC5F0000160516627615117
:101A70006723080E6625D96E000E6721DA6E020E06
:101A8000DE6E000EDD6E6C4B6D2B000E6F6F000E68
:101A90006E6F6CC060F06DC061F0000E636F320E4F
:101AA000626FE4ECC5F0000E0001666F020E676F16
:101AB00060516627615167236EC060F06FC061F0AE
:101AC000000E636F0A0E626FE4ECC5F00001605116
:101AD000662761516723040E6625D96E000E6721C3
:101AE000DA6E000EDF6E6CC060F06DC061F0000E4B
:101AF000636F320E626FE4ECC5F0000E0001666F9A
:101B0000020E676F60516627615167236EC060F0F7
:101B10006FC061F0000E636F0A0E626FE4ECC5F0F7
:101B200000016051662761516723050E6625D96E55
:101B3000000E6721DA6E000EDF6E6CC060F06DC0C3
:101B400061F0000E636F320E626FE4ECC5F0000EC0
:101B50000001666F020E676F60516627615167234F
:101B60006EC060F06FC061F0000E636F0A0E626FAE
:101B7000E4ECC5F000016051662761516723060E51
:101B80006625D96E000E6721DA6E010EDF6E6CC01D
:101B900060F06DC061F0000E636F320E626FE4ECB6
:101BA000C5F0000E0001666F020E676F6051662778
:101BB000615167236EC060F06FC061F0000E636F0B
:101BC0000A0E626FE4ECC5F00001605166276151B6
:101BD0006723070E6625D96E000E6721DA6E010EA7
:101BE000DF6E6CC060F06DC061F0000E636F320E8E
:101BF000626FE4ECC5F0000E0001666F020E676FC5
:101C000060516627615167236EC060F06FC061F05C
:101C1000000E636F0A0E626FE4ECC5F000016051C4
:101C2000662761516723080E6625D96E000E67216D
:101C3000DA6E020EDE6E000EDD6E6E4B6F2B6CC028
:101C400060F06DC061F0000E636F320E626FE4EC05
:101C5000C5F0000E0001666F020E676F60516627C7
:101C6000615167236EC060F06FC061F0000E636F5A
:101C70000A0E626FE4ECC5F0000160516627615105
:101C80006723040E6625D96E000E6721DA6E010EF9
:101C9000DF6E6CC060F06DC061F0000E636F320EDD
:101CA000626FE4ECC5F0000E0001666F020E676F14
:101CB00060516627615167236EC060F06FC061F0AC
:101CC000000E636F0A0E626FE4ECC5F00001605114
:101CD000662761516723050E6625D96E000E6721C0
:101CE000DA6E010EDF6E6CC060F06DC061F0000E48
:101CF000636F320E626FE4ECC5F0000E0001666F98
:101D0000020E676F60516627615167236EC060F0F5
:101D10006FC061F0000E636F0A0E626FE4ECC5F0F5
:101D200000016051662761516723060E6625D96E52
:101D3000000E6721DA6E010EDF6E6CC060F06DC0C0
:101D400061F0000E636F320E626FE4ECC5F0000EBE
:101D50000001666F020E676F60516627615167234D
:101D60006EC060F06FC061F0000E636F0A0E626FAC
:101D7000E4ECC5F000016051662761516723070E4E
:101D80006625D96E000E6721DA6E000EDF6E6CC01C
:101D900060F06DC061F0000E636F320E626FE4ECB4
:101DA000C5F0000E0001666F020E676F6051662776
:101DB000615167236EC060F06FC061F0000E636F09
:101DC0000A0E626FE4ECC5F00001605166276151B4
:101DD0006723080E6625D96E000E6721DA6E010EA4
:101DE000DE6E000EDD6E6E4B6F2B6CC060F06DC052
:101DF00061F0000E636F320E626FE4ECC5F0000E0E
:101E00000001666F020E676F60516627615167239C
:101E10006EC060F06FC061F0000E636F0A0E626FFB
:101E2000E4ECC5F000016051662761516723040EA0
:101E30006625D96E000E6721DA6E000EDF6E6CC06B
:101E400060F06DC061F0000E636F320E626FE4EC03
:101E5000C5F0000E0001666F020E676F60516627C5
:101E6000615167236EC060F06FC061F0000E636F58
:101E70000A0E626FE4ECC5F0000160516627615103
:101E80006723050E6625D96E000E6721DA6E010EF6
:101E9000DF6E6CC060F06DC061F0000E636F320EDB
:101EA000626FE4ECC5F0000E0001666F020E676F12
:101EB00060516627615167236EC060F06FC061F0AA
:101EC000000E636F0A0E626FE4ECC5F00001605112
:101ED000662761516723060E6625D96E000E6721BD
:101EE000DA6E010EDF6E6CC060F06DC061F0000E46
:101EF000636F320E626FE4ECC5F0000E0001666F96
:101F0000020E676F60516627615167236EC060F0F3
:101F10006FC061F0000E636F0A0E626FE4ECC5F0F3
:101F200000016051662761516723070E6625D96E4F
:101F3000000E6721DA6E010EDF6E6CC060F06DC0BE
:101F400061F0000E636F320E626FE4ECC5F0000EBC
:101F50000001666F020E676F60516627615167234B
:101F60006EC060F06FC061F0000E636F0A0E626FAA
:101F7000E4ECC5F000016051662761516723080E4B
:101F80006625D96E000E6721DA6E010EDE6E000E38
:101F9000DD6E6E4B6F2B6CC060F06DC061F0000E9B
:101FA000636F320E626FE4ECC5F0000E0001666FE5
:101FB000020E676F60516627615167236EC060F043
:101FC0006FC061F0000E636F0A0E626FE4ECC5F043
:101FD00000016051662761516723040E6625D96EA2
:101FE000000E6721DA6E010EDF6E6CC060F06DC00E
:101FF00061F0000E636F320E626FE4ECC5F0000E0C
:102000000001666F020E676F60516627615167239A
:102010006EC060F06FC061F0000E636F0A0E626FF9
:10202000E4ECC5F000016051662761516723050E9D
:102030006625D96E000E6721DA6E000EDF6E6CC069
:1020400060F06DC061F0000E636F320E626FE4EC01
:10205000C5F0000E0001666F020E676F60516627C3
:10206000615167236EC060F06FC061F0000E636F56
:102070000A0E626FE4ECC5F0000160516627615101
:102080006723060E6625D96E000E6721DA6E010EF3
:10209000DF6E6CC060F06DC061F0000E636F320ED9
:1020A000626FE4ECC5F0000E0001666F020E676F10
:1020B00060516627615167236EC060F06FC061F0A8
:1020C000000E636F0A0E626FE4ECC5F00001605110
:1020D000662761516723070E6625D96E000E6721BA
:1020E000DA6E010EDF6E6CC060F06DC061F0000E44
:1020F000636F320E626FE4ECC5F0000E0001666F94
:10210000020E676F60516627615167236EC060F0F1
:102110006FC061F0000E636F0A0E626FE4ECC5F0F1
:1021200000016051662761516723080E6625D96E4C
:10213000000E6721DA6E010EDE6E000EDD6E6E4B54
:102140006F2B6CC060F06DC061F0000E636F320EDB
:10215000626FE4ECC5F0000E0001666F020E676F5F
:1021600060516627615167236EC060F06FC061F0F7
:10217000000E636F0A0E626FE4ECC5F0000160515F
:10218000662761516723040E6625D96E000E67210C
:10219000DA6E000EDF6E6CC060F06DC061F0000E94
:1021A000636F320E626FE4ECC5F0000E0001666FE3
:1021B000020E676F60516627615167236EC060F041
:1021C0006FC061F0000E636F0A0E626FE4ECC5F041
:1021D00000016051662761516723050E6625D96E9F
:1021E000000E6721DA6E010EDF6E6CC060F06DC00C
:1021F00061F0000E636F320E626FE4ECC5F0000E0A
:102200000001666F020E676F605166276151672398
:102210006EC060F06FC061F0000E636F0A0E626FF7
:10222000E4ECC5F000016051662761516723060E9A
:102230006625D96E000E6721DA6E010EDF6E6CC066
:1022400060F06DC061F0000E636F320E626FE4ECFF
:10225000C5F0000E0001666F020E676F60516627C1
:10226000615167236EC060F06FC061F0000E636F54
:102270000A0E626FE4ECC5F00001605166276151FF
:102280006723070E6625D96E000E6721DA6E000EF1
:10229000DF6E6CC060F06DC061F0000E636F320ED7
:1022A000626FE4ECC5F0000E0001666F020E676F0E
:1022B00060516627615167236EC060F06FC061F0A6
:1022C000000E636F0A0E626FE4ECC5F0000160510E
:1022D000662761516723080E6625D96E000E6721B7
:1022E000DA6E020EDE6E000EDD6E1200C7C13BF02C
:1022F000000E0101D26F000ED16F000ED46F000EE0
:10230000D36FF951BF1904E1FA51C019D8B495D06F
:10231000F9C1F9F0FAC1FAF00001F91FFA1FF94BFF
:10232000FA2B0101BF510001F9250101D36FC05102
:102330000001FA210101D46FD4AF3AD0D3C1F9F032
:10234000D4C1FAF00001F91FFA1FF94BFA2BF9C0BA
:1023500060F0FAC061F0000E636F530E626FE4EC40
:10236000C5F060C0D3F161C0D4F1000E0101CA6FA5
:10237000010EC96FD4BF4ED0D45104E1A70ED35D76
:10238000D8A048D0D3C1F9F0D4C1FAF00001F91FA8
:10239000FA1FF94BFA2B4C0EF9250101D36F010EF0
:1023A0000001FA210101D46F000ECA6F000E31D076
:1023B000D3C160F0D4C161F0000E0001636F530E11
:1023C000626FE4ECC5F060C0D3F161C0D4F1000EDF
:1023D0000101CA6F000EC96FD4BF1CD0D45104E1F3
:1023E000A70ED35DD8A016D0D3C1F9F0D4C1FAF0AE
:1023F0000001F91FFA1FF94BFA2B4C0EF9250101C8
:10240000D36F010E0001FA210101D46F000ECA6FD3
:10241000010EC96FD3C161F0D4C162F0000E00019A
:10242000646FC80E636FC9C165F0CAC166F01FEC66
:10243000BDF0BFC1F9F1C0C1FAF10101C751C81126
:10244000D8A406D038513911D8A402D0000E14D027
:10245000C751C811D8A411D038513911D8B40DD0F2
:102460006051D8B407D0FF0E0001AA6FA60EA96F65
:1024700044ECADF0000E0101606FC705C811D8A48F
:1024800011D038513911D8B40DD06005D8B407D067
:10249000000E0001AA6F5A0EA96F44ECADF0010EB8
:1024A0000101606FC5C161F0C6C162F0C5C163F0D2
:1024B000C6C164F0BBECC2F00CEC9EF0000E010152
:1024C0003D6F040E3C6F000ECC6F000ECB6F000E04
:1024D000CE6F000ECD6F9FD10CEC9EF02CC0F9F0AA
:1024E0002DC0FAF00001F91FFA1FF94BFA2B010178
:1024F000F3510001F9250101D56FF4510001FA21D2
:102500000101D66FD5C160F0D6C161F03CC162F067
:102510003DC163F0E4ECC5F060C0D5F161C0D6F117
:102520002DBE06D02D5003E15B0E2C5CD8B0B0D090
:1025300001013C51F3250001F96F01013D51F421E6
:102540000001FA6F0101D5510001F91906E10101FD
:10255000D6510001FA19D8B41BD03CC1F9F03DC1E5
:10256000FAF0F91FFA1FF94BFA2B0101F3510001A0
:10257000F9270101F4510001FA230101D5510001AD
:10258000F91910E10101D6510001FA19D8A40AD0B5
:10259000C5C161F0C6C162F0C5C163F0C6C164F0D7
:1025A000BBECC2F00101D6BF32D0D5C1F9F0D6C123
:1025B000FAF00001F91FFA1FF94BFA2B0101C5517E
:1025C0000001F9250101CB6FC6510001FA2101017B
:1025D000CC6FC751C811D8A40BD0CBC161F0CCC10E
:1025E00062F0C5C163F0C6C164F0BBECC2F00FD0AD
:1025F0000101C705C811D8A40AD0C5C161F0C6C180
:1026000062F0CBC163F0CCC164F0BBECC2F001015D
:10261000D6BF05D0D65146E1D505D8B043D0D6AF08
:1026200004D0D56DD61FD8B0D62BD5C1F9F0D6C100
:10263000FAF00001F91FFA1FF94BFA2B0101C551FD
:102640000001F9250101CD6FC6510001FA210101F8
:10265000CE6FC751C811D8A40BD0C5C161F0C6C197
:1026600062F0CDC163F0CEC164F0BBECC2F01AD011
:102670000101C705C811D8A415D0CDC161F0CEC1E4
:1026800062F0C5C163F0C6C164F0BBECC2F00AD011
:10269000C5C161F0C6C162F0C5C163F0C6C164F0D6
:1026A000BBECC2F044ECBFF0000161510101D12745
:1026B000000162510101D22332ECC6F000016151E8
:1026C0006211D8B4A8D0DAECC1F0000161516211F6
:1026D000D8A4A1D040C160F041C161F0000E636F89
:1026E000320E626FE4ECC5F0040E0101BF2500015B
:1026F000F96F000E0101C0210001FA6F000EFB6F9F
:10270000020EFC6FF951FB27FA51FC236051FB27A5
:102710006151FC233EC160F03FC161F0000E636F68
:102720000A0E626FE4ECC5F000016051FB25D96E22
:102730006151FC21DA6E010EDF6E000E0101D06FD7
:10274000000ECF6F64ECC6F08B0E0001756FFF0EAC
:10275000766F90ECACF0B3ECA8F0C5C1F9F0C6C14F
:10276000FAF00001F91FFA1FF94BFA2BF9C061F0DA
:10277000FAC062F0C5C1FBF0C6C1FCF0FB1FFC1F34
:10278000FB4BFC2BFBC063F0FCC064F0BBECC2F065
:1027900044ECBFF028D044ECBFF0000161510101CE
:1027A000CF27000162510101D023B3ECA8F0FB0E4A
:1027B0000001756FFF0E766F000E786F230E776F36
:1027C00090ECACF05C0E0001756FFF0E766FCFC120
:1027D00077F0D0C178F0D1C179F0D2C17AF090EC25
:1027E000ACF0B3ECA8F0D1C1F9F0D2C1FAF000011D
:1027F000F91FFA1FF94BFA2BF9510101CF5DD051A6
:10280000800A0001FB6FFA51800AFB59D8B0C3D788
:1028100064ECC6F012000101C151D15DD251800AB1
:102820000001F96F0101C251800A0001F959D8A0D5
:1028300053D60101BF51C011D8A404D04007D8A07D
:10284000410717D0BF05C011D8A403D03E4B3F2B82
:1028500010D0020EBF19C011D8A403D0404B412B99
:1028600008D0030EBF19C011D8A403D03E07D8A0CA
:102870003F0764ECC6F040C1F1F041C1F2F03EC147
:10288000F3F03FC1F4F0B0ECA4F0BFC183F0C0C1DD
:1028900084F091ECC3F040C160F041C161F0000EE2
:1028A0000001636F320E626FE4ECC5F0000E0001B0
:1028B000F96F020EFA6F6051F9276151FA233EC198
:1028C00060F03FC161F0000E636F0A0E626FE4ECCE
:1028D000C5F000016051F9276151FA23080EF9256E
:1028E000D96E000EFA21DA6EDE06000EDD5A64ECB7
:1028F000C6F01200970E0001756FFF0E766F40C193
:1029000077F041C178F03EC179F03FC17AF090ECA8
:10291000ACF0B3ECA8F040C160F041C161F0000E32
:102920000001636F320E626FE4ECC5F0000E01012E
:10293000DB6F020EDC6F000160510101DB2700013B
:1029400061510101DC233EC160F03FC161F0000E26
:102950000001636F0A0E626FE4ECC5F00001605184
:102960000101DB27000161510101DC23080EDB2599
:10297000D96E000EDC21DA6E010EDBBE34D2010E00
:10298000DB5003E1DE04D8A02ED240C160F041C18B
:1029900061F0000E0001636F320E626FE4ECC5F06F
:1029A000000E0101DB6F020EDC6F000160510101BE
:1029B000DB27000161510101DC233EC160F03FC112
:1029C00061F0000E0001636F0A0E626FE4ECC5F067
:1029D000000160510101DB27000161510101DC238D
:1029E000050EDB25D96E000EDC21DA6EDF50D8A48F
:1029F00042D040C160F041C161F0000E0001636F40
:102A0000320E626FE4ECC5F0000E0101DB6F020EC6
:102A1000DC6F000160510101DB2700016151010100
:102A2000DC23010E3E250001606F000E01013F21F5
:102A30000001616F000E636F0A0E626FE4ECC5F077
:102A4000000160510101DB27000161510101DC231C
:102A5000080EDB25D96E000EDC21DA6E010EDBBE1E
:102A60000AD0010EDB5003E1DE04D8A004D0000E32
:102A7000E06F010E61D140C160F041C161F0000E14
:102A80000001636F320E626FE4ECC5F0000E0101CD
:102A9000DB6F020EDC6F000160510101DB270001DA
:102AA00061510101DC233EC160F03FC161F0000EC5
:102AB0000001636F0A0E626FE4ECC5F00001605123
:102AC0000101DB27000161510101DC23060EDB253A
:102AD000D96E000EDC21DA6EDF50D8A442D0010E90
:102AE00040250001606F000E010141210001616F6E
:102AF000000E636F320E626FE4ECC5F0000E010150
:102B0000DB6F020EDC6F000160510101DB27000169
:102B100061510101DC233EC160F03FC161F0000E54
:102B20000001636F0A0E626FE4ECC5F000016051B2
:102B30000101DB27000161510101DC23080EDB25C7
:102B4000D96E000EDC21DA6E010EDBBE0AD0010E5A
:102B5000DB5003E1DE04D8A004D0000EE06F020ECB
:102B6000EBD040C160F041C161F0000E0001636F25
:102B7000320E626FE4ECC5F0000E0101DB6F020E55
:102B8000DC6F000160510101DB270001615101018F
:102B9000DC233EC160F03FC161F0000E0001636FB5
:102BA0000A0E626FE4ECC5F0000160510101DB2701
:102BB000000161510101DC23070EDB25D96E000EF7
:102BC000DC21DA6EDF50D8A442D040C160F041C1B0
:102BD00061F0000E0001636F320E626FE4ECC5F02D
:102BE000000E0101DB6F020EDC6F0001605101017C
:102BF000DB27000161510101DC23FF0E3E250001AE
:102C0000606FFF0E01013F210001616F000E636FD5
:102C10000A0E626FE4ECC5F0000160510101DB2790
:102C2000000161510101DC23080EDB25D96E000E85
:102C3000DC21DA6E010EDBBE0AD0010EDB5003E1AF
:102C4000DE04D8A004D0000EE06F030E75D040C1A2
:102C500060F041C161F0000E0001636F320E626FDF
:102C6000E4ECC5F0000E0101DB6F020EDC6F000129
:102C700060510101DB27000161510101DC233EC1EC
:102C800060F03FC161F0000E0001636F0A0E626FD9
:102C9000E4ECC5F0000160510101DB270001615146
:102CA0000101DC23040EDB25D96E000EDC21DA6E77
:102CB000DF50D8A443D0FF0E40250001606FFF0E07
:102CC000010141210001616F000E636F320E626FDE
:102CD000E4ECC5F0000E0101DB6F020EDC6F0001B9
:102CE00060510101DB27000161510101DC233EC17C
:102CF00060F03FC161F0000E0001636F0A0E626F69
:102D0000E4ECC5F0000160510101DB2700016151D5
:102D10000101DC23080EDB25D96E000EDC21DA6E02
:102D2000010EDBBE0BD0010EDB5003E1DE04D8A0A8
:102D300005D0000EE06F000EDF6F0AD0F40E000128
:102D4000756FFF0E766F90ECACF0B3ECA8F0FFD788
:102D500040C160F041C161F0000E0001636F320EAE
:102D6000626FE4ECC5F0000E0101DB6F020EDC6F58
:102D7000000160510101DB27000161510101DC23E9
:102D80003EC160F03FC161F0000E0001636F0A0EAA
:102D9000626FE4ECC5F0000160510101DB27000126
:102DA00061510101DC23080EDB25D96E000EDC2108
:102DB000DA6EDE06000EDD5ADFC1BFF1E0C1C0F100
:102DC000030EC26FC00EC16F000EC46F000EC36F42
:102DD000010EC66FF40EC56F000EC86F000EC76FF0
:102DE00076EC91F016D0A30E0001756FFF0E766F92
:102DF00090ECACF0B3ECA8F04CECC2F083C0D7F18F
:102E000084C0D8F1010E0101DA6FF40ED96F53ECD2
:102E1000B6F040C1F1F041C1F2F03EC1F3F03FC164
:102E2000F4F0B0ECA4F012002CECB1F0F1ECC6F030
:102E300094ECC6F015ECC7F0E8ECC7F05AECBDF026
:102E400000ECC2F0010E67ECC0F000EC80F0010E67
:102E5000A6ECC4F00009D8B40CD05EECAAF045ECA6
:102E6000AFF073ECBEF020ECC7F00009D8A42BEC57
:102E7000C5F00CEC9EF02CC076F02DC077F01FEC66
:102E8000C6F0C2ECC4F0AAECBFF023EECDF001D83E
:102E90000AD00500FA6EDE50FD6EDE50FE6EDE508A
:102EA000FF6EFA5012000301EE6F23EEAFF001D86F
:102EB0000AD00500FA6EDE50FD6EDE50FE6EDE506A
:102EC000FF6EFA5012000301EF6F23EEC3F001D83A
:102ED0000AD00500FA6EDE50FD6EDE50FE6EDE504A
:102EE000FF6EFA5012000301F06F23EEB9F001D823
:102EF0000AD00500FA6EDE50FD6EDE50FE6EDE502A
:102F0000FF6EFA5012000301F16FEE51D8B405D0F4
:102F1000000E01014D6F030E4C6F0301EF51D8B449
:102F200005D0000E01014D6F010E4C6F0301F051F1
:102F3000D8B405D0000E01014D6F020E4C6F030195
:102F4000F151D8B405D0000E01014D6F040E4C6F45
:102F5000010EA6ECC4F00009D8B48BD701014C5186
:102F60004D11D8A414D0FB0E0001756FFF0E766FC3
:102F7000000E786F230E776F90ECACF06C0E0001B2
:102F8000756FFF0E766F90ECACF0B3ECA8F0030E0B
:102F900001014C194D11D8A412D1FB0E0001756F1F
:102FA000FF0E766F000E786F230E776F90ECACF00B
:102FB0008CECB0F0CDECB7F0FF0E0001AA6FD30E91
:102FC000A96F44ECADF0A5D00CEC9EF0FB0E000117
:102FD000756FFF0E766F000E786F230E776F90EC93
:102FE000ACF0D00E0001756FFF0E766F90ECACF078
:102FF000EC0E0001756FFF0E766F34C177F035C1AE
:1030000078F090ECACF0E60E0001756FFE0E766F76
:1030100040C177F041C178F03EC179F03FC17AF00C
:1030200090ECACF07AEC94F0DAECC1F000016105C0
:103030006211D8A46CD040C160F041C161F0000EB3
:10304000636F320E626FE4ECC5F0000E0201FC6F9C
:10305000020EFD6F000160510201FC270001615169
:103060000201FD233EC160F03FC161F0000E00018E
:10307000636F0A0E626FE4ECC5F00001605102015B
:10308000FC27000161510201FD23020EFC25D96ECF
:10309000000EFD21DA6EDE50DE10D8A438D040C11B
:1030A00060F041C161F0000E0001636F320E626F8B
:1030B000E4ECC5F0000E0201FC6F020EFD6F000192
:1030C00060510201FC27000161510201FD233EC154
:1030D00060F03FC161F0000E0001636F0A0E626F85
:1030E000E4ECC5F0000160510201FC2700016151D0
:1030F0000201FD23020EFC25D96E000EFD21DA6EC1
:10310000010EDE6E000EDD6E0101344B352BB3EC8B
:10311000A8F0010135BF58D735512DE1020E345DBD
:10312000D8B029D051D7FB0E0001756FFF0E766F16
:10313000000E786F230E776F90ECACF0D00E00018C
:10314000756FFF0E766F90ECACF0BB0E0001756FE3
:10315000FF0E766F90ECACF0B3ECA8F04CECC2F044
:1031600083C0D7F184C0D8F1010E0101DA6FF40EEB
:10317000D96F53ECB6F0030E010140194111D8A4E8
:10318000D2D73E053F11D8A4CED7E30E0001756F0C
:10319000FF0E766F90ECACF0B3ECA8F0000E0001DF
:1031A000616FC80E606F39ECC0F074ECB5F0000EC2
:1031B0000001616FC80E606F39ECC0F0FFD7020EDE
:1031C00001014C194D11D8A403D074ECB5F0FFD710
:1031D000B3ECA8F020ECC7F00009D8B44AD62BEC29
:1031E000C5F047D60AD0C80E0001936F020E03D077
:1031F000D30E936F020E946F08D000019151000A14
:10320000D8B4F1D7010AD8B4F3D720EE02F0935125
:10321000D9269451DA2291C0DFFF93D0790E866FC0
:10322000010E876F020E886F030E896F8FECA9F075
:10323000790E0001866F010E876F030E886F030EF3
:10324000896F8FECA9F0790E0001866F010E876FF0
:10325000050E886F030E896F8FECA9F0790E0001BF
:10326000866F010E876F040E886F000E896F8FECDA
:10327000A9F0000120EE03F09351D9269451DA22EF
:10328000C70EDE6E0F0EDD6E20EE06F09351D926CE
:103290009451DA22C60EDE6E0F0EDD6E20EE09F0BE
:1032A0009351D9269451DA22C90E47D06F0E866FFA
:1032B000010E876F070E886F030E896F8FECA9F0E0
:1032C0006F0E0001866F010E876F060E886F030E6A
:1032D000896F8FECA9F06F0E0001866F010E876F6A
:1032E000040E886F030E896F8FECA9F06F0E00013A
:1032F000866F010E876F050E886F000E896F8FEC49
:10330000A9F0000120EE03F09351D9269451DA225E
:103310006D0EDE6E0F0EDD6E20EE06F09351D92697
:103320009451DA226C0EDE6E0F0EDD6E20EE09F087
:103330009351D9269451DA226F0EDE6E0F0EDD6E98
:1033400008D09151000AD8B469D7010AD8A4120054
:10335000ADD720EE06F09351D9269451DA22DECF74
:1033600060F0DDCF61F0050E626F000E636F39EC27
:10337000C1F08CD0000120EE06F09351D926945173
:10338000DA22DECF60F0DDCF61F0040E626F000E56
:10339000636F39ECC1F0000120EE03F09351D926A0
:1033A0009451DA22DECF60F0DDCF61F0060E626F5D
:1033B000000E636F39ECC1F078D0000120EE06F00A
:1033C0009351D9269451DA22DECF60F0DDCF61F03F
:1033D000040E626F000E636F39ECC1F0000120EE45
:1033E00003F09351D9269451DA22DECF60F0DDCF7D
:1033F00061F0060E626F010E636F39ECC1F055D0BB
:10340000000120EE06F09351D9269451DA22DECF46
:1034100060F0DDCF61F0040E626F010E636F39EC76
:10342000C1F0000120EE03F09351D9269451DA2225
:10343000DECF60F0DDCF61F0060E626F000E636FCD
:1034400039ECC1F032D0000120EE06F09351D926BC
:103450009451DA22DECF60F0DDCF61F0040E626FAE
:10346000010E636F39ECC1F0000120EE03F09351BF
:10347000D9269451DA22DECF60F0DDCF61F0060E5E
:10348000626F010E636F39ECC1F00FD000019251F1
:10349000000AD8B46FD7010AD8B48FD7030AD8B4BA
:1034A000AFD7010AD8A41200CED7000120EE06F053
:1034B0009351D9269451DA22DECF60F0DDCF61F04E
:1034C000070E626F000E636F39ECC1F0000120EE51
:1034D00006F09351D9269451DA22DECF60F0DDCF89
:1034E00061F0060E626F000E636F39ECC1F08DC0A3
:1034F0006DF08EC06EF08FC06FF090C070F0E9EC90
:10350000AFF093C060F094C061F0D0ECC5F004D08F
:103510009F860BD0A58E09D000019151000AD8B426
:10352000F7D7010AD8A41200F5D793C060F094C071
:1035300061F043ECC5F093C0D9FF94C0DAFF000EF0
:10354000DF6E000120EE06F09351D9269451DA2265
:10355000DECF6BF0DDCF6CF0000E6D6F030E6E6F83
:1035600054ECC6F0000120EE06F09351D926945198
:10357000DA22DECF60F0DDCF61F0050E626F010E62
:10358000636F39ECC1F0120000017151800B7A6F4A
:1035900071517125806F70BF80818051D8B40DD07A
:1035A0008029D8A408D0000E6E6F000E6F6F000E39
:1035B000706F000E716F708F08D0000E6E6F000E6E
:1035C0006F6F000E706F000E716F7551800B7A1B5C
:1035D000755175257B6F74BF7B817B51D8B40DD03D
:1035E0007B29D8A408D0000E726F000E736F000EF6
:1035F000746F000E756F748F08D0000E726F000E1E
:10360000736F000E746F000E756F7B51D8B403D0CA
:103610008051D8A409D0000E6E6F000E6F6F000E9F
:10362000706F000E716F120074516E03F3CF85F04E
:10363000F4CF86F085517C6F7D6B7E6B7F6B8651FE
:10364000816F826B836B846B73516F03F3CF85F053
:10365000F4CF86F085517C27000E7D237E237F23C7
:1036600086518127000E82238323842372517003A5
:10367000F3CF85F0F4CF86F085517C27000E7D23B3
:103680007E237F2386518127000E82238323842378
:103690007EC07FF07DC07EF07CC07DF07C6B72517F
:1036A0006F03F3CF85F0F4CF86F085517C278651E8
:1036B0007D23000E7E23000E7F2373516E03F3CF14
:1036C00085F0F4CF86F085517C2786517D23000E4E
:1036D0007E23000E7F237EC07FF07DC07EF07CC005
:1036E0007DF07C6B72516E03F3CF85F0F4CF86F0E2
:1036F00085517C2786517D23000E7E23000E7F237B
:1037000074516F03F3CF85F0F4CF86F08551812794
:1037100086518223000E8323000E8423735170038D
:10372000F3CF85F0F4CF86F085518127865182232F
:10373000000E8323000E842374517003F3CF85F0B1
:10374000F4CF86F08551766F8651776F786B796B01
:1037500078C079F077C078F076C077F0766B7651E4
:1037600081277751822378518323795184237CC028
:1037700076F07DC077F07EC078F07FC079F0190ECA
:1037800005D0D8907933783377337633E82EF9D76C
:10379000765181277751822378518323795184236D
:1037A0007EC07FF07DC07EF07CC07DF07C6B7B5165
:1037B00080C076F0776B7627000E7723820E762511
:1037C000856FFF0E7721866F0FD0D89081378237B3
:1037D000833784377FBF8181D8907C377D377E37B0
:1037E0007F378507D8A0860783AFEFD7000E7B6FA2
:1037F0007FAF16D0FF0E7C15766FFF0E7D15776FAD
:10380000FF0E7E15786F7F0E7F15796F76517711D9
:1038100078117911D8A402D081A102D0010E7B6F5A
:103820007B51D8B41FD0010E8127000E8223832341
:10383000842384A117D081C076F082C077F083C042
:1038400078F084C079F0793579337833773376330B
:1038500076C081F077C082F078C083F079C084F0C0
:10386000854B862B86BF0DD0865103E18529D8A0D4
:1038700008D0000E816F000E826F800E836F7F0E66
:1038800020D086BF05D086510EE18505D8B00BD07B
:10389000000E816F000E826F000E836F000E846F2A
:1038A000000E7A6F0FD085C080F0FF0E8117FF0EDB
:1038B00082177F0E8317000E841780B1838FD890F4
:1038C0008031846F7A51841381C06EF082C06FF0B2
:1038D00083C070F084C071F0120000018E51800B23
:1038E0009B6F8E518E259D6F8DBF9D819D51D8B44C
:1038F0000DD09D29D8A408D0000E8B6F000E8C6FC0
:10390000000E8D6F000E8E6F8D8F06D0000E8B6FA8
:10391000000E8C6F000E8D6F000E8E6F9251800B1B
:103920009C6F9B519C19D8A49B8D925192259C6FA2
:1039300091BF9C819C51D8B40DD09C29D8A408D0AB
:10394000000E8F6F000E906F000E916F000E926F41
:10395000918F06D0000E8F6F000E906F000E916F4A
:10396000000E926F9D519C5DD8B022D09BAD02D0CD
:10397000800E9B1B9DC09EF09CC09DF09EC09CF045
:103980008BC09EF08FC08BF09EC08FF08CC09EF0DD
:1039900090C08CF09EC090F08DC09EF091C08DF0D4
:1039A0009EC091F08EC09EF092C08EF09EC092F0AC
:1039B000000E9E6F9D51936F946B931F941F934BBA
:1039C000942B9C51956F966B935195279451962308
:1039D00096BF2CD0965104E11A0E955DD8A026D042
:1039E0008B518C118D118E11D8B402D0010E01D0E3
:1039F000000E9E6F000E8B6F000E8C6F000E8D6F91
:103A0000000E8E6F9CC09DF015D09EA105D0D89061
:103A10009E3101099E6F02D0D8909E338BB19E8F4C
:103A20008E358E338D338C338B339D2B9C519D5D26
:103A3000D8A0EBD79BBD29D09D51D8A409D0000EAA
:103A40008B6F000E8C6F000E8D6F000E8E6F12004C
:103A50008F518B2790518C2391518D2392518E231E
:103A60008EA183D09EA106D0D8909E339E5101098D
:103A70009E6F02D0D8909E338BB19E8F8E358E3341
:103A80008D338C338B339D2B70D08F518B5D905148
:103A90008C5991518D598E51800A936F9251800AA1
:103AA0009359D8B036D08BC093F08CC094F08DC0B1
:103AB00095F08EC096F0931F941F951F961F932B21
:103AC000000E9423952396238F519325976F905141
:103AD0009421986F91519521996F925196219A6FE7
:103AE000FF0E97258B6FFF0E98218C6FFF0E99218B
:103AF0008D6FFF0E9A218E6F800E9B1B9E6D9E51C7
:103B0000D8A40FD0010E8B27000E8C238D238E237B
:103B100008D08F518B5F90518C5B91518D5B92518E
:103B20008E5B8B518C118D118E11D8A41CD09E519F
:103B3000D8A419D0000E8B6F000E8C6F000E8D6F05
:103B4000000E8E6F1200D8908B378C378D378E37E2
:103B50009EBF8B819EA102D0D88001D0D8909E3785
:103B60009D51D8A49D078DAFEED7000E9C6F9EAFE0
:103B70000AD09EC093F07F0E9317D8A402D08BA1D9
:103B800002D0010E9C6F9C51D8B420D0010E8B271F
:103B9000000E8C238D238E238EA118D08BC093F022
:103BA0008CC094F08DC095F08EC096F0963596330B
:103BB00095339433933393C08BF094C08CF095C0BD
:103BC0008DF096C08EF09D29D8A49D2B9D29D8B448
:103BD00003D09D51D8A40DD0000E8B6F000E8C6FBA
:103BE000000E8D6F000E8E6F9D51D8A402D0000E76
:103BF0009B6F9DA102D08D8F01D08D9FD8909D315C
:103C00008E6F9BBF8E8F8BC08BF08CC08CF08DC065
:103C10008DF08EC08EF01200D8902E34D96E2F34D5
:103C2000DA6E460ED926030EDA22DECFD7F0DDCFCC
:103C3000D8F00001D71FD81FD74BD82B0101445112
:103C40000001D7250101446F45510001D821010130
:103C5000456F000E0001616F000E606F31ECC4F023
:103C6000D8902E34D96E2F34DA6E460ED926030E34
:103C7000DA22000160C0DEFF61C0DDFFD8902E3483
:103C8000D96E2F34DA6E460ED926030EDA22DECF35
:103C9000D7F0DDCFD8F0010144510001D725010153
:103CA000446F45510001D8210101456F2E4A2F2A4A
:103CB000F7512E5C2F50800A0001D76F0101F85197
:103CC000800A0001D759D8A004D0000E2F6E000E34
:103CD0002E6E44C160F045C161F0F7C162F0F8C1D9
:103CE00063F0A3ECBBF060C02CF061C02DF02CC0E1
:103CF00060F02DC061F00001000E61BFFF0E626F29
:103D0000636F010EF3ECADF060C0D9F061C0DAF082
:103D100062C0DBF063C0DCF0000E0001C66F000E75
:103D2000C76F000EC86F400EC96FD9C0C2F0DAC0AD
:103D3000C3F0DBC0C4F0DCC0C5F0E1ECA6F0C2C04B
:103D4000DDF0C3C0DEF0C4C0DFF0C5C0E0F02CC0C1
:103D500060F02DC061F00001000E61BFFF0E626FC8
:103D6000636F010EF3ECADF060C0E1F061C0E2F012
:103D700062C0E3F063C0E4F0000E0001C66F000E05
:103D8000C76F400EC86F400EC96FE1C0C2F0E2C0FD
:103D9000C3F0E3C0C4F0E4C0C5F0E1ECA6F0C2C0DB
:103DA000E5F0C3C0E6F0C4C0E7F0C5C0E8F0A60E79
:103DB0000001726F9B0E736FC40E746F3A0E756FB5
:103DC000DDC06EF0DEC06FF0DFC070F0E0C071F0FB
:103DD000C4EC9AF06EC08FF06FC090F070C091F09C
:103DE00071C092F0870E0001726F970E736F710EA3
:103DF000746FB50E756FE5C06EF0E6C06FF0E7C08A
:103E000070F0E8C071F0C4EC9AF06EC08BF06FC037
:103E10008CF070C08DF071C08EF06DEC9CF08BC09A
:103E2000E9F08CC0EAF08DC0EBF08EC0ECF08C0EA7
:103E30000001726FB90E736F6B0E746F3F0E756F6A
:103E40002CC060F02DC061F0000E61BFFF0E626FEC
:103E5000636F010EF3ECADF060C06EF061C06FF007
:103E600062C070F063C071F0C4EC9AF06EC087F06D
:103E70006FC088F070C089F071C08AF05BECC5F04B
:103E800087C08FF088C090F089C091F08AC092F00E
:103E9000E9C08BF0EAC08CF0EBC08DF0ECC08EF086
:103EA0006DEC9CF08BC0EDF08CC0EEF08DC0EFF0AF
:103EB0008EC0F0F07B0E00018F6F540E906F630E7A
:103EC000916F430E926FEDC08BF0EEC08CF0EFC09F
:103ED0008DF0F0C08EF06DEC9CF08BC09FF08CC02C
:103EE000A0F08DC0A1F08EC0A2F0E4ECB5F09FC0B0
:103EF0002CF0A0C02DF02CC076F02DC077F01FEC78
:103F0000C6F0C2ECC4F0120000016351800B6C6F6C
:103F100063516325776F62BF77817751D8B40DD035
:103F20007729D8A408D0000E606F000E616F000ED4
:103F3000626F000E636F628F06D0000E606F000E1E
:103F4000616F000E626F000E636F6751800B6C1B18
:103F500067516725786F66BF78817851D8B40DD0E6
:103F60007829D8A408D0000E646F000E656F000E8B
:103F7000666F000E676F668F06D0000E646F000ECE
:103F8000656F000E666F000E676F645165116611F4
:103F90006711D8A415D0000E606F000E616F000E7F
:103FA000626F000E636F800E62137F0E631360C03A
:103FB00060F061C061F062C062F063C063F0120043
:103FC0007751D8A411D0000E606F000E616F000E03
:103FD000626F000E636F60C060F061C061F062C02C
:103FE00062F063C063F012007851686F696B681FFC
:103FF000691F684B692B77516A6F6B6B68516A2731
:1040000069516B237F0E6A25716F000E6B21726FF1
:1040100060C06DF061C06EF062C06FF063C070F0A0
:10402000000E606F000E616F000E626F000E636F16
:10403000000E736F000E746F000E756F000E766FBA
:10404000000E786F28D07851D8B411D0D8906D3741
:104050006E376F377037D8906037613762376337A4
:1040600076BF6081D890733774377537763764516F
:104070006D5D65516E5966516F5967517059D8A081
:1040800009D0768D64516D5F65516E5B66516F5BD3
:104090006751705B782B190E7865D5D76D516E110D
:1040A0006F117011D8B411D073810FD0D8906037D0
:1040B00061376237633776BF6081D8907337743762
:1040C000753776377107D8A0720762AFEFD7000E49
:1040D000786F76AF16D0FF0E7315686FFF0E7415EC
:1040E000696FFF0E75156A6F7F0E76156B6F6851DD
:1040F00069116A116B11D8A402D060A102D0010E1F
:10410000786F7851D8B41FD0010E6027000E61235C
:104110006223632363A117D060C068F061C069F0B7
:1041200062C06AF063C06BF06B356B336A3369331E
:10413000683368C060F069C061F06AC062F06BC04B
:1041400063F0714B722B72BF10D0725103E1712971
:10415000D8A00BD0000E726F7169000E606F000E58
:10416000616F000E626F000E636F72BF05D07251F7
:1041700011E17105D8B00ED0000E726F000E716F94
:10418000000E606F000E616F000E626F000E636FB5
:10419000000E6C6F71C077F077A102D0628F01D0F2
:1041A000629FD8907731636F6C51631360C060F089
:1041B00061C061F062C062F063C063F01200080E7B
:1041C00000016F256C6F000E70216D6F000E6E6F19
:1041D00012ECC5F00001866F8651726F736B0E0E84
:1041E000D89072377337E82EFBD78651746F756B92
:1041F0000C0ED89074377537E82EFBD78651766F42
:10420000776B0A0ED89076377737E82EFBD7865132
:10421000796F786B86517A6F7B6B060ED8907A3700
:104220007B37E82EFBD786517C6F7D6B7C3B7D3BDB
:10423000F00E7D177C510F0B7D13F00E7C1786510D
:104240007E6F7F6BD8907E377F37D8907E377F37F1
:104250008651806F816B7E5180137F5181137C5119
:1042600080137D5181137A5180137B5181137851D2
:1042700080137951811376518013775181137451D2
:1042800080137551811372518011826F73518111A6
:10429000836F86C084F0856B080E6F256C6F000EEF
:1042A00070216D6F010E6E6F12ECC5F00001726F20
:1042B000736BD89072377337D890723773377251E7
:1042C000841373518513080E6F256C6F000E7021D7
:1042D0006D6F020E6E6F12ECC5F00001726F736BA2
:1042E000723B733BF00E731772510F0B7313F00E8A
:1042F00072177251841373518513080E6F256C6FFA
:10430000000E70216D6F030E6E6F12ECC5F0000190
:10431000726F736B060ED89072377337E82EFBD727
:104320007251841373518513080E6F256C6F000E44
:1043300070216D6F040E6E6F12ECC5F00001726F8C
:104340007251746F736B7351841374518513080E1B
:104350006F256C6F000E70216D6F050E6E6F12EC85
:10436000C5F00001726F736B0A0ED8907237733705
:10437000E82EFBD77251841373518513080E6F25F5
:104380006C6F000E70216D6F060E6E6F12ECC5F033
:104390000001726F736B0C0ED89072377337E82E72
:1043A000FBD77251841373518513080E6F256C6F00
:1043B000000E70216D6F070E6E6F12ECC5F00001DC
:1043C000726F736B0E0ED89072377337E82EFBD76F
:1043D00072518413735185138451821944E18551BC
:1043E0008319D8A4120030D020EE02F06F51D926E4
:1043F0007051DA22DECF60F0DDCF61F071C062F083
:10440000B4ECC7F012000001711F20EE02F06F51F2
:10441000D9267051DA22DECF60F0DDCF61F071C0B5
:1044200062F0B4ECC7F01200000120EE04F06F510E
:10443000D9267051DA22DECF60F0DDCF61F071C095
:1044400062F0B4ECC7F0120000018651000AD8B443
:104450001200010AD8B4C8D7030AD8B4D4D7010AC5
:10446000D8A41200E1D712000001606F7ED03F0E89
:104470001200060E12005B0E12004F0E1200660EA6
:1044800012006D0E12007D0E1200070E12007F0E3C
:1044900012006F0E12005F0E12007C0E1200580EFA
:1044A00012005E0E12007B0E1200710E12006F0ED3
:1044B0001200740E1200040E12000E0E12007A0E7C
:1044C0001200060E1200140E1200540E12005C0EA2
:1044D0001200730E1200670E1200500E12006D0EC5
:1044E0001200780E12001C0E1200620E12002A0E2C
:1044F0001200640E12006E0E12005B0E1200770E98
:1045000012007F0E1200390E12003F0E1200790EBB
:104510001200710E12003D0E1200760E1200060EF1
:1045200012001E0E1200570E1200380E1200760EE8
:104530001200760E12003F0E1200730E12003F0E94
:104540001200770E12006D0E1200310E12003E0E98
:1045500012003E0E12007E0E1200760E1200660E43
:1045600012005B0E1200800E1200000160512E0A34
:10457000D8B4F9D71E0AD8B47AD7010AD8B479D7F3
:10458000030AD8B478D7010AD8B477D7070AD8B4C1
:1045900076D7010AD8B475D7030AD8B474D7010AFC
:1045A000D8B473D70F0AD8B472D7010AD8B471D768
:1045B000780AD8B4A4D7030AD8B4A3D7010AD8B4C8
:1045C000A2D7070AD8B4A1D7010AD8B4A0D7030A42
:1045D000D8B49FD7010AD8B49ED70F0AD8B49DD7B4
:1045E000010AD8B49CD7030AD8B49BD7010AD8B41F
:1045F0009AD7070AD8B499D7010AD8B498D7030A2A
:10460000D8B497D7010AD8B496D71F0AD8B495D78B
:10461000010AD8B494D7030AD8B493D7010AD8B4FE
:1046200092D7070AD8B491D7010AD8B490D7030A11
:10463000D8B48FD7010AD8B48ED70F0AD8B48DD783
:10464000010AD8B48CD7030AD8B48BD73B0AD8B4A4
:1046500022D7030AD8B421D7010AD8B420D7070A31
:10466000D8B41FD7010AD8B41ED7030AD8B41DD7AF
:10467000010AD8B41CD70F0AD8B41BD7010AD8B482
:104680001AD7030AD8B419D7010AD8B418D7070A19
:10469000D8B417D7010AD8B416D7030AD8B415D797
:1046A000010AD8B414D71F0AD8B413D7010AD8B452
:1046B00012D7030AD8B411D7010AD8B410D7070A01
:1046C000D8B40FD7010AD8B40ED7030AD8B40DD77F
:1046D000010AD8B40CD70F0AD8B40BD7010AD8B442
:1046E0000AD7030AD8B409D7000E12000001B75147
:1046F000B811B911BA11D8A409D0000EB76F000EC5
:10470000B86F800EB96F3F0EBA6F1200180E606F4F
:10471000720E616F310E626F440E636FB7C064F04A
:10472000B8C065F0B9C066F0BAC067F061ECB2F02D
:104730000001D8B00FD0000E01011B6F220E1A6FBE
:10474000FF0E0001B76FFF0EB86F7F0EB96F7F0EBF
:10475000BA6F1200B7C060F0B8C061F0B9C062F0C3
:10476000BAC063F0870E646F480E656F3A0E666FCD
:10477000C40E676F61ECB2F00001D8B00FD0000E2C
:1047800001011B6F220E1A6F000E0001B76F000EA1
:10479000B86F000EB96F000EBA6F1200BAAF02D038
:1047A000010E01D0000EC16FC151D8B412D0B7C0F4
:1047B00087F0B8C088F0B9C089F0BAC08AF05BEC65
:1047C000C5F087C0B7F088C0B8F089C0B9F08AC01A
:1047D000BAF0B7C06EF0B8C06FF0B9C070F0BAC030
:1047E00071F03B0E0001726FAA0E736FB80E746FFA
:1047F0003F0E756FC4EC9AF06EC0B7F06FC0B8F0A2
:1048000070C0B9F071C0BAF0B7C0A9F0B8C0AAF0D2
:10481000B9C0ABF0BAC0ACF0F2ECB2F0A9C0BBF0DA
:10482000AAC0BCF0ABC0BDF0ACC0BEF0BBC09FF036
:10483000BCC0A0F0BDC0A1F0BEC0A2F0E4ECB5F0D9
:104840009FC0BFF0A0C0C0F0B7C09FF0B8C0A0F03C
:10485000B9C0A1F0BAC0A2F0BFC060F0C0C061F0A2
:104860000001000E61BFFF0E626F636F010EF3EC7B
:10487000ADF060C0A3F061C0A4F062C0A5F063C059
:10488000A6F028ECC3F09FC0B7F0A0C0B8F0A1C05C
:10489000B9F0A2C0BAF0B7C09FF0B8C0A0F0B9C0DC
:1048A000A1F0BAC0A2F0070E0001A36FFE0EA46F24
:1048B000000EA66F090EA56F03ECB4F09FC0AFF019
:1048C000A0C0B0F0A1C0B1F0A2C0B2F0BFC0B3F0C0
:1048D000C0C0B4F002ECB5F0AFC0B7F0B0C0B8F0F3
:1048E000B1C0B9F0B2C0BAF00001C151D8B42FD0F4
:1048F000B72912E1B82910E17F0EB9190DE17F0E39
:10490000BA19D8A409D0000EB76F000EB86F000E08
:10491000B96F000EBA6F1200000E606F000E616F6B
:10492000800E626F3F0E636FB7C064F0B8C065F071
:10493000B9C066F0BAC067F084EC9FF060C0B7F011
:1049400061C0B8F062C0B9F063C0BAF01200B7C07D
:10495000B7F0B8C0B8F0B9C0B9F0BAC0BAF0120038
:10496000000E0101BC6F260EBB6F000EBE6F2D0E38
:10497000BD6F0001F151F211D8A405D0030EF31957
:10498000F411D8B412D0030EF119F211D8A405D045
:10499000030EF319F411D8B408D0F151F211D8A4D0
:1049A0001200F351F411D8A412003B50D8A47ED0C9
:1049B000000EAA6F2D0EA96F44ECADF0000E0101A0
:1049C000B86F000EB76FB8BF06D0B8510AE10A0E33
:1049D000B75DD8B006D00CEC9EF00101B74BB82BF8
:1049E000F2D7BB512C5C2D50800A0001F56F0101FC
:1049F000BC51800A0001F559D8A00ED021D00CEC92
:104A00009EF0FF0E0001626F9C0E616FFF0E646FDF
:104A10009C0E636FBBECC2F0FE0E0001F56FFF0E43
:104A2000F66FBBC1F7F0BCC1F8F0F551F727F651AE
:104A3000F8232C50F719E3E12D50F819D8A4DFD74B
:104A4000FF0EAA6FD30EA96F44ECADF0000E00016B
:104A5000616FC80E606F39ECC0F012000CEC9EF074
:104A6000000E0001626F320E616F000E646F320E35
:104A7000636FBBECC2F0020E0101BD250001F56FB2
:104A8000000E0101BE210001F66F2C50F519E6E180
:104A90002D50F619D8A4E2D764ECC6F0FF0E000141
:104AA000AA6FD30EA96F44ECADF012003B04D8A45A
:104AB0001200FF0E0001AA6FD30EA96F44ECADF0F7
:104AC000000E0101BA6F000EB96FBABF06D0BA511D
:104AD0000AE10A0EB95DD8B006D00CEC9EF00101D7
:104AE000B94BBA2BF2D7BB512C5C2D50800A000178
:104AF000F56F0101BC51800A0001F559D8A00ED014
:104B000021D00CEC9EF0FF0E0001626F9C0E616FD5
:104B1000FF0E646F9C0E636FBBECC2F0FE0E0001D3
:104B2000F56FFF0EF66FBBC1F7F0BCC1F8F0F551A1
:104B3000F727F651F8232C50F719E3E12D50F81917
:104B4000D8A4DFD7000EAA6F2D0EA96F44ECADF0EC
:104B5000000E0001616FC80E606F39ECC0F01200EA
:104B60000CEC9EF0000E0001626F320E616F000EC1
:104B7000646F320E636FBBECC2F0020E0101BD2503
:104B80000001F56F000E0101BE210001F66F2C50EF
:104B9000F519E6E12D50F619D8A4E2D764ECC6F079
:104BA000FF0E0001AA6FD30EA96F44ECADF0120006
:104BB000050E00019A6FB8D020EE02F09651D9266A
:104BC0009751DA22DECF6BF0DDCF6CF098C06DF03C
:104BD0000F0E6E6F54ECC6F0000120EE04F09651FB
:104BE000D9269751DA22DECF6BF0DDCF6CF098C07A
:104BF0006DF0000E6E6F54ECC6F0A4D096C08FF02E
:104C000097C090F098C091F0030E0001926F8AEC6B
:104C1000C1F000019A6F9A51D8A4120020EE02F060
:104C20009651D9269751DA22DECF6BF0DDCF6CF0AA
:104C300098C06DF0000E6E6F54ECC6F0000120EECF
:104C400004F09651D9269751DA22DECF6BF0DDCFF2
:104C50006CF098C06DF0000E6E6F54ECC6F072D020
:104C600096C08FF097C090F098C091F0030E0001AD
:104C7000926F8AECC1F000019A6F9A51D8A4120089
:104C800020EE02F09651D9269751DA22DECF6BF052
:104C9000DDCF6CF098C06DF00F0E6E6F54ECC6F067
:104CA000000120EE04F09651D9269751DA22DECF8A
:104CB0006BF0DDCF6CF098C06DF00F0E6E6F54ECA2
:104CC000C6F040D096C08FF097C090F098C091F099
:104CD000030E0001926F8AECC1F000019A6F9A51A5
:104CE000D8A4120020EE02F09651D9269751DA226C
:104CF000DECF6BF0DDCF6CF098C06DF0000E6E6F04
:104D000054ECC6F0000120EE04F09651D9269751DC
:104D1000DA22DECF6BF0DDCF6CF098C06DF0000EC4
:104D20006E6F54ECC6F00ED000019951000AD8B451
:104D300043D7010AD8B462D7030AD8B491D7010A7D
:104D4000D8B4C0D7080E000196256F6F000E9721CA
:104D5000706F9851040DF3CF71F099C072F089EC27
:104D6000C4F0080E000196256F6F000E9721706F3A
:104D70009851040DF328716F99C072F089ECC4F05A
:104D8000080E000196256F6F000E9721706F9851E5
:104D9000040DF350020F716F99C072F089ECC4F0EA
:104DA000080E000196256F6F000E9721706F9851C5
:104DB000040DF350030F716F99C072F089ECC4F0C9
:104DC0001200000E0001D26FC251C311C411C511EF
:104DD000D8A424D0000E606F000E616F000E626FC9
:104DE000000E636FC6C064F0C7C065F0C8C066F04F
:104DF000C9C067F061ECB2F00001D8A005D0000E88
:104E000001011B6F210E1A6F000E0001C26F000E10
:104E1000C36F000EC46F000EC56F1200C651C711DC
:104E2000C811C911D8A409D0000EC26F000EC36FFB
:104E3000800EC46F3F0EC56F1200C5AF4FD0C6C005
:104E40009FF0C7C0A0F0C8C0A1F0C9C0A2F0E4ECB8
:104E5000B5F09FC0D3F0A0C0D4F0A1C0D5F0A2C0DF
:104E6000D6F0D3C060F0D4C061F0D5C062F0D6C037
:104E700063F0000EF3ECADF00001C65160190AE1D9
:104E8000C751611907E1C851621904E1C951631999
:104E9000D8B40FD0000E01011B6F210E1A6F000E47
:104EA0000001C26F000EC36F000EC46F000EC56F0D
:104EB0001200D351010BD26FC2C087F0C3C088F07B
:104EC000C4C089F0C5C08AF05BECC5F087C0C2F0F1
:104ED00088C0C3F089C0C4F08AC0C5F0C2C0AFF0BA
:104EE000C3C0B0F0C4C0B1F0C5C0B2F0D6ECABF0F6
:104EF000AFC0CAF0B0C0CBF0B1C0CCF0B2C0CDF002
:104F0000CAC06EF0CBC06FF0CCC070F0CDC071F0F5
:104F1000C6C072F0C7C073F0C8C074F0C9C075F0E5
:104F2000C4EC9AF06EC0CEF06FC0CFF070C0D0F07D
:104F300071C0D1F0CEC0B7F0CFC0B8F0D0C0B9F0DA
:104F4000D1C0BAF076ECA3F0B7C0C2F0B8C0C3F0DD
:104F5000B9C0C4F0BAC0C5F00001D251D8B413D062
:104F6000C2C087F0C3C088F0C4C089F0C5C08AF051
:104F70005BECC5F087C0C2F088C0C3F089C0C4F044
:104F80008AC0C5F01200C2C0C2F0C3C0C3F0C4C022
:104F9000C4F0C5C0C5F01200050E00019F6F6ED0B1
:104FA00020EE02F09A51D9269B51DA22DECF9DF0F5
:104FB000DDCF9EF09DC0D9FF9EC0DAFFFF0E5CD012
:104FC0009AC096F09BC097F0010E986FB2ECC3F0B8
:104FD00000019F6F9F51D8A4120020EE02F09A5159
:104FE000D9269B51DA22DECF9DF0DDCF9EF09DC009
:104FF000D9FF9EC0DAFF000EDF6E20EE04F02FD046
:105000009AC096F09BC097F0020E986FB2ECC3F076
:1050100000019F6F9F51D8A4120020EE02F09A5118
:10502000D9269B51DA22DECF9DF0DDCF9EF09DC0C8
:10503000D9FF9EC0DAFFFF0EDF6E20EE04F0B2D77C
:105040009AC096F09BC097F0000E986FB2ECC3F038
:1050500000019F6F9F51D8A4120020EE02F09A51D8
:10506000D9269B51DA22DECF9DF0DDCF9EF09DC088
:10507000D9FF9EC0DAFF000EDF6E0DD09C51000AF2
:10508000D8B48ED7010AD8B49BD7030AD8B4B8D7FE
:10509000010AD8B4D5D7080E9A256F6F000E9B2150
:1050A000706F000E716F9CC072F089ECC4F0080E36
:1050B00000019A256F6F000E9B21706F010E716FBA
:1050C0009CC072F089ECC4F0080E00019A256F6F45
:1050D000000E9B21706F020E716F9CC072F089EC04
:1050E000C4F0080E00019A256F6F000E9B21706FAF
:1050F000030E716F9CC072F089ECC4F0080E0001C1
:105100009A256F6F000E9B21706F040E716F9CC00B
:1051100072F089ECC4F0080E00019A256F6F000E42
:105120009B21706F050E716F9CC072F089ECC4F00A
:10513000080E00019A256F6F000E9B21706F060EFE
:10514000716F9CC072F089ECC4F0080E00019A25C2
:105150006F6F000E9B21706F070E716F9CC072F015
:1051600089ECC4F012004E50D8B41200E1C186F0B0
:10517000E2C187F0E3C188F0E4C189F04650D8B4B9
:1051800005D0FFC085F00F0E0001FF6F000E00017B
:105190008B6FB9D08B51020D280EF324D96E030EFC
:1051A000F420DA6EDECFFBF1DDCFFCF1000E8A6F6A
:1051B000130E8A6501D09ED08B51140DF20E836FB1
:1051C000030E846FF3508327F45084238A51010D1A
:1051D000F3508325D96EF4508421DA6EDFAE83D08C
:1051E0008B51140DF20E836F030E846FF3508327DF
:1051F000F45084238A51010DF3508325D96EF45065
:105200008421DA6E7F0EDF168B51140DF20E836F40
:10521000030E846FF3508327F45084238A51010DC9
:10522000F3508325D96EF4508421DA6EDF50D8B460
:1052300043D058C169F059C16AF086C06BF087C08D
:105240006CF088C06DF089C06EF0E9C16FF0EAC102
:1052500070F0EBC171F0ECC172F00FECC1F0000125
:105260008B51140DF20E836F030E846FF35083275E
:10527000F45084238A51010DF3508325D96EF450E4
:105280008421DA6EDF5077ECB8F065C072F066C04A
:1052900073F086C074F087C075F088C076F089C05E
:1052A00077F0E9C178F0EAC179F0EBC17AF0ECC1AE
:1052B0007BF028ECBCF017D0000E00016A6F000EE6
:1052C000696F86C06BF087C06CF088C06DF089C0D4
:1052D0006EF0E9C16FF0EAC170F0EBC171F0ECC1A2
:1052E00072F00FECC1F0060E00018627000E872336
:1052F0008A2B5ED7080E8827000E8923000E876F41
:10530000060E866F8B2B8B51FF5DD8B043D746506E
:10531000D8B41200000E466E85C0FFF0120086C0A1
:10532000D9FF87C0DAFFDECF8BF0DDCF8CF0050E22
:1053300000018A6FA7D020EE02F08651D92687514E
:10534000DA22DECF60F0DDCF61F088C062F0010EBE
:10535000636F39ECC1F0A4D08BC06FF08CC070F0DB
:10536000010E0001716F88C072F010ECBFF00001F7
:105370008A6F8A51D8A4120020EE02F08651D926F5
:105380008751DA22DECF60F0DDCF61F088C062F0B5
:10539000000E636F39ECC1F0000120EE04F086517D
:1053A000D9268751DA22DECF60F0DDCF61F088C0E8
:1053B00062F0000E636F39ECC1F072D08BC06FF0F9
:1053C0008CC070F0020E0001716F88C072F010EC9A
:1053D000BFF000018A6F8A51D8A4120020EE02F0BB
:1053E0008651D9268751DA22DECF60F0DDCF61F019
:1053F00088C062F0010E636F39ECC1F0000120EE4D
:1054000004F08651D9268751DA22DECF60F0DDCF55
:1054100061F088C062F0010E636F39ECC1F040D0DA
:105420008BC06FF08CC070F0000E0001716F88C0EF
:1054300072F010ECBFF000018A6F8A51D8A41200FC
:1054400020EE02F08651D9268751DA22DECF60F0B5
:10545000DDCF61F088C062F0000E636F39ECC1F0FF
:10546000000120EE04F08651D9268751DA22DECFE2
:1054700060F0DDCF61F088C062F0000E636F39EC40
:10548000C1F00ED000018951000AD8B454D7010AE6
:10549000D8B462D7030AD8B491D7010AD8B4C0D718
:1054A000080E000186256F6F000E8721706F88C07F
:1054B00071F089C072F089ECC4F01200D00E0001C6
:1054C0009B6F030E9C6F000E9E6F020E9D6F000E71
:1054D0009F6F900EA06F010EA16F6A0EA26F8E0ECD
:1054E000A36F010EA46F040EA56F140EA66F000E1D
:1054F000A76F75ECB7F0B20E00019B6F030E9C6FA7
:10550000000E9E6F020E9D6F000E9F6F900EA06F9B
:10551000010EA16FBA0EA26F8E0EA36F010EA46FC3
:10552000040EA56F140EA66F000EA76F75ECB7F0F2
:10553000A80E00019B6F030E9C6F000E9E6F020E63
:105540009D6F000E9F6F900EA06F010EA16FA60EB3
:10555000A26F8E0EA36F010EA46F040EA56F140E22
