:100000000DEF04F026EF00F004EF0AF0D1EC04F05D
:10001000FF0000F000F012000CEF0AF018EF00F003
:10003000F26AFC6A9BEC04F004009EEC09F0D8EC38
:1000400003F0F3EC03F05EEC08F0F6D701501F0B61
:10005000E80601E01200055001E01200060E021849
:1000600014E01AD0020E3D6E4A0E3FD8306A090ED7
:100070000AD0020E3D6E450402E1870E36D84504D3
:100080000AE1306A1D0E2F6E06D00450210AEAE004
:10009000030AEFE0010A42820138E832030BE80666
:1000A00014E01200020E3D6E440E206E24D0020EAB
:1000B0003D6E04C044F0020C020E3D6E430EF5D7B7
:1000C000020E3D6E03C043F0020C0250010AD8B488
:1000D0001200030AE7E0010AEFE00A0AD8B41200AE
:1000E000030AE5E0010AECE01200206E2050D8A4DB
:1000F000100E216E1200216A4292010E2F6E010C29
:100100004F6A140E506E516A296A2A6A4FC0F6FF70
:1001100050C0F7FF51C0F8FF42D80800F5CFDFFF0D
:100120004F2A000E50225122294A2A2A040E2A5C04
:10013000EDE30D0EE8CFB2F4600EE8CFB3F4000E9D
:10014000496E050E486E0AEC03F04F68170E506EAC
:10015000516A030E2A6E296851C0F8FF50C0F7FF9C
:100160004FC0F6FF1CD8DF50F56E0C0029C04EF0D2
:100170003F0E4E1607E1FEEC09F0040EA66EB50E1A
:1001800067EC04F04F06000E505A515A0A002950ED
:100190002A1001E112002906D8A02A06DDD7AC0EEC
:1001A0002924D96E040E2A20DA6E120003040BE112
:1001B00001501F0B08E1010E3D6E030E021802E113
:1001C000428001D042900350D8A4120001501F0B6E
:1001D000020AD8A4120005500F0BD8B4120028D878
:1001E000476A040E486E4726000E4822F350472601
:1001F000F450482223D847241D6EF45048201E6E28
:10020000030E021805E10FD8040EDF6E0CD81CD0C7
:1002100005AE04D008D8400EDF6E400C04D8080E9E
:10022000DF6E01D811D01DC0D9FF1EC0DAFF120049
:10023000010E3D6E05500F0B080D1200010E05AEAC
:10024000000E040DF3501200000EDB8E000C3D502A
:1002500010E193EC03F0196E3A0405E1010E32EC63
:1002600003F03A6A1200000E32EC03F0010E3A6E0F
:10027000010C01AE1BD0010E3E6E2F50075C3050BA
:10028000085804E207C02FF008C030F076EC01F007
:10029000480E196E010E32EC03F0000E32EC03F042
:1002A000240E04010A6F040E0B6F1CD0020E3E6E6A
:1002B000040E196E0750081002E1480E196E3A0438
:1002C00005E1010E32EC03F03A6A05D0000E32EC83
:1002D00003F0010E3A6E07500810D8A41200040172
:1002E000096B00D0480E086F088F480C080E326E5C
:1002F00030500DE1080E2F5C0AE22FC032F0405062
:1003000002E1010E03D0400402E1020E406E32C051
:1003100009F432502F5E000E305A240E1D6E040E6A
:100320001E6E42A21AD00BD01BD813EC01F00F0E98
:10033000F76403D00800F55001D019D81ED8325008
:10034000F3E112000DD813EC01F00F0EF76403D0A7
:100350000800F55001D00BD810D83250F3E112004C
:1003600020C0F6FF21C0F7FF000EF86E1200F6CF96
:10037000E1FFF7CFE2FFE7501200DF6E1D4A1E2AB1
:10038000204A212A320612000138E832030B18E015
:100390001200010E3D6E040E416E040C010E3D6E06
:1003A000450E206E7BEF00F02CD8496E49C020F03E
:1003B0007BEF00F026D8D96EDA6A03C0DFFF1200A7
:1003C000025002E179EF02F0010A02E1D6EF00F0FB
:1003D000020A02E1D6EF00F0060ADBE0030A02E1BE
:1003E00006EF02F0010AD8B412000F0AD7E0010AA2
:1003F00002E155EF03F0030AD7E0010ADBE0070A48
:100400001200010E3D6E0550460F1200800E0118BD
:1004100030E01200010E3D6EA40E75EC00F0120EDD
:1004200009D003502DE1010E3D6E380E75EC00F041
:10043000306A290E2F6E24D0010E3D6E0350010F3D
:10044000476E47C0F6FF100EF76E000EF86E0900FB
:10045000F5CF20F0100E216EB0EC01F00F0EF76416
:1004600003D00800F55002D0B7EC01F02F6E306ACF
:1004700007D00450010ACEE0030AD3E0010ADCE011
:1004800042821200366A27D03850486E000E48BEAD
:10049000FF0E496E4A6E4B6E4850155C0D6E49500A
:1004A00016580E6E4A5017580F6E4B501858106E53
:1004B0000FC0F8FF0EC0F7FF0DC0F6FF11D80D00FA
:1004C000362A0ED80C00362A240EA66EB50E67EC1E
:1004D00004F0FE0E38263850800A7F0FD5E2120055
:1004E000AC0E3624D96EDA6A040EDA22DF50F56ECD
:1004F0001200246B256B22D0010E3D6E42B0248386
:1005000024D0010E3D6E21D018EC01F0476A040E94
:10051000486E4726000E4822F3504726F4504822E2
:100520001EEC01F047241D6EF45048201E6E13ECA3
:1005300001F0DFA40AD0010E246F07D001501F0B79
:10054000DBE0010ADEE0030ADFE03D04D8A412008C
:10055000240E206E040E216E4292020E2F6E020CAB
:10056000400E486401D0486E4A6A0DD047504A2474
:10057000D96EDA6A6C0E4A24E16EE26A040EE22257
:10058000DFCFE7FF4A2A48504A5CF0E348C011F445
:10059000400E0401101710BD03D0496A492A01D04A
:1005A000496A493A49464946040110514918BF0B66
:1005B0004918106F1087108F12003F6A0CBF12008D
:1005C00048500D5D02E20DC448F03F6A0BD02C0E7E
:1005D0003F24D96EDA6A040EDA2247503F24F9EC40
:1005E00009F03F2A48503F5CF2E3400E0D6F0C17B4
:1005F0000CBD03D0496A492A01D0496A493A4946A3
:10060000494604010C514918BF0B49180C6F0C875F
:100610000C8F1200495006E1050E485C03E2496A5E
:10062000050E486E48504A6E49504B6E4C6A4D6AF2
:100630000A0ED8904A364B364C364D36E82EF9D74E
:100640004AC009F04BC00AF04CC00BF04DC00CF092
:100650000BC0F8FF0AC0F7FFF66A140EA66EB50EBF
:1006600067EF04F0476E080E1A6E1C0E1B6E040E28
:100670001C6E475006E1140E1B6E040E1C6E256A9C
:1006800002D0040E256E266E0BD819C0DEFF1AC0EC
:10069000DEFF1BC0DEFF1CC0DEFF02D8DF8E1200B3
:1006A00025C0D9FF26C0DAFF1200010E3D6E0F01F2
:1006B00016D8346A3450460FD96EDA6ADF6A342AA3
:1006C0003450F8E003C045F04550C9EC04F0035045
:1006D00003E1050E416E050C060E416E060C4D6BD6
:1006E0004E6B4F6B506B516B526B536B1200040E81
:1006F000411808E103C05EFF0F015E51050ED8B43A
:10070000030E416E3E04D8A4120076EC01F0020EF6
:10071000401802E108D8040C0401480E08BD080E78
:10072000086F088F1200040E0401086F088F040C74
:10073000030E416E0F015D6B626A7B0E5C6F5E6B38
:100740006FEC03F0160E4C6F658C03D06296FEECD6
:1007500009F062B6FBD7659C6598040E196E000E11
:1007600032EC03F0010E3A6E426A456A000EC9EFA0
:1007700004F081B818EC00F0060EF66E14D80D0ED9
:10078000F5180DE10900600EF51809E1F66A0BD8BD
:10079000F52803E10900F52802E000EF0AF018EC63
:1007A00000F000EF00F0140EF76EF86A0900140C68
:1007B0002306D8A0240623502410D8A412004E0EDD
:1007C000246E236A060E416002D08B80060C8BB02B
:1007D00003D0476A472A01D0476A8B504718FE0B5F
:1007E00047188B6E1200C0BC1200030ED36E6592C8
:1007F0006596F26A0ED808D0C0AC04D02D06D8A0F9
:100800002E0601D006D804002D502E10F5E1FF0071
:100810001200040E2E6E2D6A040C04EEACF014EEE1
:1008200000F0EE6AE550E150FCE1E250FAE100EE42
:1008300060F0820EEE6AE806FDE100EE01F0460E81
:10084000EE6AE806FDE10001B9EF03F00401086B70
:10085000406A00AF02D0006B3A6A04AF03D0046B69
:10086000010E3A6E3E6A3D6A2F6A306A6598C4ECA2
:1008700001F002EC00F027EF01F005D80AD8376A42
:100880000CD8386A12007E0E3B6E116AFC0E126E96
:10089000FC0C010E136E146A000C156816681768BC
:1008A000186812003F6A1E0E0F014D6F400E0401C2
:1008B0000D6F2C0E0E6F040E0F6F080E0C6F0C8F49
:1008C0006C0E126F040E136F400E106F400C476ECB
:1008D000F29EF3EC03F0B50E471804E0030ED36E5E
:1008E0000300FED7550EA76EAA0EA76EA682A6B26B
:1008F000FED7A69412005CCF35F0040E0F015C6F9A
:1009000062986582A198A088AAEC04F0A09835505E
:100910000F015C131200390402E1D1EC04F0656AA6
:10092000150E0F015F6F5C6B658698EC03F0010E8E
:10093000416E396A1200600ED36E9B8CDCEC04F0C1
:10094000BFEC04F0C16AC26A3DEC04F08B90949055
:10095000E7EF04F08B90D3CF31F00300A1B802D0C1
:10096000D0A6FBD731C0D3FF1200D9EC04F06592BA
:100970000F015C9501D0629462A41200FCD705D0EF
:10098000FEEC09F04706D8A0480647504810F8E1A9
:100990001200476E4704D8A4120052EC04F03DEF59
:1009A00004F06592656A48684768BFEC04F0416AE4
:1009B000120002D8BFEF04F0030E486E476A030C22
:1009C000390401E1120065A68BEC04F0120065B653
:0E09D000D1EC04F0396AE0EF04F012001200DE
:1010000000B6046134034D006900630072006F0094
:1010100063006800690070002000540065006300F0
:1010200068006E006F006C006F00670079002000A0
:1010300049006E0063002E000902290001010080B2
:10104000320904000002030000000921110100011F
:10105000221D000705810340000107050103400030
:101060000126034800490044002000550053004277
:1010700000200042006F006F0074006C006F006180
:10108000006400650072000600FF0901A10119015A
:101090002940150026FF0075089540810019012997
:1010A000409100C01201000200000008D8043C007A
:0B10B00001010102000104030904001B
:1010BC00060E4118D8B465B21200375001E017D1B2
:1010CC0004010CBF1200600E476E400E486EDDEC42
:1010DC0002F0010E376E276A286A2750A10FD96ECD
:1010EC00DA6A000EDF6E274A282A285005E1400EE6
:1010FC00275CD8B01200F1D71200020EA16F3A0E85
:10110C00A26F010EA36FA46FA56B140EA66FA76B35
:10111C00A86B000E1124A96FEC0E1220AA6FFF0E03
:10112C001320AB6FFF0E1420AC6F030EAD6FF80ED7
:10113C00AE6FAF69010EB06FB16B080EB26FB36BCF
:10114C00B46BB56BB669A50EDA6F040110BFA50CB4
:10115C00A10E476E400E486EB0EC02F0376A1200DA
:10116C00615106E17F0E3B6EF80E116E126802D0D3
:10117C0043EC04F049EC04F0F1D7286A050E276E15
:10118C000CD0FEEC09F027C048F028C049F00AEC5E
:10119C0003F09EEC09F0274A282A3B50526E536A02
:1011AC00522A000E53225250275C53502858D6E234
:1011BC00E8D715280EE116280CE117280AE11828A3
:1011CC0008E161C015F062C016F063C017F064C08E
:1011DC0018F015506119C2E116506219BFE1175091
:1011EC006319BCE118506419B9E1276A286A1AD04E
:1011FC006551A0082724D96EDA6AAC0E3824E16E4A
:10120C00E26A040EE222DFCFE7FF382A152A000E2D
:10121C001622172218223A0E381802E142EC02F07C
:10122C00274A282A00017CD899E2E2D742EC02F046
:10123C004DEC04F093D7070EA16F61C0A2F062C011
:10124C00A3F063C0A4F064C0A5F065C0A6F063C0B1
:10125C00F8FF62C0F7FF61C0F6FF276A286A0BD05F
:10126C00090000016551E1082724D96EDA6AF5CF2F
:10127C00DFFF274A282A54D8F3E3040110BF1200D9
:10128C0067D780EC00F06AD70C0EA16F010EA36F2C
:10129C00020EA26F160EF66ED3EC03F0F5CFA4F08F
:1012AC000A00F5CFA5F0060EA66F140EA76FA86B5B
:1012BC00A96B600EAB6F0D0EAA6FAC6B040EAD6F0D
:1012CC00000EAE6BAF6BB069B169B269B369B4694A
:1012DC00B569B669B769B86BB96BBA6BBB6BBC6BEC
:1012EC00BD6BBE6BBF6BC9D706EC00F037D70001E6
:1012FC006051020A01E101D7010A01E131D7070A65
:10130C0001E13BD7010A01E154D7030A8FE0010A3E
:10131C0092E00F0AE9E0010AB4E0050AB5E01ED735
:10132C006551526E536A5250275C53502858120024
:10133C00E0EC04F0415001E1120062B4B5EC04F0B1
:10134C0065B2120062B098EC03F062B87BEC04F06A
:10135C00030E416001D0030C3C6A62A6120064507B
:10136C0064CF4AF07C0E4A162AE164B203D02B6A91
:10137C00040E02D0040E2B6E2C6E62962BC0D9FF7D
:10138C002CC0DAFFDF30E8320F0B0D0A20E1336A94
:10139C0023D8DECF4AF0DDCF4BF04AC0D9FF4BC08B
:1013AC00DAFF3350010F1FD817D8DE2A000EDD22CA
:1013BC00332A070E3364ECD726EC04F008D0040E65
:1013CC00641804E1629677EC03F001D062963C2A33
:1013DC00030E3C64C2D7030C20EE02F02B50D9262E
:1013EC002C50DA221200E16EE26ADFCFE7FF120026
:0413FC0004001200D7
:1014000055EF0AF012000D605182FACF17F0FBCFB2
:1014100018F0E9CF19F0EACF1AF0E1CF1BF0E2CFD4
:101420001CF0D9CF1DF0DACF1EF0F3CF1FF0F4CFB0
:1014300020F0F6CF21F0F7CF22F0F8CF23F0F5CF50
:1014400024F051C025F052C026F053C027F054C0FC
:1014500028F0F292F2B4F2AA02D0CDEC9BF028C0B0
:1014600054F027C053F026C052F025C051F024C0DC
:10147000F5FF23C0F8FF22C0F7FF21C0F6FF20C010
:10148000F4FF1FC0F3FF1EC0DAFF1DC0D9FF1CC050
:10149000E2FF1BC0E1FF1AC0EAFF19C0E9FF18C054
:0E14A000FBFF17C0FAFF5192110013EF90F0FE
:10FBEA0000001180002C0100B1020035003600002F
:10FBFA00B202003500360000B302003500360002BA
:10FC0A00003500360000B4000000C0A200020084E3
:10FC1A000000C1C50000C20D00000000C38D002A0B
:10FC2A000000C48D00EE0000C50A000036C80000BE
:10FC3A00E012001C001000180033002C00250028D8
:10FC4A0000280027002F003C0000000300030010DA
:10FC5A00008000780000E112001C00100018002D3E
:10FC6A0000280023002800280026002F003B00005F
:10FC7A0000030003001000003A0500002A000002F9
:10FC8A000000008100002B000003000000A2000019
:10FC9A0029002C0200040008001000200040008007
:10FCAA00000001000102000100010002020000033D
:10FCBA0003030001000A006400E80310270001039F
:10FCCA00070F1F3F7FFF000201030104100000001D
:10FCDA00000000005F00000007000700147F147F87
:10FCEA0014242A7F2A1223130864623649552250A3
:10FCFA000005030000001C2241000041221C0008EC
:10FD0A002A1C2A0808083E08080050300000080883
:10FD1A00080808006060000020100804023E5149EB
:10FD2A00453E00427F400042615149462141454BD0
:10FD3A00311814127F1027454545393C4A49493044
:10FD4A0001710905033649494936064949291E0000
:10FD5A0036360000005636000000081422411414FA
:10FD6A001414144122140800020151090632497977
:10FD7A00413E7E1111117E7F494949363E4141413A
:10FD8A00227F4141221C7F494949417F09090101DA
:10FD9A003E414151327F0808087F00417F410020DF
:10FDAA0040413F017F081422417F404040407F028A
:10FDBA0004027F7F0408107F3E4141413E7F0909CA
:10FDCA0009063E4151215E7F09192946464949499A
:10FDDA003101017F01013F4040403F1F2040201F69
:10FDEA007F2018207F6314081463030478040361D6
:10FDFA005149454300007F41410204081020414116
:10FE0A007F00000402010204404040404000010219
:10FE1A00040020545454787F4844443838444444B5
:10FE2A0020384444487F3854545418087E09010243
:10FE3A00081454543C7F0804047800447D40002090
:10FE4A0040443D00007F10284400417F40007C046C
:10FE5A001804787C0804047838444444387C141420
:10FE6A001408081414187C7C0804040848545454D0
:10FE7A0020043F4440203C4040207C1C2040201C61
:10FE8A003C4030403C44281028440C5050503C44DC
:10FE9A0064544C44000836410000007F00000041D1
:10FEAA0036080008082A1C08081C2A0808000080CE
:10FEBA003F1872313FF0FD753E4758633D58951D16
:10FECA003C82C4AE3AA8782139EF938037A092A732
:10FEDA00354656153400000000C4FF7F3F80EFFF0F
:10FEEA00BE90E1A93EEC8276BE82AD2B3E0E3CC3AB
:10FEFA00BD87D1133D4178D3BB00FCFF0F0000FF43
:10FF0A00FFF0FF00FFFF00436F756C64206E6F7493
:10FF1A0020726574726965766520646174612C204B
:10FF2A00537461636B20697320656D7074792E0A4E
:10FF3A0000436F756C64206E6F7420696E7365720E
:10FF4A007420646174612C20537461636B2069733B
:10FF5A002066756C6C2E0A000A54686520436C6F23
:10FF6A00736573206F626A65637420286D6D293A20
:10FF7A00202564000A537465707320547261766593
:10FF8A006C6C65643A20256400537465707065640E
:10FF9A00203336302064656772656573002020203F
:10FFAA0020202020202020202020202020200A007D
:10FFBA0053656E736F72204D6F76696E67212020CC
:10FFCA00200A000A476F696E67206261636B2074BA
:10FFDA006F3A2025640053656E736F72204D6F76F9
:10FFEA00696E67210A00746573740A002564200A21
:05FFFA0000256300007A
:020000040001F9
:100000000AD0660E0001E66F010E03D0710EE66F96
:10001000010EE76F08D00001E451000AD8B4F1D70F
:10002000010AD8B4F3D720EE02F0E651D926E75101
:10003000DA22E4C0DFFF93D0A50ED96F000EDA6F8D
:10004000020EDB6F030EDC6F34EC87F0A50E0001AF
:10005000D96F000EDA6F030EDB6F030EDC6F34EC2A
:1000600087F0A50E0001D96F000EDA6F050EDB6F69
:10007000030EDC6F34EC87F0A50E0001D96F000E83
:10008000DA6F040EDB6F000EDC6F34EC87F00001DA
:1000900020EE03F0E651D926E751DA22C70EDE6ED4
:1000A0000F0EDD6E20EE06F0E651D926E751DA227A
:1000B000C60EDE6E0F0EDD6E20EE09F0E651D9267B
:1000C000E751DA22C90E47D09B0ED96F000EDA6FC6
:1000D000070EDB6F030EDC6F34EC87F09B0E000124
:1000E000D96F000EDA6F060EDB6F030EDC6F34EC97
:1000F00087F09B0E0001D96F000EDA6F040EDB6FE4
:10010000030EDC6F34EC87F09B0E0001D96F000EFC
:10011000DA6F050EDB6F000EDC6F34EC87F0000148
:1001200020EE03F0E651D926E751DA226D0EDE6E9D
:100130000F0EDD6E20EE06F0E651D926E751DA22E9
:100140006C0EDE6E0F0EDD6E20EE09F0E651D92644
:10015000E751DA226F0EDE6E0F0EDD6E08D0E4512D
:10016000000AD8B469D7010AD8A41200ADD720EE8E
:1001700006F0E651D926E751DA22DECFB3F0DDCF23
:10018000B4F0050EB56F000EB66F47EC98F08CD04A
:10019000000120EE06F0E651D926E751DA22DECF43
:1001A000B3F0DDCFB4F0040EB56F000EB66F47ECC0
:1001B00098F0000120EE03F0E651D926E751DA224B
:1001C000DECFB3F0DDCFB4F0060EB56F000EB66F24
:1001D00047EC98F078D0000120EE06F0E651D926E1
:1001E000E751DA22DECFB3F0DDCFB4F0040EB56F05
:1001F000000EB66F47EC98F0000120EE03F0E651D8
:10020000D926E751DA22DECFB3F0DDCFB4F0060E07
:10021000B56F010EB66F47EC98F055D0000120EE97
:1002200006F0E651D926E751DA22DECFB3F0DDCF72
:10023000B4F0040EB56F010EB66F47EC98F00001F4
:1002400020EE03F0E651D926E751DA22DECFB3F0F3
:10025000DDCFB4F0060EB56F000EB66F47EC98F028
:1002600032D0000120EE06F0E651D926E751DA221D
:10027000DECFB3F0DDCFB4F0040EB56F010EB66F74
:1002800047EC98F0000120EE03F0E651D926E75143
:10029000DA22DECFB3F0DDCFB4F0060EB56F010E7B
:1002A000B66F47EC98F00FD00001E551000AD8B4C2
:1002B0006FD7010AD8B48FD7030AD8B4AFD7010AD1
:1002C000D8A41200CED7000120EE06F0E651D926C0
:1002D000E751DA22DECFB3F0DDCFB4F0070EB56F11
:1002E000000EB66F47EC98F0000120EE06F0E651E4
:1002F000D926E751DA22DECFB3F0DDCFB4F0060E17
:10030000B56F000EB66F47EC98F0E0C0C0F0E1C0EA
:10031000C1F0E2C0C2F0E3C0C3F084EC8BF0E6C0F1
:10032000B3F0E7C0B4F0A5EC9BF004D09F860BD0EF
:10033000A58E09D00001E451000AD8B4F7D7010A0C
:10034000D8A41200F5D7E6C0B3F0E7C0B4F079EC5A
:100350009BF0E6C0D9FFE7C0DAFF000EDF6E0001B8
:1003600020EE06F0E651D926E751DA22DECFBEF0C4
:10037000DDCFBFF0000EC06F030EC16F39EC9CF0F3
:10038000000120EE06F0E651D926E751DA22DECF51
:10039000B3F0DDCFB4F0050EB56F010EB66F47ECCC
:1003A00098F01200080E0001C225BF6F000EC32195
:1003B000C06F000EC16F19EC9BF00001D96FD951CD
:1003C000C56FC66B0E0ED890C537C637E82EFBD763
:1003D000D951C76FC86B0C0ED890C737C837E82EF5
:1003E000FBD7D951C96FCA6B0A0ED890C937CA3723
:1003F000E82EFBD7D951CC6FCB6BD951CD6FCE6BDB
:10040000060ED890CD37CE37E82EFBD7D951CF6F17
:10041000D06BCF3BD03BF00ED017CF510F0BD0138A
:10042000F00ECF17D951D16FD26BD890D137D237C8
:10043000D890D137D237D951D36FD46BD151D31390
:10044000D251D413CF51D313D051D413CD51D31390
:10045000CE51D413CB51D313CC51D413C951D31390
:10046000CA51D413C751D313C851D413C551D31192
:10047000D56FC651D411D66FD9C0D7F0D86B080E3E
:10048000C225BF6F000EC321C06F010EC16F19ECF2
:100490009BF00001C56FC66BD890C537C637D890A2
:1004A000C537C637C551D713C651D813080EC22554
:1004B000BF6F000EC321C06F020EC16F19EC9BF01D
:1004C0000001C56FC66BC53BC63BF00EC617C551D4
:1004D0000F0BC613F00EC517C551D713C651D8134D
:1004E000080EC225BF6F000EC321C06F030EC16F7F
:1004F00019EC9BF00001C56FC66B060ED890C5378E
:10050000C637E82EFBD7C551D713C651D813080EEE
:10051000C225BF6F000EC321C06F040EC16F19EC5E
:100520009BF00001C56FC551C76FC66BC651D7138D
:10053000C751D813080EC225BF6F000EC321C06F6C
:10054000050EC16F19EC9BF00001C56FC66B0A0E5A
:10055000D890C537C637E82EFBD7C551D713C6513B
:10056000D813080EC225BF6F000EC321C06F060E40
:10057000C16F19EC9BF00001C56FC66B0C0ED890D3
:10058000C537C637E82EFBD7C551D713C651D81388
:10059000080EC225BF6F000EC321C06F070EC16FCA
:1005A00019EC9BF00001C56FC66B0E0ED890C537D5
:1005B000C637E82EFBD7C551D713C651D813D7512C
:1005C000D51944E1D851D619D8A4120030D020EE64
:1005D00002F0C251D926C351DA22DECFB3F0DDCF0B
:1005E000B4F0C4C0B5F055EC9DF012000001C41F7A
:1005F00020EE02F0C251D926C351DA22DECFB3F089
:10060000DDCFB4F0C4C0B5F055EC9DF01200000190
:1006100020EE04F0C251D926C351DA22DECFB3F066
:10062000DDCFB4F0C4C0B5F055EC9DF01200000170
:10063000D951000AD8B41200010AD8B4C8D7030AA5
:10064000D8B4D4D7010AD8A41200E1D7120000010F
:10065000B36F7ED03F0E1200060E12005B0E12002A
:100660004F0E1200660E12006D0E12007D0E12006B
:10067000070E12007F0E12006F0E12005F0E1200A6
:100680007C0E1200580E12005E0E12007B0E12003D
:10069000710E12006F0E1200740E1200040E120082
:1006A0000E0E12007A0E1200060E1200140E120028
:1006B000540E12005C0E1200730E1200670E120030
:1006C000500E12006D0E1200780E12001C0E120059
:1006D000620E12002A0E1200640E12006E0E12003C
:1006E0005B0E1200770E12007F0E1200390E120000
:1006F0003F0E1200790E1200710E12003D0E120014
:10070000760E1200060E12001E0E1200570E120078
:10071000380E1200760E1200760E12003F0E1200F6
:10072000730E12003F0E1200770E12006D0E1200B3
:10073000310E12003E0E12003E0E12007E0E12000E
:10074000760E1200660E12005B0E1200800E120072
:100750000001B3512E0AD8B4F9D71E0AD8B47AD7FB
:10076000010AD8B479D7030AD8B478D7010AD8B423
:1007700077D7070AD8B476D7010AD8B475D7030A51
:10078000D8B474D7010AD8B473D70F0AD8B472D7C3
:10079000010AD8B471D7780AD8B4A4D7030AD8B458
:1007A000A3D7010AD8B4A2D7070AD8B4A1D7010A9F
:1007B000D8B4A0D7030AD8B49FD7010AD8B49ED71B
:1007C0000F0AD8B49DD7010AD8B49CD7030AD8B46D
:1007D0009BD7010AD8B49AD7070AD8B499D7010A87
:1007E000D8B498D7030AD8B497D7010AD8B496D703
:1007F0001F0AD8B495D7010AD8B494D7030AD8B43D
:1008000093D7010AD8B492D7070AD8B491D7010A6E
:10081000D8B490D7030AD8B48FD7010AD8B48ED7EA
:100820000F0AD8B48DD7010AD8B48CD7030AD8B42C
:100830008BD73B0AD8B422D7030AD8B421D7010AF0
:10084000D8B420D7070AD8B41FD7010AD8B41ED706
:10085000030AD8B41DD7010AD8B41CD70F0AD8B4DC
:100860001BD7010AD8B41AD7030AD8B419D7010A7A
:10087000D8B418D7070AD8B417D7010AD8B416D7EE
:10088000030AD8B415D7010AD8B414D71F0AD8B4AC
:1008900013D7010AD8B412D7030AD8B411D7010A62
:1008A000D8B410D7070AD8B40FD7010AD8B40ED7D6
:1008B000030AD8B40DD7010AD8B40CD70F0AD8B49C
:1008C0000BD7010AD8B40AD7030AD8B409D7000E47
:1008D0001200050E0001ED6FB8D020EE02F0E951D4
:1008E000D926EA51DA22DECFBEF0DDCFBFF0EBC071
:1008F000C0F00F0EC16F39EC9CF0000120EE04F047
:10090000E951D926EA51DA22DECFBEF0DDCFBFF0C1
:10091000EBC0C0F0000EC16F39EC9CF0A4D0E9C070
:10092000E2F0EAC0E3F0EBC0E4F0030E0001E56F93
:10093000C0EC98F00001ED6FED51D8A4120020EE4C
:1009400002F0E951D926EA51DA22DECFBEF0DDCF3E
:10095000BFF0EBC0C0F0000EC16F39EC9CF000019D
:1009600020EE04F0E951D926EA51DA22DECFBEF0BA
:10097000DDCFBFF0EBC0C0F0000EC16F39EC9CF0D2
:1009800072D0E9C0E2F0EAC0E3F0EBC0E4F0030E9D
:100990000001E56FC0EC98F00001ED6FED51D8A4B7
:1009A000120020EE02F0E951D926EA51DA22DECF18
:1009B000BEF0DDCFBFF0EBC0C0F00F0EC16F39EC61
:1009C0009CF0000120EE04F0E951D926EA51DA2228
:1009D000DECFBEF0DDCFBFF0EBC0C0F00F0EC16FB9
:1009E00039EC9CF040D0E9C0E2F0EAC0E3F0EBC0A3
:1009F000E4F0030E0001E56FC0EC98F00001ED6F2C
:100A0000ED51D8A4120020EE02F0E951D926EA51A6
:100A1000DA22DECFBEF0DDCFBFF0EBC0C0F0000EBB
:100A2000C16F39EC9CF0000120EE04F0E951D926A9
:100A3000EA51DA22DECFBEF0DDCFBFF0EBC0C0F06E
:100A4000000EC16F39EC9CF00ED00001EC51000A91
:100A5000D8B443D7010AD8B462D7030AD8B491D71F
:100A6000010AD8B4C0D7080E0001E925C26F000EF4
:100A7000EA21C36FEB51040DF3CFC4F0ECC0C5F015
:100A800076EC9AF0080E0001E925C26F000EEA210B
:100A9000C36FEB51040DF328C46FECC0C5F076ECC6
:100AA0009AF0080E0001E925C26F000EEA21C36F1B
:100AB000EB51040DF350020FC46FECC0C5F076EC9F
:100AC0009AF0080E0001E925C26F000EEA21C36FFB
:100AD000EB51040DF350030FC46FECC0C5F076EC7E
:100AE0009AF01200050E0001F26F6ED020EE02F0B7
:100AF000ED51D926EE51DA22DECFF0F0DDCFF1F064
:100B0000F0C0D9FFF1C0DAFFFF0E5CD0EDC0E9F014
:100B1000EEC0EAF0010EEB6FBDEC99F00001F26F50
:100B2000F251D8A4120020EE02F0ED51D926EE5178
:100B3000DA22DECFF0F0DDCFF1F0F0C0D9FFF1C066
:100B4000DAFF000EDF6E20EE04F02FD0EDC0E9F0EA
:100B5000EEC0EAF0020EEB6FBDEC99F00001F26F0F
:100B6000F251D8A4120020EE02F0ED51D926EE5138
:100B7000DA22DECFF0F0DDCFF1F0F0C0D9FFF1C026
:100B8000DAFFFF0EDF6E20EE04F0B2D7EDC0E9F021
:100B9000EEC0EAF0000EEB6FBDEC99F00001F26FD1
:100BA000F251D8A4120020EE02F0ED51D926EE51F8
:100BB000DA22DECFF0F0DDCFF1F0F0C0D9FFF1C0E6
:100BC000DAFF000EDF6E0DD0EF51000AD8B48ED7D9
:100BD000010AD8B49BD7030AD8B4B8D7010AD8B44D
:100BE000D5D7080EED25C26F000EEE21C36F000EA3
:100BF000C46FEFC0C5F076EC9AF0080E0001ED2549
:100C0000C26F000EEE21C36F010EC46FEFC0C5F0BE
:100C100076EC9AF0080E0001ED25C26F000EEE2171
:100C2000C36F020EC46FEFC0C5F076EC9AF0080EE9
:100C30000001ED25C26F000EEE21C36F030EC46FDD
:100C4000EFC0C5F076EC9AF0080E0001ED25C26FFA
:100C5000000EEE21C36F040EC46FEFC0C5F076EC3A
:100C60009AF0080E0001ED25C26F000EEE21C36F51
:100C7000050EC46FEFC0C5F076EC9AF0080E0001C7
:100C8000ED25C26F000EEE21C36F060EC46FEFC0DC
:100C9000C5F076EC9AF0080E0001ED25C26F000E4B
:100CA000EE21C36F070EC46FEFC0C5F076EC9AF06B
:100CB00012000001FF51D8B41200E8C1D9F0E9C117
:100CC000DAF0EAC1DBF0EBC1DCF09051D8B404D02B
:100CD0008EC0D8F00F0E8E6F000EDE6FB9D0DE51D1
:100CE000020D8C0EF324D96E020EF420DA6EDECFE4
:100CF000FDF0DDCFFEF0000EDD6F130EDD6501D0DF
:100D00009ED0DE51140DF00ED66F020ED76FF35049
:100D1000D627F450D723DD51010DF350D625D96ED7
:100D2000F450D721DA6EDFAE83D0DE51140DF00E11
:100D3000D66F020ED76FF350D627F450D723DD516C
:100D4000010DF350D625D96EF450D721DA6E7F0EFF
:100D5000DF16DE51140DF00ED66F020ED76FF35072
:100D6000D627F450D723DD51010DF350D625D96E87
:100D7000F450D721DA6EDF50D8B443D07FC0BCF036
:100D800080C0BDF0D9C0BEF0DAC0BFF0DBC0C0F09B
:100D9000DCC0C1F0F0C1C2F0F1C1C3F0F2C1C4F0D7
:100DA000F3C1C5F01DEC98F00001DE51140DF00EFA
:100DB000D66F020ED76FF350D627F450D723DD51EC
:100DC000010DF350D625D96EF450D721DA6EDF50DD
:100DD000BFEC90F0B8C0C5F0B9C0C6F0D9C0C7F03C
:100DE000DAC0C8F0DBC0C9F0DCC0CAF0F0C1CBF09B
:100DF000F1C1CCF0F2C1CDF0F3C1CEF0D8EC93F05C
:100E000017D0000E0001BD6F000EBC6FD9C0BEF040
:100E1000DAC0BFF0DBC0C0F0DCC0C1F0F0C1C2F08E
:100E2000F1C1C3F0F2C1C4F0F3C1C5F01DEC98F0FC
:100E3000060E0001D927000EDA23DD2B5ED7080E3F
:100E4000DB27000EDC23000EDA6F060ED96FDE2BD7
:100E5000DE518E5DD8B043D79051D8B41200000E49
:100E6000906FD8C08EF01200D9C0D9FFDAC0DAFF77
:100E7000DECFDEF0DDCFDFF0050E0001DD6FA7D0A5
:100E800020EE02F0D951D926DA51DA22DECFB3F0C2
:100E9000DDCFB4F0DBC0B5F0010EB66F47EC98F0D3
:100EA000A4D0DEC0C2F0DFC0C3F0010E0001C46FE9
:100EB000DBC0C5F084EC96F00001DD6FDD51D8A4F5
:100EC000120020EE02F0D951D926DA51DA22DECF13
:100ED000B3F0DDCFB4F0DBC0B5F0000EB66F47EC79
:100EE00098F0000120EE04F0D951D926DA51DA2227
:100EF000DECFB3F0DDCFB4F0DBC0B5F0000EB66FDF
:100F000047EC98F072D0DEC0C2F0DFC0C3F0020E32
:100F10000001C46FDBC0C5F084EC96F00001DD6F0A
:100F2000DD51D8A4120020EE02F0D951D926DA51B1
:100F3000DA22DECFB3F0DDCFB4F0DBC0B5F0010EC6
:100F4000B66F47EC98F0000120EE04F0D951D92695
:100F5000DA51DA22DECFB3F0DDCFB4F0DBC0B5F08A
:100F6000010EB66F47EC98F040D0DEC0C2F0DFC093
:100F7000C3F0000E0001C46FDBC0C5F084EC96F036
:100F80000001DD6FDD51D8A4120020EE02F0D9512E
:100F9000D926DA51DA22DECFB3F0DDCFB4F0DBC0F0
:100FA000B5F0000EB66F47EC98F0000120EE04F0AB
:100FB000D951D926DA51DA22DECFB3F0DDCFB4F041
:100FC000DBC0B5F0000EB66F47EC98F00ED0000114
:100FD000DC51000AD8B454D7010AD8B462D7030A46
:100FE000D8B491D7010AD8B4C0D7080E0001D925CA
:100FF000C26F000EDA21C36FDBC0C4F0DCC0C5F0E5
:1010000076EC9AF012000101D951CBEC92F0D7C1E5
:10101000D9FFD8C1DAFF0001B3C0DEFFB4C0DDFFE5
:101020000101D9510FEC93F0010120EE06F0D751E8
:10103000D926D851DA220001B3C0DEFFB4C0DDFFEB
:101040000101D9510FEC93F0010120EE04F0D751CA
:10105000D926D851DA220001B3C0DEFFB4C0DDFFCB
:101060000101D95187EC92F0010120EE02F0D75135
:10107000D926D851DA220001B3C0DEFFB4C0DDFFAB
:10108000010120EE04F0D751D926D851DA22DECF63
:10109000DAF1DDCFDBF1DAC1D9FFDBC1DAFF000E17
:1010A000DF6E20EE02F0D751D926D851DA22DECFFA
:1010B000DAF1DDCFDBF1DAC1D9FFDBC1DAFFFF0EF8
:1010C000DF6ED7C1EDF0D8C1EEF0000E0001EF6F7A
:1010D00072EC85F0000E0101DC6F070EDC6531D08B
:1010E0004BD0D7C1D9F0D8C1DAF0DCC1DBF0030EA8
:1010F0000001DC6F34EC87F03CD0D7C1D9F0D8C107
:10110000DAF0DCC1DBF0020E0001DC6F34EC87F0BA
:1011100030D0D7C1D9F0D8C1DAF0DCC1DBF0010E94
:101120000001DC6F34EC87F024D0D7C1D9F0D8C1EE
:10113000DAF0DCC1DBF0000E0001DC6F34EC87F08C
:1011400018D0D7C1D9FFD8C1DAFFDECFBFF0DDCFCD
:10115000C0F0DCC1C1F019EC9BF0000AD8B4C1D7D3
:10116000010AD8B4D6D7030AD8B4C7D7010AD8B46D
:10117000DCD70101DC2BB1D7D7C1C2F0D8C1C3F095
:10118000000E0001C46FD2EC81F012005C0E010170
:10119000D76F010ED86F000EDA6F020ED96F360EC0
:1011A000DB6F3B0EDC6F010EDD6FF60EDE6F390E6E
:1011B000DF6F010EE06F040EE16F140EE26F000EA0
:1011C000E36FBBEC8FF03E0E0101D76F010ED86FBD
:1011D000000EDA6F020ED96F360EDB6F3B0EDC6F3E
:1011E000010EDD6F460EDE6F3A0EDF6F010EE06F0F
:1011F000040EE16F140EE26F000EE36FBBEC8FF094
:10120000340E0101D76F010ED86F000EDA6F020E97
:10121000D96F360EDB6F3B0EDC6F010EDD6F320EC9
:10122000DE6F3A0EDF6F010EE06F040EE16F140EF9
:10123000E26F000EE36FBBEC8FF0480E0101D76F39
:10124000010ED86F000EDA6F020ED96F360EDB6F0B
:101250003B0EDC6F010EDD6F1E0EDE6F3A0EDF6F90
:10126000010EE06F040EE16F140EE26F000EE36FEB
:10127000BBEC8FF0520E0101D76F010ED86F000E3C
:10128000DA6F020ED96F360EDB6F3B0EDC6F010E8C
:10129000DD6F0A0EDE6F3A0EDF6F010EE06F040E97
:1012A000E16F140EE26F000EE36FBBEC8FF0A00E47
:1012B0000001E06F860EE16F010EE26F000EE36F3A
:1012C000000EE46F020EE56F00EC80F0660E000188
:1012D000C26F010EC36F50EC96F0000E0001EF6F6D
:1012E000000EEE6FEF510FE1080EEE5DD8B0120068
:1012F0002C0EEE25D96E010EEF21DA6E000EDF6E98
:10130000EE4BEF2BEFD71200CA0E0001CF6F000E8D
:10131000D06F9ED0250ED319D8B404D0D35147EC4A
:101320009DF096D0000E0001CD6F0ED0CFC0D9FF3A
:10133000D0C0DAFFDF50D36F020ECF27000ED023CC
:10134000D35147EC9DF084D0C8C0F6FFC9C0F7FF69
:101350000001C84BC92B000EF86E0800F5CFD3F082
:10136000D351000AD8B41200630AD8B4DFD7070AF1
:10137000D8B403D00D0AD8A4E3D7CFC0D9FFD0C0CA
:10138000DAFFDECFD1F0DDCFD2F0020E0001CF27A1
:10139000000ED023D2AF06D0030ECD13D16DD21FD5
:1013A000D8B0D22B010ED36F050ED319D8B415D0F7
:1013B000D351020DBD0EF324F66EFC0EF420F76E31
:1013C000F86A000EF8220900F550D15D0900F550C9
:1013D000D259D8A002D0D32BE7D7CDC0CCF0030E82
:1013E000CC17D8B403D02D0E47EC9DF0D3C0CEF06F
:1013F0002AD00001CE51020DBD0EF324F66EFC0E74
:10140000F420F76EF86A000EF8220900F5CFB5F067
:101410000A00F5CFB6F0D1C0B3F0D2C0B4F0F3EC0F
:1014200097F0B3C0BAF0B4C0BBF0000E0001BD6FBE
:101430000A0EBC6F9BEC99F00001BA51300FD36FCC
:10144000D35147EC9DF00001CE07CE29D8A4D1D7C7
:10145000C8C0F6FFC9C0F7FF0001C84BC92B000E7A
:10146000F86E0800F5CFD3F0D351D8B4120052D79C
:101470000001C66F8AD017EC94F0120070EC98F05F
:1014800012007CEC95F01200ADEC91F0120075ECBE
:1014900097F0120068EC9CF01200C6C0C3F07F0EFB
:1014A0000001C3178E51140DF00EC46F020EC56FEC
:1014B000F350C427F450C5238F51010DF350C425B8
:1014C000D96EF450C521DA6EDF507F0BC319D8B442
:1014D00023D0010EFF6F8E51140DF00EC36F020E5C
:1014E000C46FF350C327F450C4238F51010DF35040
:1014F000C325D96EF450C421DA6EC6518009DF6E5F
:101500008E51020D8C0EF324D96E020EF420DA6E89
:10151000FDC0DEFFFEC0DDFF75EC97F00009D8B41A
:101520001200C6C0C3F07F0E0001C3178E51140D08
:10153000F00EC46F020EC56FF350C427F450C523DC
:101540008F51010DF350C425D96EF450C521DA6EC8
:10155000DF507F0BC319D8B41200010EFF6F8E51FC
:10156000140DF00EC36F020EC46FF350C327F45076
:10157000C4238F51010DF350C325D96EF450C421FB
:10158000DA6EC6518009DF6E12000001C651070AEB
:10159000D8B47DD70F0AD8B471D7010AD8B474D79C
:1015A000030AD8B468D7060AD8B46BD7010AD8B4EE
:1015B00062D72D0AD8B471D7030AD8B46BD76DD7C8
:1015C00018EC97F0000E0001EB6F000EEA6FEB5184
:1015D0007DE1590EEA5DD8B079D0D890EA35F66E43
:1015E000EB35F76EEB0EF626FB0EF722F86A000ECF
:1015F000F8220900800EF5180900F510D8A41DD0B6
:10160000EB511BE1580EEA5DD8B017D0EA4BEB2B3B
:10161000D890EA35F66EEB35F76EEB0EF626FB0E3C
:10162000F722F86A000EF8220900F5CFB3F00A009D
:10163000F5CFB4F047EC97F043D0D8900001EA35ED
:10164000F66EEB35F76EEB0EF626FB0EF722F86A18
:10165000000EF8220900000EF55E0900010EF55A91
:10166000D8A01BD0000EB66FD890EA35F66EEB35D9
:10167000F76EEB0EF626FB0EF722F86A000EF82244
:101680000900F5CFE8F00900F5CFE9F0E9C0E8F08E
:10169000E96BE85149EC9CF013D0010E0001B66FE4
:1016A000D890EA35F66EEB35F76EEB0EF626FB0EAC
:1016B000F722F86A000EF8220800F55049EC9CF079
:1016C0000001EA4BEB2BEB5101E183D7000EB46F25
:1016D000640EB36F47EC97F0000E0001B66F290E51
:1016E00049EC9CF0010EF7EC91F0000E0001B46F94
:1016F000640EB36F47EC97F0000E0001BD6F000E53
:10170000BC6F32EC99F01200000E0001C96F6C0E34
:10171000CA6FDC0ECB6F020ECC6FD890C037C137CA
:10172000C237C337020EC46FD890CC33CB33CA3321
:10173000C933C42FF9D7C9C0B3F0CAC0B4F0CBC005
:10174000B5F0CCC0B6F0C0C0B7F0C1C0B8F0C2C0F0
:10175000B9F0C3C0BAF096EC93F0B3C0CDF0B4C00A
:10176000CEF0B5C0CFF0B6C0D0F00ED0000E000164
:10177000C56F000EC66F000EC76F000EC86F8D2BB1
:10178000020E8D6501D023D0CDC0B3F0CEC0B4F031
:10179000CFC0B5F0D0C0B6F000018D51010DD40E10
:1017A000F324F66EFC0EF420F76EF86A000EF822B1
:1017B0000800F550B76FB86BB96BBA6B96EC93F045
:1017C0000001B651B511D2E1B405D8B0CFD7CA5097
:1017D0008D19FC0B8D19CA6ECA8491EC9DF0000125
:1017E0008D51010DD40EF324F66EFC0EF420F76E2D
:1017F000F86A000EF8220800F5CF8CF0FF0ECD2518
:101800000101006FFF0E0001CE210101016FFF0EEB
:101810000001CF210101026FFF0E0001D021010163
:10182000036F00C1B3F001C1B4F002C1B5F003C150
:10183000B6F000018C51B76FB86BB96BBA6B96EC10
:1018400093F00001B3518D6F8DC0CBFF1200010EDC
:101850004B6E000E0001636F000E646F000E656F2B
:10186000A40E0101D76F010ED86F000ED96F03ECE3
:1018700088F09A0E0101D76F010ED86F010ED96F53
:1018800003EC88F0A50E0101D76F000ED86F020E91
:10189000D96F03EC88F09B0E0101D76F000ED86F53
:1018A000030ED96F03EC88F0910E0101D76F000E83
:1018B000D86F040ED96F03EC88F0AE0E0101D76F1C
:1018C000010ED86F050ED96F03EC88F0900E010160
:1018D000D76F010ED86F060ED96F03EC88F0AE0EED
:1018E0000001D96F010EDA6F050EDB6F000EDC6FA1
:1018F00034EC87F09A0E0001E96F010EEA6F000EDA
:10190000EB6F000EEC6F69EC84F0AE0E0001D96F46
:10191000010EDA6F060EDB6F030EDC6F34EC87F01E
:10192000900E0001ED6F010EEE6F030EEF6F72EC83
:1019300085F0900E0001C26F010EC36F040EC46FDC
:10194000000EC56F61EC8FF0AE0E0001C26F010E8C
:10195000C36F060EC46F010EC56F61EC8FF0000EF1
:101960009FEC97F0010E9FEC97F0000E9E6E000E1C
:10197000A16E000EA46E9B8E9B8C000E0001B46FB6
:10198000640EB36F47EC97F0D08E120027EC8CF00A
:10199000C2EC9CF059EC9CF0E6EC9CF083EC9DF0E2
:1019A000CFEC94F079EC99F0010E9FEC97F0010EDA
:1019B00093EC9AF00009D8B40CD0C6EC88F0E0ECB7
:1019C0008AF0E7EC95F09EEC9CF00009D8A4E5ECD9
:1019D0009AF0B8EC96F021EE59F001D80AD0050043
:1019E000FA6EDE50FD6EDE50FE6EDE50FF6EFA5077
:1019F00012000101E76F21EE3BF001D80AD005008B
:101A0000FA6EDE50FD6EDE50FE6EDE50FF6EFA5056
:101A100012000101E46F21EE4FF001D80AD0050059
:101A2000FA6EDE50FD6EDE50FE6EDE50FF6EFA5036
:101A300012000101E56F21EE45F001D80AD0050042
:101A4000FA6EDE50FD6EDE50FE6EDE50FF6EFA5016
:101A500012000101E66FE751D8B405D0000E000175
:101A6000766F010E756F010E93EC9AF00009D8B4F1
:101A7000B0D7000175057611D8A41CD0FB0EC86F35
:101A8000FF0EC96F000ECB6F230ECA6F84EC89F076
:101A9000F00E0001C86FFF0EC96F84EC89F059EC9D
:101AA00086F0000E0001CA6F640EC96FF4EC9BF063
:101AB000AFEC9AF059EC86F09EEC9CF00009D8B49B
:101AC00088D7E5EC9AF085D7000120EE07F0CE51DB
:101AD000D926CF51DA2201D80AD00500FA6EDE509D
:101AE000FD6EDE50FE6EDE50FF6EFA5012000001F9
:101AF000D66FCEC0D9FFCFC0DAFFD651DE18D8A43A
:101B00001CD020EE01F0CE51D926CF51DA22D0518F
:101B1000DE5CD8B009D020EE01F0CE51D926CF51ED
:101B2000DA22000EDF6E120020EE01F0CE51D9262F
:101B3000CF51DA22D051DF5E120020EE01F0CE51FB
:101B4000D926CF51DA22DF50D16FD26BD051D127B5
:101B5000000ED22320EE01F0CE51D926CF51DA2249
:101B6000DF50D36FD46BD151D35DD451800AD56F80
:101B7000D251800AD559D8B0120020EE01F0CE51D2
:101B8000D926CF51DA22D051DF2620EE02F0CE51F5
:101B9000D926CF51DA2210EE01F0CE51E126CF51F5
:101BA000E222E750D36FD46BDE50D35DDE50D459C0
:101BB000D8A01200CEC0D9FFCFC0DAFFD6C0DFFF59
:101BC00020EE01F0CE51D926CF51DA22000EDF6E81
:101BD00020EE04F0CE51D926CF51DA2201D81200DE
:101BE0000500FA6EDE50FD6EDE50FE6EDE50FF6EBA
:101BF000FA50D651120051B282EF8EF0000120EE61
:101C000004F07B51D9267C51DA22DF503CEC9AF06B
:101C10000009D8B46ED07BC0D9FF7CC0DAFFDE509B
:101C2000DE10D8B461D07BC0D9FF7CC0DAFF010ED2
:101C3000DBBE23D0010EDB5003E1DE04D8A01DD0B3
:101C40007BC0D9FF7CC0DAFFDE2804E17F0EDE18FE
:101C5000D8B407D07BC0D9FF7CC0DAFFDE06000E07
:101C6000DD5A910E0001C26F000EC36F000EC46FEB
:101C7000010EC56F61EC8FF01CD07BC0D9FF7CC01A
:101C8000DAFFDE0404E1800EDE18D8B407D07BC092
:101C9000D9FF7CC0DAFFDE2A000EDD22910E0001A2
:101CA000C26F000EC36F000EC46F000EC56F61ECF3
:101CB0008FF0910E0001C26F000EC36F010EC46F52
:101CC000010EC56F61EC8FF0910E0001C26F000E26
:101CD000C36F010EC46F000EC56F61EC8FF09EECF8
:101CE0009CF077EC9DF012009EEC9CF095EC9DF042
:101CF000120066C0B3F067C0B4F068C0B5F05CEC29
:101D00009DF01200000120EE04F07B51D9267C5199
:101D1000DA22DF50CAEC9AF00009D8B46AD07BC04E
:101D2000D9FF7CC0DAFFDE50DE10D8B45DD07BC0B6
:101D3000D9FF7CC0DAFF010EDBBE22D0010EDB50E2
:101D400003E1DE04D8A01CD07BC0D9FF7CC0DAFF41
:101D5000DE2804E17F0EDE18D8B407D07BC0D9FF9F
:101D60007CC0DAFFDE06000EDD5A910E106E000E0A
:101D7000116E000E126E010E136E6AEC90F01BD005
:101D80007BC0D9FF7CC0DAFFDE0404E1800EDE18E0
:101D9000D8B407D07BC0D9FF7CC0DAFFDE2A000EA2
:101DA000DD22910E106E000E116E000E126E000EEE
:101DB000136E6AEC90F0910E106E000E116E010E13
:101DC000126E010E136E6AEC90F0910E106E000E02
:101DD000116E010E126E000E136E6AEC90F0A1EC03
:101DE0009DF07DEC9DF01200A1EC9DF09EEC9DF02D
:101DF000120066C001F067C002F068C003F063EC37
:101E00009DF01200BFC0C7F0C0C0C8F0000E0001B6
:101E1000C66F000EC56FC1C0C3F0C2C0C4F0C751C9
:101E2000C811D8A430D0C3C0D9FFC4C0DAFF300E67
:101E3000DF6E000EC66F010EC56F39D0C7C0BAF095
:101E4000C8C0BBF0000EBD6F0A0EBC6F9BEC99F0D2
:101E50000001BA51300FC3C0D9FFC4C0DAFFDF6E32
:101E6000C7C0B3F0C8C0B4F0000EB66F0A0EB56FAD
:101E7000F3EC97F0B3C0C7F0B4C0C8F00001C54B95
:101E8000C62BC34BC42BC751C811D8B406D0C651FA
:101E900004E1060EC55DD8A0D1D7C1C0B3F0C2C061
:101EA000B4F0C5C0B5F0C6C0B6F0C9EC97F00001FB
:101EB000C551C125D96EC651C221DA6E000EDF6E42
:101EC0001200080E0001C225BF6F000EC321C06FB3
:101ED000C4C0C1F019EC9BF00001C66F3DD0010EEB
:101EE000C51720EE02F0C251D926C351DA22DECF47
:101EF000B3F0DDCFB4F0C4C0B5F0C5C0B6F047EC68
:101F000098F01200010E0001C517010EC51B20EE4E
:101F100002F0C251D926C351DA22DECFB3F0DDCFB1
:101F2000B4F0C4C0B5F0C5C0B6F047EC98F01200EC
:101F3000010E0001C51720EE04F0C251D926C3518D
:101F4000DA22DECFB3F0DDCFB4F0C4C0B5F0C5C047
:101F5000B6F047EC98F012000001C651000AD8B460
:101F60001200010AD8B4BBD7030AD8B4CBD7010AF0
:101F7000D8A41200DDD70101D751D811D8B412006E
:101F8000DB51DC11DD11D8B41200DE51DF11E0119C
:101F9000D8B41200E151E211E311D8B41200D951C2
:101FA000DA11D8A404D0000EDA6F010ED96FD7C1B0
:101FB000D9FFD8C1DAFF000EDF6E20EE01F0D75155
:101FC000D926D851DA22000EDF6E20EE02F0D7516A
:101FD000D926D851DA22D9C1DEFFDAC1DDFF20EEE1
:101FE00004F0D751D926D851DA22E1C1DEFFE2C18F
:101FF000DEFFE3C1DEFF20EE07F0D751D926D8512E
:10200000DA22DEC1DEFFDFC1DEFFE0C1DEFF01D884
:1020100012000500FA6EDB51FD6EDC51FE6EDD51E3
:10202000FF6EFA501200E10EF66E3A0EF76E010ED8
:10203000F86E01EEE8F010EE0CF00900F5CFEEFFBF
:10204000E550E150FAE1D40EF66E3A0EF76E010E4D
:10205000F86E00EEF3F010EE0DF00900F5CFEEFF94
:10206000E550E150FAE1800EF66E3A0EF76E010E81
:10207000F86E00EE43F010EE0EF00900F5CFEEFF23
:10208000E550E150FAE102EEF0F011EE2CF0EE6ACC
:10209000E550E150FCE1E250FAE102EE00F0F00E12
:1020A000EE6AE806FDE101EE00F0D70EEE6AE80602
:1020B000FDE100EE60F0530EEE6AE806FDE100EE91
:1020C00029F01A0EEE6AE806FDE1519051920001E6
:1020D000C6EF8CF0080E10240D6E000E11200E6E4F
:1020E00012C00FF04AEC9BF0146E3BD0010E131699
:1020F00020EE02F01050D9261150DA22DECF01F086
:10210000DDCF02F012C003F013C004F0E8EC98F049
:102110001200010E1316010E131A20EE02F01050D9
:10212000D9261150DA22DECF01F0DDCF02F012C045
:1021300003F013C004F0E8EC98F01200010E13163F
:1021400020EE04F01050D9261150DA22DECF01F033
:10215000DDCF02F012C003F013C004F0E8EC98F0F9
:1021600012001450000AD8B41200010AD8B4BED725
:10217000030AD8B4CED7010AD8A41200DFD70001D1
:10218000BE6F200E0001BE5FBE51050DF3CFBCF047
:10219000F4CFBDF0D70EBC25BF6FFC0EBD21C06FC4
:1021A000000EC36F040EC36501D037D0000EC46F9C
:1021B000060EC46501D02DD0BFC0B3F0C0C0B4F0CE
:1021C000C4C0B5F08FEC9BF00009D8A405D07FC047
:1021D000C1F080C0C2F004D0FDC0C1F0FEC0C2F0AA
:1021E0000001C4510A0DAA0EBA6F020EBB6FF35064
:1021F000BA27F450BB23C351020DF350BA25D96E50
:10220000F450BB21DA6EC1C0DEFFC2C0DDFFC42BBB
:10221000CFD7BF4BC02BC32BC5D7AA0EB86F020EAA
:10222000B96F1200000E0001B86F000EB76F2ED00C
:102230002C0EB725D96E010EB821DA6EB4C0E1FFBD
:10224000B5C0E2FFE75027EC83F0DF6E2C0E0001F3
:10225000B725D96E010EB821DA6E800EDE18D8A42B
:102260000BD0B707D8A0B8072C0EB725D96E010E32
:10227000B821DA6E000EDB8EB44BB52BB74BB82B02
:10228000B85116E1060EB75DD8B012D0B4C0D9FF70
:10229000B5C0DAFFDF50D8B40BD0CAD72C0EB725A3
:1022A000D96E010EB821DA6E000EDF6EB74BB82B77
:1022B000B85105E1060EB75DD8B01200EFD7120095
:1022C0000001BB6F020E0001B827020EBA27030EF1
:1022D000BB27030EB927000EB66F2A0E49EC9CF0FF
:1022E000010E0001B66F000E49EC9CF0010E0001DA
:1022F000B66FBB5149EC9CF0010E0001B66F000EA9
:1023000049EC9CF0010E0001B66FB95149EC9CF00C
:10231000000E0001B66F2B0E49EC9CF0010E00017F
:10232000B66F000E49EC9CF0010E0001B66FB8517B
:1023300049EC9CF0010E0001B66F000E49EC9CF0D8
:10234000010E0001B66FBA5149EC9CF0000E00017D
:10235000B66F2C0E49EC9CF01200000E0001C16F0C
:10236000FA0E4324B36FFF0E4420B46F000EB66F15
:10237000060EB56F53EC93F00001B351C26FC2C0AB
:10238000B3F0B46B000EB66F040EB56F53EC93F060
:102390000001B351C06F000EC16F06D032EC9BF04C
:1023A00075EC97F00001C12BC051040DF31EF41E13
:1023B000F34AF42AC251BB6FBC6BF350BB27F450F5
:1023C000BC23BB1FBC1FBB4BBC2B040EBB27000E8A
:1023D000BC23C151BD6FBE6BBB51BD5DBE51800AF8
:1023E000BF6FBC51800ABF59D8B01200D7D70001C7
:1023F000B86F000E0001B96F000EB66F360E49ECD3
:102400009CF00001B851030BB96F2BD0010EB66FD1
:10241000C80E49EC9CF0800E506E800E4F6E12007C
:10242000010E0001B66FA80E49EC9CF0800E506EB4
:10243000800E4F6E1200010E0001B66F080E49ECBF
:102440009CF0800E506E800E4F6E1200010E000147
:10245000B66F680E49EC9CF0800E506E800E4F6E89
:1024600012000001B951000AD8B4D0D7010AD8B47B
:10247000D7D7030AD8B4DFD7010AD8A41200E6D709
:102480000001B751010DC70EF324F66EFC0EF420C7
:10249000F76EF86A000EF8220800F5CFBDF0000EC6
:1024A000BC6F03D0B551B65FBC2BB551B65DD8B08B
:1024B000F9D7B751B603F350B66FBC51B627BD512B
:1024C000B817B6C0B9F0BDC0BAF0B92B02D0D890D9
:1024D000BA37B92FFCD70001BA51FF0ABB6FB3C09E
:1024E000D9FFB4C0DAFFBB51DF16B6C0B9F0B8C02F
:1024F000BAF0B92B02D0D890BA37B92FFCD7B3C0F5
:10250000D9FFB4C0DAFF0001BA51DF121200000196
:10251000B56F29D0920E0001B36F0F0EB46F120089
:10252000930EB36F0F0EB46F1200940EB36F0F0EB5
:10253000B46F1200950EB36F0F0EB46F1200960EAB
:10254000B36F0F0EB46F1200970EB36F0F0EB46F10
:102550001200980EB36F0F0EB46F1200000EB36F1F
:10256000000EB46F12000001B551000AD8B4D2D7E2
:10257000010AD8B4D5D7030AD8B4D7D7010AD8B43A
:10258000D9D7070AD8B4DBD7010AD8B4DDD7030AF4
:10259000D8B4DFD7E3D70001B56F29D00F0E000103
:1025A000B36FFF0EB46F12000D0EB36FFF0EB46F5A
:1025B00012000B0EB36FFF0EB46F1200090EB36F53
:1025C000FF0EB46F1200070EB36FFF0EB46F120050
:1025D000050EB36FFF0EB46F1200030EB36FFF0E44
:1025E000B46F1200000EB36F000EB46F1200000142
:1025F000B551000AD8B4D2D7010AD8B4D5D7030A46
:10260000D8B4D7D7010AD8B4D9D7070AD8B4DBD7FA
:10261000010AD8B4DDD7030AD8B4DFD7E3D7000165
:10262000B56F29D0800E0001B36F0F0EB46F12008A
:10263000810EB36F0F0EB46F1200820EB36F0F0EC8
:10264000B46F1200830EB36F0F0EB46F1200840EBE
:10265000B36F0F0EB46F1200850EB36F0F0EB46F11
:102660001200860EB36F0F0EB46F1200000EB36F20
:10267000000EB46F12000001B551000AD8B4D2D7D1
:10268000010AD8B4D5D7030AD8B4D7D7010AD8B429
:10269000D9D7070AD8B4DBD7010AD8B4DDD7030AE3
:1026A000D8B4DFD7E3D7000E0001B86FB6AF06D0BD
:1026B000B56DB61FD8B0B62B010EB86FB4AF06D04B
:1026C000B36DB41FD8B0B42B010EB81B000EBA6F97
:1026D000000EB96FB551B611D8B41CD0010EB76F4A
:1026E00004D0D890B537B637B72BB6AFFAD7D89055
:1026F000B937BA37B551B35DB651B459D8A005D082
:10270000B551B35FB651B45BB981D890B633B53328
:10271000B72FEDD7B851D8B404D0B96DBA1FD8B01F
:10272000BA2BB9C0B3F0BAC0B4F01200000E000169
:10273000BB6F000EBC6F000EBD6F000EBE6FB751B9
:10274000B811B911BA11D8B42AD0010EBF6F06D092
:10275000D890B737B837B937BA37BF2BBAAFF8D731
:10276000D890BB37BC37BD37BE37B751B35DB85112
:10277000B459B951B559BA51B659D8A009D0B751C1
:10278000B35FB851B45BB951B55BBA51B65BBB81AD
:10279000D890BA33B933B833B733BF2FE1D7BBC002
:1027A000B3F0BCC0B4F0BDC0B5F0BEC0B6F012000E
:1027B000000E0001D56FC751CB25D36FC951CD2570
:1027C000D46FCDC0B3F0CEC0B4F0CBC0B5F0CCC0A8
:1027D000B6F0B9EC9BF0B3C0D1F0B4C0D2F0C9C030
:1027E000B8F00001D305B96FD405BA6FC75160ECDA
:1027F00091F0000E0001D56F10D0D551020DF350AD
:10280000C525D96EF450C621DA6EDECFB8F0DDCF23
:10281000B9F084EC9CF00001D52BD551CF6FD06B73
:10282000D151CF5DD251D059D8B01200E6D72DD0BA
:1028300000018E51140DF00EB36F020EB46FF35001
:10284000B327F450B4238F51010DF350B325D96E43
:10285000F450B421DA6EDF50D8B416D0010EFF6FF9
:102860008E51140DF00EB36F020EB46FF350B327F8
:10287000F450B4238F51010DF350B325D96EF450A9
:10288000B421DA6E800EDF6E8F2B130E00018F6580
:10289000CFD7000E8F6F8E2B080E4526000E4622D6
:1028A000000E446E060E436E12000001B96FD00E8A
:1028B000F66EFC0EF76E000EF86E0900F5CFB5F05F
:1028C0000900F5CFB6F00900F5CFB7F00A00F5CF53
:1028D000B8F0110E0001BA6F030EB917B951010D0E
:1028E000B50EF324D96E000EF420DA6EDF50B36F0C
:1028F000BAC0B4F0B32B02D0D890B437B32FFCD702
:102900000001B451BA6FBA390F0BBA6FBA510F0B3D
:10291000BA6F010132510001BA19F00BBA19010165
:10292000326F1200B3C0F6FFB4C0F7FF000EF86EAE
:102930000F0EF76403D00800F55005D0F6CFE9FF7D
:10294000F7CFEAFFEF500001BB6FB751010DC70E83
:10295000F324F66EFC0EF420F76EF86A000EF822EF
:102960000800F5CFB9F0000EBA6F03D0B551B65FCD
:10297000BA2BB551B65DD8B0F9D7B751B603F350FD
:10298000B66FBA51B627B629B86F02D0D890BB330C
:10299000B82FFCD70001B951BB17BB511200860EEE
:1029A0000101D76F010ED86F000EDA6F020ED96FDA
:1029B000B40EDB6F390EDC6F010EDD6F5A0EDE6F69
:1029C0003A0EDF6F010EE06FFE0EE16F350EE26F23
:1029D000010EE36FBBEC8FF07C0E0101D76F010E8F
:1029E000D86F000EDA6F020ED96F9C0EDB6F390EB6
:1029F000DC6F010EDD6FE20EDE6F390EDF6F010E50
:102A0000E06FC20EE16F370EE26F010EE36FBBECB9
:102A10008FF0120001C0F6FF02C0F7FF000EF86E43
:102A20000F0EF76403D00800F55005D0F6CFE9FF8C
:102A3000F7CFEAFFEF50096E0550010DC70EF324E2
:102A4000F66EFC0EF420F76EF86A000EF82208000D
:102A5000F5CF07F0000E086E03D00350045E082A7D
:102A60000350045CD8B0F9D705500402F350046E4B
:102A7000085004260428066E02D0D8900932062E8B
:102A8000FCD707500916095012000001B96F090E52
:102A90000001B6611200B9C03BF0000E396E070E9E
:102AA000396401D01FD03BC0B7F0010E0001B71749
:102AB000060EB86FD890B737B82FFCD7B7513A6E1B
:102AC000B639E842F80B39103A10BA6FD8903B3259
:102AD000660EB36F010EB46FBAC0B5F0B2EC95F0EC
:102AE000392ADDD7660E0001B36F010EB46F000EF8
:102AF000B56FB2EC95F01200000E00018F6F000E62
:102B00008E6F000EB66F0E0EB66501D020D0000E8F
:102B1000B56F130EB56501D018D0010EFF6FB65119
:102B2000140DF00EB36F020EB46FF350B327F450D0
:102B3000B423B551010DF350B325D96EF450B4212F
:102B4000DA6E800EDF6EB52BE4D7B62BDCD7010E24
:102B5000906F000E446E060E436E000E466E060E1B
:102B6000456E120025D0A9C0D9FFAAC0DAFF000126
:102B7000DF94B5C0C9FFC7A0FED7C9CFB5F0A9C0C3
:102B8000D9FFAAC0DAFF0001DF8412009FC0D9FF7D
:102B9000A0C0DAFFDF9EB5C06FFF6DA0FED76FCF7C
:102BA000B5F09FC0D9FFA0C0DAFF0001DF8E120090
:102BB000000120EE02F0B351D926B451DA22DF50E1
:102BC000000AD8B4D0D7010AD8A41200DFD7000E6B
:102BD00000018F6F000E8E6F000EB56F130EB5657E
:102BE00001D01200000EB66F0E0EB66501D022D0D5
:102BF000B651140DF00EB36F020EB46FF350B3273D
:102C0000F450B423B551010DF350B325D96EF450EF
:102C1000B421DA6E000EDF6EB651020D8C0EF32475
:102C2000D96E020EF420DA6EFF0EDE6EFF0EDD6E40
:102C3000B62BDAD7B52BD2D7000120EE06F0C25161
:102C4000D926C351DA22DECFB3F0DDCFB4F0050EC2
:102C5000B56F000EB66F47EC98F0000120EE06F05D
:102C6000C251D926C351DA22DECFBEF0DDCFBFF08C
:102C7000000EC06F000EC16F39EC9CF0000120EE19
:102C800006F0C251D926C351DA22DECFB3F0DDCF30
:102C9000B4F0050EB56F010EB66F47EC98F0120058
:102CA000000120EE06F0C251D926C351DA22DECF50
:102CB000B3F0DDCFB4F0050EB56F000EB66F47EC84
:102CC00098F0000120EE06F0C251D926C351DA2255
:102CD000DECFBEF0DDCFBFF0000EC06F020EC16FC1
:102CE00039EC9CF0000120EE06F0C251D926C35108
:102CF000DA22DECFB3F0DDCFB4F0050EB56F010EF2
:102D0000B66F47EC98F01200AD0EF66EFC0EF76E43
:102D1000000EF86E20EEC8F00F0E0900F5CFDEFFB2
:102D2000E806FBE2C2C0BFF0C3C0C0F0C5C0C1F03E
:102D300019EC9BF00001D86F040EC46117D0040E8B
:102D4000D86114D0C451040DC80EC66F000EC76FF1
:102D5000F350C627F450C723D851010DF350C625B0
:102D6000D96EF450C721DA6EDF501200050E120042
:102D7000FC0E966E5C0E0001CE6F010ECF6F010E41
:102D8000D06F64EC8DF03E0E0001CE6F010ECF6F60
:102D9000010ED06F64EC8DF0340E0001CE6F010E89
:102DA000CF6F010ED06F64EC8DF0480E0001CE6F36
:102DB000010ECF6F010ED06F64EC8DF0520E00014A
:102DC000CE6F010ECF6F010ED06F64EC8DF012004C
:102DD000050E0001DF6FD9C0D9FFDAC0DAFFDECF00
:102DE000E0F0DDCFE1F0DB51020DF3CFDDF0DB51A0
:102DF000020DF328DE6FE0C0C2F0E1C0C3F0DCC01A
:102E0000C4F0DDC0C5F084EC96F00001DF6FDF5147
:102E1000D8A40CD0E0C0C2F0E1C0C3F0DCC0C4F064
:102E2000DEC0C5F084EC96F00001DF6FDF511200C8
:102E3000AE0E0001D96F010EDA6F070EDB6F030EC5
:102E4000DC6F34EC87F0AE0E0001D96F010EDA6F43
:102E5000060EDB6F030EDC6F34EC87F098EC98F015
:102E6000C00E0001E06FC60EE16F2D0EE26F000E86
:102E7000E36F010EE46F010EE56F00EC80F0710E60
:102E80000001C26F010EC36F1CEC96F012001BD044
:102E9000000E0001B56F000EB66F000EB76F000E8A
:102EA000B86FB851B7110FE1B00EB55D040EB65949
:102EB000D8B009D000F0010E0001B527000EB623EE
:102EC000B723B823EED70001B307D8A0B407B329BE
:102ED000DFE1B429D8A4DCD7080EB56F800EB66F39
:102EE000000EB76F000EB86F120000018F2B060E98
:102EF0004326000E4422060E4324B76F000E4420E2
:102F0000B86FB8BF07D0B85103E1800EB75DD8B035
:102F100017EC94F0080E45240001B76F000E462010
:102F2000B86FB8BF0AD0B85104E1800EB75DD8A021
:102F300004D07CEC95F0010E1200000E120000018E
:102F4000E06F18D0A50E0001D96F000EDA6F000EE9
:102F5000DB6F030EDC6F34EC87F014D0A50E00019C
:102F6000D96F000EDA6F010EDB6F030EDC6F34ECED
:102F700087F008D00001E051000AD8B4E3D7010A75
:102F8000D8B4ECD7000E0001C76FE0510EEC99F0F9
:102F900012000001B551B325B86FB651B421B96F15
:102FA00018D0B3C0D9FFB4C0DAFFDF50B76FB8C0D4
:102FB000D9FFB9C0DAFFB3C0E1FFB4C0E2FFDFCF91
:102FC000E7FFB34BB42BB8C0D9FFB9C0DAFFB7C025
:102FD000DFFFB807D8A0B907B851B35DB951B459EC
:102FE000D8B01200DED7000E0001B96F000EB86F26
:102FF000B551B611D8B41CD0010EB76F04D0D8901B
:10300000B537B637B72BB6AFFAD7D890B837B93788
:10301000B551B35DB651B459D8A005D0B551B35F21
:10302000B651B45BB881D890B633B533B72FEDD76E
:10303000B8C0B3F0B9C0B4F01200000E0001C86F00
:10304000000EC96FC0C0B8F0BE51C225C66FC6051C
:10305000B96FC051C425C76FC705BA6FBE5160ECC8
:1030600091F0C4C0C9F00001C951D8B41200C2C067
:10307000C8F0C851D8B409D0BCC0B8F0BDC0B9F0D0
:1030800084EC9CF00001C807F4D7C907EDD7010E06
:103090000001B617B5C0B7F0010EB86FB72B02D05C
:1030A000D890B837B72FFCD70001B851FF0AB96FD5
:1030B000B3C0D9FFB4C0DAFFB951DF16B5C0B7F05D
:1030C000B6C0B8F0B72B02D0D890B837B72FFCD71E
:1030D000B3C0D9FFB4C0DAFF0001B851DF1212004B
:1030E00000018F51D8B406D0FA0E4326FF0E4422B9
:1030F0008F071BD08E51D8B40CD0000E446E720EC8
:10310000436EF80E4526FF0E4622130E8F6F8E0774
:103110000CD0000E446E060E436E000E466E060E78
:10312000456E000E8F6F000E8E6F32EC9BF012001A
:10313000B6EC9CF0010EDDEC99F0000E0001B46FCE
:10314000800EB36F47EC97F0010EDDEC99F0AAEC1E
:103150009CF0000E0001B46F800EB36F47EC97F047
:10316000010EDDEC99F0B6EC9CF0000E0001B46F9E
:10317000800EB36F47EC97F0010EDDEC99F0120072
:10318000050E0001E86FE451020DF3CFE6F0E451C3
:10319000020DF328E76FE2C0D9F0E3C0DAF0E6C031
:1031A000DBF0E5C0DCF0E8EC96F00001E86FE851F8
:1031B000D8A40CD0E2C0D9F0E3C0DAF0E7C0DBF06D
:1031C000E5C0DCF0E8EC96F00001E86FE851120091
:1031D000010E041603C005F0010E066E052A02D08A
:1031E000D8900636052EFCD70650FF0A076E01C0A0
:1031F000D9FF02C0DAFF0750DF1603C005F004C094
:1032000006F0052A02D0D8900636052EFCD701C05C
:10321000D9FF02C0DAFF0650DF1212000001C86FAA
:1032200018D0A50E0001C26F000EC36F000EC46F50
:10323000C7C0C5F061EC8FF01200A50E0001C26F8F
:10324000000EC36F010EC46FC7C0C5F061EC8FF0F4
:1032500012000001C851000AD8B4E3D7010AD8A46B
:103260001200EBD7000E0001BE6F000EBF6F000E04
:10327000B86F5004B96F4F04BA6F000E60EC91F054
:103280004FC0BFF00001BF51D8B4120050C0BEF013
:10329000BE51D8B409D0BCC0B8F0BDC0B9F084EC00
:1032A0009CF00001BE07F4D7BF07EDD718D0000E81
:1032B0000001B56F000EB66F000EB76F000EB86F4D
:1032C000B551B611B711B811D8A409D000F0010E4C
:1032D0000001B527000EB623B723B823F1D70001AC
:1032E000B307D8A0B407B329E2E1B429D8B41200D7
:1032F000DED7AD0EC16E000E00016C6F000E6B6F5D
:103300000FD0D8906B35D96E6C35DA6E000ED92699
:10331000020EDA22000EDE6E000EDD6E6B4B6C2BA1
:1033200047506B5D6C51800AB36F4850800AB359A7
:10333000D8B01200E6D70001BC51BD11D8B418D0E6
:10334000010EBE6F04D0D890BC37BD37BE2BBDAFC9
:10335000FAD7BC51BA5DBD51BB59D8A004D0BC51FD
:10336000BA5FBD51BB5BD890BD33BC33BE2FF1D724
:10337000BAC0BAF0BBC0BBF01200050E0001EC6F82
:10338000E9C0E2F0EAC0E3F0000EE46FEBC0E5F064
:10339000C0EC98F00001EC6FEC51D8A40CD0E9C05F
:1033A000E2F0EAC0E3F0010EE46FEBC0E5F0C0EC40
:1033B00098F00001EC6FEC5112000001CB6F14D0BB
:1033C000A50E0001C76F000EC86F000EC96F62EC3A
:1033D0009BF01200A50E0001C76F000EC86F010E12
:1033E000C96F62EC9BF012000001CB51000AD8B407
:1033F000E7D7010AD8A41200EDD716D0000E036E4D
:10340000000E046E000E056E000E066E03500410D2
:1034100005100610D8A408D000F0010E0326000EF7
:10342000042205220622F2D70106D8A002060128AE
:10343000E5E10228D8B41200E1D7000120EE06F041
:10344000B351D926B451DA22DECFB6F0DDCFB7F0D2
:10345000B6C0D9FFB7C0DAFFDF50B86FB551040D61
:10346000F328B66F02D0D890B833B62FFCD70F0E22
:103470000001B817B85112000001BA6F86500F0B47
:103480000001B96F4B50D8A402D0000E1200000EFC
:103490004B6EBA51B919D8B40AD0F00E8616BA518B
:1034A0008612000EB46F0A0EB36F56EC99F0010E3F
:1034B0001200000120EE06F0B351D926B451DA22F1
:1034C000DECFB6F0DDCFB7F0B6C0D9FFB7C0DAFFB8
:1034D000DF50B86FB529B66F02D0D890B833B62F89
:1034E000FCD7010E0001B817B8511200030E0001FD
:1034F000C4650ED0010EC225BE6F000EC321BF6F82
:10350000C451FC0FC06FC5C0C1F029EC9CF0120083
:10351000C2C0BEF0C3C0BFF0C4C0C0F0C5C0C1F0DF
:1035200029EC9CF012000001BA6F86500F0B0001CD
:10353000B96F4B50D8B4FDD7000E4B6E0001BA5195
:10354000B919D8B40AD0F00E8616BA518612000EF8
:10355000B46F0A0EB36F56EC99F0010E1200000E14
:103560000001BC6F000EBB6FBC5113E1080EBB5DC8
:10357000D8B01200BBC0B6F02C0EBB25D96E010E20
:10358000BC21DA6EDF5045EC95F00001BB4BBC2B43
:10359000EBD71200086E86500F0B076E4B50D8A465
:1035A00002D0000E1200000E4B6E08500718D8B45F
:1035B0000AD0F00E861608508612000E026E0A0E11
:1035C000016EFDEC99F0010E1200000163516411CF
:1035D0006511D8B40CD001D80AD00500FA6E635139
:1035E000FD6E6451FE6E6551FF6EFA501200000EC2
:1035F0000001636F000E646F000E656F1200000122
:10360000CC6F0001CC51D8A410D0892B89517927D7
:10361000000E7A2379C0C9F07AC0CAF0F4EC9BF0AE
:1036200000018951030B55EC94F0000EDDEC99F08C
:103630001200030E0001C1650CD0010EBF25BC6F46
:10364000000EC021BD6FC151FC0FBE6F76EC9CF027
:103650001200BFC0BCF0C0C0BDF0C1C0BEF076EC6F
:103660009CF01200010E0001FF6F8E51140DF00E40
:10367000B36F020EB46FF350B327F450B4238F51DD
:10368000010DF350B325D96EF450B421DA6E800EDB
:10369000DF6E1200030E0F640CD0010E0D240A6EB3
:1036A000000E0E200B6E0F50FC0F0C6E91EC9CF078
:1036B00012000DC00AF00EC00BF00FC00CF091EC20
:1036C0009CF01200C7C0B3F0C8C0B4F0C9C0B5F0D8
:1036D00059EC9AF00001CA6F010ECA1BC7C0C2F0B4
:1036E000C8C0C3F0C9C0C4F0CAC0C5F061EC8FF057
:1036F0001200000120EE02F0B351D926B451DA22B3
:10370000DF50D8A406D0A9C0D9FFAAC0DAFFDF8451
:1037100012009FC0D9FFA0C0DAFFDF8E1200B3C035
:10372000F6FFB4C0F7FF000EF86E0800F5CFB7F053
:103730000001B529B66F02D0D890B733B62FFCD7A9
:10374000010E0001B717B751120004D09D96120068
:10375000A39E1200000120EE02F0B351D926B4510D
:10376000DA22DF50000AD8B4F1D7010AD8A4120037
:10377000EFD70001B351B503F3CFB7F0F4CFB8F0F2
:10378000B351B603F350B827B451B503F350B8277B
:10379000B7C0B3F0B8C0B4F012009EEC9DF00001C9
:1037A000605161116211D8B4120001D812000500F5
:1037B000FA6E6051FD6E6151FE6E6251FF6EFA50FD
:1037C00012000001CC6F98EC9DF00001CD6F0F0E40
:1037D000CD17CC3BF00ECC17CC51CD1188EC9DF021
:1037E000000EDDEC99F01200C9C0BFF0CAC0C0F0F5
:1037F0002C0E0001C16F010EC26F02EC8FF02C0E77
:103800000001B46F010EB56F12EC91F012008E0E34
:103810004EEC9DF0130E4EEC9DF08DEC9DF00001F2
:10382000886F8DEC9DF0336E33C026F10101276B5C
:103830001200890E4EEC9DF0000E4EEC9DF0000E35
:103840004EEC9DF0000E4EEC9DF0000E4EEC9DF007
:103850001200BEC0B3F0BFC0B4F0040E0001B56FDB
:10386000C0C0B6F0020EB76FC1C0B8F040EC92F025
:103870001200BEC0B3F0BFC0B4F0020E0001B56FBD
:10388000C0C0B6F0040EB76FC1C0B8F040EC92F003
:1038900012000001B76F0001B65137EC9DF0710EB8
:1038A0000001B36F010EB46FB7C0B5F0B2EC95F084
:1038B0001200949C948E240EAD6E900EAC6E7E9A87
:1038C0007E987E927E90AD847E96330EB06E12000E
:1038D000000E446E060E436E000E466E060E456EDA
:1038E000000E00018F6F000E8E6F1200BCC0B3F08F
:1038F000BDC0B4F0040E0001B56FBEC0B6F0020E3C
:10390000B76F92EC94F01200010E0001B66FB9513E
:1039100049EC9CF0010E0001B66FB85149EC9CF0E7
:1039200012000AC001F00BC002F0040E036E0CC0BE
:1039300004F0020E056E0AEC95F01200010E4B6EBB
:103940000001635164116511D8B402D0010E120058
:10395000000E1200AE0E0001C26F010EC36F060E04
:10396000C46F010EC56F61EC8FF01200AE0E000146
:10397000C26F010EC36F060EC46F000EC56F61ECFF
:103980008FF01200D58ED58CD59AD598D596D58442
:10399000D582D580F28AF28CF28E12009B0E000145
:1039A000E96F000EEA6F000EEB6F000EEC6F69EC32
:1039B00084F012009A0E0001D96F010EDA6F040E26
:1039C000DB6F000EDC6F34EC87F01200800E4EECE3
:1039D0009DF0840E4EEC9DF019EC9CF007EC9CF0F1
:1039E00012009B0E0001B36F000EB46F000EB56F96
:1039F0001DEC9AF01200910E0001B36F000EB46F2F
:103A0000000EB56F1DEC9AF01200910E0001B36F1D
:103A1000000EB46F060EB56F59EC9AF01200910EBD
:103A20000001B36F000EB46F070EB56F59EC9AF03A
:103A30001200910E0001B36F000EB46F040EB56F4B
:103A400059EC9AF01200910E0001B36F000EB46FA2
:103A5000050EB56F59EC9AF012009A0E0001B36F83
:103A6000010EB46F040EB56F59EC9AF0120000010C
:103A7000B36F0001B3B102D0859E01D0858E1200D4
:103A8000060006003200FFFF014161308080000126
:103A9000C76F0001C75138EC8AF012000001B36F04
:103AA000ADA2FED7B3C0AEFF1200B3C0D9FFB4C001
:103AB000DAFFB5C0DFFF1200B3C063F0B4C064F03A
:103AC000B5C065F0120001C063F002C064F003C02D
:103AD00065F01200F8007C00102704000500FFFFCD
:0D3AE0000106000600800007000500070039
:103AEE002FC0D6FF30C0D7FFF28A12002FC0D6FFEC
:103AFE0030C0D7FFF28A1200F28CF28EF288F29268
:103B0E0012000001B36FB3C033F112009EAAFED7AC
:103B1E00AF5012009E929D929F921200F29AF294D2
:103B2E001200010133511200FC0E966E1200F29A31
:0A3B3E00F2941200010E4B6E12000B
:06FFF800AAF705FFF8F175
:00000001FF
