:100000000DEF04F026EF00F004EF0AF0D1EC04F05D
:10001000FF0000F000F012000CEF0AF018EF00F003
:10003000F26AFC6A9BEC04F004009EEC09F0D8EC38
:1000400003F0F3EC03F05EEC08F0F6D701501F0B61
:10005000E80601E01200055001E01200060E021849
:1000600014E01AD0020E3D6E4A0E3FD8306A090ED7
:100070000AD0020E3D6E450402E1870E36D84504D3
:100080000AE1306A1D0E2F6E06D00450210AEAE004
:10009000030AEFE0010A42820138E832030BE80666
:1000A00014E01200020E3D6E440E206E24D0020EAB
:1000B0003D6E04C044F0020C020E3D6E430EF5D7B7
:1000C000020E3D6E03C043F0020C0250010AD8B488
:1000D0001200030AE7E0010AEFE00A0AD8B41200AE
:1000E000030AE5E0010AECE01200206E2050D8A4DB
:1000F000100E216E1200216A4292010E2F6E010C29
:100100004F6A140E506E516A296A2A6A4FC0F6FF70
:1001100050C0F7FF51C0F8FF42D80800F5CFDFFF0D
:100120004F2A000E50225122294A2A2A040E2A5C04
:10013000EDE30D0EE8CFB2F4600EE8CFB3F4000E9D
:10014000496E050E486E0AEC03F04F68170E506EAC
:10015000516A030E2A6E296851C0F8FF50C0F7FF9C
:100160004FC0F6FF1CD8DF50F56E0C0029C04EF0D2
:100170003F0E4E1607E1FEEC09F0040EA66EB50E1A
:1001800067EC04F04F06000E505A515A0A002950ED
:100190002A1001E112002906D8A02A06DDD7AC0EEC
:1001A0002924D96E040E2A20DA6E120003040BE112
:1001B00001501F0B08E1010E3D6E030E021802E113
:1001C000428001D042900350D8A4120001501F0B6E
:1001D000020AD8A4120005500F0BD8B4120028D878
:1001E000476A040E486E4726000E4822F350472601
:1001F000F450482223D847241D6EF45048201E6E28
:10020000030E021805E10FD8040EDF6E0CD81CD0C7
:1002100005AE04D008D8400EDF6E400C04D8080E9E
:10022000DF6E01D811D01DC0D9FF1EC0DAFF120049
:10023000010E3D6E05500F0B080D1200010E05AEAC
:10024000000E040DF3501200000EDB8E000C3D502A
:1002500010E193EC03F0196E3A0405E1010E32EC63
:1002600003F03A6A1200000E32EC03F0010E3A6E0F
:10027000010C01AE1BD0010E3E6E2F50075C3050BA
:10028000085804E207C02FF008C030F076EC01F007
:10029000480E196E010E32EC03F0000E32EC03F042
:1002A000240E04010A6F040E0B6F1CD0020E3E6E6A
:1002B000040E196E0750081002E1480E196E3A0438
:1002C00005E1010E32EC03F03A6A05D0000E32EC83
:1002D00003F0010E3A6E07500810D8A41200040172
:1002E000096B00D0480E086F088F480C080E326E5C
:1002F00030500DE1080E2F5C0AE22FC032F0405062
:1003000002E1010E03D0400402E1020E406E32C051
:1003100009F432502F5E000E305A240E1D6E040E6A
:100320001E6E42A21AD00BD01BD813EC01F00F0E98
:10033000F76403D00800F55001D019D81ED8325008
:10034000F3E112000DD813EC01F00F0EF76403D0A7
:100350000800F55001D00BD810D83250F3E112004C
:1003600020C0F6FF21C0F7FF000EF86E1200F6CF96
:10037000E1FFF7CFE2FFE7501200DF6E1D4A1E2AB1
:10038000204A212A320612000138E832030B18E015
:100390001200010E3D6E040E416E040C010E3D6E06
:1003A000450E206E7BEF00F02CD8496E49C020F03E
:1003B0007BEF00F026D8D96EDA6A03C0DFFF1200A7
:1003C000025002E179EF02F0010A02E1D6EF00F0FB
:1003D000020A02E1D6EF00F0060ADBE0030A02E1BE
:1003E00006EF02F0010AD8B412000F0AD7E0010AA2
:1003F00002E155EF03F0030AD7E0010ADBE0070A48
:100400001200010E3D6E0550460F1200800E0118BD
:1004100030E01200010E3D6EA40E75EC00F0120EDD
:1004200009D003502DE1010E3D6E380E75EC00F041
:10043000306A290E2F6E24D0010E3D6E0350010F3D
:10044000476E47C0F6FF100EF76E000EF86E0900FB
:10045000F5CF20F0100E216EB0EC01F00F0EF76416
:1004600003D00800F55002D0B7EC01F02F6E306ACF
:1004700007D00450010ACEE0030AD3E0010ADCE011
:1004800042821200366A27D03850486E000E48BEAD
:10049000FF0E496E4A6E4B6E4850155C0D6E49500A
:1004A00016580E6E4A5017580F6E4B501858106E53
:1004B0000FC0F8FF0EC0F7FF0DC0F6FF11D80D00FA
:1004C000362A0ED80C00362A240EA66EB50E67EC1E
:1004D00004F0FE0E38263850800A7F0FD5E2120055
:1004E000AC0E3624D96EDA6A040EDA22DF50F56ECD
:1004F0001200246B256B22D0010E3D6E42B0248386
:1005000024D0010E3D6E21D018EC01F0476A040E94
:10051000486E4726000E4822F3504726F4504822E2
:100520001EEC01F047241D6EF45048201E6E13ECA3
:1005300001F0DFA40AD0010E246F07D001501F0B79
:10054000DBE0010ADEE0030ADFE03D04D8A412008C
:10055000240E206E040E216E4292020E2F6E020CAB
:10056000400E486401D0486E4A6A0DD047504A2474
:10057000D96EDA6A6C0E4A24E16EE26A040EE22257
:10058000DFCFE7FF4A2A48504A5CF0E348C011F445
:10059000400E0401101710BD03D0496A492A01D04A
:1005A000496A493A49464946040110514918BF0B66
:1005B0004918106F1087108F12003F6A0CBF12008D
:1005C00048500D5D02E20DC448F03F6A0BD02C0E7E
:1005D0003F24D96EDA6A040EDA2247503F24F9EC40
:1005E00009F03F2A48503F5CF2E3400E0D6F0C17B4
:1005F0000CBD03D0496A492A01D0496A493A4946A3
:10060000494604010C514918BF0B49180C6F0C875F
:100610000C8F1200495006E1050E485C03E2496A5E
:10062000050E486E48504A6E49504B6E4C6A4D6AF2
:100630000A0ED8904A364B364C364D36E82EF9D74E
:100640004AC009F04BC00AF04CC00BF04DC00CF092
:100650000BC0F8FF0AC0F7FFF66A140EA66EB50EBF
:1006600067EF04F0476E080E1A6E1C0E1B6E040E28
:100670001C6E475006E1140E1B6E040E1C6E256A9C
:1006800002D0040E256E266E0BD819C0DEFF1AC0EC
:10069000DEFF1BC0DEFF1CC0DEFF02D8DF8E1200B3
:1006A00025C0D9FF26C0DAFF1200010E3D6E0F01F2
:1006B00016D8346A3450460FD96EDA6ADF6A342AA3
:1006C0003450F8E003C045F04550C9EC04F0035045
:1006D00003E1050E416E050C060E416E060C4D6BD6
:1006E0004E6B4F6B506B516B526B536B1200040E81
:1006F000411808E103C05EFF0F015E51050ED8B43A
:10070000030E416E3E04D8A4120076EC01F0020EF6
:10071000401802E108D8040C0401480E08BD080E78
:10072000086F088F1200040E0401086F088F040C74
:10073000030E416E0F015D6B626A7B0E5C6F5E6B38
:100740006FEC03F0160E4C6F658C03D06296FEECD6
:1007500009F062B6FBD7659C6598040E196E000E11
:1007600032EC03F0010E3A6E426A456A000EC9EFA0
:1007700004F081B818EC00F0060EF66E14D80D0ED9
:10078000F5180DE10900600EF51809E1F66A0BD8BD
:10079000F52803E10900F52802E000EF0AF018EC63
:1007A00000F000EF00F0140EF76EF86A0900140C68
:1007B0002306D8A0240623502410D8A412004E0EDD
:1007C000246E236A060E416002D08B80060C8BB02B
:1007D00003D0476A472A01D0476A8B504718FE0B5F
:1007E00047188B6E1200C0BC1200030ED36E6592C8
:1007F0006596F26A0ED808D0C0AC04D02D06D8A0F9
:100800002E0601D006D804002D502E10F5E1FF0071
:100810001200040E2E6E2D6A040C04EEACF014EEE1
:1008200000F0EE6AE550E150FCE1E250FAE100EE42
:1008300060F0820EEE6AE806FDE100EE01F0460E81
:10084000EE6AE806FDE10001B9EF03F00401086B70
:10085000406A00AF02D0006B3A6A04AF03D0046B69
:10086000010E3A6E3E6A3D6A2F6A306A6598C4ECA2
:1008700001F002EC00F027EF01F005D80AD8376A42
:100880000CD8386A12007E0E3B6E116AFC0E126E96
:10089000FC0C010E136E146A000C156816681768BC
:1008A000186812003F6A1E0E0F014D6F400E0401C2
:1008B0000D6F2C0E0E6F040E0F6F080E0C6F0C8F49
:1008C0006C0E126F040E136F400E106F400C476ECB
:1008D000F29EF3EC03F0B50E471804E0030ED36E5E
:1008E0000300FED7550EA76EAA0EA76EA682A6B26B
:1008F000FED7A69412005CCF35F0040E0F015C6F9A
:1009000062986582A198A088AAEC04F0A09835505E
:100910000F015C131200390402E1D1EC04F0656AA6
:10092000150E0F015F6F5C6B658698EC03F0010E8E
:10093000416E396A1200600ED36E9B8CDCEC04F0C1
:10094000BFEC04F0C16AC26A3DEC04F08B90949055
:10095000E7EF04F08B90D3CF31F00300A1B802D0C1
:10096000D0A6FBD731C0D3FF1200D9EC04F06592BA
:100970000F015C9501D0629462A41200FCD705D0EF
:10098000FEEC09F04706D8A0480647504810F8E1A9
:100990001200476E4704D8A4120052EC04F03DEF59
:1009A00004F06592656A48684768BFEC04F0416AE4
:1009B000120002D8BFEF04F0030E486E476A030C22
:1009C000390401E1120065A68BEC04F0120065B653
:0E09D000D1EC04F0396AE0EF04F012001200DE
:1010000000B6046134034D006900630072006F0094
:1010100063006800690070002000540065006300F0
:1010200068006E006F006C006F00670079002000A0
:1010300049006E0063002E000902290001010080B2
:10104000320904000002030000000921110100011F
:10105000221D000705810340000107050103400030
:101060000126034800490044002000550053004277
:1010700000200042006F006F0074006C006F006180
:10108000006400650072000600FF0901A10119015A
:101090002940150026FF0075089540810019012997
:1010A000409100C01201000200000008D8043C007A
:0B10B00001010102000104030904001B
:1010BC00060E4118D8B465B21200375001E017D1B2
:1010CC0004010CBF1200600E476E400E486EDDEC42
:1010DC0002F0010E376E276A286A2750A10FD96ECD
:1010EC00DA6A000EDF6E274A282A285005E1400EE6
:1010FC00275CD8B01200F1D71200020EA16F3A0E85
:10110C00A26F010EA36FA46FA56B140EA66FA76B35
:10111C00A86B000E1124A96FEC0E1220AA6FFF0E03
:10112C001320AB6FFF0E1420AC6F030EAD6FF80ED7
:10113C00AE6FAF69010EB06FB16B080EB26FB36BCF
:10114C00B46BB56BB669A50EDA6F040110BFA50CB4
:10115C00A10E476E400E486EB0EC02F0376A1200DA
:10116C00615106E17F0E3B6EF80E116E126802D0D3
:10117C0043EC04F049EC04F0F1D7286A050E276E15
:10118C000CD0FEEC09F027C048F028C049F00AEC5E
:10119C0003F09EEC09F0274A282A3B50526E536A02
:1011AC00522A000E53225250275C53502858D6E234
:1011BC00E8D715280EE116280CE117280AE11828A3
:1011CC0008E161C015F062C016F063C017F064C08E
:1011DC0018F015506119C2E116506219BFE1175091
:1011EC006319BCE118506419B9E1276A286A1AD04E
:1011FC006551A0082724D96EDA6AAC0E3824E16E4A
:10120C00E26A040EE222DFCFE7FF382A152A000E2D
:10121C001622172218223A0E381802E142EC02F07C
:10122C00274A282A00017CD899E2E2D742EC02F046
:10123C004DEC04F093D7070EA16F61C0A2F062C011
:10124C00A3F063C0A4F064C0A5F065C0A6F063C0B1
:10125C00F8FF62C0F7FF61C0F6FF276A286A0BD05F
:10126C00090000016551E1082724D96EDA6AF5CF2F
:10127C00DFFF274A282A54D8F3E3040110BF1200D9
:10128C0067D780EC00F06AD70C0EA16F010EA36F2C
:10129C00020EA26F160EF66ED3EC03F0F5CFA4F08F
:1012AC000A00F5CFA5F0060EA66F140EA76FA86B5B
:1012BC00A96B600EAB6F0D0EAA6FAC6B040EAD6F0D
:1012CC00000EAE6BAF6BB069B169B269B369B4694A
:1012DC00B569B669B769B86BB96BBA6BBB6BBC6BEC
:1012EC00BD6BBE6BBF6BC9D706EC00F037D70001E6
:1012FC006051020A01E101D7010A01E131D7070A65
:10130C0001E13BD7010A01E154D7030A8FE0010A3E
:10131C0092E00F0AE9E0010AB4E0050AB5E01ED735
:10132C006551526E536A5250275C53502858120024
:10133C00E0EC04F0415001E1120062B4B5EC04F0B1
:10134C0065B2120062B098EC03F062B87BEC04F06A
:10135C00030E416001D0030C3C6A62A6120064507B
:10136C0064CF4AF07C0E4A162AE164B203D02B6A91
:10137C00040E02D0040E2B6E2C6E62962BC0D9FF7D
:10138C002CC0DAFFDF30E8320F0B0D0A20E1336A94
:10139C0023D8DECF4AF0DDCF4BF04AC0D9FF4BC08B
:1013AC00DAFF3350010F1FD817D8DE2A000EDD22CA
:1013BC00332A070E3364ECD726EC04F008D0040E65
:1013CC00641804E1629677EC03F001D062963C2A33
:1013DC00030E3C64C2D7030C20EE02F02B50D9262E
:1013EC002C50DA221200E16EE26ADFCFE7FF120026
:0413FC0004001200D7
:1014000055EF0AF012000D605182FACF17F0FBCFB2
:1014100018F0E9CF19F0EACF1AF0E1CF1BF0E2CFD4
:101420001CF0D9CF1DF0DACF1EF0F3CF1FF0F4CFB0
:1014300020F0F6CF21F0F7CF22F0F8CF23F0F5CF50
:1014400024F051C025F052C026F053C027F054C0FC
:1014500028F0F292F2B4F2AA02D015ECA9F028C05A
:1014600054F027C053F026C052F025C051F024C0DC
:10147000F5FF23C0F8FF22C0F7FF21C0F6FF20C010
:10148000F4FF1FC0F3FF1EC0DAFF1DC0D9FF1CC050
:10149000E2FF1BC0E1FF1AC0EAFF19C0E9FF18C054
:0E14A000FBFF17C0FAFF519211005CEF9DF0A8
:10FBB60000001180002C0100B10200350036000063
:10FBC600B202003500360000B302003500360002EE
:10FBD600003500360000B4000000C0A20002008418
:10FBE6000000C1C50000C20D00000000C38D002A40
:10FBF6000000C48D00EE0000C50A000036C80000F3
:10FC0600E012001C001000180033002C002500280C
:10FC160000280027002F003C00000003000300100E
:10FC2600008000780000E112001C00100018002D72
:10FC360000280023002800280026002F003B000093
:10FC460000030003001000003A0500002A0000022D
:10FC56000000008100002B000003000000A200004D
:10FC660029002C020004000800100020004000803B
:10FC76000000010001020001000100020200000371
:10FC860003030001000A006400E8031027000103D3
:10FC9600070F1F3F7FFF0002010301041000000051
:10FCA600000000005F00000007000700147F147FBB
:10FCB60014242A7F2A1223130864623649552250D7
:10FCC6000005030000001C2241000041221C000820
:10FCD6002A1C2A0808083E080800503000000808B8
:10FCE600080808006060000020100804023E514920
:10FCF600453E00427F400042615149462141454B05
:10FD0600311814127F1027454545393C4A49493078
:10FD160001710905033649494936064949291E0034
:10FD2600363600000056360000000814224114142E
:10FD360014141441221408000201510906324979AB
:10FD4600413E7E1111117E7F494949363E4141416E
:10FD5600227F4141221C7F494949417F090901010E
:10FD66003E414151327F0808087F00417F41002013
:10FD760040413F017F081422417F404040407F02BE
:10FD860004027F7F0408107F3E4141413E7F0909FE
:10FD960009063E4151215E7F0919294646494949CE
:10FDA6003101017F01013F4040403F1F2040201F9D
:10FDB6007F2018207F63140814630304780403610A
:10FDC6005149454300007F4141020408102041414A
:10FDD6007F0000040201020440404040400001024E
:10FDE600040020545454787F4844443838444444EA
:10FDF60020384444487F3854545418087E09010278
:10FE0600081454543C7F0804047800447D400020C4
:10FE160040443D00007F10284400417F40007C04A0
:10FE26001804787C0804047838444444387C141454
:10FE36001408081414187C7C080404084854545404
:10FE460020043F4440203C4040207C1C2040201C95
:10FE56003C4030403C44281028440C5050503C4410
:10FE660064544C44000836410000007F0000004105
:10FE760036080008082A1C08081C2A080800008002
:10FE86003F1872313FF0FD753E4758633D58951D4A
:10FE96003C82C4AE3AA8782139EF938037A092A766
:10FEA600354656153400000000C4FF7F3F80EFFF43
:10FEB600BE90E1A93EEC8276BE82AD2B3E0E3CC3DF
:10FEC600BD87D1133D4178D3BB00FCFF0F0000FF77
:10FED600FFF0FF00FFFF00436F756C64206E6F74C8
:10FEE60020726574726965766520646174612C2080
:10FEF600537461636B20697320656D7074792E0A83
:10FF060000436F756C64206E6F7420696E73657242
:10FF16007420646174612C20537461636B2069736F
:10FF26002066756C6C2E0A000A54686520436C6F57
:10FF3600736573206F626A65637420286D6D293A54
:10FF4600202564000A5374657073205472617665C7
:10FF56006C6C65643A202564200A0A000A537465AD
:10FF660070732054726176656C6C65643A20256402
:10FF7600005374657070656420333630206465679D
:10FF8600726565730053656E736F72204D6F766987
:10FF96006E67212020200A000A476F696E6720627B
:10FFA60061636B20746F3A202564000A20466F75E2
:10FFB6006E6420466C61673A20256400526F626F5A
:10FFC6007420526561647921200A0A000A4144437B
:10FFD6003A202564200A0A0057414C4C20464F55CA
:10FFE6004E44000A5374657073202564002564200E
:0AFFF60009002564090025630000DE
:020000040001F9
:100000000AD0C80E0001936F020E03D0850E936FC5
:10001000010E946F08D000019151000AD8B4F1D7B5
:10002000010AD8B4F3D720EE02F09351D9269451A7
:10003000DA2291C0DFFF93D0AE0E866F010E876F7C
:10004000020E886F030E896F6AEC8FF0AE0E00010E
:10005000866F010E876F030E886F030E896F6AEC3F
:100060008FF0AE0E0001866F010E876F050E886F50
:10007000030E896F6AEC8FF0AE0E0001866F010EE1
:10008000876F040E886F000E896F6AEC8FF0000195
:1000900020EE03F09351D9269451DA22C70EDE6E7A
:1000A0000F0EDD6E20EE06F09351D9269451DA2220
:1000B000C60EDE6E0F0EDD6E20EE09F09351D926CE
:1000C0009451DA22C90E47D09A0E866F010E876FBF
:1000D000070E886F030E896F6AEC8FF09A0E00018D
:1000E000866F010E876F060E886F030E896F6AECAC
:1000F0008FF09A0E0001866F010E876F040E886FD5
:10010000030E896F6AEC8FF09A0E0001866F010E64
:10011000876F050E886F000E896F6AEC8FF0000103
:1001200020EE03F09351D9269451DA226D0EDE6E43
:100130000F0EDD6E20EE06F09351D9269451DA228F
:100140006C0EDE6E0F0EDD6E20EE09F09351D92697
:100150009451DA226F0EDE6E0F0EDD6E08D09151D3
:10016000000AD8B469D7010AD8A41200ADD720EE8E
:1001700006F09351D9269451DA22DECF60F0DDCF1C
:1001800061F0050E626F000E636F31ECA5F08CD04C
:10019000000120EE06F09351D9269451DA22DECFE9
:1001A00060F0DDCF61F0040E626F000E636F31EC22
:1001B000A5F0000120EE03F09351D9269451DA22E4
:1001C000DECF60F0DDCF61F0060E626F000E636F70
:1001D00031ECA5F078D0000120EE06F09351D9263D
:1001E0009451DA22DECF60F0DDCF61F0040E626F51
:1001F000000E636F31ECA5F0000120EE03F0935187
:10020000D9269451DA22DECF60F0DDCF61F0060E00
:10021000626F010E636F31ECA5F055D0000120EE46
:1002200006F09351D9269451DA22DECF60F0DDCF6B
:1002300061F0040E626F010E636F31ECA5F00001F6
:1002400020EE03F09351D9269451DA22DECF60F0EC
:10025000DDCF61F0060E626F000E636F31ECA5F02A
:1002600032D0000120EE06F09351D9269451DA22C3
:10027000DECF60F0DDCF61F0040E626F010E636FC0
:1002800031ECA5F0000120EE03F09351D9269451F2
:10029000DA22DECF60F0DDCF61F0060E626F010E74
:1002A000636F31ECA5F00FD000019251000AD8B471
:1002B0006FD7010AD8B48FD7030AD8B4AFD7010AD1
:1002C000D8A41200CED7000120EE06F09351D92613
:1002D0009451DA22DECF60F0DDCF61F0070E626F5D
:1002E000000E636F31ECA5F0000120EE06F0935193
:1002F000D9269451DA22DECF60F0DDCF61F0060E10
:10030000626F000E636F31ECA5F08DC06DF08EC092
:100310006EF08FC06FF090C070F0E3EC95F093C07A
:1003200060F094C061F001ECA9F004D09F860BD07E
:10033000A58E09D000019151000AD8B4F7D7010A5F
:10034000D8A41200F5D793C060F094C061F078ECA7
:10035000A8F093C0D9FF94C0DAFF000EDF6E000151
:1003600020EE06F09351D9269451DA22DECF6BF0BD
:10037000DDCF6CF0000E6D6F030E6E6F7FECA9F099
:10038000000120EE06F09351D9269451DA22DECFF7
:1003900060F0DDCF61F0050E626F010E636F31EC2E
:1003A000A5F0120000017151800B7A6F7151712517
:1003B000806F70BF80818051D8B40DD08029D8A4BF
:1003C00008D0000E6E6F000E6F6F000E706F000E83
:1003D000716F708F08D0000E6E6F000E6F6F000E81
:1003E000706F000E716F7551800B7A1B75517525FA
:1003F0007B6F74BF7B817B51D8B40DD07B29D8A48F
:1004000008D0000E726F000E736F000E746F000E36
:10041000756F748F08D0000E726F000E736F000E30
:10042000746F000E756F7B51D8B403D08051D8A47F
:1004300009D0000E6E6F000E6F6F000E706F000E11
:10044000716F120074516E03F3CF85F0F4CF86F014
:1004500085517C6F7D6B7E6B7F6B8651816F826B6C
:10046000836B846B73516F03F3CF85F0F4CF86F009
:1004700085517C27000E7D237E237F238651812793
:10048000000E82238323842372517003F3CF85F0FF
:10049000F4CF86F085517C27000E7D237E237F23B9
:1004A00086518127000E8223832384237EC07FF020
:1004B0007DC07EF07CC07DF07C6B72516F03F3CF0A
:1004C00085F0F4CF86F085517C2786517D23000E80
:1004D0007E23000E7F2373516E03F3CF85F0F4CF9C
:1004E00086F085517C2786517D23000E7E23000EE9
:1004F0007F237EC07FF07DC07EF07CC07DF07C6B72
:1005000072516E03F3CF85F0F4CF86F085517C27CE
:1005100086517D23000E7E23000E7F2374516F03CE
:10052000F3CF85F0F4CF86F0855181278651822361
:10053000000E8323000E842373517003F3CF85F0E4
:10054000F4CF86F08551812786518223000E8323C4
:10055000000E842374517003F3CF85F0F4CF86F03E
:100560008551766F8651776F786B796B78C079F0AB
:1005700077C078F076C077F0766B76518127775127
:10058000822378518323795184237CC076F07DC007
:1005900077F07EC078F07FC079F0190E05D0D89042
:1005A0007933783377337633E82EF9D7765181274C
:1005B0007751822378518323795184237EC07FF041
:1005C0007DC07EF07CC07DF07C6B7B5180C076F07E
:1005D000776B7627000E7723820E7625856FFF0EC8
:1005E0007721866F0FD0D890813782378337843751
:1005F0007FBF8181D8907C377D377E377F378507F5
:10060000D8A0860783AFEFD7000E7B6F7FAF16D0E1
:10061000FF0E7C15766FFF0E7D15776FFF0E7E1532
:10062000786F7F0E7F15796F765177117811791178
:10063000D8A402D081A102D0010E7B6F7B51D8B427
:100640001FD0010E8127000E82238323842384A1DF
:1006500017D081C076F082C077F083C078F084C074
:1006600079F07935793378337733763376C081F022
:1006700077C082F078C083F079C084F0854B862BF8
:1006800086BF0DD0865103E18529D8A008D0000E81
:10069000816F000E826F800E836F7F0E20D086BF29
:1006A00005D086510EE18505D8B00BD0000E816FC4
:1006B000000E826F000E836F000E846F000E7A6F43
:1006C0000FD085C080F0FF0E8117FF0E82177F0EBE
:1006D0008317000E841780B1838FD8908031846F88
:1006E0007A51841381C06EF082C06FF083C070F0C5
:1006F00084C071F0120000018E51800B9B6F8E51EF
:100700008E259D6F8DBF9D819D51D8B40DD09D29A3
:10071000D8A408D0000E8B6F000E8C6F000E8D6F6A
:10072000000E8E6F8D8F06D0000E8B6F000E8C6FBB
:10073000000E8D6F000E8E6F9251800B9C6F9B513F
:100740009C19D8A49B8D925192259C6F91BF9C813E
:100750009C51D8B40DD09C29D8A408D0000E8F6F1E
:10076000000E906F000E916F000E926F918F06D069
:10077000000E8F6F000E906F000E916F000E926F43
:100780009D519C5DD8B022D09BAD02D0800E9B1BAA
:100790009DC09EF09CC09DF09EC09CF08BC09EF0C2
:1007A0008FC08BF09EC08FF08CC09EF090C08CF0FC
:1007B0009EC090F08DC09EF091C08DF09EC091F0D3
:1007C0008EC09EF092C08EF09EC092F0000E9E6F82
:1007D0009D51936F946B931F941F934B942B9C513B
:1007E000956F966B935195279451962396BF2CD075
:1007F000965104E11A0E955DD8A026D08B518C112C
:100800008D118E11D8B402D0010E01D0000E9E6F52
:10081000000E8B6F000E8C6F000E8D6F000E8E6FB2
:100820009CC09DF015D09EA105D0D8909E310109A5
:100830009E6F02D0D8909E338BB19E8F8E358E33B3
:100840008D338C338B339D2B9C519D5DD8A0EBD782
:100850009BBD29D09D51D8A409D0000E8B6F000EEE
:100860008C6F000E8D6F000E8E6F12008F518B27D4
:1008700090518C2391518D2392518E238EA183D040
:100880009EA106D0D8909E339E5101099E6F02D042
:10089000D8909E338BB19E8F8E358E338D338C33B3
:1008A0008B339D2B70D08F518B5D90518C59915112
:1008B0008D598E51800A936F9251800A9359D8B006
:1008C00036D08BC093F08CC094F08DC095F08EC064
:1008D00096F0931F941F951F961F932B000E942341
:1008E000952396238F519325976F90519421986F5C
:1008F00091519521996F925196219A6FFF0E9725EC
:100900008B6FFF0E98218C6FFF0E99218D6FFF0E5C
:100910009A218E6F800E9B1B9E6D9E51D8A40FD086
:10092000010E8B27000E8C238D238E2308D08F5130
:100930008B5F90518C5B91518D5B92518E5B8B5193
:100940008C118D118E11D8A41CD09E51D8A419D011
:10095000000E8B6F000E8C6F000E8D6F000E8E6F71
:100960001200D8908B378C378D378E379EBF8B8196
:100970009EA102D0D88001D0D8909E379D51D8A496
:100980009D078DAFEED7000E9C6F9EAF0AD09EC024
:1009900093F07F0E9317D8A402D08BA102D0010E42
:1009A0009C6F9C51D8B420D0010E8B27000E8C2355
:1009B0008D238E238EA118D08BC093F08CC094F021
:1009C0008DC095F08EC096F096359633953394335E
:1009D000933393C08BF094C08CF095C08DF096C08B
:1009E0008EF09D29D8A49D2B9D29D8B403D09D516C
:1009F000D8A40DD0000E8B6F000E8C6F000E8D6F83
:100A0000000E8E6F9D51D8A402D0000E9B6F9DA149
:100A100002D08D8F01D08D9FD8909D318E6F9BBF5E
:100A20008E8F8BC08BF08CC08CF08DC08DF08EC003
:100A30008EF01200D8900001E435D96EE535DA6EFB
:100A40006E0ED926020EDA22DECFD9F0DDCFDAF033
:100A5000D91FDA1FD94BDA2B2950D925296E2A50F4
:100A6000DA212A6E000E616F000E606F4CECA7F069
:100A7000D8900001E435D96EE535DA6E6E0ED926D0
:100A8000020EDA2260C0DEFF61C0DDFFD890E435DF
:100A9000D96EE535DA6E6E0ED926020EDA22DECF79
:100AA000D9F0DDCFDAF02950D925296E2A50DA2184
:100AB0002A6EE44BE52B4750E45DE551800AD96F7F
:100AC0004850800AD959D8A004D0000EE56F000E16
:100AD000E46F29C060F02AC061F047C062F048C0EE
:100AE00063F03CECA0F060C0E2F061C0E3F0E2C073
:100AF00060F0E3C061F00001000E61BFFF0E626FA5
:100B0000636F010EEDEC93F060C000F361C001F380
:100B100062C002F363C003F3000E0001C66F000E53
:100B2000C76F000EC86F400EC96F00C3C2F001C38B
:100B3000C3F002C3C4F003C3C5F0BDEC8CF0C2C067
:100B400004F3C3C005F3C4C006F3C5C007F3E2C095
:100B500060F0E3C061F00001000E61BFFF0E626F44
:100B6000636F010EEDEC93F060C008F361C009F310
:100B700062C00AF363C00BF3000E0001C66F000EE3
:100B8000C76F400EC86F400EC96F08C3C2F009C3DB
:100B9000C3F00AC3C4F00BC3C5F0BDEC8CF0C2C0F7
:100BA0000CF3C3C00DF3C4C00EF3C5C00FF3A60E03
:100BB0000001726F9B0E736FC40E746F3A0E756FE7
:100BC00004C36EF005C36FF006C370F007C371F085
:100BD000D2EC81F06EC08FF06FC090F070C091F0D9
:100BE00071C092F0870E0001726F970E736F710ED5
:100BF000746FB50E756F0CC36EF00DC36FF00EC33E
:100C000070F00FC371F0D2EC81F06EC08BF06FC04A
:100C10008CF070C08DF071C08EF07BEC83F08BC0D7
:100C200010F38CC011F38DC012F38EC013F38C0E31
:100C30000001726FB90E736F6B0E746F3F0E756F9C
:100C4000E2C060F0E3C061F0000E61BFFF0E626FB2
:100C5000636F010EEDEC93F060C06EF061C06FF059
:100C600062C070F063C071F0D2EC81F06EC087F0AA
:100C70006FC088F070C089F071C08AF090ECA8F065
:100C800087C08FF088C090F089C091F08AC092F040
:100C900010C38BF011C38CF012C38DF013C38EF010
:100CA0007BEC83F08BC014F38CC015F38DC016F36E
:100CB0008EC017F37B0E00018F6F540E906F630E82
:100CC000916F430E926F14C38BF015C38CF016C353
:100CD0008DF017C38EF07BEC83F08BC09FF08CC03F
:100CE000A0F08DC0A1F08EC0A2F0D0EC9AF09FC011
:100CF000E2F0A0C0E3F0E2C076F0E3C077F03CECB5
:100D0000A9F0DDECA7F0E2C0D7F0E3C0D8F0120004
:100D100000016351800B6C6F63516325776F62BF75
:100D200077817751D8B40DD07729D8A408D0000E98
:100D3000606F000E616F000E626F000E636F628F56
:100D400006D0000E606F000E616F000E626F000E25
:100D5000636F6751800B6C1B67516725786F66BFA7
:100D600078817851D8B40DD07829D8A408D0000E55
:100D7000646F000E656F000E666F000E676F668F02
:100D800006D0000E646F000E656F000E666F000ED9
:100D9000676F6451651166116711D8A415D0000EF4
:100DA000606F000E616F000E626F000E636F800E49
:100DB00062137F0E631360C060F061C061F062C0B7
:100DC00062F063C063F012007751D8A411D0000E16
:100DD000606F000E616F000E626F000E636F60C087
:100DE00060F061C061F062C062F063C063F0120045
:100DF0007851686F696B681F691F684B692B775161
:100E00006A6F6B6B68516A2769516B237F0E6A2585
:100E1000716F000E6B21726F60C06DF061C06EF07B
:100E200062C06FF063C070F0000E606F000E616F03
:100E3000000E626F000E636F000E736F000E746F12
:100E4000000E756F000E766F000E786F28D0785107
:100E5000D8B411D0D8906D376E376F377037D890BF
:100E6000603761376237633776BF6081D8907337F8
:100E700074377537763764516D5D65516E596651BB
:100E80006F5967517059D8A009D0768D64516D5F44
:100E900065516E5B66516F5B6751705B782B190E05
:100EA0007865D5D76D516E116F117011D8B411D00E
:100EB00073810FD0D890603761376237633776BF60
:100EC0006081D89073377437753776377107D8A03B
:100ED000720762AFEFD7000E786F76AF16D0FF0EB5
:100EE0007315686FFF0E7415696FFF0E75156A6FC5
:100EF0007F0E76156B6F685169116A116B11D8A45A
:100F000002D060A102D0010E786F7851D8B41FD002
:100F1000010E6027000E61236223632363A117D0B3
:100F200060C068F061C069F062C06AF063C06BF0D5
:100F30006B356B336A336933683368C060F069C0FE
:100F400061F06AC062F06BC063F0714B722B72BFCC
:100F500010D0725103E17129D8A00BD0000E726F2E
:100F60007169000E606F000E616F000E626F000EFF
:100F7000636F72BF05D0725111E17105D8B00ED008
:100F8000000E726F000E716F000E606F000E616FC9
:100F9000000E626F000E636F000E6C6F71C077F011
:100FA00077A102D0628F01D0629FD8907731636FB2
:100FB0006C51631360C060F061C061F062C062F0A8
:100FC00063C063F01200080E00016F256C6F000E05
:100FD00070216D6F000E6E6F47ECA8F00001866FF8
:100FE0008651726F736B0E0ED89072377337E82E7E
:100FF000FBD78651746F756B0C0ED89074377537AC
:10100000E82EFBD78651766F776B0A0ED89076372D
:101010007737E82EFBD78651796F786B86517A6FD8
:101020007B6B060ED8907A377B37E82EFBD786513C
:101030007C6F7D6B7C3B7D3BF00E7D177C510F0BF5
:101040007D13F00E7C1786517E6F7F6BD8907E37B4
:101050007F37D8907E377F378651806F816B7E5186
:1010600080137F5181137C5180137D5181137A51FC
:1010700080137B51811378518013795181137651FC
:1010800080137751811374518013755181137251FC
:101090008011826F73518111836F86C084F0856BDC
:1010A000080E6F256C6F000E70216D6F010E6E6F54
:1010B00047ECA8F00001726F736BD89072377337EA
:1010C000D890723773377251841373518513080E99
:1010D0006F256C6F000E70216D6F020E6E6F47EC06
:1010E000A8F00001726F736B723B733BF00E7317C5
:1010F00072510F0B7313F00E7217725184137351E8
:101100008513080E6F256C6F000E70216D6F030E36
:101110006E6F47ECA8F00001726F736B060ED890EB
:1011200072377337E82EFBD77251841373518513CE
:10113000080E6F256C6F000E70216D6F040E6E6FC0
:1011400047ECA8F00001726F7251746F736B7351AA
:10115000841374518513080E6F256C6F000E702177
:101160006D6F050E6E6F47ECA8F00001726F736B28
:101170000A0ED89072377337E82EFBD7725184135A
:1011800073518513080E6F256C6F000E70216D6F03
:10119000060E6E6F47ECA8F00001726F736B0C0EB9
:1011A000D89072377337E82EFBD77251841373517E
:1011B0008513080E6F256C6F000E70216D6F070E82
:1011C0006E6F47ECA8F00001726F736B0E0ED89033
:1011D00072377337E82EFBD772518413735185131E
:1011E0008451821944E185518319D8A4120030D06A
:1011F00020EE02F06F51D9267051DA22DECF60F076
:10120000DDCF61F071C062F08CECAAF01200000139
:10121000711F20EE02F06F51D9267051DA22DECF15
:1012200060F0DDCF61F071C062F08CECAAF01200CA
:10123000000120EE04F06F51D9267051DA22DECF82
:1012400060F0DDCF61F071C062F08CECAAF01200AA
:1012500000018651000AD8B41200010AD8B4C8D7D8
:10126000030AD8B4D4D7010AD8A41200E1D71200D7
:101270000001606F7ED03F0E1200060E12005B0E62
:1012800012004F0E1200660E12006D0E12007D0E3F
:101290001200070E12007F0E12006F0E12005F0E7A
:1012A00012007C0E1200580E12005E0E12007B0E11
:1012B0001200710E12006F0E1200740E1200040E56
:1012C00012000E0E12007A0E1200060E1200140EFC
:1012D0001200540E12005C0E1200730E1200670E04
:1012E0001200500E12006D0E1200780E12001C0E2D
:1012F0001200620E12002A0E1200640E12006E0E10
:1013000012005B0E1200770E12007F0E1200390ED3
:1013100012003F0E1200790E1200710E12003D0EE7
:101320001200760E1200060E12001E0E1200570E4C
:101330001200380E1200760E1200760E12003F0ECA
:101340001200730E12003F0E1200770E12006D0E87
:101350001200310E12003E0E12003E0E12007E0EE2
:101360001200760E1200660E12005B0E1200800E46
:101370001200000160512E0AD8B4F9D71E0AD8B461
:101380007AD7010AD8B479D7030AD8B478D7010A32
:10139000D8B477D7070AD8B476D7010AD8B475D7A6
:1013A000030AD8B474D7010AD8B473D70F0AD8B4D3
:1013B00072D7010AD8B471D7780AD8B4A4D7030A6F
:1013C000D8B4A3D7010AD8B4A2D7070AD8B4A1D7F2
:1013D000010AD8B4A0D7030AD8B49FD7010AD8B459
:1013E0009ED70F0AD8B49DD7010AD8B49CD7030A58
:1013F000D8B49BD7010AD8B49AD7070AD8B499D7DA
:10140000010AD8B498D7030AD8B497D7010AD8B438
:1014100096D71F0AD8B495D7010AD8B494D7030A2F
:10142000D8B493D7010AD8B492D7070AD8B491D7C1
:10143000010AD8B490D7030AD8B48FD7010AD8B418
:101440008ED70F0AD8B48DD7010AD8B48CD7030A27
:10145000D8B48BD73B0AD8B422D7030AD8B421D743
:10146000010AD8B420D7070AD8B41FD7010AD8B4C4
:101470001ED7030AD8B41DD7010AD8B41CD70F0A47
:10148000D8B41BD7010AD8B41AD7030AD8B419D7CD
:10149000010AD8B418D7070AD8B417D7010AD8B4A4
:1014A00016D7030AD8B415D7010AD8B414D71F0A1F
:1014B000D8B413D7010AD8B412D7030AD8B411D7B5
:1014C000010AD8B410D7070AD8B40FD7010AD8B484
:1014D0000ED7030AD8B40DD7010AD8B40CD70F0A17
:1014E000D8B40BD7010AD8B40AD7030AD8B409D79D
:1014F000000E12000001B751B811B911BA11D8A4E9
:1015000009D0000EB76F000EB86F800EB96F3F0E96
:10151000BA6F1200180E606F720E616F310E626F3B
:10152000440E636FB7C064F0B8C065F0B9C066F030
:10153000BAC067F0BBEC97F00001D8B00FD0000E36
:1015400001011B6F220E1A6FFF0E0001B76FFF0E15
:10155000B86F7F0EB96F7F0EBA6F1200B7C060F020
:10156000B8C061F0B9C062F0BAC063F0870E646FB2
:10157000480E656F3A0E666FC40E676FBBEC97F04E
:101580000001D8B00FD0000E01011B6F220E1A6FA0
:10159000000E0001B76F000EB86F000EB96F000E9D
:1015A000BA6F1200BAAF02D0010E01D0000EC16FA7
:1015B000C151D8B412D0B7C087F0B8C088F0B9C054
:1015C00089F0BAC08AF090ECA8F087C0B7F088C064
:1015D000B8F089C0B9F08AC0BAF0B7C06EF0B8C030
:1015E0006FF0B9C070F0BAC071F03B0E0001726FBD
:1015F000AA0E736FB80E746F3F0E756FD2EC81F048
:101600006EC0B7F06FC0B8F070C0B9F071C0BAF07A
:10161000B7C0A9F0B8C0AAF0B9C0ABF0BAC0ACF07E
:101620004CEC98F0A9C0BBF0AAC0BCF0ABC0BDF0B8
:10163000ACC0BEF0BBC09FF0BCC0A0F0BDC0A1F06C
:10164000BEC0A2F0D0EC9AF09FC0BFF0A0C0C0F026
:10165000B7C09FF0B8C0A0F0B9C0A1F0BAC0A2F066
:10166000BFC060F0C0C061F00001000E61BFFF0E9E
:10167000626F636F010EEDEC93F060C0A3F061C088
:10168000A4F062C0A5F063C0A6F064ECA6F09FC011
:10169000B7F0A0C0B8F0A1C0B9F0A2C0BAF0B7C00E
:1016A0009FF0B8C0A0F0B9C0A1F0BAC0A2F0830EFC
:1016B0000001A36FFE0EA46F000EA66F090EA56FAA
:1016C0005EEC99F09FC0AFF0A0C0B0F0A1C0B1F047
:1016D000A2C0B2F0BFC0B3F0C0C0B4F05EEC9AF0EC
:1016E000AFC0B7F0B0C0B8F0B1C0B9F0B2C0BAF096
:1016F0000001C151D8B42FD0B72912E1B82910E1A7
:101700007F0EB9190DE17F0EBA19D8A409D0000EC9
:10171000B76F000EB86F000EB96F000EBA6F1200EF
:10172000000E606F000E616F800E626F3F0E636F80
:10173000B7C064F0B8C065F0B9C066F0BAC067F071
:1017400088EC86F060C0B7F061C0B8F062C0B9F054
:1017500063C0BAF01200B7C0B7F0B8C0B8F0B9C0F3
:10176000B9F0BAC0BAF01200050E00019A6FB8D0F5
:1017700020EE02F09651D9269751DA22DECF6BF097
:10178000DDCF6CF098C06DF00F0E6E6F7FECA9F09E
:10179000000120EE04F09651D9269751DA22DECFCF
:1017A0006BF0DDCF6CF098C06DF0000E6E6F7FECCB
:1017B000A9F0A4D096C08FF097C090F098C091F097
:1017C000030E0001926FAAECA5F000019A6F9A51E6
:1017D000D8A4120020EE02F09651D9269751DA22B1
:1017E000DECF6BF0DDCF6CF098C06DF0000E6E6F49
:1017F0007FECA9F0000120EE04F09651D926975114
:10180000DA22DECF6BF0DDCF6CF098C06DF0000E09
:101810006E6F7FECA9F072D096C08FF097C090F0F9
:1018200098C091F0030E0001926FAAECA5F00001A0
:101830009A6F9A51D8A4120020EE02F09651D92640
:101840009751DA22DECF6BF0DDCF6CF098C06DF0EF
:101850000F0E6E6F7FECA9F0000120EE04F09651A0
:10186000D9269751DA22DECF6BF0DDCF6CF098C02D
:101870006DF00F0E6E6F7FECA9F040D096C08FF028
:1018800097C090F098C091F0030E0001926FAAECFF
:10189000A5F000019A6F9A51D8A4120020EE02F030
:1018A0009651D9269751DA22DECF6BF0DDCF6CF05E
:1018B00098C06DF0000E6E6F7FECA9F0000120EE75
:1018C00004F09651D9269751DA22DECF6BF0DDCFA6
:1018D0006CF098C06DF0000E6E6F7FECA9F00ED02A
:1018E00000019951000AD8B443D7010AD8B462D78D
:1018F000030AD8B491D7010AD8B4C0D7080E0001A2
:1019000096256F6F000E9721706F9851040DF3CFDD
:1019100071F099C072F0A4ECA7F0080E00019625B2
:101920006F6F000E9721706F9851040DF328716F3F
:1019300099C072F0A4ECA7F0080E000196256F6F15
:10194000000E9721706F9851040DF350020F716FC4
:1019500099C072F0A4ECA7F0080E000196256F6FF5
:10196000000E9721706F9851040DF350030F716FA3
:1019700099C072F0A4ECA7F01200000E0001D26F23
:10198000C251C311C411C511D8A424D0000E606F78
:10199000000E616F000E626F000E636FC6C064F0D0
:1019A000C7C065F0C8C066F0C9C067F0BBEC97F06F
:1019B0000001D8A005D0000E01011B6F210E1A6F87
:1019C000000E0001C26F000EC36F000EC46F000E48
:1019D000C56F1200C651C711C811C911D8A409D0CA
:1019E000000EC26F000EC36F800EC46F3F0EC56F36
:1019F0001200C5AF4FD0C6C09FF0C7C0A0F0C8C08E
:101A0000A1F0C9C0A2F0D0EC9AF09FC0D3F0A0C062
:101A1000D4F0A1C0D5F0A2C0D6F0D3C060F0D4C03D
:101A200061F0D5C062F0D6C063F0000EEDEC93F02B
:101A30000001C65160190AE1C751611907E1C85197
:101A4000621904E1C9516319D8B40FD0000E010125
:101A50001B6F210E1A6F000E0001C26F000EC36FC4
:101A6000000EC46F000EC56F1200D351010BD26F70
:101A7000C2C087F0C3C088F0C4C089F0C5C08AF076
:101A800090ECA8F087C0C2F088C0C3F089C0C4F051
:101A90008AC0C5F0C2C0AFF0C3C0B0F0C4C0B1F0DE
:101AA000C5C0B2F07FEC92F0AFC0CAF0B0C0CBF0CE
:101AB000B1C0CCF0B2C0CDF0CAC06EF0CBC06FF0F8
:101AC000CCC070F0CDC071F0C6C072F0C7C073F06A
:101AD000C8C074F0C9C075F0D2EC81F06EC0CEF011
:101AE0006FC0CFF070C0D0F071C0D1F0CEC0B7F0F1
:101AF000CFC0B8F0D0C0B9F0D1C0BAF07AEC8AF05B
:101B0000B7C0C2F0B8C0C3F0B9C0C4F0BAC0C5F025
:101B10000001D251D8B413D0C2C087F0C3C088F03E
:101B2000C4C089F0C5C08AF090ECA8F087C0C2F0AC
:101B300088C0C3F089C0C4F08AC0C5F01200C2C01A
:101B4000C2F0C3C0C3F0C4C0C4F0C5C0C5F0120029
:101B5000050E00019F6F6ED020EE02F09A51D9263B
:101B60009B51DA22DECF9DF0DDCF9EF09DC0D9FFE4
:101B70009EC0DAFFFF0E5CD09AC096F09BC097F033
:101B8000010E986FCDECA6F000019F6F9F51D8A475
:101B9000120020EE02F09A51D9269B51DA22DECFB4
:101BA0009DF0DDCF9EF09DC0D9FF9EC0DAFF000EF4
:101BB000DF6E20EE04F02FD09AC096F09BC097F015
:101BC000020E986FCDECA6F000019F6F9F51D8A434
:101BD000120020EE02F09A51D9269B51DA22DECF74
:101BE0009DF0DDCF9EF09DC0D9FF9EC0DAFFFF0EB5
:101BF000DF6E20EE04F0B2D79AC096F09BC097F04B
:101C0000000E986FCDECA6F000019F6F9F51D8A4F5
:101C1000120020EE02F09A51D9269B51DA22DECF33
:101C20009DF0DDCF9EF09DC0D9FF9EC0DAFF000E73
:101C3000DF6E0DD09C51000AD8B48ED7010AD8B4FB
:101C40009BD7030AD8B4B8D7010AD8B4D5D7080EA1
:101C50009A256F6F000E9B21706F000E716F9CC0F4
:101C600072F0A4ECA7F0080E00019A256F6F000E29
:101C70009B21706F010E716F9CC072F0A4ECA7F0F5
:101C8000080E00019A256F6F000E9B21706F020EE7
:101C9000716F9CC072F0A4ECA7F0080E00019A25A9
:101CA0006F6F000E9B21706F030E716F9CC072F0FE
:101CB000A4ECA7F0080E00019A256F6F000E9B217F
:101CC000706F040E716F9CC072F0A4ECA7F0080E48
:101CD00000019A256F6F000E9B21706F050E716FCA
:101CE0009CC072F0A4ECA7F0080E00019A256F6F5B
:101CF000000E9B21706F060E716F9CC072F0A4ECF9
:101D0000A7F0080E00019A256F6F000E9B21706FDF
:101D1000070E716F9CC072F0A4ECA7F012000001D6
:101D2000F551D8B41200E5C186F0E6C187F0E7C1ED
:101D300088F0E8C189F0F451D8B404D0F2C085F03D
:101D40000F0EF26F000E8B6FB9D08B51020D500E3B
:101D5000F324D96E020EF420DA6EDECFF7F1DDCF78
:101D6000F8F1000E8A6F130E8A6501D09ED08B5158
:101D7000140D180E836F030E846FF3508327F450F5
:101D800084238A51010DF3508325D96EF4508421A8
:101D9000DA6EDFAE83D08B51140D180E836F030EF5
:101DA000846FF3508327F45084238A51010DF3503C
:101DB0008325D96EF4508421DA6E7F0EDF168B51A5
:101DC000140D180E836F030E846FF3508327F450A5
:101DD00084238A51010DF3508325D96EF450842158
:101DE000DA6EDF50D8B443D0ECC069F0EDC06AF0D1
:101DF00086C06BF087C06CF088C06DF089C06EF053
:101E0000EDC16FF0EEC170F0EFC171F0F0C172F092
:101E1000B3ECA4F000018B51140D180E836F030E68
:101E2000846FF3508327F45084238A51010DF350BB
:101E30008325D96EF4508421DA6EDF5009EC9DF0D1
:101E400065C072F066C073F086C074F087C075F02C
:101E500088C076F089C077F0EDC178F0EEC179F0F6
:101E6000EFC17AF0F0C17BF0C1ECA0F017D0000E0A
:101E700000016A6F000E696F86C06BF087C06CF05E
:101E800088C06DF089C06EF0EDC16FF0EEC170F0EA
:101E9000EFC171F0F0C172F0B3ECA4F0060E0001D6
:101EA0008627000E87238A2B5ED7080E8827000E10
:101EB0008923000E876F060E866F8B2B8B51F25D88
:101EC000D8B043D7F451D8B41200000EF46F85C0D7
:101ED000F2F0120086C0D9FF87C0DAFFDECF8BF0A8
:101EE000DDCF8CF0050E00018A6FA7D020EE02F046
:101EF0008651D9268751DA22DECF60F0DDCF61F03E
:101F000088C062F0010E636F31ECA5F0A4D08BC0E5
:101F10006FF08CC070F0010E0001716F88C072F01C
:101F20006EECA3F000018A6F8A51D8A4120020EE53
:101F300002F08651D9268751DA22DECF60F0DDCF5C
:101F400061F088C062F0000E636F31ECA5F0000113
:101F500020EE04F08651D9268751DA22DECF60F0D8
:101F6000DDCF61F088C062F0000E636F31ECA5F048
:101F700072D08BC06FF08CC070F0020E0001716FD8
:101F800088C072F06EECA3F000018A6F8A51D8A469
:101F9000120020EE02F08651D9268751DA22DECFD8
:101FA00060F0DDCF61F088C062F0010E636F31EC4C
:101FB000A5F0000120EE04F08651D9268751DA22DF
:101FC000DECF60F0DDCF61F088C062F0010E636F9C
:101FD00031ECA5F040D08BC06FF08CC070F0000EDB
:101FE0000001716F88C072F06EECA3F000018A6F7F
:101FF0008A51D8A4120020EE02F08651D9268751CA
:10200000DA22DECF60F0DDCF61F088C062F0000E32
:10201000636F31ECA5F0000120EE04F08651D92663
:102020008751DA22DECF60F0DDCF61F088C062F048
:10203000000E636F31ECA5F00ED000018951000A4B
:10204000D8B454D7010AD8B462D7030AD8B491D708
:10205000010AD8B4C0D7080E000186256F6F000EA4
:102060008721706F88C071F089C072F0A4ECA7F06E
:10207000120086EC96F0F8ECA9F08FECA9F06CEC6D
:10208000AAF0B4ECAAF0B8ECA1F040ECA6F0010E76
:102090005FECA4F0010EC1ECA7F00009D8B40CD09D
:1020A00007EC91F03FEC95F0D1ECA2F0D4ECA9F064
:1020B0000009D8A413ECA8F01AEC85F0E2C076F081
:1020C000E3C077F03CECA9F0DDECA7F0A2ECA3F0C4
:1020D00021EE78F001D80AD00500FA6EDE50FD6ED0
:1020E000DE50FE6EDE50FF6EFA5012000001DB6F14
:1020F00021EE5AF001D80AD00500FA6EDE50FD6ECE
:10210000DE50FE6EDE50FF6EFA5012000001DC6FF2
:1021100021EE6EF001D80AD00500FA6EDE50FD6E99
:10212000DE50FE6EDE50FF6EFA5012000001DD6FD1
:1021300021EE64F001D80AD00500FA6EDE50FD6E83
:10214000DE50FE6EDE50FF6EFA5012000001DE6FB0
:10215000DB51D8B405D0000E01013B6F030E3A6F7E
:102160000001DC51D8B405D0000E01013B6F010E17
:102170003A6F0001DD51D8B405D0000E01013B6F6C
:10218000020E3A6F0001DE51D8B405D0000E0101F5
:102190003B6F040E3A6F010EC1ECA7F00009D8B4F2
:1021A0008BD701013A513B11D8A414D0FC0E000189
:1021B000756FFF0E766F000E786F230E776F39EC18
:1021C00093F0C20E0001756FFF0E766F39EC93F03D
:1021D0008FEC8EF0030E01013A193B11D8A40DD0FB
:1021E0003FEC9BF08FEC8EF08FEC8EF0000E010137
:1021F0003B6F000E3A6F8FEC8EF08FEC8EF0D4ECCC
:10220000A9F00009D8B458D713ECA8F055D77B0E25
:1022100000019B6F010E9C6F000E9E6F020E9D6F62
:10222000900E9F6F550EA06F010EA16F600EA26FF2
:10223000540EA36F010EA46F040EA56F140EA66FAB
:10224000000EA76F5CEC9CF05D0E00019B6F010E11
:102250009C6F000E9E6F020E9D6F900E9F6F550E2D
:10226000A06F010EA16FB00EA26F540EA36F010EEE
:10227000A46F040EA56F140EA66F000EA76F5CEC82
:102280009CF0530E00019B6F010E9C6F000E9E6F21
:10229000020E9D6F900E9F6F550EA06F010EA16FE5
:1022A0009C0EA26F540EA36F010EA46F040EA56FB7
:1022B000140EA66F000EA76F5CEC9CF0670E000179
:1022C0009B6F010E9C6F000E9E6F020E9D6F900E15
:1022D0009F6F550EA06F010EA16F880EA26F540E56
:1022E000A36F010EA46F040EA56F140EA66F000E4F
:1022F000A76F5CEC9CF0710E00019B6F010E9C6F50
:10230000000E9E6F020E9D6F900E9F6F550EA06F78
:10231000010EA16F740EA26F540EA36F010EA46F75
:10232000040EA56F140EA66F000EA76F5CEC9CF058
:10233000A00E00018D6F860E8E6F010E8F6F000E46
:10234000906F000E916F020E926F00EC80F0C80E3D
:1023500000016F6F020E706F3AECA3F0000E0001E7
:10236000A96F000EA86FA9510FE1080EA85DD8B0A3
:1023700012004B0EA825D96E010EA921DA6E000EAF
:10238000DF6EA84BA92BEFD712000001A251B4ECCD
:102390009FF0A0C0D9FFA1C0DAFF000160C0DEFF3E
:1023A00061C0DDFFA251F8EC9FF0000120EE06F0C5
:1023B000A051D926A151DA2260C0DEFF61C0DDFF45
:1023C000A251F8EC9FF0000120EE04F0A051D926B4
:1023D000A151DA2260C0DEFF61C0DDFFA25170ECC6
:1023E0009FF0000120EE02F0A051D926A151DA227F
:1023F00060C0DEFF61C0DDFF20EE04F0A051D926F1
:10240000A151DA22DECFA3F0DDCFA4F0A3C0D9FF23
:10241000A4C0DAFF000EDF6E20EE02F0A051D92634
:10242000A151DA22DECFA3F0DDCFA4F0A3C0D9FF03
:10243000A4C0DAFFFF0EDF6EA0C09AF0A1C09BF02F
:10244000000E9C6FA8EC8DF0000E0001A56F070E2A
:10245000A56531D04BD0A0C086F0A1C087F0A5C043
:1024600088F0030E0001896F6AEC8FF03CD0A0C0A9
:1024700086F0A1C087F0A5C088F0020E0001896F28
:102480006AEC8FF030D0A0C086F0A1C087F0A5C064
:1024900088F0010E0001896F6AEC8FF024D0A0C093
:1024A00086F0A1C087F0A5C088F0000E0001896FFA
:1024B0006AEC8FF018D0A0C0D9FFA1C0DAFFDECF40
:1024C0006CF0DDCF6DF0A5C06EF047ECA8F0000A0F
:1024D000D8B4C1D7010AD8B4D6D7030AD8B4C7D75D
:1024E000010AD8B4DCD70001A52BB1D7A0C06FF08A
:1024F000A1C070F0000E716FE3EC87F012000001D4
:10250000B2AF0FD0000E01011B6F210E1A6F000E2B
:102510000001AF6F000EB06F000EB16F000EB26F12
:102520001200AF51B011B111B211D8A40FD0000EEA
:1025300001011B6F220E1A6F000E0001AF6F000E1B
:10254000B06F000EB16F000EB26F1200000E726F0E
:10255000000E736F000E746F400E756FB30E646FD4
:10256000000E656FAFC060F0B0C061F0B1C062F046
:10257000B2C063F0ACEC9DF060C06EF061C06FF073
:1025800062C070F063C071F0D2EC81F06EC08BF06D
:102590006FC08CF070C08DF071C08EF0000E000125
:1025A0008F6F000E906F800E916FBF0E926F7BEC5D
:1025B00083F08BC0AFF08CC0B0F08DC0B1F08EC096
:1025C000B2F00001B307D8A0B407AFC09FF0B0C00D
:1025D000A0F0B1C0A1F0B2C0A2F0AB0EA36FFE0E8E
:1025E000A46F000EA66F080EA56F5EEC99F09FC059
:1025F000AFF0A0C0B0F0A1C0B1F0A2C0B2F0180E10
:102600000001726F720E736F310E746F3F0E756F33
:10261000B3C060F0B4C061F0000E61BFFF0E626F26
:10262000636F010EEDEC93F060C06EF061C06FF06F
:1026300062C070F063C071F0D2EC81F06EC08BF0BC
:102640006FC08CF070C08DF071C08EF0AFC08FF095
:10265000B0C090F0B1C091F0B2C092F07BEC83F0CA
:102660008BC0AFF08CC0B0F08DC0B1F08EC0B2F0B6
:102670001200770E00017C6F000E7D6F9ED0250E3C
:102680008019D8B404D080519AECAAF096D0000EEC
:1026900000017A6F0ED07CC0D9FF7DC0DAFFDF5019
:1026A000806F020E7C27000E7D2380519AECAAF0E9
:1026B00084D075C0F6FF76C0F7FF0001754B762B0E
:1026C000000EF86E0800F5CF80F08051000AD8B4F3
:1026D0001200630AD8B4DFD7070AD8B403D00D0AB2
:1026E000D8A4E3D77CC0D9FF7DC0DAFFDECF7EF06F
:1026F000DDCF7FF0020E00017C27000E7D237FAF2F
:1027000006D0030E7A137E6D7F1FD8B07F2B010E8B
:10271000806F050E8019D8B415D08051020D890E36
:10272000F324F66EFC0EF420F76EF86A000EF82221
:102730000900F5507E5D0900F5507F59D8A002D000
:10274000802BE7D77AC079F0030E7917D8B403D07D
:102750002D0E9AECAAF080C07BF02AD000017B51AC
:10276000020D890EF324F66EFC0EF420F76EF86A63
:10277000000EF8220900F5CF62F00A00F5CF63F0F1
:102780007EC060F07FC061F007ECA5F060C067F02C
:1027900061C068F0000E00016A6F0A0E696FABEC51
:1027A000A6F000016751300F806F80519AECAAF0BB
:1027B00000017B077B29D8A4D1D775C0F6FF76C06E
:1027C000F7FF0001754B762B000EF86E0800F5CF71
:1027D00080F08051D8B4120052D70001686F000118
:1027E0006851D8A463AF1AD060C064F061C065F0CE
:1027F00062C066F063C067F0641F651F661F671FD5
:10280000642B000E65236623672364C06AF065C0ED
:102810006BF066C06CF067C06DF008D060C06AF005
:1028200061C06BF062C06CF063C06DF0605161110B
:1028300062116311D8A409D0000E606F000E616FA1
:10284000000E626F000E636F1200960E696F06D065
:10285000692BD8906D336C336B336A33000E6A1575
:10286000646F000E6B15656F000E6C15666FFE0EC3
:102870006D15676F6451651166116711D8B40DD07D
:10288000E7D7692B010E6A27000E6B236C236D239B
:10289000D8906D336C336B336A33000E6A15646FF6
:1028A000000E6B15656F000E6C15666FFF0E6D15D3
:1028B000676F6451651166116711D8B407D0E1D70D
:1028C0006907D8906A376B376C376D376CBF03D0A8
:1028D000020E6961F5D769B108D0FF0E6A17FF0EC5
:1028E0006B177F0E6C17FF0E6D17D890693369C098
:1028F00064F0656B666B676B64C067F0666B656BF5
:10290000646B64516A1365516B1366516C136751A4
:102910006D136851D8A463AF01D06D8F6AC060F0A9
:102920006BC061F06CC062F06DC063F0120000011A
:10293000736F8AD000ECA1F0120082ECA5F01200B7
:1029400065ECA2F0120096EC9EF0120089ECA4F067
:1029500012009EECA9F0120073C070F07F0E00010F
:102960007017F251140D180E716F030E726FF35041
:102970007127F4507223F351010DF3507125D96E74
:10298000F4507221DA6EDF507F0B7019D8B423D067
:10299000010EF56FF251140D180E706F030E716F6A
:1029A000F3507027F4507123F351010DF35070254B
:1029B000D96EF4507121DA6E73518009DF6EF251D5
:1029C000020D500EF324D96E020EF420DA6EF7C118
:1029D000DEFFF8C1DDFF89ECA4F00009D8B41200D5
:1029E00073C070F07F0E00017017F251140D180EB5
:1029F000716F030E726FF3507127F4507223F3510D
:102A0000010DF3507125D96EF4507221DA6EDF504A
:102A10007F0B7019D8B41200010EF56FF251140D2E
:102A2000180E706F030E716FF3507027F4507123FE
:102A3000F351010DF3507025D96EF4507121DA6E07
:102A400073518009DF6E120000017351070AD8B478
:102A50007DD70F0AD8B471D7010AD8B474D7030A46
:102A6000D8B468D7060AD8B46BD7010AD8B462D7ED
:102A70002D0AD8B471D7030AD8B46BD76DD702EC3E
:102A8000A4F0000E0001986F000E976F98517DE141
:102A9000590E975DD8B079D0D8909735F66E9835A5
:102AA000F76EB70EF626FB0EF722F86A000EF82234
:102AB0000900800EF5180900F510D8A41DD0985112
:102AC0001BE1580E975DD8B017D0974B982BD89034
:102AD0009735F66E9835F76EB70EF626FB0EF72291
:102AE000F86A000EF8220900F5CF60F00A00F5CF71
:102AF00061F031ECA4F043D0D89000019735F66E28
:102B00009835F76EB70EF626FB0EF722F86A000E20
:102B1000F8220900000EF55E0900010EF55AD8A052
:102B20001BD0000E636FD8909735F66E9835F76E10
:102B3000B70EF626FB0EF722F86A000EF8220900FF
:102B4000F5CF95F00900F5CF96F096C095F0966B0D
:102B500095515FECA9F013D0010E0001636FD8907E
:102B60009735F66E9835F76EB70EF626FB0EF72200
:102B7000F86A000EF8220800F5505FECA9F0000199
:102B8000974B982B985101E183D7000E616F640E2B
:102B9000606F31ECA4F0000E0001636F290E5FEC52
:102BA000A9F0010EE0EC9EF0000E0001616F640ED2
:102BB000606F31ECA4F0000E00016A6F000E696FC7
:102BC0001CECA6F01200000E0001766F6C0E776F01
:102BD000DC0E786F020E796FD8906D376E376F37D5
:102BE0007037020E716FD89079337833773376333C
:102BF000712FF9D776C060F077C061F078C062F0CD
:102C000079C063F06DC064F06EC065F06FC066F0AF
:102C100070C067F07FECA0F060C07AF061C07BF01C
:102C200062C07CF063C07DF00ED0000E0001726FB8
:102C3000000E736F000E746F000E756FF12B020E95
:102C4000F16501D023D07AC060F07BC061F07CC018
:102C500062F07DC063F00001F151010DA00EF3247C
:102C6000F66EFC0EF420F76EF86A000EF8220800EB
:102C7000F550646F656B666B676B7FECA0F00001CD
:102C800063516211D2E16105D8B0CFD7CA50F119B2
:102C9000FC0BF119CA6ECA84BEECAAF00001F15116
:102CA000010DA00EF324F66EFC0EF420F76EF86A08
:102CB000000EF8220800F5CFF0F0FF0E7A25010192
:102CC000006FFF0E00017B210101016FFF0E00016B
:102CD0007C210101026FFF0E00017D210101036FC4
:102CE00000C160F001C161F002C162F003C163F094
:102CF0000001F051646F656B666B676B7FECA0F051
:102D000000016051F16FF1C0CBFF1200010E4B6E5C
:102D1000000E0001DF6F000EE06F000EE16FF10E9C
:102D2000A06F020EA16F000EA26FC5EC91F0A40E71
:102D30000001A06F010EA16F010EA26FC5EC91F012
:102D4000AE0E0001A06F010EA16F020EA26FC5ECC6
:102D500091F09A0E0001A06F010EA16F030EA26FF9
:102D6000C5EC91F0900E0001A06F010EA16F040E52
:102D7000A26FC5EC91F0B80E0001A06F010EA16F1B
:102D8000050EA26FC5EC91F0E70E0001A06F020ED8
:102D9000A16F060EA26FC5EC91F0B80E0001866F10
:102DA000010E876F050E886F000E896F6AEC8FF039
:102DB000A40E0001966F010E976F000E986F000E23
:102DC000996FB4EC8BF0B80E0001866F010E876F1F
:102DD000060E886F030E896F6AEC8FF0E70E000114
:102DE0009A6F020E9B6F030E9C6FA8EC8DF0E70E9E
:102DF00000016F6F020E706F040E716F000E726F24
:102E000002EC9CF0B80E00016F6F010E706F060EA1
:102E1000716F010E726F02EC9CF0000E5FECA4F07B
:102E2000010E5FECA4F0000E9E6E000EA16E000E6F
:102E3000A46E9B8E9B8C000E0001616F640E606F10
:102E400031ECA4F0D08E1200000120EE07F07B518F
:102E5000D9267C51DA2201D80AD00500FA6EDE505C
:102E6000FD6EDE50FE6EDE50FF6EFA501200000165
:102E7000836F7BC0D9FF7CC0DAFF8351DE18D8A4F2
:102E80001CD020EE01F07B51D9267C51DA227D51F5
:102E9000DE5CD8B009D020EE01F07B51D9267C5100
:102EA000DA22000EDF6E120020EE01F07B51D926EF
:102EB0007C51DA227D51DF5E120020EE01F07B5161
:102EC000D9267C51DA22DF507E6F7F6B7D517E27C1
:102ED000000E7F2320EE01F07B51D9267C51DA22AF
:102EE000DF50806F816B7E51805D8151800A826FDF
:102EF0007F51800A8259D8B0120020EE01F07B5138
:102F0000D9267C51DA227D51DF2620EE02F07B515A
:102F1000D9267C51DA2210EE01F07B51E1267C515A
:102F2000E222E750806F816BDE50805DDE50815978
:102F3000D8A012007BC0D9FF7CC0DAFF83C0DFFFBE
:102F400020EE01F07B51D9267C51DA22000EDF6E93
:102F500020EE04F07B51D9267C51DA2201D81200F0
:102F60000500FA6EDE50FD6EDE50FE6EDE50FF6E26
:102F7000FA5083511200000E00016015686F000EB8
:102F80006115696F800E62156A6F7F0E63156B6F36
:102F9000685169116A116B11D8A408D0000E606FD6
:102FA000000E616F000E626F000E636F000E6415FD
:102FB000686F000E6515696F800E66156A6F7F0E6B
:102FC00067156B6F685169116A116B11D8A408D02D
:102FD000000E646F000E656F000E666F000E676F67
:102FE00063AF1DD060C068F061C069F062C06AF074
:102FF00063C06BF0681F691F6A1F6B1F682B000E90
:1030000069236A236B23000E6825606F000E692117
:10301000616F000E6A21626F800E6B21636F67AF74
:103020001DD064C068F065C069F066C06AF067C012
:103030006BF0681F691F6A1F6B1F682B000E6923E6
:103040006A236B23000E6825646F000E6921656F8B
:10305000000E6A21666F800E6B21676F000E601B89
:10306000000E611B000E621B800E631B000E641BB2
:10307000000E651B000E661B800E671B6451605DB1
:10308000655161596651625967516359D8B002D090
:10309000D8901200D8801200A9C060F0AAC061F0D8
:1030A000ABC062F0ACC063F0B10E0001646F000E03
:1030B000656FACEC9DF00001B2AF14D0ACAF09D09D
:1030C000000EA96F000EAA6F800EAB6FBF0EAC6F23
:1030D0001200000EA96F000EAA6F000EAB6F000E5B
:1030E000AC6F1200B25104E11D0EB15DD8A009D041
:1030F000A9C0A9F0AAC0AAF0ABC0ABF0ACC0ACF0BC
:103100001200A9C09FF0AAC0A0F0ABC0A1F0ACC053
:10311000A2F0D0EC9AF09FC060F0A0C061F0A1C016
:1031200062F0A2C063F0010EEDEC93F060C0ADF070
:1031300061C0AEF062C0AFF063C0B0F0A9C060F093
:10314000AAC061F0ABC062F0ACC063F0ADC064F087
:10315000AEC065F0AFC066F0B0C067F0BBEC97F0F2
:103160000001D8B01BD0ADC08BF0AEC08CF0AFC0AA
:103170008DF0B0C08EF0000E8F6F000E906F800E3D
:10318000916FBF0E926F7BEC83F08BC0A9F08CC067
:10319000AAF08DC0ABF08EC0ACF01200ADC0A9F0AB
:1031A000AEC0AAF0AFC0ABF0B0C0ACF0120051B2EC
:1031B000DEEF99F0000120EE04F0E851D926E95144
:1031C000DA22DF506AECA7F00009D8B46ED0E8C06C
:1031D000D9FFE9C0DAFFDE50DE10D8B461D0E8C014
:1031E000D9FFE9C0DAFF010EDBBE23D0010EDB50B0
:1031F00003E1DE04D8A01DD0E8C0D9FFE9C0DAFFA2
:10320000DE2804E17F0EDE18D8B407D0E8C0D9FF6D
:10321000E9C0DAFFDE06000EDD5A900E00016F6F86
:10322000010E706F000E716F010E726F02EC9CF058
:103230001CD0E8C0D9FFE9C0DAFFDE0404E1800E4B
:10324000DE18D8B407D0E8C0D9FFE9C0DAFFDE2A1B
:10325000000EDD22900E00016F6F010E706F000EE8
:10326000716F000E726F02EC9CF0900E00016F6F98
:10327000010E706F010E716F010E726F02EC9CF007
:10328000900E00016F6F010E706F010E716F000ED6
:10329000726F02EC9CF0D4ECA9F0A8ECAAF012003A
:1032A000D4ECA9F0C2ECAAF012000BC160F00CC182
:1032B00061F00DC162F093ECAAF01200A5C0A7F076
:1032C000A6C0A8F00001D890A737A837D890A73794
:1032D000A837A3C0A9F0A4C0AAF0A751A927A85154
:1032E000AA23A9C0F6FFAAC0F7FF000EF86E0900D6
:1032F000F5CFABF00900F5CFACF00900F5CFADF09C
:103300000A00F5CFAEF04CD0ABC072F0ACC073F099
:10331000ADC074F0AEC075F09FC06EF0A0C06FF08D
:10332000A1C070F0A2C071F0D2EC81F06EC08BF041
:103330006FC08CF070C08DF071C08EF00001A507D9
:10334000D8A0A607A5C0A7F0A6C0A8F0D890A73718
:10335000A837D890A737A837A3C0A9F0A4C0AAF06F
:10336000A751A927A851AA23A9C0F6FFAAC0F7FF11
:10337000000EF86E0900F5CF8FF00900F5CF90F040
:103380000900F5CF91F00A00F5CF92F07BEC83F0C5
:103390008BC0ABF08CC0ACF08DC0ADF08EC0AEF089
:1033A0000001A551A611D8A4AFD7ABC09FF0ACC007
:1033B000A0F0ADC0A1F0AEC0A2F01200000120EE5E
:1033C00004F0E851D926E951DA22DF50F8ECA7F0F1
:1033D0000009D8B46AD0E8C0D9FFE9C0DAFFDE50EE
:1033E000DE10D8B45DD0E8C0D9FFE9C0DAFF010E25
:1033F000DBBE22D0010EDB5003E1DE04D8A01CD0DE
:10340000E8C0D9FFE9C0DAFFDE2804E17F0EDE184C
:10341000D8B407D0E8C0D9FFE9C0DAFFDE06000E55
:10342000DD5A900E106E010E116E000E126E010E1E
:10343000136EB4EC9CF01BD0E8C0D9FFE9C0DAFFF2
:10344000DE0404E1800EDE18D8B407D0E8C0D9FF4E
:10345000E9C0DAFFDE2A000EDD22900E106E010EAA
:10346000116E000E126E000E136EB4EC9CF0900EF6
:10347000106E010E116E010E126E010E136EB4EC81
:103480009CF0900E106E010E116E010E126E000E69
:10349000136EB4EC9CF0CEECAAF0AEECAAF01200E5
:1034A000CEECAAF0CBECAAF012000BC101F00CC1DB
:1034B00002F00DC103F0A1ECAAF012000001AF511F
:1034C000B011B111B211D8A409D0000EAF6F000E27
:1034D000B06F000EB16F000EB26F1200B2517F0BD1
:1034E000B56FB66BD890B537B637B551B327B6516F
:1034F000B423B1AF03D0B56BB52B02D00001B56BCF
:10350000B551B327000EB423B4AF0FD0000E0101A4
:103510001B6F220E1A6F000E0001AF6F000EB06F0E
:10352000000EB16F000EB26F1200B4BF1BD0B40515
:10353000D8A018D0000E01011B6F220E1A6F0001D7
:10354000B2AF08D0FF0EAF6FFF0EB06F7F0EB16F3E
:10355000FF0EE9D7FF0EAF6FFF0EB06F7F0EB16F9A
:103560007F0EE1D7B435B431B66FB331B56FB25118
:10357000B519800BB519B26FB3C0B5F0010EB51710
:10358000B533B533B151B5197F0BB519B16FAFC0B4
:10359000AFF0B0C0B0F0B1C0B1F0B2C0B2F0120044
:1035A0000001A135A235A86FA851D8A409D0000EFA
:1035B0009F6F000EA06F000EA16F000EA26F120091
:1035C0009FC0A3F0A0C0A4F0A1C0A5F0A2C0A6F027
:1035D000200E05D0D890A633A533A433A333E82E0C
:1035E000F9D7A351A76FA18FFF0E9F17FF0EA0174A
:1035F000FF0EA117000EA217960EA85FA8AF16D057
:10360000A851800A970FD8B009D0000E9F6F000E06
:10361000A06F000EA16F000EA26F1200D890A2330F
:10362000A133A0339F33A83FF9D715D01F0EA8654B
:103630000FD0000E9F6F000EA06F000EA16F000E46
:10364000A26F1200D8909F37A037A137A237A807E2
:10365000A851D8A4F7D7A751D8B408D0A21FA11F4A
:10366000A01F9F6D000EA023A123A2239FC09FF047
:10367000A0C0A0F0A1C0A1F0A2C0A2F0120022EE52
:1036800000F010EE8EF0270EDBCFE3FFE806FCE241
:10369000000E0001B76F000EB66FB7BF06D0B7516E
:1036A00051E1040EB65DD8B01200000EB96F000EE5
:1036B000B86FB9BF06D0B9513BE1050EB85DD8B0BF
:1036C00037D0FC0E756FFF0E766F000E786F230EED
:1036D000776F39EC93F0F80E0001756FFF0E766F7F
:1036E000B6C060F0B7C061F0000E636F0A0E626F83
:1036F000EDECA8F08E0E00018C6F000E8D6F605106
:103700008C2761518D23D890B835D96EB935DA6ED2
:103710008C51D9268D51DA22DECF77F0DDCF78F0CB
:1037200039EC93F08FEC8EF00001B84BB92BC1D778
:10373000D00E756FFF0E766F39EC93F00001B64B2B
:10374000B72BABD712006CC074F06DC075F0000ED3
:103750000001736F000E726F6EC070F06FC071F079
:1037600074517511D8A430D070C0D9FF71C0DAFF80
:10377000300EDF6E000E736F010E726F39D074C0A1
:1037800067F075C068F0000E6A6F0A0E696FABECE7
:10379000A6F000016751300F70C0D9FF71C0DAFF89
:1037A000DF6E74C060F075C061F0000E636F0A0ECA
:1037B000626F07ECA5F060C074F061C075F00001A5
:1037C000724B732B704B712B74517511D8B406D09A
:1037D000735104E1060E725DD8A0D1D76EC060F0BF
:1037E0006FC061F072C062F073C063F0DDECA4F0F2
:1037F000000172516E25D96E73516F21DA6E000E81
:10380000DF6E1200080E00016F256C6F000E702134
:103810006D6F71C06EF047ECA8F00001736F3DD082
:10382000010E721720EE02F06F51D9267051DA2284
:10383000DECF60F0DDCF61F071C062F072C063F086
:1038400031ECA5F01200010E00017217010E721B7F
:1038500020EE02F06F51D9267051DA22DECF60F0EF
:10386000DDCF61F071C062F072C063F031ECA5F0A1
:103870001200010E0001721720EE04F06F51D926DC
:103880007051DA22DECF60F0DDCF61F071C062F0FE
:1038900072C063F031ECA5F0120000017351000A10
:1038A000D8B41200010AD8B4BBD7030AD8B4CBD716
:1038B000010AD8A41200DDD700019B519C11D8B495
:1038C00012009F51A011A111D8B41200A251A3114E
:1038D000A411D8B41200A551A611A711D8B4120092
:1038E0009D519E11D8A404D0000E9E6F010E9D6FB5
:1038F0009BC0D9FF9CC0DAFF000EDF6E20EE01F006
:103900009B51D9269C51DA22000EDF6E20EE02F088
:103910009B51D9269C51DA229DC0DEFF9EC0DDFF5F
:1039200020EE04F09B51D9269C51DA22A5C0DEFF7F
:10393000A6C0DEFFA7C0DEFF20EE07F09B51D92610
:103940009C51DA22A2C0DEFFA3C0DEFFA4C0DEFFCE
:1039500001D812000500FA6E9F51FD6EA051FE6E57
:10396000A151FF6EFA501200080E10240D6E000EC9
:1039700011200E6E12C00FF0A8ECA8F0146E3BD010
:10398000010E131620EE02F01050D9261150DA2243
:10399000DECF01F0DDCF02F012C003F013C004F05F
:1039A000D2ECA5F01200010E1316010E131A20EE30
:1039B00002F01050D9261150DA22DECF01F0DDCF0F
:1039C00002F012C003F013C004F0D2ECA5F0120014
:1039D000010E131620EE04F01050D9261150DA22F1
:1039E000DECF01F0DDCF02F012C003F013C004F00F
:1039F000D2ECA5F012001450000AD8B41200010A4B
:103A0000D8B4BED7030AD8B4CED7010AD8A41200BE
:103A1000DFD700016B6F200E00016B5F6B51050D4E
:103A2000F3CF69F0F4CF6AF0A30E69256C6FFC0E3A
:103A30006A216D6F000E706F040E706501D037D073
:103A4000000E716F060E716501D02DD06CC060F054
:103A50006DC061F071C062F0D7ECA8F00009D8A485
:103A600005D0ECC06EF0EDC06FF004D0F7C16EF081
:103A7000F8C16FF0000171510A0D820E676F020EDE
:103A8000686FF3506727F45068237051020DF350AC
:103A90006725D96EF4506821DA6E6EC0DEFF6FC004
:103AA000DDFF712BCFD76C4B6D2B702BC5D7820EE2
:103AB000656F020E666F1200380EF66E540EF76ECA
:103AC000010EF86E01EEE5F010EE14F00900F5CFEE
:103AD000EEFFE550E150FAE1A20EF66E550EF76EDC
:103AE000010EF86E0900F5CFF5F0FC0EF66E540EDF
:103AF000F76E010EF86E00EE43F010EE0EF00900C6
:103B0000F5CFEEFFE550E150FAE103EE18F011EECB
:103B10002CF0EE6AE550E150FCE1E250FAE102EEF1
:103B200000F0FB0EEE6AE806FDE101EE00F0E50EA6
:103B3000EE6AE806FDE100EEDFF0160EEE6AE8063A
:103B4000FDE100EE29F01A0EEE6AE806FDE1519063
:103B50005192000139EF90F0000160516111621142
:103B60006311D8A411D064C0D9FF65C0DAFF000E7C
:103B7000DE6E000EDD6E000E606F000E616F000ED7
:103B8000626F000E636F120063517F0B666F676B8D
:103B9000D8906637673764C0D9FF65C0DAFF66C062
:103BA000DEFF67C0DDFF62AF03D0666B662B02D01D
:103BB0000001666B665164C0D9FF65C0DAFFDE1292
:103BC000000EDD1264C0D9FF65C0DAFF820EDE266A
:103BD000FF0EDD2263816383638563876389638B63
:103BE000639D629F60C060F061C061F062C062F07E
:103BF00063C063F01200000E0001656F000E646F79
:103C00002ED04B0E6425D96E010E6521DA6E61C08F
:103C1000E1FF62C0E2FFE75038EC89F0DF6E4B0E47
:103C200000016425D96E010E6521DA6E800EDE1862
:103C3000D8A40BD06407D8A065074B0E6425D96EB5
:103C4000010E6521DA6E000EDB8E614B622B644B38
:103C5000652B655116E1060E645DD8B012D061C0C7
:103C6000D9FF62C0DAFFDF50D8B40BD0CAD74B0EF1
:103C70006425D96E010E6521DA6E000EDF6E644B8D
:103C8000652B655105E1060E645DD8B01200EFD7D3
:103C900012000001686F020E00016527020E6727FF
:103CA000030E6827030E6627000E636F2A0E5FEC73
:103CB000A9F0010E0001636F000E5FECA9F0010E88
:103CC0000001636F68515FECA9F0010E0001636FA2
:103CD000000E5FECA9F0010E0001636F66515FEC0E
:103CE000A9F0000E0001636F2B0E5FECA9F0010E2E
:103CF0000001636F000E5FECA9F0010E0001636F1D
:103D000065515FECA9F0010E0001636F000E5FECDE
:103D1000A9F0010E0001636F67515FECA9F0000E7E
:103D20000001636F2C0E5FECA9F01200000E000181
:103D30006E6FFA0E4324606FFF0E4420616F000E19
:103D4000636F060E626F3CECA0F0000160516F6F74
:103D50006FC060F0616B000E636F040E626F3CEC2D
:103D6000A0F0000160516D6F000E6E6F06D060EC28
:103D7000A8F089ECA4F000016E2B6D51040DF31E28
:103D8000F41EF34AF42A6F51686F696BF350682789
:103D9000F4506923681F691F684B692B040E68275C
:103DA000000E69236E516A6F6B6B68516A5D6B51CF
:103DB000800A6C6F6951800A6C59D8B01200D7D74D
:103DC0000001656F000E0001666F000E636F360E16
:103DD0005FECA9F000016551030B666F2BD0010E5B
:103DE000636FC80E5FECA9F0800E506E800E4F6EB0
:103DF0001200010E0001636FA80E5FECA9F0800EA7
:103E0000506E800E4F6E1200010E0001636F080E9F
:103E10005FECA9F0800E506E800E4F6E1200010E06
:103E20000001636F680E5FECA9F0800E506E800E8B
:103E30004F6E120000016651000AD8B4D0D7010AB3
:103E4000D8B4D7D7030AD8B4DFD7010AD8A4120050
:103E5000E6D700016451010D930EF324F66EFC0EBB
:103E6000F420F76EF86A000EF8220800F5CF6AF029
:103E7000000E696F03D06251635F692B6251635D0D
:103E8000D8B0F9D764516303F350636F6951632766
:103E90006A51651763C066F06AC067F0662B02D08E
:103EA000D8906737662FFCD700016751FF0A686F0B
:103EB00060C0D9FF61C0DAFF6851DF1663C066F0E9
:103EC00065C067F0662B02D0D8906737662FFCD7A5
:103ED00060C0D9FF61C0DAFF00016751DF12120034
:103EE0000001626F29D0920E0001606F0F0E616FAA
:103EF0001200930E606F0F0E616F1200940E606FD0
:103F00000F0E616F1200950E606F0F0E616F120041
:103F1000960E606F0F0E616F1200970E606F0F0E9E
:103F2000616F1200980E606F0F0E616F1200000E2D
:103F3000606F000E616F120000016251000AD8B478
:103F4000D2D7010AD8B4D5D7030AD8B4D7D7010A33
:103F5000D8B4D9D7070AD8B4DBD7010AD8B4DDD78B
:103F6000030AD8B4DFD7E3D70001626F29D0DB0E94
:103F70000001606FFE0E616F1200D90E606FFE0EC1
:103F8000616F1200D70E606FFE0E616F1200D50ECA
:103F9000606FFE0E616F1200D30E606FFE0E616FD8
:103FA0001200D10E606FFE0E616F1200CF0E606FB7
:103FB000FE0E616F1200000E606F000E616F120046
:103FC00000016251000AD8B4D2D7010AD8B4D5D7BB
:103FD000030AD8B4D7D7010AD8B4D9D7070AD8B4B6
:103FE000DBD7010AD8B4DDD7030AD8B4DFD7E3D7CB
:103FF0000001626F29D0800E0001606F0F0E616FAB
:104000001200810E606F0F0E616F1200820E606FE2
:104010000F0E616F1200830E606F0F0E616F120042
:10402000840E606F0F0E616F1200850E606F0F0EB1
:10403000616F1200860E606F0F0E616F1200000E2E
:10404000606F000E616F120000016251000AD8B467
:10405000D2D7010AD8B4D5D7030AD8B4D7D7010A22
:10406000D8B4D9D7070AD8B4DBD7010AD8B4DDD77A
:10407000030AD8B4DFD7E3D7000E0001656F63AF42
:1040800006D0626D631FD8B0632B010E656F61AF00
:1040900006D0606D611FD8B0612B010E651B000E4C
:1040A000676F000E666F62516311D8B41CD0010EA9
:1040B000646F04D0D89062376337642B63AFFAD74C
:1040C000D890663767376251605D63516159D8A0F7
:1040D00005D06251605F6351615B6681D890633344
:1040E0006233642FEDD76551D8B404D0666D671F75
:1040F000D8B0672B66C060F067C061F01200000E98
:104100000001686F000E696F000E6A6F000E6B6F22
:104110006451651166116711D8B42AD0010E6C6F15
:1041200006D0D89064376537663767376C2B67AF32
:10413000F8D7D890683769376A376B376451605D54
:10414000655161596651625967516359D8A009D0C8
:104150006451605F6551615B6651625B6751635B8F
:104160006881D89067336633653364336C2FE1D749
:1041700068C060F069C061F06AC062F06BC063F053
:104180001200000E0001826F74517825806F765105
:104190007A25816F7AC060F07BC061F078C062F0F0
:1041A00079C063F0EDECA8F060C07EF061C07FF0F4
:1041B00076C065F000018005666F8105676F7451F8
:1041C00049EC9EF0000E0001826F10D08251020D6A
:1041D000F3507225D96EF4507321DA6EDECF65F09C
:1041E000DDCF66F0BAECA9F00001822B82517C6F22
:1041F0007D6B7E517C5D7F517D59D8B01200E6D732
:104200002DD00001F251140D180E606F030E616F76
:10421000F3506027F4506123F351010DF3506025F2
:10422000D96EF4506121DA6EDF50D8B416D0010E89
:10423000F56FF251140D180E606F030E616FF3509D
:104240006027F4506123F351010DF3506025D96EBE
:10425000F4506121DA6E800EDF6EF32B130E000135
:10426000F365CFD7000EF36FF22B080E4526000E34
:104270004622000E446E060E436E12000001666F69
:104280009C0EF66EFC0EF76E000EF86E0900F5CF70
:1042900062F00900F5CF63F00900F5CF64F00A0081
:1042A000F5CF65F0110E0001676F030E66176651BA
:1042B000010D620EF324D96E000EF420DA6EDF5089
:1042C000606F67C061F0602B02D0D8906137602FBB
:1042D000FCD700016151676F67390F0B676F67513A
:1042E0000F0B676F0101515100016719F00B67193E
:1042F0000101516F120060C0F6FF61C0F7FF000EB0
:10430000F86E0F0EF76403D00800F55005D0F6CF15
:10431000E9FFF7CFEAFFEF500001686F6451010D2C
:10432000930EF324F66EFC0EF420F76EF86A000E7E
:10433000F8220800F5CF66F0000E676F03D06251D7
:10434000635F672B6251635DD8B0F9D76451630333
:10435000F350636F675163276329656F02D0D8906C
:104360006833652FFCD70001665168176851120049
:10437000DD0E00019B6F020E9C6F000E9E6F020E01
:104380009D6F200E9F6F540EA06F010EA16FC40E83
:10439000A26F540EA36F010EA46F5A0EA56F500E9C
:1043A000A66F010EA76F5CEC9CF0D30E00019B6F13
:1043B000020E9C6F000E9E6F020E9D6F080E9F6F87
:1043C000540EA06F010EA16F4C0EA26F540EA36F7E
:1043D000010EA46F520EA56F520EA66F010EA76FAD
:1043E0005CEC9CF0120001C0F6FF02C0F7FF000E6B
:1043F000F86E0F0EF76403D00800F55005D0F6CF25
:10440000E9FFF7CFEAFFEF50096E0550010D930E5B
:10441000F324F66EFC0EF420F76EF86A000EF82214
:104420000800F5CF07F0000E086E03D00350045EBD
:10443000082A0350045CD8B0F9D705500402F350A1
:10444000046E085004260428066E02D0D890093263
:10445000062EFCD707500916095012000001666F9E
:10446000090E00016361120066C03BF0000E396E58
:10447000070E396401D01FD03BC064F0010E00016B
:104480006417060E656FD8906437652FFCD76451AA
:104490003A6E6339E842F80B39103A10676FD890DA
:1044A0003B32C80E606F020E616F67C062F09BEC1A
:1044B000A2F0392ADDD7C80E0001606F020E616FCD
:1044C000000E626F9BECA2F01200000E0001F36F71
:1044D000000EF26F000E636F0E0E636501D020D0E8
:1044E000000E626F130E626501D018D0010EF56FD9
:1044F0006351140D180E606F030E616FF350602747
:10450000F45061236251010DF3506025D96EF450CF
:104510006121DA6E800EDF6E622BE4D7632BDCD76D
:10452000010EF46F000E446E060E436E000E466ED2
:10453000060E456E120026D0B2C1D9FFB3C1DAFF14
:104540000101DF9462C0C9FFC7A0FED7C9CF62F0E6
:10455000B2C1D9FFB3C1DAFF0101DF8412009EC1ED
:10456000D9FF9FC1DAFF0101DF9E62C06FFF6DA01E
:10457000FED76FCF62F09EC1D9FF9FC1DAFF010164
:10458000DF8E1200000120EE02F06051D926615149
:10459000DA22DF50000AD8B4CFD7010AD8A412001B
:1045A000DED7000E0001F36F000EF26F000E626F97
:1045B000130E626501D01200000E636F0E0E63656C
:1045C00001D022D06351140D180E606F030E616F7D
:1045D000F3506027F45061236251010DF3506025C0
:1045E000D96EF4506121DA6E000EDF6E6351020D58
:1045F000500EF324D96E020EF420DA6EFF0EDE6E3A
:10460000FF0EDD6E632BDAD7622BD2D7000120EECE
:1046100006F06F51D9267051DA22DECF60F0DDCF7F
:1046200061F0050E626F000E636F31ECA5F00001C2
:1046300020EE06F06F51D9267051DA22DECF6BF0F2
:10464000DDCF6CF0000E6D6F000E6E6F7FECA9F089
:10465000000120EE06F06F51D9267051DA22DECF2C
:1046600060F0DDCF61F0050E626F010E636F31EC1B
:10467000A5F01200000120EE06F06F51D92670510E
:10468000DA22DECF60F0DDCF61F0050E626F000E42
:10469000636F31ECA5F0000120EE06F06F51D926D2
:1046A0007051DA22DECF6BF0DDCF6CF0000E6D6F53
:1046B000020E6E6F7FECA9F0000120EE06F06F5144
:1046C000D9267051DA22DECF60F0DDCF61F0050E21
:1046D000626F010E636F31ECA5F01200790EF66E79
:1046E000FC0EF76E000EF86E20EE75F00F0E09004E
:1046F000F5CFDEFFE806FBE26FC06CF070C06DF036
:1047000072C06EF047ECA8F00001856F040E716175
:1047100017D0040E856114D07151040D750E736F9E
:10472000000E746FF3507327F45074238551010DFC
:10473000F3507325D96EF4507421DA6EDF501200F5
:10474000050E1200FC0E966E7B0E00017B6F010EB3
:104750007C6F010E7D6F24EC97F05D0E00017B6F86
:10476000010E7C6F010E7D6F24EC97F0530E00015B
:104770007B6F010E7C6F010E7D6F24EC97F0670E4E
:1047800000017B6F010E7C6F010E7D6F24EC97F0B2
:10479000710E00017B6F010E7C6F010E7D6F24ECAA
:1047A00097F01200050E00018C6F86C0D9FF87C0FC
:1047B000DAFFDECF8DF0DDCF8EF08851020DF3CF22
:1047C0008AF08851020DF3288B6F8DC06FF08EC078
:1047D00070F089C071F08AC072F06EECA3F0000135
:1047E0008C6F8C51D8A40CD08DC06FF08EC070F03F
:1047F00089C071F08BC072F06EECA3F000018C6F79
:104800008C511200B80E0001866F010E876F070EE3
